{
	"test.sol": {
		"paperstone": {
			"abi": [
				{
					"constant": false,
					"inputs": [],
					"name": "bet",
					"outputs": [],
					"payable": true,
					"stateMutability": "payable",
					"type": "function"
				},
				{
					"constant": true,
					"inputs": [],
					"name": "round",
					"outputs": [
						{
							"name": "",
							"type": "uint256"
						}
					],
					"payable": false,
					"stateMutability": "view",
					"type": "function"
				},
				{
					"constant": true,
					"inputs": [
						{
							"name": "",
							"type": "uint256"
						}
					],
					"name": "result",
					"outputs": [
						{
							"name": "",
							"type": "string"
						}
					],
					"payable": false,
					"stateMutability": "view",
					"type": "function"
				},
				{
					"constant": true,
					"inputs": [],
					"name": "money",
					"outputs": [
						{
							"name": "",
							"type": "uint256"
						}
					],
					"payable": false,
					"stateMutability": "view",
					"type": "function"
				},
				{
					"constant": false,
					"inputs": [
						{
							"name": "choose",
							"type": "uint256"
						}
					],
					"name": "play",
					"outputs": [],
					"payable": false,
					"stateMutability": "nonpayable",
					"type": "function"
				},
				{
					"constant": true,
					"inputs": [
						{
							"name": "",
							"type": "uint256"
						}
					],
					"name": "item",
					"outputs": [
						{
							"name": "",
							"type": "uint256"
						}
					],
					"payable": false,
					"stateMutability": "view",
					"type": "function"
				},
				{
					"constant": true,
					"inputs": [
						{
							"name": "",
							"type": "uint256"
						}
					],
					"name": "player",
					"outputs": [
						{
							"name": "",
							"type": "address"
						}
					],
					"payable": false,
					"stateMutability": "view",
					"type": "function"
				},
				{
					"inputs": [],
					"payable": true,
					"stateMutability": "payable",
					"type": "constructor"
				}
			],
			"devdoc": {
				"methods": {}
			},
			"evm": {
				"assembly": "    /* \"test.sol\":857:1916  contract paperstone {... */\n  mstore(0x40, 0x80)\n    /* \"test.sol\":927:928  0 */\n  0x0\n    /* \"test.sol\":909:928  uint public money=0 */\n  dup1\n  sstore\n    /* \"test.sol\":979:980  0 */\n  0x0\n    /* \"test.sol\":961:980  uint public round=0 */\n  0x1\n  sstore\n    /* \"test.sol\":857:1916  contract paperstone {... */\n  dataSize(sub_0)\n  dup1\n  dataOffset(sub_0)\n  0x0\n  codecopy\n  0x0\n  return\nstop\n\nsub_0: assembly {\n        /* \"test.sol\":857:1916  contract paperstone {... */\n      mstore(0x40, 0x80)\n      jumpi(tag_1, lt(calldatasize, 0x4))\n      calldataload(0x0)\n      0x100000000000000000000000000000000000000000000000000000000\n      swap1\n      div\n      0xffffffff\n      and\n      dup1\n      0x11610c25\n      eq\n      tag_2\n      jumpi\n      dup1\n      0x146ca531\n      eq\n      tag_3\n      jumpi\n      dup1\n      0x3c594059\n      eq\n      tag_4\n      jumpi\n      dup1\n      0x4ddd108a\n      eq\n      tag_5\n      jumpi\n      dup1\n      0x6898f82b\n      eq\n      tag_6\n      jumpi\n      dup1\n      0x898e6219\n      eq\n      tag_7\n      jumpi\n      dup1\n      0x9e0551c6\n      eq\n      tag_8\n      jumpi\n    tag_1:\n      0x0\n      dup1\n      revert\n        /* \"test.sol\":1299:1429  function bet() public payable betcheck{... */\n    tag_2:\n      tag_9\n      jump(tag_10)\n    tag_9:\n      stop\n        /* \"test.sol\":961:980  uint public round=0 */\n    tag_3:\n      callvalue\n        /* \"--CODEGEN--\":8:17   */\n      dup1\n        /* \"--CODEGEN--\":5:7   */\n      iszero\n      tag_11\n      jumpi\n        /* \"--CODEGEN--\":30:31   */\n      0x0\n        /* \"--CODEGEN--\":27:28   */\n      dup1\n        /* \"--CODEGEN--\":20:32   */\n      revert\n        /* \"--CODEGEN--\":5:7   */\n    tag_11:\n        /* \"test.sol\":961:980  uint public round=0 */\n      pop\n      tag_12\n      jump(tag_13)\n    tag_12:\n      mload(0x40)\n      dup1\n      dup3\n      dup2\n      mstore\n      0x20\n      add\n      swap2\n      pop\n      pop\n      mload(0x40)\n      dup1\n      swap2\n      sub\n      swap1\n      return\n        /* \"test.sol\":1118:1154  mapping(uint => string)public result */\n    tag_4:\n      callvalue\n        /* \"--CODEGEN--\":8:17   */\n      dup1\n        /* \"--CODEGEN--\":5:7   */\n      iszero\n      tag_14\n      jumpi\n        /* \"--CODEGEN--\":30:31   */\n      0x0\n        /* \"--CODEGEN--\":27:28   */\n      dup1\n        /* \"--CODEGEN--\":20:32   */\n      revert\n        /* \"--CODEGEN--\":5:7   */\n    tag_14:\n        /* \"test.sol\":1118:1154  mapping(uint => string)public result */\n      pop\n      tag_15\n      0x4\n      dup1\n      calldatasize\n      sub\n      dup2\n      add\n      swap1\n      dup1\n      dup1\n      calldataload\n      swap1\n      0x20\n      add\n      swap1\n      swap3\n      swap2\n      swap1\n      pop\n      pop\n      pop\n      jump(tag_16)\n    tag_15:\n      mload(0x40)\n      dup1\n      dup1\n      0x20\n      add\n      dup3\n      dup2\n      sub\n      dup3\n      mstore\n      dup4\n      dup2\n      dup2\n      mload\n      dup2\n      mstore\n      0x20\n      add\n      swap2\n      pop\n      dup1\n      mload\n      swap1\n      0x20\n      add\n      swap1\n      dup1\n      dup4\n      dup4\n        /* \"--CODEGEN--\":23:24   */\n      0x0\n        /* \"--CODEGEN--\":8:108   */\n    tag_17:\n        /* \"--CODEGEN--\":33:36   */\n      dup4\n        /* \"--CODEGEN--\":30:31   */\n      dup2\n        /* \"--CODEGEN--\":27:37   */\n      lt\n        /* \"--CODEGEN--\":8:108   */\n      iszero\n      tag_18\n      jumpi\n        /* \"--CODEGEN--\":99:100   */\n      dup1\n        /* \"--CODEGEN--\":94:97   */\n      dup3\n        /* \"--CODEGEN--\":90:101   */\n      add\n        /* \"--CODEGEN--\":84:102   */\n      mload\n        /* \"--CODEGEN--\":80:81   */\n      dup2\n        /* \"--CODEGEN--\":75:78   */\n      dup5\n        /* \"--CODEGEN--\":71:82   */\n      add\n        /* \"--CODEGEN--\":64:103   */\n      mstore\n        /* \"--CODEGEN--\":52:54   */\n      0x20\n        /* \"--CODEGEN--\":49:50   */\n      dup2\n        /* \"--CODEGEN--\":45:55   */\n      add\n        /* \"--CODEGEN--\":40:55   */\n      swap1\n      pop\n        /* \"--CODEGEN--\":8:108   */\n      jump(tag_17)\n    tag_18:\n        /* \"--CODEGEN--\":12:26   */\n      pop\n        /* \"test.sol\":1118:1154  mapping(uint => string)public result */\n      pop\n      pop\n      pop\n      swap1\n      pop\n      swap1\n      dup2\n      add\n      swap1\n      0x1f\n      and\n      dup1\n      iszero\n      tag_20\n      jumpi\n      dup1\n      dup3\n      sub\n      dup1\n      mload\n      0x1\n      dup4\n      0x20\n      sub\n      0x100\n      exp\n      sub\n      not\n      and\n      dup2\n      mstore\n      0x20\n      add\n      swap2\n      pop\n    tag_20:\n      pop\n      swap3\n      pop\n      pop\n      pop\n      mload(0x40)\n      dup1\n      swap2\n      sub\n      swap1\n      return\n        /* \"test.sol\":909:928  uint public money=0 */\n    tag_5:\n      callvalue\n        /* \"--CODEGEN--\":8:17   */\n      dup1\n        /* \"--CODEGEN--\":5:7   */\n      iszero\n      tag_21\n      jumpi\n        /* \"--CODEGEN--\":30:31   */\n      0x0\n        /* \"--CODEGEN--\":27:28   */\n      dup1\n        /* \"--CODEGEN--\":20:32   */\n      revert\n        /* \"--CODEGEN--\":5:7   */\n    tag_21:\n        /* \"test.sol\":909:928  uint public money=0 */\n      pop\n      tag_22\n      jump(tag_23)\n    tag_22:\n      mload(0x40)\n      dup1\n      dup3\n      dup2\n      mstore\n      0x20\n      add\n      swap2\n      pop\n      pop\n      mload(0x40)\n      dup1\n      swap2\n      sub\n      swap1\n      return\n        /* \"test.sol\":1433:1913  function play(uint choose)public betcheck{... */\n    tag_6:\n      callvalue\n        /* \"--CODEGEN--\":8:17   */\n      dup1\n        /* \"--CODEGEN--\":5:7   */\n      iszero\n      tag_24\n      jumpi\n        /* \"--CODEGEN--\":30:31   */\n      0x0\n        /* \"--CODEGEN--\":27:28   */\n      dup1\n        /* \"--CODEGEN--\":20:32   */\n      revert\n        /* \"--CODEGEN--\":5:7   */\n    tag_24:\n        /* \"test.sol\":1433:1913  function play(uint choose)public betcheck{... */\n      pop\n      tag_25\n      0x4\n      dup1\n      calldatasize\n      sub\n      dup2\n      add\n      swap1\n      dup1\n      dup1\n      calldataload\n      swap1\n      0x20\n      add\n      swap1\n      swap3\n      swap2\n      swap1\n      pop\n      pop\n      pop\n      jump(tag_26)\n    tag_25:\n      stop\n        /* \"test.sol\":1084:1116  mapping(uint => uint)public item */\n    tag_7:\n      callvalue\n        /* \"--CODEGEN--\":8:17   */\n      dup1\n        /* \"--CODEGEN--\":5:7   */\n      iszero\n      tag_27\n      jumpi\n        /* \"--CODEGEN--\":30:31   */\n      0x0\n        /* \"--CODEGEN--\":27:28   */\n      dup1\n        /* \"--CODEGEN--\":20:32   */\n      revert\n        /* \"--CODEGEN--\":5:7   */\n    tag_27:\n        /* \"test.sol\":1084:1116  mapping(uint => uint)public item */\n      pop\n      tag_28\n      0x4\n      dup1\n      calldatasize\n      sub\n      dup2\n      add\n      swap1\n      dup1\n      dup1\n      calldataload\n      swap1\n      0x20\n      add\n      swap1\n      swap3\n      swap2\n      swap1\n      pop\n      pop\n      pop\n      jump(tag_29)\n    tag_28:\n      mload(0x40)\n      dup1\n      dup3\n      dup2\n      mstore\n      0x20\n      add\n      swap2\n      pop\n      pop\n      mload(0x40)\n      dup1\n      swap2\n      sub\n      swap1\n      return\n        /* \"test.sol\":1045:1082  mapping(uint => address)public player */\n    tag_8:\n      callvalue\n        /* \"--CODEGEN--\":8:17   */\n      dup1\n        /* \"--CODEGEN--\":5:7   */\n      iszero\n      tag_30\n      jumpi\n        /* \"--CODEGEN--\":30:31   */\n      0x0\n        /* \"--CODEGEN--\":27:28   */\n      dup1\n        /* \"--CODEGEN--\":20:32   */\n      revert\n        /* \"--CODEGEN--\":5:7   */\n    tag_30:\n        /* \"test.sol\":1045:1082  mapping(uint => address)public player */\n      pop\n      tag_31\n      0x4\n      dup1\n      calldatasize\n      sub\n      dup2\n      add\n      swap1\n      dup1\n      dup1\n      calldataload\n      swap1\n      0x20\n      add\n      swap1\n      swap3\n      swap2\n      swap1\n      pop\n      pop\n      pop\n      jump(tag_32)\n    tag_31:\n      mload(0x40)\n      dup1\n      dup3\n      0xffffffffffffffffffffffffffffffffffffffff\n      and\n      0xffffffffffffffffffffffffffffffffffffffff\n      and\n      dup2\n      mstore\n      0x20\n      add\n      swap2\n      pop\n      pop\n      mload(0x40)\n      dup1\n      swap2\n      sub\n      swap1\n      return\n        /* \"test.sol\":1299:1429  function bet() public payable betcheck{... */\n    tag_10:\n        /* \"test.sol\":1230:1231  0 */\n      0x0\n        /* \"test.sol\":1215:1221  player */\n      0x4\n        /* \"test.sol\":1215:1228  player[round] */\n      0x0\n        /* \"test.sol\":1222:1227  round */\n      sload(0x1)\n        /* \"test.sol\":1215:1228  player[round] */\n      dup2\n      mstore\n      0x20\n      add\n      swap1\n      dup2\n      mstore\n      0x20\n      add\n      0x0\n      keccak256\n      0x0\n      swap1\n      sload\n      swap1\n      0x100\n      exp\n      swap1\n      div\n      0xffffffffffffffffffffffffffffffffffffffff\n      and\n        /* \"test.sol\":1215:1231  player[round]!=0 */\n      0xffffffffffffffffffffffffffffffffffffffff\n      and\n      eq\n      iszero\n        /* \"test.sol\":1212:1287  if(player[round]!=0){... */\n      iszero\n      tag_34\n      jumpi\n        /* \"test.sol\":1265:1275  msg.sender */\n      caller\n        /* \"test.sol\":1250:1275  player[round]==msg.sender */\n      0xffffffffffffffffffffffffffffffffffffffff\n      and\n        /* \"test.sol\":1250:1256  player */\n      0x4\n        /* \"test.sol\":1250:1263  player[round] */\n      0x0\n        /* \"test.sol\":1257:1262  round */\n      sload(0x1)\n        /* \"test.sol\":1250:1263  player[round] */\n      dup2\n      mstore\n      0x20\n      add\n      swap1\n      dup2\n      mstore\n      0x20\n      add\n      0x0\n      keccak256\n      0x0\n      swap1\n      sload\n      swap1\n      0x100\n      exp\n      swap1\n      div\n      0xffffffffffffffffffffffffffffffffffffffff\n      and\n        /* \"test.sol\":1250:1275  player[round]==msg.sender */\n      0xffffffffffffffffffffffffffffffffffffffff\n      and\n      eq\n        /* \"test.sol\":1242:1276  require(player[round]==msg.sender) */\n      iszero\n      iszero\n      tag_35\n      jumpi\n      0x0\n      dup1\n      revert\n    tag_35:\n        /* \"test.sol\":1212:1287  if(player[round]!=0){... */\n    tag_34:\n        /* \"test.sol\":950:959  0.1 ether */\n      0x16345785d8a0000\n        /* \"test.sol\":1351:1360  msg.value */\n      callvalue\n        /* \"test.sol\":1351:1367  msg.value==miner */\n      eq\n        /* \"test.sol\":1343:1368  require(msg.value==miner) */\n      iszero\n      iszero\n      tag_37\n      jumpi\n      0x0\n      dup1\n      revert\n    tag_37:\n        /* \"test.sol\":950:959  0.1 ether */\n      0x16345785d8a0000\n        /* \"test.sol\":1382:1387  money */\n      sload(0x0)\n        /* \"test.sol\":1382:1395  money + miner */\n      add\n        /* \"test.sol\":1374:1379  money */\n      0x0\n        /* \"test.sol\":1374:1395  money = money + miner */\n      dup2\n      swap1\n      sstore\n      pop\n        /* \"test.sol\":1415:1425  msg.sender */\n      caller\n        /* \"test.sol\":1401:1407  player */\n      0x4\n        /* \"test.sol\":1401:1414  player[round] */\n      0x0\n        /* \"test.sol\":1408:1413  round */\n      sload(0x1)\n        /* \"test.sol\":1401:1414  player[round] */\n      dup2\n      mstore\n      0x20\n      add\n      swap1\n      dup2\n      mstore\n      0x20\n      add\n      0x0\n      keccak256\n      0x0\n        /* \"test.sol\":1401:1425  player[round]=msg.sender */\n      0x100\n      exp\n      dup2\n      sload\n      dup2\n      0xffffffffffffffffffffffffffffffffffffffff\n      mul\n      not\n      and\n      swap1\n      dup4\n      0xffffffffffffffffffffffffffffffffffffffff\n      and\n      mul\n      or\n      swap1\n      sstore\n      pop\n        /* \"test.sol\":1299:1429  function bet() public payable betcheck{... */\n      jump\t// out\n        /* \"test.sol\":961:980  uint public round=0 */\n    tag_13:\n      sload(0x1)\n      dup2\n      jump\t// out\n        /* \"test.sol\":1118:1154  mapping(uint => string)public result */\n    tag_16:\n      mstore(0x20, 0x6)\n      dup1\n      0x0\n      mstore\n      keccak256(0x0, 0x40)\n      0x0\n      swap2\n      pop\n      swap1\n      pop\n      dup1\n      sload\n      0x1\n      dup2\n      0x1\n      and\n      iszero\n      0x100\n      mul\n      sub\n      and\n      0x2\n      swap1\n      div\n      dup1\n      0x1f\n      add\n      0x20\n      dup1\n      swap2\n      div\n      mul\n      0x20\n      add\n      mload(0x40)\n      swap1\n      dup2\n      add\n      0x40\n      mstore\n      dup1\n      swap3\n      swap2\n      swap1\n      dup2\n      dup2\n      mstore\n      0x20\n      add\n      dup3\n      dup1\n      sload\n      0x1\n      dup2\n      0x1\n      and\n      iszero\n      0x100\n      mul\n      sub\n      and\n      0x2\n      swap1\n      div\n      dup1\n      iszero\n      tag_38\n      jumpi\n      dup1\n      0x1f\n      lt\n      tag_39\n      jumpi\n      0x100\n      dup1\n      dup4\n      sload\n      div\n      mul\n      dup4\n      mstore\n      swap2\n      0x20\n      add\n      swap2\n      jump(tag_38)\n    tag_39:\n      dup3\n      add\n      swap2\n      swap1\n      0x0\n      mstore\n      keccak256(0x0, 0x20)\n      swap1\n    tag_40:\n      dup2\n      sload\n      dup2\n      mstore\n      swap1\n      0x1\n      add\n      swap1\n      0x20\n      add\n      dup1\n      dup4\n      gt\n      tag_40\n      jumpi\n      dup3\n      swap1\n      sub\n      0x1f\n      and\n      dup3\n      add\n      swap2\n    tag_38:\n      pop\n      pop\n      pop\n      pop\n      pop\n      dup2\n      jump\t// out\n        /* \"test.sol\":909:928  uint public money=0 */\n    tag_23:\n      sload(0x0)\n      dup2\n      jump\t// out\n        /* \"test.sol\":1433:1913  function play(uint choose)public betcheck{... */\n    tag_26:\n        /* \"test.sol\":1230:1231  0 */\n      0x0\n        /* \"test.sol\":1215:1221  player */\n      0x4\n        /* \"test.sol\":1215:1228  player[round] */\n      0x0\n        /* \"test.sol\":1222:1227  round */\n      sload(0x1)\n        /* \"test.sol\":1215:1228  player[round] */\n      dup2\n      mstore\n      0x20\n      add\n      swap1\n      dup2\n      mstore\n      0x20\n      add\n      0x0\n      keccak256\n      0x0\n      swap1\n      sload\n      swap1\n      0x100\n      exp\n      swap1\n      div\n      0xffffffffffffffffffffffffffffffffffffffff\n      and\n        /* \"test.sol\":1215:1231  player[round]!=0 */\n      0xffffffffffffffffffffffffffffffffffffffff\n      and\n      eq\n      iszero\n        /* \"test.sol\":1212:1287  if(player[round]!=0){... */\n      iszero\n      tag_42\n      jumpi\n        /* \"test.sol\":1265:1275  msg.sender */\n      caller\n        /* \"test.sol\":1250:1275  player[round]==msg.sender */\n      0xffffffffffffffffffffffffffffffffffffffff\n      and\n        /* \"test.sol\":1250:1256  player */\n      0x4\n        /* \"test.sol\":1250:1263  player[round] */\n      0x0\n        /* \"test.sol\":1257:1262  round */\n      sload(0x1)\n        /* \"test.sol\":1250:1263  player[round] */\n      dup2\n      mstore\n      0x20\n      add\n      swap1\n      dup2\n      mstore\n      0x20\n      add\n      0x0\n      keccak256\n      0x0\n      swap1\n      sload\n      swap1\n      0x100\n      exp\n      swap1\n      div\n      0xffffffffffffffffffffffffffffffffffffffff\n      and\n        /* \"test.sol\":1250:1275  player[round]==msg.sender */\n      0xffffffffffffffffffffffffffffffffffffffff\n      and\n      eq\n        /* \"test.sol\":1242:1276  require(player[round]==msg.sender) */\n      iszero\n      iszero\n      tag_43\n      jumpi\n      0x0\n      dup1\n      revert\n    tag_43:\n        /* \"test.sol\":1212:1287  if(player[round]!=0){... */\n    tag_42:\n        /* \"test.sol\":1494:1495  0 */\n      0x0\n        /* \"test.sol\":1488:1493  money */\n      dup1\n      sload\n        /* \"test.sol\":1488:1495  money>0 */\n      gt\n        /* \"test.sol\":1480:1496  require(money>0) */\n      iszero\n      iszero\n      tag_45\n      jumpi\n      0x0\n      dup1\n      revert\n    tag_45:\n        /* \"test.sol\":1514:1520  choose */\n      dup1\n        /* \"test.sol\":1502:1506  item */\n      0x5\n        /* \"test.sol\":1502:1513  item[round] */\n      0x0\n        /* \"test.sol\":1507:1512  round */\n      sload(0x1)\n        /* \"test.sol\":1502:1513  item[round] */\n      dup2\n      mstore\n      0x20\n      add\n      swap1\n      dup2\n      mstore\n      0x20\n      add\n      0x0\n      keccak256\n        /* \"test.sol\":1502:1520  item[round]=choose */\n      dup2\n      swap1\n      sstore\n      pop\n        /* \"test.sol\":1589:1590  1 */\n      0x1\n        /* \"test.sol\":1587:1588  3 */\n      0x3\n        /* \"test.sol\":1570:1585  block.timestamp */\n      timestamp\n        /* \"test.sol\":1570:1588  block.timestamp %3 */\n      dup2\n      iszero\n      iszero\n      tag_46\n      jumpi\n      invalid\n    tag_46:\n      mod\n        /* \"test.sol\":1570:1590  block.timestamp %3+1 */\n      add\n        /* \"test.sol\":1561:1569  computer */\n      0x3\n        /* \"test.sol\":1561:1590  computer=block.timestamp %3+1 */\n      dup2\n      swap1\n      sstore\n      pop\n        /* \"test.sol\":1607:1615  computer */\n      sload(0x3)\n        /* \"test.sol\":1599:1605  choose */\n      dup2\n        /* \"test.sol\":1599:1615  choose==computer */\n      eq\n        /* \"test.sol\":1596:1885  if(choose==computer)... */\n      iszero\n      tag_47\n      jumpi\n        /* \"test.sol\":1639:1659  result[round]=\"DRAW\" */\n      0x40\n      dup1\n      mload\n      swap1\n      dup2\n      add\n      0x40\n      mstore\n      dup1\n      0x4\n      dup2\n      mstore\n      0x20\n      add\n      0x4452415700000000000000000000000000000000000000000000000000000000\n      dup2\n      mstore\n      pop\n        /* \"test.sol\":1639:1645  result */\n      0x6\n        /* \"test.sol\":1639:1652  result[round] */\n      0x0\n        /* \"test.sol\":1646:1651  round */\n      sload(0x1)\n        /* \"test.sol\":1639:1652  result[round] */\n      dup2\n      mstore\n      0x20\n      add\n      swap1\n      dup2\n      mstore\n      0x20\n      add\n      0x0\n      keccak256\n        /* \"test.sol\":1639:1659  result[round]=\"DRAW\" */\n      swap1\n      dup1\n      mload\n      swap1\n      0x20\n      add\n      swap1\n      tag_48\n      swap3\n      swap2\n      swap1\n      jump\t// in(tag_49)\n    tag_48:\n      pop\n        /* \"test.sol\":1673:1683  msg.sender */\n      caller\n        /* \"test.sol\":1673:1692  msg.sender.transfer */\n      0xffffffffffffffffffffffffffffffffffffffff\n      and\n        /* \"test.sol\":1673:1699  msg.sender.transfer(money) */\n      0x8fc\n        /* \"test.sol\":1693:1698  money */\n      sload(0x0)\n        /* \"test.sol\":1673:1699  msg.sender.transfer(money) */\n      swap1\n      dup2\n      iszero\n      mul\n      swap1\n      mload(0x40)\n      0x0\n      mload(0x40)\n      dup1\n      dup4\n      sub\n      dup2\n      dup6\n      dup9\n      dup9\n      call\n      swap4\n      pop\n      pop\n      pop\n      pop\n      iszero\n        /* \"--CODEGEN--\":8:17   */\n      dup1\n        /* \"--CODEGEN--\":5:7   */\n      iszero\n      tag_50\n      jumpi\n        /* \"--CODEGEN--\":45:61   */\n      returndatasize\n        /* \"--CODEGEN--\":42:43   */\n      0x0\n        /* \"--CODEGEN--\":39:40   */\n      dup1\n        /* \"--CODEGEN--\":24:62   */\n      returndatacopy\n        /* \"--CODEGEN--\":77:93   */\n      returndatasize\n        /* \"--CODEGEN--\":74:75   */\n      0x0\n        /* \"--CODEGEN--\":67:94   */\n      revert\n        /* \"--CODEGEN--\":5:7   */\n    tag_50:\n        /* \"test.sol\":1673:1699  msg.sender.transfer(money) */\n      pop\n        /* \"test.sol\":1596:1885  if(choose==computer)... */\n      jump(tag_51)\n    tag_47:\n        /* \"test.sol\":1730:1738  computer */\n      sload(0x3)\n        /* \"test.sol\":1723:1729  choose */\n      dup2\n        /* \"test.sol\":1723:1738  choose<computer */\n      lt\n        /* \"test.sol\":1723:1764  choose<computer||(computer==1&&choose==2) */\n      dup1\n      tag_52\n      jumpi\n      pop\n        /* \"test.sol\":1751:1752  1 */\n      0x1\n        /* \"test.sol\":1741:1749  computer */\n      sload(0x3)\n        /* \"test.sol\":1741:1752  computer==1 */\n      eq\n        /* \"test.sol\":1741:1763  computer==1&&choose==2 */\n      dup1\n      iszero\n      tag_53\n      jumpi\n      pop\n        /* \"test.sol\":1762:1763  2 */\n      0x2\n        /* \"test.sol\":1754:1760  choose */\n      dup2\n        /* \"test.sol\":1754:1763  choose==2 */\n      eq\n        /* \"test.sol\":1741:1763  computer==1&&choose==2 */\n    tag_53:\n        /* \"test.sol\":1723:1764  choose<computer||(computer==1&&choose==2) */\n    tag_52:\n        /* \"test.sol\":1720:1885  if(choose<computer||(computer==1&&choose==2)){... */\n      iszero\n      tag_54\n      jumpi\n        /* \"test.sol\":1775:1795  result[round]=\"LOSE\" */\n      0x40\n      dup1\n      mload\n      swap1\n      dup2\n      add\n      0x40\n      mstore\n      dup1\n      0x4\n      dup2\n      mstore\n      0x20\n      add\n      0x4c4f534500000000000000000000000000000000000000000000000000000000\n      dup2\n      mstore\n      pop\n        /* \"test.sol\":1775:1781  result */\n      0x6\n        /* \"test.sol\":1775:1788  result[round] */\n      0x0\n        /* \"test.sol\":1782:1787  round */\n      sload(0x1)\n        /* \"test.sol\":1775:1788  result[round] */\n      dup2\n      mstore\n      0x20\n      add\n      swap1\n      dup2\n      mstore\n      0x20\n      add\n      0x0\n      keccak256\n        /* \"test.sol\":1775:1795  result[round]=\"LOSE\" */\n      swap1\n      dup1\n      mload\n      swap1\n      0x20\n      add\n      swap1\n      tag_55\n      swap3\n      swap2\n      swap1\n      jump\t// in(tag_49)\n    tag_55:\n      pop\n        /* \"test.sol\":1720:1885  if(choose<computer||(computer==1&&choose==2)){... */\n      jump(tag_56)\n    tag_54:\n        /* \"test.sol\":1821:1840  result[round]=\"WIN\" */\n      0x40\n      dup1\n      mload\n      swap1\n      dup2\n      add\n      0x40\n      mstore\n      dup1\n      0x3\n      dup2\n      mstore\n      0x20\n      add\n      0x57494e0000000000000000000000000000000000000000000000000000000000\n      dup2\n      mstore\n      pop\n        /* \"test.sol\":1821:1827  result */\n      0x6\n        /* \"test.sol\":1821:1834  result[round] */\n      0x0\n        /* \"test.sol\":1828:1833  round */\n      sload(0x1)\n        /* \"test.sol\":1821:1834  result[round] */\n      dup2\n      mstore\n      0x20\n      add\n      swap1\n      dup2\n      mstore\n      0x20\n      add\n      0x0\n      keccak256\n        /* \"test.sol\":1821:1840  result[round]=\"WIN\" */\n      swap1\n      dup1\n      mload\n      swap1\n      0x20\n      add\n      swap1\n      tag_57\n      swap3\n      swap2\n      swap1\n      jump\t// in(tag_49)\n    tag_57:\n      pop\n        /* \"test.sol\":1850:1860  msg.sender */\n      caller\n        /* \"test.sol\":1850:1869  msg.sender.transfer */\n      0xffffffffffffffffffffffffffffffffffffffff\n      and\n        /* \"test.sol\":1850:1878  msg.sender.transfer(money*2) */\n      0x8fc\n        /* \"test.sol\":1876:1877  2 */\n      0x2\n        /* \"test.sol\":1870:1875  money */\n      sload(0x0)\n        /* \"test.sol\":1870:1877  money*2 */\n      mul\n        /* \"test.sol\":1850:1878  msg.sender.transfer(money*2) */\n      swap1\n      dup2\n      iszero\n      mul\n      swap1\n      mload(0x40)\n      0x0\n      mload(0x40)\n      dup1\n      dup4\n      sub\n      dup2\n      dup6\n      dup9\n      dup9\n      call\n      swap4\n      pop\n      pop\n      pop\n      pop\n      iszero\n        /* \"--CODEGEN--\":8:17   */\n      dup1\n        /* \"--CODEGEN--\":5:7   */\n      iszero\n      tag_58\n      jumpi\n        /* \"--CODEGEN--\":45:61   */\n      returndatasize\n        /* \"--CODEGEN--\":42:43   */\n      0x0\n        /* \"--CODEGEN--\":39:40   */\n      dup1\n        /* \"--CODEGEN--\":24:62   */\n      returndatacopy\n        /* \"--CODEGEN--\":77:93   */\n      returndatasize\n        /* \"--CODEGEN--\":74:75   */\n      0x0\n        /* \"--CODEGEN--\":67:94   */\n      revert\n        /* \"--CODEGEN--\":5:7   */\n    tag_58:\n        /* \"test.sol\":1850:1878  msg.sender.transfer(money*2) */\n      pop\n        /* \"test.sol\":1720:1885  if(choose<computer||(computer==1&&choose==2)){... */\n    tag_56:\n        /* \"test.sol\":1596:1885  if(choose==computer)... */\n    tag_51:\n        /* \"test.sol\":1890:1895  round */\n      0x1\n      0x0\n        /* \"test.sol\":1890:1897  round++ */\n      dup2\n      sload\n      dup1\n      swap3\n      swap2\n      swap1\n      0x1\n      add\n      swap2\n      swap1\n      pop\n      sstore\n      pop\n        /* \"test.sol\":1909:1910  0 */\n      0x0\n        /* \"test.sol\":1903:1908  money */\n      dup1\n        /* \"test.sol\":1903:1910  money=0 */\n      dup2\n      swap1\n      sstore\n      pop\n        /* \"test.sol\":1433:1913  function play(uint choose)public betcheck{... */\n      pop\n      jump\t// out\n        /* \"test.sol\":1084:1116  mapping(uint => uint)public item */\n    tag_29:\n      mstore(0x20, 0x5)\n      dup1\n      0x0\n      mstore\n      keccak256(0x0, 0x40)\n      0x0\n      swap2\n      pop\n      swap1\n      pop\n      sload\n      dup2\n      jump\t// out\n        /* \"test.sol\":1045:1082  mapping(uint => address)public player */\n    tag_32:\n      mstore(0x20, 0x4)\n      dup1\n      0x0\n      mstore\n      keccak256(0x0, 0x40)\n      0x0\n      swap2\n      pop\n      sload\n      swap1\n      0x100\n      exp\n      swap1\n      div\n      0xffffffffffffffffffffffffffffffffffffffff\n      and\n      dup2\n      jump\t// out\n        /* \"test.sol\":857:1916  contract paperstone {... */\n    tag_49:\n      dup3\n      dup1\n      sload\n      0x1\n      dup2\n      0x1\n      and\n      iszero\n      0x100\n      mul\n      sub\n      and\n      0x2\n      swap1\n      div\n      swap1\n      0x0\n      mstore\n      keccak256(0x0, 0x20)\n      swap1\n      0x1f\n      add\n      0x20\n      swap1\n      div\n      dup2\n      add\n      swap3\n      dup3\n      0x1f\n      lt\n      tag_60\n      jumpi\n      dup1\n      mload\n      not(0xff)\n      and\n      dup4\n      dup1\n      add\n      or\n      dup6\n      sstore\n      jump(tag_59)\n    tag_60:\n      dup3\n      dup1\n      add\n      0x1\n      add\n      dup6\n      sstore\n      dup3\n      iszero\n      tag_59\n      jumpi\n      swap2\n      dup3\n      add\n    tag_61:\n      dup3\n      dup2\n      gt\n      iszero\n      tag_62\n      jumpi\n      dup3\n      mload\n      dup3\n      sstore\n      swap2\n      0x20\n      add\n      swap2\n      swap1\n      0x1\n      add\n      swap1\n      jump(tag_61)\n    tag_62:\n    tag_59:\n      pop\n      swap1\n      pop\n      tag_63\n      swap2\n      swap1\n      jump\t// in(tag_64)\n    tag_63:\n      pop\n      swap1\n      jump\t// out\n    tag_64:\n      tag_65\n      swap2\n      swap1\n    tag_66:\n      dup1\n      dup3\n      gt\n      iszero\n      tag_67\n      jumpi\n      0x0\n      dup2\n      0x0\n      swap1\n      sstore\n      pop\n      0x1\n      add\n      jump(tag_66)\n    tag_67:\n      pop\n      swap1\n      jump\n    tag_65:\n      swap1\n      jump\t// out\n\n    auxdata: 0xa165627a7a72305820b57b3cfb5a7c4c1ff6939ff9eff95e849290825c3756ffb79bb886ddb8d61dec0029\n}\n",
				"bytecode": {
					"linkReferences": {},
					"object": "60806040526000805560006001556108918061001c6000396000f300608060405260043610610083576000357c0100000000000000000000000000000000000000000000000000000000900463ffffffff16806311610c2514610088578063146ca531146100925780633c594059146100bd5780634ddd108a146101635780636898f82b1461018e578063898e6219146101bb5780639e0551c6146101fc575b600080fd5b610090610269565b005b34801561009e57600080fd5b506100a76103ad565b6040518082815260200191505060405180910390f35b3480156100c957600080fd5b506100e8600480360381019080803590602001909291905050506103b3565b6040518080602001828103825283818151815260200191508051906020019080838360005b8381101561012857808201518184015260208101905061010d565b50505050905090810190601f1680156101555780820380516001836020036101000a031916815260200191505b509250505060405180910390f35b34801561016f57600080fd5b50610178610463565b6040518082815260200191505060405180910390f35b34801561019a57600080fd5b506101b960048036038101908080359060200190929190505050610469565b005b3480156101c757600080fd5b506101e660048036038101908080359060200190929190505050610775565b6040518082815260200191505060405180910390f35b34801561020857600080fd5b506102276004803603810190808035906020019092919050505061078d565b604051808273ffffffffffffffffffffffffffffffffffffffff1673ffffffffffffffffffffffffffffffffffffffff16815260200191505060405180910390f35b600060046000600154815260200190815260200160002060009054906101000a900473ffffffffffffffffffffffffffffffffffffffff1673ffffffffffffffffffffffffffffffffffffffff1614151561032e573373ffffffffffffffffffffffffffffffffffffffff1660046000600154815260200190815260200160002060009054906101000a900473ffffffffffffffffffffffffffffffffffffffff1673ffffffffffffffffffffffffffffffffffffffff1614151561032d57600080fd5b5b67016345785d8a00003414151561034457600080fd5b67016345785d8a0000600054016000819055503360046000600154815260200190815260200160002060006101000a81548173ffffffffffffffffffffffffffffffffffffffff021916908373ffffffffffffffffffffffffffffffffffffffff160217905550565b60015481565b60066020528060005260406000206000915090508054600181600116156101000203166002900480601f01602080910402602001604051908101604052809291908181526020018280546001816001161561010002031660029004801561045b5780601f106104305761010080835404028352916020019161045b565b820191906000526020600020905b81548152906001019060200180831161043e57829003601f168201915b505050505081565b60005481565b600060046000600154815260200190815260200160002060009054906101000a900473ffffffffffffffffffffffffffffffffffffffff1673ffffffffffffffffffffffffffffffffffffffff1614151561052e573373ffffffffffffffffffffffffffffffffffffffff1660046000600154815260200190815260200160002060009054906101000a900473ffffffffffffffffffffffffffffffffffffffff1673ffffffffffffffffffffffffffffffffffffffff1614151561052d57600080fd5b5b6000805411151561053e57600080fd5b8060056000600154815260200190815260200160002081905550600160034281151561056657fe5b0601600381905550600354811415610625576040805190810160405280600481526020017f445241570000000000000000000000000000000000000000000000000000000081525060066000600154815260200190815260200160002090805190602001906105d69291906107c0565b503373ffffffffffffffffffffffffffffffffffffffff166108fc6000549081150290604051600060405180830381858888f1935050505015801561061f573d6000803e3d6000fd5b50610759565b600354811080610643575060016003541480156106425750600281145b5b156106ac576040805190810160405280600481526020017f4c4f53450000000000000000000000000000000000000000000000000000000081525060066000600154815260200190815260200160002090805190602001906106a69291906107c0565b50610758565b6040805190810160405280600381526020017f57494e0000000000000000000000000000000000000000000000000000000000815250600660006001548152602001908152602001600020908051906020019061070a9291906107c0565b503373ffffffffffffffffffffffffffffffffffffffff166108fc6002600054029081150290604051600060405180830381858888f19350505050158015610756573d6000803e3d6000fd5b505b5b6001600081548092919060010191905055506000808190555050565b60056020528060005260406000206000915090505481565b60046020528060005260406000206000915054906101000a900473ffffffffffffffffffffffffffffffffffffffff1681565b828054600181600116156101000203166002900490600052602060002090601f016020900481019282601f1061080157805160ff191683800117855561082f565b8280016001018555821561082f579182015b8281111561082e578251825591602001919060010190610813565b5b50905061083c9190610840565b5090565b61086291905b8082111561085e576000816000905550600101610846565b5090565b905600a165627a7a72305820b57b3cfb5a7c4c1ff6939ff9eff95e849290825c3756ffb79bb886ddb8d61dec0029",
					"opcodes": "PUSH1 0x80 PUSH1 0x40 MSTORE PUSH1 0x0 DUP1 SSTORE PUSH1 0x0 PUSH1 0x1 SSTORE PUSH2 0x891 DUP1 PUSH2 0x1C PUSH1 0x0 CODECOPY PUSH1 0x0 RETURN STOP PUSH1 0x80 PUSH1 0x40 MSTORE PUSH1 0x4 CALLDATASIZE LT PUSH2 0x83 JUMPI PUSH1 0x0 CALLDATALOAD PUSH29 0x100000000000000000000000000000000000000000000000000000000 SWAP1 DIV PUSH4 0xFFFFFFFF AND DUP1 PUSH4 0x11610C25 EQ PUSH2 0x88 JUMPI DUP1 PUSH4 0x146CA531 EQ PUSH2 0x92 JUMPI DUP1 PUSH4 0x3C594059 EQ PUSH2 0xBD JUMPI DUP1 PUSH4 0x4DDD108A EQ PUSH2 0x163 JUMPI DUP1 PUSH4 0x6898F82B EQ PUSH2 0x18E JUMPI DUP1 PUSH4 0x898E6219 EQ PUSH2 0x1BB JUMPI DUP1 PUSH4 0x9E0551C6 EQ PUSH2 0x1FC JUMPI JUMPDEST PUSH1 0x0 DUP1 REVERT JUMPDEST PUSH2 0x90 PUSH2 0x269 JUMP JUMPDEST STOP JUMPDEST CALLVALUE DUP1 ISZERO PUSH2 0x9E JUMPI PUSH1 0x0 DUP1 REVERT JUMPDEST POP PUSH2 0xA7 PUSH2 0x3AD JUMP JUMPDEST PUSH1 0x40 MLOAD DUP1 DUP3 DUP2 MSTORE PUSH1 0x20 ADD SWAP2 POP POP PUSH1 0x40 MLOAD DUP1 SWAP2 SUB SWAP1 RETURN JUMPDEST CALLVALUE DUP1 ISZERO PUSH2 0xC9 JUMPI PUSH1 0x0 DUP1 REVERT JUMPDEST POP PUSH2 0xE8 PUSH1 0x4 DUP1 CALLDATASIZE SUB DUP2 ADD SWAP1 DUP1 DUP1 CALLDATALOAD SWAP1 PUSH1 0x20 ADD SWAP1 SWAP3 SWAP2 SWAP1 POP POP POP PUSH2 0x3B3 JUMP JUMPDEST PUSH1 0x40 MLOAD DUP1 DUP1 PUSH1 0x20 ADD DUP3 DUP2 SUB DUP3 MSTORE DUP4 DUP2 DUP2 MLOAD DUP2 MSTORE PUSH1 0x20 ADD SWAP2 POP DUP1 MLOAD SWAP1 PUSH1 0x20 ADD SWAP1 DUP1 DUP4 DUP4 PUSH1 0x0 JUMPDEST DUP4 DUP2 LT ISZERO PUSH2 0x128 JUMPI DUP1 DUP3 ADD MLOAD DUP2 DUP5 ADD MSTORE PUSH1 0x20 DUP2 ADD SWAP1 POP PUSH2 0x10D JUMP JUMPDEST POP POP POP POP SWAP1 POP SWAP1 DUP2 ADD SWAP1 PUSH1 0x1F AND DUP1 ISZERO PUSH2 0x155 JUMPI DUP1 DUP3 SUB DUP1 MLOAD PUSH1 0x1 DUP4 PUSH1 0x20 SUB PUSH2 0x100 EXP SUB NOT AND DUP2 MSTORE PUSH1 0x20 ADD SWAP2 POP JUMPDEST POP SWAP3 POP POP POP PUSH1 0x40 MLOAD DUP1 SWAP2 SUB SWAP1 RETURN JUMPDEST CALLVALUE DUP1 ISZERO PUSH2 0x16F JUMPI PUSH1 0x0 DUP1 REVERT JUMPDEST POP PUSH2 0x178 PUSH2 0x463 JUMP JUMPDEST PUSH1 0x40 MLOAD DUP1 DUP3 DUP2 MSTORE PUSH1 0x20 ADD SWAP2 POP POP PUSH1 0x40 MLOAD DUP1 SWAP2 SUB SWAP1 RETURN JUMPDEST CALLVALUE DUP1 ISZERO PUSH2 0x19A JUMPI PUSH1 0x0 DUP1 REVERT JUMPDEST POP PUSH2 0x1B9 PUSH1 0x4 DUP1 CALLDATASIZE SUB DUP2 ADD SWAP1 DUP1 DUP1 CALLDATALOAD SWAP1 PUSH1 0x20 ADD SWAP1 SWAP3 SWAP2 SWAP1 POP POP POP PUSH2 0x469 JUMP JUMPDEST STOP JUMPDEST CALLVALUE DUP1 ISZERO PUSH2 0x1C7 JUMPI PUSH1 0x0 DUP1 REVERT JUMPDEST POP PUSH2 0x1E6 PUSH1 0x4 DUP1 CALLDATASIZE SUB DUP2 ADD SWAP1 DUP1 DUP1 CALLDATALOAD SWAP1 PUSH1 0x20 ADD SWAP1 SWAP3 SWAP2 SWAP1 POP POP POP PUSH2 0x775 JUMP JUMPDEST PUSH1 0x40 MLOAD DUP1 DUP3 DUP2 MSTORE PUSH1 0x20 ADD SWAP2 POP POP PUSH1 0x40 MLOAD DUP1 SWAP2 SUB SWAP1 RETURN JUMPDEST CALLVALUE DUP1 ISZERO PUSH2 0x208 JUMPI PUSH1 0x0 DUP1 REVERT JUMPDEST POP PUSH2 0x227 PUSH1 0x4 DUP1 CALLDATASIZE SUB DUP2 ADD SWAP1 DUP1 DUP1 CALLDATALOAD SWAP1 PUSH1 0x20 ADD SWAP1 SWAP3 SWAP2 SWAP1 POP POP POP PUSH2 0x78D JUMP JUMPDEST PUSH1 0x40 MLOAD DUP1 DUP3 PUSH20 0xFFFFFFFFFFFFFFFFFFFFFFFFFFFFFFFFFFFFFFFF AND PUSH20 0xFFFFFFFFFFFFFFFFFFFFFFFFFFFFFFFFFFFFFFFF AND DUP2 MSTORE PUSH1 0x20 ADD SWAP2 POP POP PUSH1 0x40 MLOAD DUP1 SWAP2 SUB SWAP1 RETURN JUMPDEST PUSH1 0x0 PUSH1 0x4 PUSH1 0x0 PUSH1 0x1 SLOAD DUP2 MSTORE PUSH1 0x20 ADD SWAP1 DUP2 MSTORE PUSH1 0x20 ADD PUSH1 0x0 KECCAK256 PUSH1 0x0 SWAP1 SLOAD SWAP1 PUSH2 0x100 EXP SWAP1 DIV PUSH20 0xFFFFFFFFFFFFFFFFFFFFFFFFFFFFFFFFFFFFFFFF AND PUSH20 0xFFFFFFFFFFFFFFFFFFFFFFFFFFFFFFFFFFFFFFFF AND EQ ISZERO ISZERO PUSH2 0x32E JUMPI CALLER PUSH20 0xFFFFFFFFFFFFFFFFFFFFFFFFFFFFFFFFFFFFFFFF AND PUSH1 0x4 PUSH1 0x0 PUSH1 0x1 SLOAD DUP2 MSTORE PUSH1 0x20 ADD SWAP1 DUP2 MSTORE PUSH1 0x20 ADD PUSH1 0x0 KECCAK256 PUSH1 0x0 SWAP1 SLOAD SWAP1 PUSH2 0x100 EXP SWAP1 DIV PUSH20 0xFFFFFFFFFFFFFFFFFFFFFFFFFFFFFFFFFFFFFFFF AND PUSH20 0xFFFFFFFFFFFFFFFFFFFFFFFFFFFFFFFFFFFFFFFF AND EQ ISZERO ISZERO PUSH2 0x32D JUMPI PUSH1 0x0 DUP1 REVERT JUMPDEST JUMPDEST PUSH8 0x16345785D8A0000 CALLVALUE EQ ISZERO ISZERO PUSH2 0x344 JUMPI PUSH1 0x0 DUP1 REVERT JUMPDEST PUSH8 0x16345785D8A0000 PUSH1 0x0 SLOAD ADD PUSH1 0x0 DUP2 SWAP1 SSTORE POP CALLER PUSH1 0x4 PUSH1 0x0 PUSH1 0x1 SLOAD DUP2 MSTORE PUSH1 0x20 ADD SWAP1 DUP2 MSTORE PUSH1 0x20 ADD PUSH1 0x0 KECCAK256 PUSH1 0x0 PUSH2 0x100 EXP DUP2 SLOAD DUP2 PUSH20 0xFFFFFFFFFFFFFFFFFFFFFFFFFFFFFFFFFFFFFFFF MUL NOT AND SWAP1 DUP4 PUSH20 0xFFFFFFFFFFFFFFFFFFFFFFFFFFFFFFFFFFFFFFFF AND MUL OR SWAP1 SSTORE POP JUMP JUMPDEST PUSH1 0x1 SLOAD DUP2 JUMP JUMPDEST PUSH1 0x6 PUSH1 0x20 MSTORE DUP1 PUSH1 0x0 MSTORE PUSH1 0x40 PUSH1 0x0 KECCAK256 PUSH1 0x0 SWAP2 POP SWAP1 POP DUP1 SLOAD PUSH1 0x1 DUP2 PUSH1 0x1 AND ISZERO PUSH2 0x100 MUL SUB AND PUSH1 0x2 SWAP1 DIV DUP1 PUSH1 0x1F ADD PUSH1 0x20 DUP1 SWAP2 DIV MUL PUSH1 0x20 ADD PUSH1 0x40 MLOAD SWAP1 DUP2 ADD PUSH1 0x40 MSTORE DUP1 SWAP3 SWAP2 SWAP1 DUP2 DUP2 MSTORE PUSH1 0x20 ADD DUP3 DUP1 SLOAD PUSH1 0x1 DUP2 PUSH1 0x1 AND ISZERO PUSH2 0x100 MUL SUB AND PUSH1 0x2 SWAP1 DIV DUP1 ISZERO PUSH2 0x45B JUMPI DUP1 PUSH1 0x1F LT PUSH2 0x430 JUMPI PUSH2 0x100 DUP1 DUP4 SLOAD DIV MUL DUP4 MSTORE SWAP2 PUSH1 0x20 ADD SWAP2 PUSH2 0x45B JUMP JUMPDEST DUP3 ADD SWAP2 SWAP1 PUSH1 0x0 MSTORE PUSH1 0x20 PUSH1 0x0 KECCAK256 SWAP1 JUMPDEST DUP2 SLOAD DUP2 MSTORE SWAP1 PUSH1 0x1 ADD SWAP1 PUSH1 0x20 ADD DUP1 DUP4 GT PUSH2 0x43E JUMPI DUP3 SWAP1 SUB PUSH1 0x1F AND DUP3 ADD SWAP2 JUMPDEST POP POP POP POP POP DUP2 JUMP JUMPDEST PUSH1 0x0 SLOAD DUP2 JUMP JUMPDEST PUSH1 0x0 PUSH1 0x4 PUSH1 0x0 PUSH1 0x1 SLOAD DUP2 MSTORE PUSH1 0x20 ADD SWAP1 DUP2 MSTORE PUSH1 0x20 ADD PUSH1 0x0 KECCAK256 PUSH1 0x0 SWAP1 SLOAD SWAP1 PUSH2 0x100 EXP SWAP1 DIV PUSH20 0xFFFFFFFFFFFFFFFFFFFFFFFFFFFFFFFFFFFFFFFF AND PUSH20 0xFFFFFFFFFFFFFFFFFFFFFFFFFFFFFFFFFFFFFFFF AND EQ ISZERO ISZERO PUSH2 0x52E JUMPI CALLER PUSH20 0xFFFFFFFFFFFFFFFFFFFFFFFFFFFFFFFFFFFFFFFF AND PUSH1 0x4 PUSH1 0x0 PUSH1 0x1 SLOAD DUP2 MSTORE PUSH1 0x20 ADD SWAP1 DUP2 MSTORE PUSH1 0x20 ADD PUSH1 0x0 KECCAK256 PUSH1 0x0 SWAP1 SLOAD SWAP1 PUSH2 0x100 EXP SWAP1 DIV PUSH20 0xFFFFFFFFFFFFFFFFFFFFFFFFFFFFFFFFFFFFFFFF AND PUSH20 0xFFFFFFFFFFFFFFFFFFFFFFFFFFFFFFFFFFFFFFFF AND EQ ISZERO ISZERO PUSH2 0x52D JUMPI PUSH1 0x0 DUP1 REVERT JUMPDEST JUMPDEST PUSH1 0x0 DUP1 SLOAD GT ISZERO ISZERO PUSH2 0x53E JUMPI PUSH1 0x0 DUP1 REVERT JUMPDEST DUP1 PUSH1 0x5 PUSH1 0x0 PUSH1 0x1 SLOAD DUP2 MSTORE PUSH1 0x20 ADD SWAP1 DUP2 MSTORE PUSH1 0x20 ADD PUSH1 0x0 KECCAK256 DUP2 SWAP1 SSTORE POP PUSH1 0x1 PUSH1 0x3 TIMESTAMP DUP2 ISZERO ISZERO PUSH2 0x566 JUMPI INVALID JUMPDEST MOD ADD PUSH1 0x3 DUP2 SWAP1 SSTORE POP PUSH1 0x3 SLOAD DUP2 EQ ISZERO PUSH2 0x625 JUMPI PUSH1 0x40 DUP1 MLOAD SWAP1 DUP2 ADD PUSH1 0x40 MSTORE DUP1 PUSH1 0x4 DUP2 MSTORE PUSH1 0x20 ADD PUSH32 0x4452415700000000000000000000000000000000000000000000000000000000 DUP2 MSTORE POP PUSH1 0x6 PUSH1 0x0 PUSH1 0x1 SLOAD DUP2 MSTORE PUSH1 0x20 ADD SWAP1 DUP2 MSTORE PUSH1 0x20 ADD PUSH1 0x0 KECCAK256 SWAP1 DUP1 MLOAD SWAP1 PUSH1 0x20 ADD SWAP1 PUSH2 0x5D6 SWAP3 SWAP2 SWAP1 PUSH2 0x7C0 JUMP JUMPDEST POP CALLER PUSH20 0xFFFFFFFFFFFFFFFFFFFFFFFFFFFFFFFFFFFFFFFF AND PUSH2 0x8FC PUSH1 0x0 SLOAD SWAP1 DUP2 ISZERO MUL SWAP1 PUSH1 0x40 MLOAD PUSH1 0x0 PUSH1 0x40 MLOAD DUP1 DUP4 SUB DUP2 DUP6 DUP9 DUP9 CALL SWAP4 POP POP POP POP ISZERO DUP1 ISZERO PUSH2 0x61F JUMPI RETURNDATASIZE PUSH1 0x0 DUP1 RETURNDATACOPY RETURNDATASIZE PUSH1 0x0 REVERT JUMPDEST POP PUSH2 0x759 JUMP JUMPDEST PUSH1 0x3 SLOAD DUP2 LT DUP1 PUSH2 0x643 JUMPI POP PUSH1 0x1 PUSH1 0x3 SLOAD EQ DUP1 ISZERO PUSH2 0x642 JUMPI POP PUSH1 0x2 DUP2 EQ JUMPDEST JUMPDEST ISZERO PUSH2 0x6AC JUMPI PUSH1 0x40 DUP1 MLOAD SWAP1 DUP2 ADD PUSH1 0x40 MSTORE DUP1 PUSH1 0x4 DUP2 MSTORE PUSH1 0x20 ADD PUSH32 0x4C4F534500000000000000000000000000000000000000000000000000000000 DUP2 MSTORE POP PUSH1 0x6 PUSH1 0x0 PUSH1 0x1 SLOAD DUP2 MSTORE PUSH1 0x20 ADD SWAP1 DUP2 MSTORE PUSH1 0x20 ADD PUSH1 0x0 KECCAK256 SWAP1 DUP1 MLOAD SWAP1 PUSH1 0x20 ADD SWAP1 PUSH2 0x6A6 SWAP3 SWAP2 SWAP1 PUSH2 0x7C0 JUMP JUMPDEST POP PUSH2 0x758 JUMP JUMPDEST PUSH1 0x40 DUP1 MLOAD SWAP1 DUP2 ADD PUSH1 0x40 MSTORE DUP1 PUSH1 0x3 DUP2 MSTORE PUSH1 0x20 ADD PUSH32 0x57494E0000000000000000000000000000000000000000000000000000000000 DUP2 MSTORE POP PUSH1 0x6 PUSH1 0x0 PUSH1 0x1 SLOAD DUP2 MSTORE PUSH1 0x20 ADD SWAP1 DUP2 MSTORE PUSH1 0x20 ADD PUSH1 0x0 KECCAK256 SWAP1 DUP1 MLOAD SWAP1 PUSH1 0x20 ADD SWAP1 PUSH2 0x70A SWAP3 SWAP2 SWAP1 PUSH2 0x7C0 JUMP JUMPDEST POP CALLER PUSH20 0xFFFFFFFFFFFFFFFFFFFFFFFFFFFFFFFFFFFFFFFF AND PUSH2 0x8FC PUSH1 0x2 PUSH1 0x0 SLOAD MUL SWAP1 DUP2 ISZERO MUL SWAP1 PUSH1 0x40 MLOAD PUSH1 0x0 PUSH1 0x40 MLOAD DUP1 DUP4 SUB DUP2 DUP6 DUP9 DUP9 CALL SWAP4 POP POP POP POP ISZERO DUP1 ISZERO PUSH2 0x756 JUMPI RETURNDATASIZE PUSH1 0x0 DUP1 RETURNDATACOPY RETURNDATASIZE PUSH1 0x0 REVERT JUMPDEST POP JUMPDEST JUMPDEST PUSH1 0x1 PUSH1 0x0 DUP2 SLOAD DUP1 SWAP3 SWAP2 SWAP1 PUSH1 0x1 ADD SWAP2 SWAP1 POP SSTORE POP PUSH1 0x0 DUP1 DUP2 SWAP1 SSTORE POP POP JUMP JUMPDEST PUSH1 0x5 PUSH1 0x20 MSTORE DUP1 PUSH1 0x0 MSTORE PUSH1 0x40 PUSH1 0x0 KECCAK256 PUSH1 0x0 SWAP2 POP SWAP1 POP SLOAD DUP2 JUMP JUMPDEST PUSH1 0x4 PUSH1 0x20 MSTORE DUP1 PUSH1 0x0 MSTORE PUSH1 0x40 PUSH1 0x0 KECCAK256 PUSH1 0x0 SWAP2 POP SLOAD SWAP1 PUSH2 0x100 EXP SWAP1 DIV PUSH20 0xFFFFFFFFFFFFFFFFFFFFFFFFFFFFFFFFFFFFFFFF AND DUP2 JUMP JUMPDEST DUP3 DUP1 SLOAD PUSH1 0x1 DUP2 PUSH1 0x1 AND ISZERO PUSH2 0x100 MUL SUB AND PUSH1 0x2 SWAP1 DIV SWAP1 PUSH1 0x0 MSTORE PUSH1 0x20 PUSH1 0x0 KECCAK256 SWAP1 PUSH1 0x1F ADD PUSH1 0x20 SWAP1 DIV DUP2 ADD SWAP3 DUP3 PUSH1 0x1F LT PUSH2 0x801 JUMPI DUP1 MLOAD PUSH1 0xFF NOT AND DUP4 DUP1 ADD OR DUP6 SSTORE PUSH2 0x82F JUMP JUMPDEST DUP3 DUP1 ADD PUSH1 0x1 ADD DUP6 SSTORE DUP3 ISZERO PUSH2 0x82F JUMPI SWAP2 DUP3 ADD JUMPDEST DUP3 DUP2 GT ISZERO PUSH2 0x82E JUMPI DUP3 MLOAD DUP3 SSTORE SWAP2 PUSH1 0x20 ADD SWAP2 SWAP1 PUSH1 0x1 ADD SWAP1 PUSH2 0x813 JUMP JUMPDEST JUMPDEST POP SWAP1 POP PUSH2 0x83C SWAP2 SWAP1 PUSH2 0x840 JUMP JUMPDEST POP SWAP1 JUMP JUMPDEST PUSH2 0x862 SWAP2 SWAP1 JUMPDEST DUP1 DUP3 GT ISZERO PUSH2 0x85E JUMPI PUSH1 0x0 DUP2 PUSH1 0x0 SWAP1 SSTORE POP PUSH1 0x1 ADD PUSH2 0x846 JUMP JUMPDEST POP SWAP1 JUMP JUMPDEST SWAP1 JUMP STOP LOG1 PUSH6 0x627A7A723058 KECCAK256 0xb5 PUSH28 0x3CFB5A7C4C1FF6939FF9EFF95E849290825C3756FFB79BB886DDB8D6 SAR 0xec STOP 0x29 "
				},
				"gasEstimates": {
					"creation": {
						"codeDepositCost": "438600",
						"executionCost": "10462",
						"totalCost": "449062"
					},
					"external": {
						"bet()": "42004",
						"item(uint256)": "636",
						"money()": "460",
						"play(uint256)": "infinite",
						"player(uint256)": "695",
						"result(uint256)": "infinite",
						"round()": "416"
					}
				},
				"methodIdentifiers": {
					"bet()": "11610c25",
					"item(uint256)": "898e6219",
					"money()": "4ddd108a",
					"play(uint256)": "6898f82b",
					"player(uint256)": "9e0551c6",
					"result(uint256)": "3c594059",
					"round()": "146ca531"
				}
			},
			"userdoc": {
				"methods": {}
			}
		}
	}
}