{
	"38.sol": {
		"animalMain": {
			"abi": [
				{
					"constant": true,
					"inputs": [],
					"name": "name",
					"outputs": [
						{
							"name": "",
							"type": "string"
						}
					],
					"payable": false,
					"stateMutability": "view",
					"type": "function"
				},
				{
					"constant": false,
					"inputs": [
						{
							"name": "_to",
							"type": "address"
						},
						{
							"name": "_tokenId",
							"type": "uint256"
						}
					],
					"name": "approve",
					"outputs": [],
					"payable": false,
					"stateMutability": "nonpayable",
					"type": "function"
				},
				{
					"constant": true,
					"inputs": [
						{
							"name": "_tokenId",
							"type": "uint256"
						}
					],
					"name": "seeAnimalDna",
					"outputs": [
						{
							"name": "dna",
							"type": "bytes32"
						}
					],
					"payable": false,
					"stateMutability": "view",
					"type": "function"
				},
				{
					"constant": true,
					"inputs": [],
					"name": "totalSupply",
					"outputs": [
						{
							"name": "",
							"type": "uint256"
						}
					],
					"payable": false,
					"stateMutability": "view",
					"type": "function"
				},
				{
					"constant": false,
					"inputs": [
						{
							"name": "_from",
							"type": "address"
						},
						{
							"name": "_to",
							"type": "address"
						},
						{
							"name": "_tokenId",
							"type": "uint256"
						}
					],
					"name": "transferFrom",
					"outputs": [],
					"payable": false,
					"stateMutability": "nonpayable",
					"type": "function"
				},
				{
					"constant": true,
					"inputs": [
						{
							"name": "_tokenId",
							"type": "uint256"
						}
					],
					"name": "seeAnimalStar",
					"outputs": [
						{
							"name": "star",
							"type": "uint8"
						}
					],
					"payable": false,
					"stateMutability": "view",
					"type": "function"
				},
				{
					"constant": true,
					"inputs": [
						{
							"name": "_tokenId",
							"type": "uint256"
						}
					],
					"name": "ownerOf",
					"outputs": [
						{
							"name": "_owner",
							"type": "address"
						}
					],
					"payable": false,
					"stateMutability": "view",
					"type": "function"
				},
				{
					"constant": true,
					"inputs": [
						{
							"name": "_owner",
							"type": "address"
						}
					],
					"name": "balanceOf",
					"outputs": [
						{
							"name": "_balance",
							"type": "uint256"
						}
					],
					"payable": false,
					"stateMutability": "view",
					"type": "function"
				},
				{
					"constant": false,
					"inputs": [],
					"name": "Ownable",
					"outputs": [],
					"payable": false,
					"stateMutability": "nonpayable",
					"type": "function"
				},
				{
					"constant": true,
					"inputs": [],
					"name": "owner",
					"outputs": [
						{
							"name": "",
							"type": "address"
						}
					],
					"payable": false,
					"stateMutability": "view",
					"type": "function"
				},
				{
					"constant": true,
					"inputs": [],
					"name": "symbol",
					"outputs": [
						{
							"name": "",
							"type": "string"
						}
					],
					"payable": false,
					"stateMutability": "view",
					"type": "function"
				},
				{
					"constant": true,
					"inputs": [
						{
							"name": "",
							"type": "uint256"
						}
					],
					"name": "animals",
					"outputs": [
						{
							"name": "dna",
							"type": "bytes32"
						},
						{
							"name": "star",
							"type": "uint8"
						},
						{
							"name": "roletype",
							"type": "uint16"
						}
					],
					"payable": false,
					"stateMutability": "view",
					"type": "function"
				},
				{
					"constant": true,
					"inputs": [
						{
							"name": "_owner",
							"type": "address"
						}
					],
					"name": "getAnimalByOwner",
					"outputs": [
						{
							"name": "",
							"type": "uint256[]"
						}
					],
					"payable": false,
					"stateMutability": "view",
					"type": "function"
				},
				{
					"constant": false,
					"inputs": [
						{
							"name": "_to",
							"type": "address"
						},
						{
							"name": "_tokenId",
							"type": "uint256"
						}
					],
					"name": "transfer",
					"outputs": [],
					"payable": false,
					"stateMutability": "nonpayable",
					"type": "function"
				},
				{
					"constant": true,
					"inputs": [],
					"name": "symbol_",
					"outputs": [
						{
							"name": "",
							"type": "string"
						}
					],
					"payable": false,
					"stateMutability": "view",
					"type": "function"
				},
				{
					"constant": false,
					"inputs": [
						{
							"name": "_tokenId",
							"type": "uint256"
						}
					],
					"name": "takeOwnership",
					"outputs": [],
					"payable": false,
					"stateMutability": "nonpayable",
					"type": "function"
				},
				{
					"constant": true,
					"inputs": [
						{
							"name": "",
							"type": "uint256"
						}
					],
					"name": "animalToOwner",
					"outputs": [
						{
							"name": "",
							"type": "address"
						}
					],
					"payable": false,
					"stateMutability": "view",
					"type": "function"
				},
				{
					"constant": true,
					"inputs": [],
					"name": "name_",
					"outputs": [
						{
							"name": "",
							"type": "string"
						}
					],
					"payable": false,
					"stateMutability": "view",
					"type": "function"
				},
				{
					"constant": true,
					"inputs": [
						{
							"name": "_tokenId",
							"type": "uint256[]"
						},
						{
							"name": "owner",
							"type": "address"
						}
					],
					"name": "checkAllOwner",
					"outputs": [
						{
							"name": "",
							"type": "bool"
						}
					],
					"payable": false,
					"stateMutability": "view",
					"type": "function"
				},
				{
					"constant": false,
					"inputs": [],
					"name": "createAnimal",
					"outputs": [],
					"payable": true,
					"stateMutability": "payable",
					"type": "function"
				},
				{
					"constant": false,
					"inputs": [
						{
							"name": "newOwner",
							"type": "address"
						}
					],
					"name": "transferOwnership",
					"outputs": [],
					"payable": false,
					"stateMutability": "nonpayable",
					"type": "function"
				},
				{
					"constant": true,
					"inputs": [
						{
							"name": "_tokenId",
							"type": "uint256"
						}
					],
					"name": "seeAnimalRole",
					"outputs": [
						{
							"name": "roletype",
							"type": "uint16"
						}
					],
					"payable": false,
					"stateMutability": "view",
					"type": "function"
				},
				{
					"anonymous": false,
					"inputs": [
						{
							"indexed": true,
							"name": "_from",
							"type": "address"
						},
						{
							"indexed": true,
							"name": "_to",
							"type": "address"
						},
						{
							"indexed": true,
							"name": "_tokenId",
							"type": "uint256"
						}
					],
					"name": "Transfer",
					"type": "event"
				},
				{
					"anonymous": false,
					"inputs": [
						{
							"indexed": true,
							"name": "_from",
							"type": "address"
						},
						{
							"indexed": true,
							"name": "_to",
							"type": "address"
						},
						{
							"indexed": true,
							"name": "_tokenId",
							"type": "uint256"
						}
					],
					"name": "Approval",
					"type": "event"
				},
				{
					"anonymous": false,
					"inputs": [
						{
							"indexed": false,
							"name": "_to",
							"type": "address"
						},
						{
							"indexed": false,
							"name": "_from",
							"type": "address"
						},
						{
							"indexed": false,
							"name": "_tokenId",
							"type": "uint256"
						}
					],
					"name": "Take",
					"type": "event"
				},
				{
					"anonymous": false,
					"inputs": [
						{
							"indexed": false,
							"name": "_tokenId",
							"type": "uint256"
						},
						{
							"indexed": false,
							"name": "dna",
							"type": "bytes32"
						},
						{
							"indexed": false,
							"name": "star",
							"type": "uint8"
						},
						{
							"indexed": false,
							"name": "roletype",
							"type": "uint16"
						}
					],
					"name": "Create",
					"type": "event"
				},
				{
					"anonymous": false,
					"inputs": [
						{
							"indexed": true,
							"name": "previousOwner",
							"type": "address"
						},
						{
							"indexed": true,
							"name": "newOwner",
							"type": "address"
						}
					],
					"name": "OwnershipTransferred",
					"type": "event"
				}
			],
			"devdoc": {
				"methods": {
					"Ownable()": {
						"details": "The Ownable constructor sets the original `owner` of the contract to the sender account."
					},
					"transferOwnership(address)": {
						"details": "Allows the current owner to transfer control of the contract to a newOwner.",
						"params": {
							"newOwner": "The address to transfer ownership to."
						}
					}
				}
			},
			"evm": {
				"assembly": "    /* \"38.sol\":3346:8109  contract animalMain is  ERC721,Ownable2 {... */\n  mstore(0x40, 0x80)\n    /* \"38.sol\":3423:3455  string public name_ = \"anitoken\" */\n  0x40\n  dup1\n  mload\n  swap1\n  dup2\n  add\n  0x40\n  mstore\n  dup1\n  0x8\n  dup2\n  mstore\n  0x20\n  add\n  0x616e69746f6b656e000000000000000000000000000000000000000000000000\n  dup2\n  mstore\n  pop\n  0x1\n  swap1\n  dup1\n  mload\n  swap1\n  0x20\n  add\n  swap1\n  tag_1\n  swap3\n  swap2\n  swap1\n  jump\t// in(tag_2)\ntag_1:\n  pop\n    /* \"38.sol\":3647:3676  string public symbol_ = \"ANI\" */\n  0x40\n  dup1\n  mload\n  swap1\n  dup2\n  add\n  0x40\n  mstore\n  dup1\n  0x3\n  dup2\n  mstore\n  0x20\n  add\n  0x414e490000000000000000000000000000000000000000000000000000000000\n  dup2\n  mstore\n  pop\n  0x3\n  swap1\n  dup1\n  mload\n  swap1\n  0x20\n  add\n  swap1\n  tag_3\n  swap3\n  swap2\n  swap1\n  jump\t// in(tag_2)\ntag_3:\n  pop\n    /* \"38.sol\":3346:8109  contract animalMain is  ERC721,Ownable2 {... */\n  callvalue\n    /* \"--CODEGEN--\":8:17   */\n  dup1\n    /* \"--CODEGEN--\":5:7   */\n  iszero\n  tag_4\n  jumpi\n    /* \"--CODEGEN--\":30:31   */\n  0x0\n    /* \"--CODEGEN--\":27:28   */\n  dup1\n    /* \"--CODEGEN--\":20:32   */\n  revert\n    /* \"--CODEGEN--\":5:7   */\ntag_4:\n    /* \"38.sol\":3346:8109  contract animalMain is  ERC721,Ownable2 {... */\n  pop\n  jump(tag_5)\ntag_2:\n  dup3\n  dup1\n  sload\n  0x1\n  dup2\n  0x1\n  and\n  iszero\n  0x100\n  mul\n  sub\n  and\n  0x2\n  swap1\n  div\n  swap1\n  0x0\n  mstore\n  keccak256(0x0, 0x20)\n  swap1\n  0x1f\n  add\n  0x20\n  swap1\n  div\n  dup2\n  add\n  swap3\n  dup3\n  0x1f\n  lt\n  tag_7\n  jumpi\n  dup1\n  mload\n  not(0xff)\n  and\n  dup4\n  dup1\n  add\n  or\n  dup6\n  sstore\n  jump(tag_6)\ntag_7:\n  dup3\n  dup1\n  add\n  0x1\n  add\n  dup6\n  sstore\n  dup3\n  iszero\n  tag_6\n  jumpi\n  swap2\n  dup3\n  add\ntag_8:\n  dup3\n  dup2\n  gt\n  iszero\n  tag_9\n  jumpi\n  dup3\n  mload\n  dup3\n  sstore\n  swap2\n  0x20\n  add\n  swap2\n  swap1\n  0x1\n  add\n  swap1\n  jump(tag_8)\ntag_9:\ntag_6:\n  pop\n  swap1\n  pop\n  tag_10\n  swap2\n  swap1\n  jump\t// in(tag_11)\ntag_10:\n  pop\n  swap1\n  jump\t// out\ntag_11:\n  tag_12\n  swap2\n  swap1\ntag_13:\n  dup1\n  dup3\n  gt\n  iszero\n  tag_14\n  jumpi\n  0x0\n  dup2\n  0x0\n  swap1\n  sstore\n  pop\n  0x1\n  add\n  jump(tag_13)\ntag_14:\n  pop\n  swap1\n  jump\ntag_12:\n  swap1\n  jump\t// out\ntag_5:\n  dataSize(sub_0)\n  dup1\n  dataOffset(sub_0)\n  0x0\n  codecopy\n  0x0\n  return\nstop\n\nsub_0: assembly {\n        /* \"38.sol\":3346:8109  contract animalMain is  ERC721,Ownable2 {... */\n      mstore(0x40, 0x80)\n      jumpi(tag_1, lt(calldatasize, 0x4))\n      calldataload(0x0)\n      0x100000000000000000000000000000000000000000000000000000000\n      swap1\n      div\n      0xffffffff\n      and\n      dup1\n      0x6fdde03\n      eq\n      tag_2\n      jumpi\n      dup1\n      0x95ea7b3\n      eq\n      tag_3\n      jumpi\n      dup1\n      0xc379520\n      eq\n      tag_4\n      jumpi\n      dup1\n      0x18160ddd\n      eq\n      tag_5\n      jumpi\n      dup1\n      0x23b872dd\n      eq\n      tag_6\n      jumpi\n      dup1\n      0x36363d14\n      eq\n      tag_7\n      jumpi\n      dup1\n      0x6352211e\n      eq\n      tag_8\n      jumpi\n      dup1\n      0x70a08231\n      eq\n      tag_9\n      jumpi\n      dup1\n      0x8afc3605\n      eq\n      tag_10\n      jumpi\n      dup1\n      0x8da5cb5b\n      eq\n      tag_11\n      jumpi\n      dup1\n      0x95d89b41\n      eq\n      tag_12\n      jumpi\n      dup1\n      0x998dd3ca\n      eq\n      tag_13\n      jumpi\n      dup1\n      0x9af636e5\n      eq\n      tag_14\n      jumpi\n      dup1\n      0xa9059cbb\n      eq\n      tag_15\n      jumpi\n      dup1\n      0xaf17dea6\n      eq\n      tag_16\n      jumpi\n      dup1\n      0xb2e6ceeb\n      eq\n      tag_17\n      jumpi\n      dup1\n      0xd81c513a\n      eq\n      tag_18\n      jumpi\n      dup1\n      0xe2b9e186\n      eq\n      tag_19\n      jumpi\n      dup1\n      0xea7cabdd\n      eq\n      tag_20\n      jumpi\n      dup1\n      0xecaf39b0\n      eq\n      tag_21\n      jumpi\n      dup1\n      0xf2fde38b\n      eq\n      tag_22\n      jumpi\n      dup1\n      0xf34674d6\n      eq\n      tag_23\n      jumpi\n    tag_1:\n      0x0\n      dup1\n      revert\n        /* \"38.sol\":4350:4424  function name() external view returns (string) {... */\n    tag_2:\n      callvalue\n        /* \"--CODEGEN--\":8:17   */\n      dup1\n        /* \"--CODEGEN--\":5:7   */\n      iszero\n      tag_24\n      jumpi\n        /* \"--CODEGEN--\":30:31   */\n      0x0\n        /* \"--CODEGEN--\":27:28   */\n      dup1\n        /* \"--CODEGEN--\":20:32   */\n      revert\n        /* \"--CODEGEN--\":5:7   */\n    tag_24:\n        /* \"38.sol\":4350:4424  function name() external view returns (string) {... */\n      pop\n      tag_25\n      jump(tag_26)\n    tag_25:\n      mload(0x40)\n      dup1\n      dup1\n      0x20\n      add\n      dup3\n      dup2\n      sub\n      dup3\n      mstore\n      dup4\n      dup2\n      dup2\n      mload\n      dup2\n      mstore\n      0x20\n      add\n      swap2\n      pop\n      dup1\n      mload\n      swap1\n      0x20\n      add\n      swap1\n      dup1\n      dup4\n      dup4\n        /* \"--CODEGEN--\":23:24   */\n      0x0\n        /* \"--CODEGEN--\":8:108   */\n    tag_27:\n        /* \"--CODEGEN--\":33:36   */\n      dup4\n        /* \"--CODEGEN--\":30:31   */\n      dup2\n        /* \"--CODEGEN--\":27:37   */\n      lt\n        /* \"--CODEGEN--\":8:108   */\n      iszero\n      tag_28\n      jumpi\n        /* \"--CODEGEN--\":99:100   */\n      dup1\n        /* \"--CODEGEN--\":94:97   */\n      dup3\n        /* \"--CODEGEN--\":90:101   */\n      add\n        /* \"--CODEGEN--\":84:102   */\n      mload\n        /* \"--CODEGEN--\":80:81   */\n      dup2\n        /* \"--CODEGEN--\":75:78   */\n      dup5\n        /* \"--CODEGEN--\":71:82   */\n      add\n        /* \"--CODEGEN--\":64:103   */\n      mstore\n        /* \"--CODEGEN--\":52:54   */\n      0x20\n        /* \"--CODEGEN--\":49:50   */\n      dup2\n        /* \"--CODEGEN--\":45:55   */\n      add\n        /* \"--CODEGEN--\":40:55   */\n      swap1\n      pop\n        /* \"--CODEGEN--\":8:108   */\n      jump(tag_27)\n    tag_28:\n        /* \"--CODEGEN--\":12:26   */\n      pop\n        /* \"38.sol\":4350:4424  function name() external view returns (string) {... */\n      pop\n      pop\n      pop\n      swap1\n      pop\n      swap1\n      dup2\n      add\n      swap1\n      0x1f\n      and\n      dup1\n      iszero\n      tag_30\n      jumpi\n      dup1\n      dup3\n      sub\n      dup1\n      mload\n      0x1\n      dup4\n      0x20\n      sub\n      0x100\n      exp\n      sub\n      not\n      and\n      dup2\n      mstore\n      0x20\n      add\n      swap2\n      pop\n    tag_30:\n      pop\n      swap3\n      pop\n      pop\n      pop\n      mload(0x40)\n      dup1\n      swap2\n      sub\n      swap1\n      return\n        /* \"38.sol\":6342:6547  function approve(address _to, uint256 _tokenId) public {... */\n    tag_3:\n      callvalue\n        /* \"--CODEGEN--\":8:17   */\n      dup1\n        /* \"--CODEGEN--\":5:7   */\n      iszero\n      tag_31\n      jumpi\n        /* \"--CODEGEN--\":30:31   */\n      0x0\n        /* \"--CODEGEN--\":27:28   */\n      dup1\n        /* \"--CODEGEN--\":20:32   */\n      revert\n        /* \"--CODEGEN--\":5:7   */\n    tag_31:\n        /* \"38.sol\":6342:6547  function approve(address _to, uint256 _tokenId) public {... */\n      pop\n      tag_32\n      0x4\n      dup1\n      calldatasize\n      sub\n      dup2\n      add\n      swap1\n      dup1\n      dup1\n      calldataload\n      0xffffffffffffffffffffffffffffffffffffffff\n      and\n      swap1\n      0x20\n      add\n      swap1\n      swap3\n      swap2\n      swap1\n      dup1\n      calldataload\n      swap1\n      0x20\n      add\n      swap1\n      swap3\n      swap2\n      swap1\n      pop\n      pop\n      pop\n      jump(tag_33)\n    tag_32:\n      stop\n        /* \"38.sol\":5237:5350  function seeAnimalDna(uint256 _tokenId) public view returns (bytes32 dna) {... */\n    tag_4:\n      callvalue\n        /* \"--CODEGEN--\":8:17   */\n      dup1\n        /* \"--CODEGEN--\":5:7   */\n      iszero\n      tag_34\n      jumpi\n        /* \"--CODEGEN--\":30:31   */\n      0x0\n        /* \"--CODEGEN--\":27:28   */\n      dup1\n        /* \"--CODEGEN--\":20:32   */\n      revert\n        /* \"--CODEGEN--\":5:7   */\n    tag_34:\n        /* \"38.sol\":5237:5350  function seeAnimalDna(uint256 _tokenId) public view returns (bytes32 dna) {... */\n      pop\n      tag_35\n      0x4\n      dup1\n      calldatasize\n      sub\n      dup2\n      add\n      swap1\n      dup1\n      dup1\n      calldataload\n      swap1\n      0x20\n      add\n      swap1\n      swap3\n      swap2\n      swap1\n      pop\n      pop\n      pop\n      jump(tag_36)\n    tag_35:\n      mload(0x40)\n      dup1\n      dup3\n      not(0x0)\n      and\n      not(0x0)\n      and\n      dup2\n      mstore\n      0x20\n      add\n      swap2\n      pop\n      pop\n      mload(0x40)\n      dup1\n      swap2\n      sub\n      swap1\n      return\n        /* \"38.sol\":4510:4595  function totalSupply() public view returns (uint256) {... */\n    tag_5:\n      callvalue\n        /* \"--CODEGEN--\":8:17   */\n      dup1\n        /* \"--CODEGEN--\":5:7   */\n      iszero\n      tag_37\n      jumpi\n        /* \"--CODEGEN--\":30:31   */\n      0x0\n        /* \"--CODEGEN--\":27:28   */\n      dup1\n        /* \"--CODEGEN--\":20:32   */\n      revert\n        /* \"--CODEGEN--\":5:7   */\n    tag_37:\n        /* \"38.sol\":4510:4595  function totalSupply() public view returns (uint256) {... */\n      pop\n      tag_38\n      jump(tag_39)\n    tag_38:\n      mload(0x40)\n      dup1\n      dup3\n      dup2\n      mstore\n      0x20\n      add\n      swap2\n      pop\n      pop\n      mload(0x40)\n      dup1\n      swap2\n      sub\n      swap1\n      return\n        /* \"38.sol\":6551:6745  function transferFrom(address _from, address _to, uint256 _tokenId) external {... */\n    tag_6:\n      callvalue\n        /* \"--CODEGEN--\":8:17   */\n      dup1\n        /* \"--CODEGEN--\":5:7   */\n      iszero\n      tag_40\n      jumpi\n        /* \"--CODEGEN--\":30:31   */\n      0x0\n        /* \"--CODEGEN--\":27:28   */\n      dup1\n        /* \"--CODEGEN--\":20:32   */\n      revert\n        /* \"--CODEGEN--\":5:7   */\n    tag_40:\n        /* \"38.sol\":6551:6745  function transferFrom(address _from, address _to, uint256 _tokenId) external {... */\n      pop\n      tag_41\n      0x4\n      dup1\n      calldatasize\n      sub\n      dup2\n      add\n      swap1\n      dup1\n      dup1\n      calldataload\n      0xffffffffffffffffffffffffffffffffffffffff\n      and\n      swap1\n      0x20\n      add\n      swap1\n      swap3\n      swap2\n      swap1\n      dup1\n      calldataload\n      0xffffffffffffffffffffffffffffffffffffffff\n      and\n      swap1\n      0x20\n      add\n      swap1\n      swap3\n      swap2\n      swap1\n      dup1\n      calldataload\n      swap1\n      0x20\n      add\n      swap1\n      swap3\n      swap2\n      swap1\n      pop\n      pop\n      pop\n      jump(tag_42)\n    tag_41:\n      stop\n        /* \"38.sol\":5354:5468  function seeAnimalStar(uint256 _tokenId) public view returns (uint8 star) {... */\n    tag_7:\n      callvalue\n        /* \"--CODEGEN--\":8:17   */\n      dup1\n        /* \"--CODEGEN--\":5:7   */\n      iszero\n      tag_43\n      jumpi\n        /* \"--CODEGEN--\":30:31   */\n      0x0\n        /* \"--CODEGEN--\":27:28   */\n      dup1\n        /* \"--CODEGEN--\":20:32   */\n      revert\n        /* \"--CODEGEN--\":5:7   */\n    tag_43:\n        /* \"38.sol\":5354:5468  function seeAnimalStar(uint256 _tokenId) public view returns (uint8 star) {... */\n      pop\n      tag_44\n      0x4\n      dup1\n      calldatasize\n      sub\n      dup2\n      add\n      swap1\n      dup1\n      dup1\n      calldataload\n      swap1\n      0x20\n      add\n      swap1\n      swap3\n      swap2\n      swap1\n      pop\n      pop\n      pop\n      jump(tag_45)\n    tag_44:\n      mload(0x40)\n      dup1\n      dup3\n      0xff\n      and\n      0xff\n      and\n      dup2\n      mstore\n      0x20\n      add\n      swap2\n      pop\n      pop\n      mload(0x40)\n      dup1\n      swap2\n      sub\n      swap1\n      return\n        /* \"38.sol\":4760:4917  function ownerOf(uint256 _tokenId) public view returns (address _owner) {... */\n    tag_8:\n      callvalue\n        /* \"--CODEGEN--\":8:17   */\n      dup1\n        /* \"--CODEGEN--\":5:7   */\n      iszero\n      tag_46\n      jumpi\n        /* \"--CODEGEN--\":30:31   */\n      0x0\n        /* \"--CODEGEN--\":27:28   */\n      dup1\n        /* \"--CODEGEN--\":20:32   */\n      revert\n        /* \"--CODEGEN--\":5:7   */\n    tag_46:\n        /* \"38.sol\":4760:4917  function ownerOf(uint256 _tokenId) public view returns (address _owner) {... */\n      pop\n      tag_47\n      0x4\n      dup1\n      calldatasize\n      sub\n      dup2\n      add\n      swap1\n      dup1\n      dup1\n      calldataload\n      swap1\n      0x20\n      add\n      swap1\n      swap3\n      swap2\n      swap1\n      pop\n      pop\n      pop\n      jump(tag_48)\n    tag_47:\n      mload(0x40)\n      dup1\n      dup3\n      0xffffffffffffffffffffffffffffffffffffffff\n      and\n      0xffffffffffffffffffffffffffffffffffffffff\n      and\n      dup2\n      mstore\n      0x20\n      add\n      swap2\n      pop\n      pop\n      mload(0x40)\n      dup1\n      swap2\n      sub\n      swap1\n      return\n        /* \"38.sol\":4599:4756  function balanceOf(address _owner) public view returns (uint256 _balance) {... */\n    tag_9:\n      callvalue\n        /* \"--CODEGEN--\":8:17   */\n      dup1\n        /* \"--CODEGEN--\":5:7   */\n      iszero\n      tag_49\n      jumpi\n        /* \"--CODEGEN--\":30:31   */\n      0x0\n        /* \"--CODEGEN--\":27:28   */\n      dup1\n        /* \"--CODEGEN--\":20:32   */\n      revert\n        /* \"--CODEGEN--\":5:7   */\n    tag_49:\n        /* \"38.sol\":4599:4756  function balanceOf(address _owner) public view returns (uint256 _balance) {... */\n      pop\n      tag_50\n      0x4\n      dup1\n      calldatasize\n      sub\n      dup2\n      add\n      swap1\n      dup1\n      dup1\n      calldataload\n      0xffffffffffffffffffffffffffffffffffffffff\n      and\n      swap1\n      0x20\n      add\n      swap1\n      swap3\n      swap2\n      swap1\n      pop\n      pop\n      pop\n      jump(tag_51)\n    tag_50:\n      mload(0x40)\n      dup1\n      dup3\n      dup2\n      mstore\n      0x20\n      add\n      swap2\n      pop\n      pop\n      mload(0x40)\n      dup1\n      swap2\n      sub\n      swap1\n      return\n        /* \"38.sol\":2800:2855  function Ownable() public {... */\n    tag_10:\n      callvalue\n        /* \"--CODEGEN--\":8:17   */\n      dup1\n        /* \"--CODEGEN--\":5:7   */\n      iszero\n      tag_52\n      jumpi\n        /* \"--CODEGEN--\":30:31   */\n      0x0\n        /* \"--CODEGEN--\":27:28   */\n      dup1\n        /* \"--CODEGEN--\":20:32   */\n      revert\n        /* \"--CODEGEN--\":5:7   */\n    tag_52:\n        /* \"38.sol\":2800:2855  function Ownable() public {... */\n      pop\n      tag_53\n      jump(tag_54)\n    tag_53:\n      stop\n        /* \"38.sol\":2571:2591  address public owner */\n    tag_11:\n      callvalue\n        /* \"--CODEGEN--\":8:17   */\n      dup1\n        /* \"--CODEGEN--\":5:7   */\n      iszero\n      tag_55\n      jumpi\n        /* \"--CODEGEN--\":30:31   */\n      0x0\n        /* \"--CODEGEN--\":27:28   */\n      dup1\n        /* \"--CODEGEN--\":20:32   */\n      revert\n        /* \"--CODEGEN--\":5:7   */\n    tag_55:\n        /* \"38.sol\":2571:2591  address public owner */\n      pop\n      tag_56\n      jump(tag_57)\n    tag_56:\n      mload(0x40)\n      dup1\n      dup3\n      0xffffffffffffffffffffffffffffffffffffffff\n      and\n      0xffffffffffffffffffffffffffffffffffffffff\n      and\n      dup2\n      mstore\n      0x20\n      add\n      swap2\n      pop\n      pop\n      mload(0x40)\n      dup1\n      swap2\n      sub\n      swap1\n      return\n        /* \"38.sol\":4428:4506  function symbol() external view returns (string) {... */\n    tag_12:\n      callvalue\n        /* \"--CODEGEN--\":8:17   */\n      dup1\n        /* \"--CODEGEN--\":5:7   */\n      iszero\n      tag_58\n      jumpi\n        /* \"--CODEGEN--\":30:31   */\n      0x0\n        /* \"--CODEGEN--\":27:28   */\n      dup1\n        /* \"--CODEGEN--\":20:32   */\n      revert\n        /* \"--CODEGEN--\":5:7   */\n    tag_58:\n        /* \"38.sol\":4428:4506  function symbol() external view returns (string) {... */\n      pop\n      tag_59\n      jump(tag_60)\n    tag_59:\n      mload(0x40)\n      dup1\n      dup1\n      0x20\n      add\n      dup3\n      dup2\n      sub\n      dup3\n      mstore\n      dup4\n      dup2\n      dup2\n      mload\n      dup2\n      mstore\n      0x20\n      add\n      swap2\n      pop\n      dup1\n      mload\n      swap1\n      0x20\n      add\n      swap1\n      dup1\n      dup4\n      dup4\n        /* \"--CODEGEN--\":23:24   */\n      0x0\n        /* \"--CODEGEN--\":8:108   */\n    tag_61:\n        /* \"--CODEGEN--\":33:36   */\n      dup4\n        /* \"--CODEGEN--\":30:31   */\n      dup2\n        /* \"--CODEGEN--\":27:37   */\n      lt\n        /* \"--CODEGEN--\":8:108   */\n      iszero\n      tag_62\n      jumpi\n        /* \"--CODEGEN--\":99:100   */\n      dup1\n        /* \"--CODEGEN--\":94:97   */\n      dup3\n        /* \"--CODEGEN--\":90:101   */\n      add\n        /* \"--CODEGEN--\":84:102   */\n      mload\n        /* \"--CODEGEN--\":80:81   */\n      dup2\n        /* \"--CODEGEN--\":75:78   */\n      dup5\n        /* \"--CODEGEN--\":71:82   */\n      add\n        /* \"--CODEGEN--\":64:103   */\n      mstore\n        /* \"--CODEGEN--\":52:54   */\n      0x20\n        /* \"--CODEGEN--\":49:50   */\n      dup2\n        /* \"--CODEGEN--\":45:55   */\n      add\n        /* \"--CODEGEN--\":40:55   */\n      swap1\n      pop\n        /* \"--CODEGEN--\":8:108   */\n      jump(tag_61)\n    tag_62:\n        /* \"--CODEGEN--\":12:26   */\n      pop\n        /* \"38.sol\":4428:4506  function symbol() external view returns (string) {... */\n      pop\n      pop\n      pop\n      swap1\n      pop\n      swap1\n      dup2\n      add\n      swap1\n      0x1f\n      and\n      dup1\n      iszero\n      tag_64\n      jumpi\n      dup1\n      dup3\n      sub\n      dup1\n      mload\n      0x1\n      dup4\n      0x20\n      sub\n      0x100\n      exp\n      sub\n      not\n      and\n      dup2\n      mstore\n      0x20\n      add\n      swap2\n      pop\n    tag_64:\n      pop\n      swap3\n      pop\n      pop\n      pop\n      mload(0x40)\n      dup1\n      swap2\n      sub\n      swap1\n      return\n        /* \"38.sol\":3620:3643  animal[] public animals */\n    tag_13:\n      callvalue\n        /* \"--CODEGEN--\":8:17   */\n      dup1\n        /* \"--CODEGEN--\":5:7   */\n      iszero\n      tag_65\n      jumpi\n        /* \"--CODEGEN--\":30:31   */\n      0x0\n        /* \"--CODEGEN--\":27:28   */\n      dup1\n        /* \"--CODEGEN--\":20:32   */\n      revert\n        /* \"--CODEGEN--\":5:7   */\n    tag_65:\n        /* \"38.sol\":3620:3643  animal[] public animals */\n      pop\n      tag_66\n      0x4\n      dup1\n      calldatasize\n      sub\n      dup2\n      add\n      swap1\n      dup1\n      dup1\n      calldataload\n      swap1\n      0x20\n      add\n      swap1\n      swap3\n      swap2\n      swap1\n      pop\n      pop\n      pop\n      jump(tag_67)\n    tag_66:\n      mload(0x40)\n      dup1\n      dup5\n      not(0x0)\n      and\n      not(0x0)\n      and\n      dup2\n      mstore\n      0x20\n      add\n      dup4\n      0xff\n      and\n      0xff\n      and\n      dup2\n      mstore\n      0x20\n      add\n      dup3\n      0xffff\n      and\n      0xffff\n      and\n      dup2\n      mstore\n      0x20\n      add\n      swap4\n      pop\n      pop\n      pop\n      pop\n      mload(0x40)\n      dup1\n      swap2\n      sub\n      swap1\n      return\n        /* \"38.sol\":5601:5980  function getAnimalByOwner(address _owner) external view returns(uint[]) { //此方法回傳所有帳戶內的\"動物ID\"... */\n    tag_14:\n      callvalue\n        /* \"--CODEGEN--\":8:17   */\n      dup1\n        /* \"--CODEGEN--\":5:7   */\n      iszero\n      tag_68\n      jumpi\n        /* \"--CODEGEN--\":30:31   */\n      0x0\n        /* \"--CODEGEN--\":27:28   */\n      dup1\n        /* \"--CODEGEN--\":20:32   */\n      revert\n        /* \"--CODEGEN--\":5:7   */\n    tag_68:\n        /* \"38.sol\":5601:5980  function getAnimalByOwner(address _owner) external view returns(uint[]) { //此方法回傳所有帳戶內的\"動物ID\"... */\n      pop\n      tag_69\n      0x4\n      dup1\n      calldatasize\n      sub\n      dup2\n      add\n      swap1\n      dup1\n      dup1\n      calldataload\n      0xffffffffffffffffffffffffffffffffffffffff\n      and\n      swap1\n      0x20\n      add\n      swap1\n      swap3\n      swap2\n      swap1\n      pop\n      pop\n      pop\n      jump(tag_70)\n    tag_69:\n      mload(0x40)\n      dup1\n      dup1\n      0x20\n      add\n      dup3\n      dup2\n      sub\n      dup3\n      mstore\n      dup4\n      dup2\n      dup2\n      mload\n      dup2\n      mstore\n      0x20\n      add\n      swap2\n      pop\n      dup1\n      mload\n      swap1\n      0x20\n      add\n      swap1\n      0x20\n      mul\n      dup1\n      dup4\n      dup4\n        /* \"--CODEGEN--\":23:24   */\n      0x0\n        /* \"--CODEGEN--\":8:108   */\n    tag_71:\n        /* \"--CODEGEN--\":33:36   */\n      dup4\n        /* \"--CODEGEN--\":30:31   */\n      dup2\n        /* \"--CODEGEN--\":27:37   */\n      lt\n        /* \"--CODEGEN--\":8:108   */\n      iszero\n      tag_72\n      jumpi\n        /* \"--CODEGEN--\":99:100   */\n      dup1\n        /* \"--CODEGEN--\":94:97   */\n      dup3\n        /* \"--CODEGEN--\":90:101   */\n      add\n        /* \"--CODEGEN--\":84:102   */\n      mload\n        /* \"--CODEGEN--\":80:81   */\n      dup2\n        /* \"--CODEGEN--\":75:78   */\n      dup5\n        /* \"--CODEGEN--\":71:82   */\n      add\n        /* \"--CODEGEN--\":64:103   */\n      mstore\n        /* \"--CODEGEN--\":52:54   */\n      0x20\n        /* \"--CODEGEN--\":49:50   */\n      dup2\n        /* \"--CODEGEN--\":45:55   */\n      add\n        /* \"--CODEGEN--\":40:55   */\n      swap1\n      pop\n        /* \"--CODEGEN--\":8:108   */\n      jump(tag_71)\n    tag_72:\n        /* \"--CODEGEN--\":12:26   */\n      pop\n        /* \"38.sol\":5601:5980  function getAnimalByOwner(address _owner) external view returns(uint[]) { //此方法回傳所有帳戶內的\"動物ID\"... */\n      pop\n      pop\n      pop\n      swap1\n      pop\n      add\n      swap3\n      pop\n      pop\n      pop\n      mload(0x40)\n      dup1\n      swap2\n      sub\n      swap1\n      return\n        /* \"38.sol\":5984:6338  function transfer(address _to, uint256 _tokenId) public {... */\n    tag_15:\n      callvalue\n        /* \"--CODEGEN--\":8:17   */\n      dup1\n        /* \"--CODEGEN--\":5:7   */\n      iszero\n      tag_74\n      jumpi\n        /* \"--CODEGEN--\":30:31   */\n      0x0\n        /* \"--CODEGEN--\":27:28   */\n      dup1\n        /* \"--CODEGEN--\":20:32   */\n      revert\n        /* \"--CODEGEN--\":5:7   */\n    tag_74:\n        /* \"38.sol\":5984:6338  function transfer(address _to, uint256 _tokenId) public {... */\n      pop\n      tag_75\n      0x4\n      dup1\n      calldatasize\n      sub\n      dup2\n      add\n      swap1\n      dup1\n      dup1\n      calldataload\n      0xffffffffffffffffffffffffffffffffffffffff\n      and\n      swap1\n      0x20\n      add\n      swap1\n      swap3\n      swap2\n      swap1\n      dup1\n      calldataload\n      swap1\n      0x20\n      add\n      swap1\n      swap3\n      swap2\n      swap1\n      pop\n      pop\n      pop\n      jump(tag_76)\n    tag_75:\n      stop\n        /* \"38.sol\":3647:3676  string public symbol_ = \"ANI\" */\n    tag_16:\n      callvalue\n        /* \"--CODEGEN--\":8:17   */\n      dup1\n        /* \"--CODEGEN--\":5:7   */\n      iszero\n      tag_77\n      jumpi\n        /* \"--CODEGEN--\":30:31   */\n      0x0\n        /* \"--CODEGEN--\":27:28   */\n      dup1\n        /* \"--CODEGEN--\":20:32   */\n      revert\n        /* \"--CODEGEN--\":5:7   */\n    tag_77:\n        /* \"38.sol\":3647:3676  string public symbol_ = \"ANI\" */\n      pop\n      tag_78\n      jump(tag_79)\n    tag_78:\n      mload(0x40)\n      dup1\n      dup1\n      0x20\n      add\n      dup3\n      dup2\n      sub\n      dup3\n      mstore\n      dup4\n      dup2\n      dup2\n      mload\n      dup2\n      mstore\n      0x20\n      add\n      swap2\n      pop\n      dup1\n      mload\n      swap1\n      0x20\n      add\n      swap1\n      dup1\n      dup4\n      dup4\n        /* \"--CODEGEN--\":23:24   */\n      0x0\n        /* \"--CODEGEN--\":8:108   */\n    tag_80:\n        /* \"--CODEGEN--\":33:36   */\n      dup4\n        /* \"--CODEGEN--\":30:31   */\n      dup2\n        /* \"--CODEGEN--\":27:37   */\n      lt\n        /* \"--CODEGEN--\":8:108   */\n      iszero\n      tag_81\n      jumpi\n        /* \"--CODEGEN--\":99:100   */\n      dup1\n        /* \"--CODEGEN--\":94:97   */\n      dup3\n        /* \"--CODEGEN--\":90:101   */\n      add\n        /* \"--CODEGEN--\":84:102   */\n      mload\n        /* \"--CODEGEN--\":80:81   */\n      dup2\n        /* \"--CODEGEN--\":75:78   */\n      dup5\n        /* \"--CODEGEN--\":71:82   */\n      add\n        /* \"--CODEGEN--\":64:103   */\n      mstore\n        /* \"--CODEGEN--\":52:54   */\n      0x20\n        /* \"--CODEGEN--\":49:50   */\n      dup2\n        /* \"--CODEGEN--\":45:55   */\n      add\n        /* \"--CODEGEN--\":40:55   */\n      swap1\n      pop\n        /* \"--CODEGEN--\":8:108   */\n      jump(tag_80)\n    tag_81:\n        /* \"--CODEGEN--\":12:26   */\n      pop\n        /* \"38.sol\":3647:3676  string public symbol_ = \"ANI\" */\n      pop\n      pop\n      pop\n      swap1\n      pop\n      swap1\n      dup2\n      add\n      swap1\n      0x1f\n      and\n      dup1\n      iszero\n      tag_83\n      jumpi\n      dup1\n      dup3\n      sub\n      dup1\n      mload\n      0x1\n      dup4\n      0x20\n      sub\n      0x100\n      exp\n      sub\n      not\n      and\n      dup2\n      mstore\n      0x20\n      add\n      swap2\n      pop\n    tag_83:\n      pop\n      swap3\n      pop\n      pop\n      pop\n      mload(0x40)\n      dup1\n      swap2\n      sub\n      swap1\n      return\n        /* \"38.sol\":6749:7124  function takeOwnership(uint256 _tokenId) public {... */\n    tag_17:\n      callvalue\n        /* \"--CODEGEN--\":8:17   */\n      dup1\n        /* \"--CODEGEN--\":5:7   */\n      iszero\n      tag_84\n      jumpi\n        /* \"--CODEGEN--\":30:31   */\n      0x0\n        /* \"--CODEGEN--\":27:28   */\n      dup1\n        /* \"--CODEGEN--\":20:32   */\n      revert\n        /* \"--CODEGEN--\":5:7   */\n    tag_84:\n        /* \"38.sol\":6749:7124  function takeOwnership(uint256 _tokenId) public {... */\n      pop\n      tag_85\n      0x4\n      dup1\n      calldatasize\n      sub\n      dup2\n      add\n      swap1\n      dup1\n      dup1\n      calldataload\n      swap1\n      0x20\n      add\n      swap1\n      swap3\n      swap2\n      swap1\n      pop\n      pop\n      pop\n      jump(tag_86)\n    tag_85:\n      stop\n        /* \"38.sol\":3730:3776  mapping (uint => address) public animalToOwner */\n    tag_18:\n      callvalue\n        /* \"--CODEGEN--\":8:17   */\n      dup1\n        /* \"--CODEGEN--\":5:7   */\n      iszero\n      tag_87\n      jumpi\n        /* \"--CODEGEN--\":30:31   */\n      0x0\n        /* \"--CODEGEN--\":27:28   */\n      dup1\n        /* \"--CODEGEN--\":20:32   */\n      revert\n        /* \"--CODEGEN--\":5:7   */\n    tag_87:\n        /* \"38.sol\":3730:3776  mapping (uint => address) public animalToOwner */\n      pop\n      tag_88\n      0x4\n      dup1\n      calldatasize\n      sub\n      dup2\n      add\n      swap1\n      dup1\n      dup1\n      calldataload\n      swap1\n      0x20\n      add\n      swap1\n      swap3\n      swap2\n      swap1\n      pop\n      pop\n      pop\n      jump(tag_89)\n    tag_88:\n      mload(0x40)\n      dup1\n      dup3\n      0xffffffffffffffffffffffffffffffffffffffff\n      and\n      0xffffffffffffffffffffffffffffffffffffffff\n      and\n      dup2\n      mstore\n      0x20\n      add\n      swap2\n      pop\n      pop\n      mload(0x40)\n      dup1\n      swap2\n      sub\n      swap1\n      return\n        /* \"38.sol\":3423:3455  string public name_ = \"anitoken\" */\n    tag_19:\n      callvalue\n        /* \"--CODEGEN--\":8:17   */\n      dup1\n        /* \"--CODEGEN--\":5:7   */\n      iszero\n      tag_90\n      jumpi\n        /* \"--CODEGEN--\":30:31   */\n      0x0\n        /* \"--CODEGEN--\":27:28   */\n      dup1\n        /* \"--CODEGEN--\":20:32   */\n      revert\n        /* \"--CODEGEN--\":5:7   */\n    tag_90:\n        /* \"38.sol\":3423:3455  string public name_ = \"anitoken\" */\n      pop\n      tag_91\n      jump(tag_92)\n    tag_91:\n      mload(0x40)\n      dup1\n      dup1\n      0x20\n      add\n      dup3\n      dup2\n      sub\n      dup3\n      mstore\n      dup4\n      dup2\n      dup2\n      mload\n      dup2\n      mstore\n      0x20\n      add\n      swap2\n      pop\n      dup1\n      mload\n      swap1\n      0x20\n      add\n      swap1\n      dup1\n      dup4\n      dup4\n        /* \"--CODEGEN--\":23:24   */\n      0x0\n        /* \"--CODEGEN--\":8:108   */\n    tag_93:\n        /* \"--CODEGEN--\":33:36   */\n      dup4\n        /* \"--CODEGEN--\":30:31   */\n      dup2\n        /* \"--CODEGEN--\":27:37   */\n      lt\n        /* \"--CODEGEN--\":8:108   */\n      iszero\n      tag_94\n      jumpi\n        /* \"--CODEGEN--\":99:100   */\n      dup1\n        /* \"--CODEGEN--\":94:97   */\n      dup3\n        /* \"--CODEGEN--\":90:101   */\n      add\n        /* \"--CODEGEN--\":84:102   */\n      mload\n        /* \"--CODEGEN--\":80:81   */\n      dup2\n        /* \"--CODEGEN--\":75:78   */\n      dup5\n        /* \"--CODEGEN--\":71:82   */\n      add\n        /* \"--CODEGEN--\":64:103   */\n      mstore\n        /* \"--CODEGEN--\":52:54   */\n      0x20\n        /* \"--CODEGEN--\":49:50   */\n      dup2\n        /* \"--CODEGEN--\":45:55   */\n      add\n        /* \"--CODEGEN--\":40:55   */\n      swap1\n      pop\n        /* \"--CODEGEN--\":8:108   */\n      jump(tag_93)\n    tag_94:\n        /* \"--CODEGEN--\":12:26   */\n      pop\n        /* \"38.sol\":3423:3455  string public name_ = \"anitoken\" */\n      pop\n      pop\n      pop\n      swap1\n      pop\n      swap1\n      dup2\n      add\n      swap1\n      0x1f\n      and\n      dup1\n      iszero\n      tag_96\n      jumpi\n      dup1\n      dup3\n      sub\n      dup1\n      mload\n      0x1\n      dup4\n      0x20\n      sub\n      0x100\n      exp\n      sub\n      not\n      and\n      dup2\n      mstore\n      0x20\n      add\n      swap2\n      pop\n    tag_96:\n      pop\n      swap3\n      pop\n      pop\n      pop\n      mload(0x40)\n      dup1\n      swap2\n      sub\n      swap1\n      return\n        /* \"38.sol\":4921:5233  function checkAllOwner(uint256[] _tokenId, address owner) public view returns (bool) {... */\n    tag_20:\n      callvalue\n        /* \"--CODEGEN--\":8:17   */\n      dup1\n        /* \"--CODEGEN--\":5:7   */\n      iszero\n      tag_97\n      jumpi\n        /* \"--CODEGEN--\":30:31   */\n      0x0\n        /* \"--CODEGEN--\":27:28   */\n      dup1\n        /* \"--CODEGEN--\":20:32   */\n      revert\n        /* \"--CODEGEN--\":5:7   */\n    tag_97:\n        /* \"38.sol\":4921:5233  function checkAllOwner(uint256[] _tokenId, address owner) public view returns (bool) {... */\n      pop\n      tag_98\n      0x4\n      dup1\n      calldatasize\n      sub\n      dup2\n      add\n      swap1\n      dup1\n      dup1\n      calldataload\n      swap1\n      0x20\n      add\n      swap1\n      dup3\n      add\n      dup1\n      calldataload\n      swap1\n      0x20\n      add\n      swap1\n      dup1\n      dup1\n      0x20\n      mul\n      0x20\n      add\n      mload(0x40)\n      swap1\n      dup2\n      add\n      0x40\n      mstore\n      dup1\n      swap4\n      swap3\n      swap2\n      swap1\n      dup2\n      dup2\n      mstore\n      0x20\n      add\n      dup4\n      dup4\n      0x20\n      mul\n      dup1\n      dup3\n      dup5\n      calldatacopy\n      dup3\n      add\n      swap2\n      pop\n      pop\n      pop\n      pop\n      pop\n      pop\n      swap2\n      swap3\n      swap2\n      swap3\n      swap1\n      dup1\n      calldataload\n      0xffffffffffffffffffffffffffffffffffffffff\n      and\n      swap1\n      0x20\n      add\n      swap1\n      swap3\n      swap2\n      swap1\n      pop\n      pop\n      pop\n      jump(tag_99)\n    tag_98:\n      mload(0x40)\n      dup1\n      dup3\n      iszero\n      iszero\n      iszero\n      iszero\n      dup2\n      mstore\n      0x20\n      add\n      swap2\n      pop\n      pop\n      mload(0x40)\n      dup1\n      swap2\n      sub\n      swap1\n      return\n        /* \"38.sol\":7170:8104  function createAnimal() public payable{... */\n    tag_21:\n      tag_100\n      jump(tag_101)\n    tag_100:\n      stop\n        /* \"38.sol\":3165:3339  function transferOwnership(address newOwner) public onlyOwner {... */\n    tag_22:\n      callvalue\n        /* \"--CODEGEN--\":8:17   */\n      dup1\n        /* \"--CODEGEN--\":5:7   */\n      iszero\n      tag_102\n      jumpi\n        /* \"--CODEGEN--\":30:31   */\n      0x0\n        /* \"--CODEGEN--\":27:28   */\n      dup1\n        /* \"--CODEGEN--\":20:32   */\n      revert\n        /* \"--CODEGEN--\":5:7   */\n    tag_102:\n        /* \"38.sol\":3165:3339  function transferOwnership(address newOwner) public onlyOwner {... */\n      pop\n      tag_103\n      0x4\n      dup1\n      calldatasize\n      sub\n      dup2\n      add\n      swap1\n      dup1\n      dup1\n      calldataload\n      0xffffffffffffffffffffffffffffffffffffffff\n      and\n      swap1\n      0x20\n      add\n      swap1\n      swap3\n      swap2\n      swap1\n      pop\n      pop\n      pop\n      jump(tag_104)\n    tag_103:\n      stop\n        /* \"38.sol\":5474:5597  function seeAnimalRole(uint256 _tokenId) public view returns (uint16 roletype) {... */\n    tag_23:\n      callvalue\n        /* \"--CODEGEN--\":8:17   */\n      dup1\n        /* \"--CODEGEN--\":5:7   */\n      iszero\n      tag_105\n      jumpi\n        /* \"--CODEGEN--\":30:31   */\n      0x0\n        /* \"--CODEGEN--\":27:28   */\n      dup1\n        /* \"--CODEGEN--\":20:32   */\n      revert\n        /* \"--CODEGEN--\":5:7   */\n    tag_105:\n        /* \"38.sol\":5474:5597  function seeAnimalRole(uint256 _tokenId) public view returns (uint16 roletype) {... */\n      pop\n      tag_106\n      0x4\n      dup1\n      calldatasize\n      sub\n      dup2\n      add\n      swap1\n      dup1\n      dup1\n      calldataload\n      swap1\n      0x20\n      add\n      swap1\n      swap3\n      swap2\n      swap1\n      pop\n      pop\n      pop\n      jump(tag_107)\n    tag_106:\n      mload(0x40)\n      dup1\n      dup3\n      0xffff\n      and\n      0xffff\n      and\n      dup2\n      mstore\n      0x20\n      add\n      swap2\n      pop\n      pop\n      mload(0x40)\n      dup1\n      swap2\n      sub\n      swap1\n      return\n        /* \"38.sol\":4350:4424  function name() external view returns (string) {... */\n    tag_26:\n        /* \"38.sol\":4389:4395  string */\n      0x60\n        /* \"38.sol\":4414:4419  name_ */\n      0x1\n        /* \"38.sol\":4407:4419  return name_ */\n      dup1\n      sload\n      0x1\n      dup2\n      0x1\n      and\n      iszero\n      0x100\n      mul\n      sub\n      and\n      0x2\n      swap1\n      div\n      dup1\n      0x1f\n      add\n      0x20\n      dup1\n      swap2\n      div\n      mul\n      0x20\n      add\n      mload(0x40)\n      swap1\n      dup2\n      add\n      0x40\n      mstore\n      dup1\n      swap3\n      swap2\n      swap1\n      dup2\n      dup2\n      mstore\n      0x20\n      add\n      dup3\n      dup1\n      sload\n      0x1\n      dup2\n      0x1\n      and\n      iszero\n      0x100\n      mul\n      sub\n      and\n      0x2\n      swap1\n      div\n      dup1\n      iszero\n      tag_109\n      jumpi\n      dup1\n      0x1f\n      lt\n      tag_110\n      jumpi\n      0x100\n      dup1\n      dup4\n      sload\n      div\n      mul\n      dup4\n      mstore\n      swap2\n      0x20\n      add\n      swap2\n      jump(tag_109)\n    tag_110:\n      dup3\n      add\n      swap2\n      swap1\n      0x0\n      mstore\n      keccak256(0x0, 0x20)\n      swap1\n    tag_111:\n      dup2\n      sload\n      dup2\n      mstore\n      swap1\n      0x1\n      add\n      swap1\n      0x20\n      add\n      dup1\n      dup4\n      gt\n      tag_111\n      jumpi\n      dup3\n      swap1\n      sub\n      0x1f\n      and\n      dup3\n      add\n      swap2\n    tag_109:\n      pop\n      pop\n      pop\n      pop\n      pop\n      swap1\n      pop\n        /* \"38.sol\":4350:4424  function name() external view returns (string) {... */\n      swap1\n      jump\t// out\n        /* \"38.sol\":6342:6547  function approve(address _to, uint256 _tokenId) public {... */\n    tag_33:\n        /* \"38.sol\":6438:6448  msg.sender */\n      caller\n        /* \"38.sol\":6411:6448  animalToOwner[_tokenId] == msg.sender */\n      0xffffffffffffffffffffffffffffffffffffffff\n      and\n        /* \"38.sol\":6411:6424  animalToOwner */\n      0x4\n        /* \"38.sol\":6411:6434  animalToOwner[_tokenId] */\n      0x0\n        /* \"38.sol\":6425:6433  _tokenId */\n      dup4\n        /* \"38.sol\":6411:6434  animalToOwner[_tokenId] */\n      dup2\n      mstore\n      0x20\n      add\n      swap1\n      dup2\n      mstore\n      0x20\n      add\n      0x0\n      keccak256\n      0x0\n      swap1\n      sload\n      swap1\n      0x100\n      exp\n      swap1\n      div\n      0xffffffffffffffffffffffffffffffffffffffff\n      and\n        /* \"38.sol\":6411:6448  animalToOwner[_tokenId] == msg.sender */\n      0xffffffffffffffffffffffffffffffffffffffff\n      and\n      eq\n        /* \"38.sol\":6403:6449  require(animalToOwner[_tokenId] == msg.sender) */\n      iszero\n      iszero\n      tag_113\n      jumpi\n      0x0\n      dup1\n      revert\n    tag_113:\n        /* \"38.sol\":6488:6491  _to */\n      dup2\n        /* \"38.sol\":6460:6475  animalApprovals */\n      0x6\n        /* \"38.sol\":6460:6485  animalApprovals[_tokenId] */\n      0x0\n        /* \"38.sol\":6476:6484  _tokenId */\n      dup4\n        /* \"38.sol\":6460:6485  animalApprovals[_tokenId] */\n      dup2\n      mstore\n      0x20\n      add\n      swap1\n      dup2\n      mstore\n      0x20\n      add\n      0x0\n      keccak256\n      0x0\n        /* \"38.sol\":6460:6491  animalApprovals[_tokenId] = _to */\n      0x100\n      exp\n      dup2\n      sload\n      dup2\n      0xffffffffffffffffffffffffffffffffffffffff\n      mul\n      not\n      and\n      swap1\n      dup4\n      0xffffffffffffffffffffffffffffffffffffffff\n      and\n      mul\n      or\n      swap1\n      sstore\n      pop\n        /* \"38.sol\":6533:6541  _tokenId */\n      dup1\n        /* \"38.sol\":6528:6531  _to */\n      dup3\n        /* \"38.sol\":6507:6542  Approval(msg.sender, _to, _tokenId) */\n      0xffffffffffffffffffffffffffffffffffffffff\n      and\n        /* \"38.sol\":6516:6526  msg.sender */\n      caller\n        /* \"38.sol\":6507:6542  Approval(msg.sender, _to, _tokenId) */\n      0xffffffffffffffffffffffffffffffffffffffff\n      and\n      0x8c5be1e5ebec7d5bd14f71427d1e84f3dd0314c0f7b2291e5b200ac8c7c3b925\n      mload(0x40)\n      mload(0x40)\n      dup1\n      swap2\n      sub\n      swap1\n      log4\n        /* \"38.sol\":6342:6547  function approve(address _to, uint256 _tokenId) public {... */\n      pop\n      pop\n      jump\t// out\n        /* \"38.sol\":5237:5350  function seeAnimalDna(uint256 _tokenId) public view returns (bytes32 dna) {... */\n    tag_36:\n        /* \"38.sol\":5298:5309  bytes32 dna */\n      0x0\n        /* \"38.sol\":5324:5331  animals */\n      0x2\n        /* \"38.sol\":5332:5340  _tokenId */\n      dup3\n        /* \"38.sol\":5324:5341  animals[_tokenId] */\n      dup2\n      sload\n      dup2\n      lt\n      iszero\n      iszero\n      tag_115\n      jumpi\n      invalid\n    tag_115:\n      swap1\n      0x0\n      mstore\n      keccak256(0x0, 0x20)\n      swap1\n      0x2\n      mul\n      add\n        /* \"38.sol\":5324:5345  animals[_tokenId].dna */\n      0x0\n      add\n      sload\n        /* \"38.sol\":5317:5345  return animals[_tokenId].dna */\n      swap1\n      pop\n        /* \"38.sol\":5237:5350  function seeAnimalDna(uint256 _tokenId) public view returns (bytes32 dna) {... */\n      swap2\n      swap1\n      pop\n      jump\t// out\n        /* \"38.sol\":4510:4595  function totalSupply() public view returns (uint256) {... */\n    tag_39:\n        /* \"38.sol\":4554:4561  uint256 */\n      0x0\n        /* \"38.sol\":4576:4583  animals */\n      0x2\n        /* \"38.sol\":4576:4590  animals.length */\n      dup1\n      sload\n      swap1\n      pop\n        /* \"38.sol\":4569:4590  return animals.length */\n      swap1\n      pop\n        /* \"38.sol\":4510:4595  function totalSupply() public view returns (uint256) {... */\n      swap1\n      jump\t// out\n        /* \"38.sol\":6551:6745  function transferFrom(address _from, address _to, uint256 _tokenId) external {... */\n    tag_42:\n        /* \"38.sol\":6731:6739  _tokenId */\n      dup1\n        /* \"38.sol\":6726:6729  _to */\n      dup3\n        /* \"38.sol\":6710:6740  Transfer(_from, _to, _tokenId) */\n      0xffffffffffffffffffffffffffffffffffffffff\n      and\n        /* \"38.sol\":6719:6724  _from */\n      dup5\n        /* \"38.sol\":6710:6740  Transfer(_from, _to, _tokenId) */\n      0xffffffffffffffffffffffffffffffffffffffff\n      and\n      0xddf252ad1be2c89b69c2b068fc378daa952ba7f163c4a11628f55a4df523b3ef\n      mload(0x40)\n      mload(0x40)\n      dup1\n      swap2\n      sub\n      swap1\n      log4\n        /* \"38.sol\":6551:6745  function transferFrom(address _from, address _to, uint256 _tokenId) external {... */\n      pop\n      pop\n      pop\n      jump\t// out\n        /* \"38.sol\":5354:5468  function seeAnimalStar(uint256 _tokenId) public view returns (uint8 star) {... */\n    tag_45:\n        /* \"38.sol\":5416:5426  uint8 star */\n      0x0\n        /* \"38.sol\":5441:5448  animals */\n      0x2\n        /* \"38.sol\":5449:5457  _tokenId */\n      dup3\n        /* \"38.sol\":5441:5458  animals[_tokenId] */\n      dup2\n      sload\n      dup2\n      lt\n      iszero\n      iszero\n      tag_120\n      jumpi\n      invalid\n    tag_120:\n      swap1\n      0x0\n      mstore\n      keccak256(0x0, 0x20)\n      swap1\n      0x2\n      mul\n      add\n        /* \"38.sol\":5441:5463  animals[_tokenId].star */\n      0x1\n      add\n      0x0\n      swap1\n      sload\n      swap1\n      0x100\n      exp\n      swap1\n      div\n      0xff\n      and\n        /* \"38.sol\":5434:5463  return animals[_tokenId].star */\n      swap1\n      pop\n        /* \"38.sol\":5354:5468  function seeAnimalStar(uint256 _tokenId) public view returns (uint8 star) {... */\n      swap2\n      swap1\n      pop\n      jump\t// out\n        /* \"38.sol\":4760:4917  function ownerOf(uint256 _tokenId) public view returns (address _owner) {... */\n    tag_48:\n        /* \"38.sol\":4816:4830  address _owner */\n      0x0\n        /* \"38.sol\":4845:4858  animalToOwner */\n      0x4\n        /* \"38.sol\":4845:4868  animalToOwner[_tokenId] */\n      0x0\n        /* \"38.sol\":4859:4867  _tokenId */\n      dup4\n        /* \"38.sol\":4845:4868  animalToOwner[_tokenId] */\n      dup2\n      mstore\n      0x20\n      add\n      swap1\n      dup2\n      mstore\n      0x20\n      add\n      0x0\n      keccak256\n      0x0\n      swap1\n      sload\n      swap1\n      0x100\n      exp\n      swap1\n      div\n      0xffffffffffffffffffffffffffffffffffffffff\n      and\n        /* \"38.sol\":4838:4868  return animalToOwner[_tokenId] */\n      swap1\n      pop\n        /* \"38.sol\":4760:4917  function ownerOf(uint256 _tokenId) public view returns (address _owner) {... */\n      swap2\n      swap1\n      pop\n      jump\t// out\n        /* \"38.sol\":4599:4756  function balanceOf(address _owner) public view returns (uint256 _balance) {... */\n    tag_51:\n        /* \"38.sol\":4655:4671  uint256 _balance */\n      0x0\n        /* \"38.sol\":4686:4702  ownerAnimalCount */\n      0x5\n        /* \"38.sol\":4686:4710  ownerAnimalCount[_owner] */\n      0x0\n        /* \"38.sol\":4703:4709  _owner */\n      dup4\n        /* \"38.sol\":4686:4710  ownerAnimalCount[_owner] */\n      0xffffffffffffffffffffffffffffffffffffffff\n      and\n      0xffffffffffffffffffffffffffffffffffffffff\n      and\n      dup2\n      mstore\n      0x20\n      add\n      swap1\n      dup2\n      mstore\n      0x20\n      add\n      0x0\n      keccak256\n      sload\n        /* \"38.sol\":4679:4710  return ownerAnimalCount[_owner] */\n      swap1\n      pop\n        /* \"38.sol\":4599:4756  function balanceOf(address _owner) public view returns (uint256 _balance) {... */\n      swap2\n      swap1\n      pop\n      jump\t// out\n        /* \"38.sol\":2800:2855  function Ownable() public {... */\n    tag_54:\n        /* \"38.sol\":2840:2850  msg.sender */\n      caller\n        /* \"38.sol\":2832:2837  owner */\n      0x0\n      dup1\n        /* \"38.sol\":2832:2850  owner = msg.sender */\n      0x100\n      exp\n      dup2\n      sload\n      dup2\n      0xffffffffffffffffffffffffffffffffffffffff\n      mul\n      not\n      and\n      swap1\n      dup4\n      0xffffffffffffffffffffffffffffffffffffffff\n      and\n      mul\n      or\n      swap1\n      sstore\n      pop\n        /* \"38.sol\":2800:2855  function Ownable() public {... */\n      jump\t// out\n        /* \"38.sol\":2571:2591  address public owner */\n    tag_57:\n      0x0\n      dup1\n      swap1\n      sload\n      swap1\n      0x100\n      exp\n      swap1\n      div\n      0xffffffffffffffffffffffffffffffffffffffff\n      and\n      dup2\n      jump\t// out\n        /* \"38.sol\":4428:4506  function symbol() external view returns (string) {... */\n    tag_60:\n        /* \"38.sol\":4469:4475  string */\n      0x60\n        /* \"38.sol\":4494:4501  symbol_ */\n      0x3\n        /* \"38.sol\":4487:4501  return symbol_ */\n      dup1\n      sload\n      0x1\n      dup2\n      0x1\n      and\n      iszero\n      0x100\n      mul\n      sub\n      and\n      0x2\n      swap1\n      div\n      dup1\n      0x1f\n      add\n      0x20\n      dup1\n      swap2\n      div\n      mul\n      0x20\n      add\n      mload(0x40)\n      swap1\n      dup2\n      add\n      0x40\n      mstore\n      dup1\n      swap3\n      swap2\n      swap1\n      dup2\n      dup2\n      mstore\n      0x20\n      add\n      dup3\n      dup1\n      sload\n      0x1\n      dup2\n      0x1\n      and\n      iszero\n      0x100\n      mul\n      sub\n      and\n      0x2\n      swap1\n      div\n      dup1\n      iszero\n      tag_126\n      jumpi\n      dup1\n      0x1f\n      lt\n      tag_127\n      jumpi\n      0x100\n      dup1\n      dup4\n      sload\n      div\n      mul\n      dup4\n      mstore\n      swap2\n      0x20\n      add\n      swap2\n      jump(tag_126)\n    tag_127:\n      dup3\n      add\n      swap2\n      swap1\n      0x0\n      mstore\n      keccak256(0x0, 0x20)\n      swap1\n    tag_128:\n      dup2\n      sload\n      dup2\n      mstore\n      swap1\n      0x1\n      add\n      swap1\n      0x20\n      add\n      dup1\n      dup4\n      gt\n      tag_128\n      jumpi\n      dup3\n      swap1\n      sub\n      0x1f\n      and\n      dup3\n      add\n      swap2\n    tag_126:\n      pop\n      pop\n      pop\n      pop\n      pop\n      swap1\n      pop\n        /* \"38.sol\":4428:4506  function symbol() external view returns (string) {... */\n      swap1\n      jump\t// out\n        /* \"38.sol\":3620:3643  animal[] public animals */\n    tag_67:\n      0x2\n      dup2\n      dup2\n      sload\n      dup2\n      lt\n      iszero\n      iszero\n      tag_129\n      jumpi\n      invalid\n    tag_129:\n      swap1\n      0x0\n      mstore\n      keccak256(0x0, 0x20)\n      swap1\n      0x2\n      mul\n      add\n      0x0\n      swap2\n      pop\n      swap1\n      pop\n      dup1\n      0x0\n      add\n      sload\n      swap1\n      dup1\n      0x1\n      add\n      0x0\n      swap1\n      sload\n      swap1\n      0x100\n      exp\n      swap1\n      div\n      0xff\n      and\n      swap1\n      dup1\n      0x1\n      add\n      0x1\n      swap1\n      sload\n      swap1\n      0x100\n      exp\n      swap1\n      div\n      0xffff\n      and\n      swap1\n      pop\n      dup4\n      jump\t// out\n        /* \"38.sol\":5601:5980  function getAnimalByOwner(address _owner) external view returns(uint[]) { //此方法回傳所有帳戶內的\"動物ID\"... */\n    tag_70:\n        /* \"38.sol\":5665:5671  uint[] */\n      0x60\n        /* \"38.sol\":5725:5745  uint[] memory result */\n      dup1\n        /* \"38.sol\":5790:5802  uint counter */\n      0x0\n        /* \"38.sol\":5817:5823  uint i */\n      dup1\n        /* \"38.sol\":5759:5775  ownerAnimalCount */\n      0x5\n        /* \"38.sol\":5759:5783  ownerAnimalCount[_owner] */\n      0x0\n        /* \"38.sol\":5776:5782  _owner */\n      dup7\n        /* \"38.sol\":5759:5783  ownerAnimalCount[_owner] */\n      0xffffffffffffffffffffffffffffffffffffffff\n      and\n      0xffffffffffffffffffffffffffffffffffffffff\n      and\n      dup2\n      mstore\n      0x20\n      add\n      swap1\n      dup2\n      mstore\n      0x20\n      add\n      0x0\n      keccak256\n      sload\n        /* \"38.sol\":5748:5784  new uint[](ownerAnimalCount[_owner]) */\n      mload(0x40)\n      swap1\n      dup1\n      dup3\n      mstore\n      dup1\n      0x20\n      mul\n      0x20\n      add\n      dup3\n      add\n      0x40\n      mstore\n      dup1\n      iszero\n      tag_132\n      jumpi\n      dup2\n      0x20\n      add\n        /* \"--CODEGEN--\":29:31   */\n      0x20\n        /* \"--CODEGEN--\":21:27   */\n      dup3\n        /* \"--CODEGEN--\":17:32   */\n      mul\n        /* \"--CODEGEN--\":117:121   */\n      dup1\n        /* \"--CODEGEN--\":105:115   */\n      codesize\n        /* \"--CODEGEN--\":97:103   */\n      dup4\n        /* \"--CODEGEN--\":88:122   */\n      codecopy\n        /* \"--CODEGEN--\":148:152   */\n      dup1\n        /* \"--CODEGEN--\":140:146   */\n      dup3\n        /* \"--CODEGEN--\":136:153   */\n      add\n        /* \"--CODEGEN--\":126:153   */\n      swap2\n      pop\n        /* \"--CODEGEN--\":0:157   */\n      pop\n        /* \"38.sol\":5748:5784  new uint[](ownerAnimalCount[_owner]) */\n      swap1\n      pop\n    tag_132:\n      pop\n        /* \"38.sol\":5725:5784  uint[] memory result = new uint[](ownerAnimalCount[_owner]) */\n      swap3\n      pop\n        /* \"38.sol\":5805:5806  0 */\n      0x0\n        /* \"38.sol\":5790:5806  uint counter = 0 */\n      swap2\n      pop\n        /* \"38.sol\":5826:5827  0 */\n      0x0\n        /* \"38.sol\":5817:5827  uint i = 0 */\n      swap1\n      pop\n        /* \"38.sol\":5812:5957  for (uint i = 0; i < animals.length; i++) {... */\n    tag_133:\n        /* \"38.sol\":5833:5840  animals */\n      0x2\n        /* \"38.sol\":5833:5847  animals.length */\n      dup1\n      sload\n      swap1\n      pop\n        /* \"38.sol\":5829:5830  i */\n      dup2\n        /* \"38.sol\":5829:5847  i < animals.length */\n      lt\n        /* \"38.sol\":5812:5957  for (uint i = 0; i < animals.length; i++) {... */\n      iszero\n      tag_134\n      jumpi\n        /* \"38.sol\":5886:5892  _owner */\n      dup5\n        /* \"38.sol\":5866:5892  animalToOwner[i] == _owner */\n      0xffffffffffffffffffffffffffffffffffffffff\n      and\n        /* \"38.sol\":5866:5879  animalToOwner */\n      0x4\n        /* \"38.sol\":5866:5882  animalToOwner[i] */\n      0x0\n        /* \"38.sol\":5880:5881  i */\n      dup4\n        /* \"38.sol\":5866:5882  animalToOwner[i] */\n      dup2\n      mstore\n      0x20\n      add\n      swap1\n      dup2\n      mstore\n      0x20\n      add\n      0x0\n      keccak256\n      0x0\n      swap1\n      sload\n      swap1\n      0x100\n      exp\n      swap1\n      div\n      0xffffffffffffffffffffffffffffffffffffffff\n      and\n        /* \"38.sol\":5866:5892  animalToOwner[i] == _owner */\n      0xffffffffffffffffffffffffffffffffffffffff\n      and\n      eq\n        /* \"38.sol\":5862:5951  if (animalToOwner[i] == _owner) {... */\n      iszero\n      tag_136\n      jumpi\n        /* \"38.sol\":5922:5923  i */\n      dup1\n        /* \"38.sol\":5904:5910  result */\n      dup4\n        /* \"38.sol\":5911:5918  counter */\n      dup4\n        /* \"38.sol\":5904:5919  result[counter] */\n      dup2\n      mload\n      dup2\n      lt\n      iszero\n      iszero\n      tag_137\n      jumpi\n      invalid\n    tag_137:\n      swap1\n      0x20\n      add\n      swap1\n      0x20\n      mul\n      add\n        /* \"38.sol\":5904:5923  result[counter] = i */\n      dup2\n      dup2\n      mstore\n      pop\n      pop\n        /* \"38.sol\":5933:5942  counter++ */\n      dup2\n      dup1\n      0x1\n      add\n      swap3\n      pop\n      pop\n        /* \"38.sol\":5862:5951  if (animalToOwner[i] == _owner) {... */\n    tag_136:\n        /* \"38.sol\":5849:5852  i++ */\n      dup1\n      dup1\n      0x1\n      add\n      swap2\n      pop\n      pop\n        /* \"38.sol\":5812:5957  for (uint i = 0; i < animals.length; i++) {... */\n      jump(tag_133)\n    tag_134:\n        /* \"38.sol\":5969:5975  result */\n      dup3\n        /* \"38.sol\":5962:5975  return result */\n      swap4\n      pop\n        /* \"38.sol\":5601:5980  function getAnimalByOwner(address _owner) external view returns(uint[]) { //此方法回傳所有帳戶內的\"動物ID\"... */\n      pop\n      pop\n      pop\n      swap2\n      swap1\n      pop\n      jump\t// out\n        /* \"38.sol\":5984:6338  function transfer(address _to, uint256 _tokenId) public {... */\n    tag_76:\n        /* \"38.sol\":6152:6162  msg.sender */\n      caller\n        /* \"38.sol\":6127:6162  animalToOwner[_tokenId]==msg.sender */\n      0xffffffffffffffffffffffffffffffffffffffff\n      and\n        /* \"38.sol\":6127:6140  animalToOwner */\n      0x4\n        /* \"38.sol\":6127:6150  animalToOwner[_tokenId] */\n      0x0\n        /* \"38.sol\":6141:6149  _tokenId */\n      dup4\n        /* \"38.sol\":6127:6150  animalToOwner[_tokenId] */\n      dup2\n      mstore\n      0x20\n      add\n      swap1\n      dup2\n      mstore\n      0x20\n      add\n      0x0\n      keccak256\n      0x0\n      swap1\n      sload\n      swap1\n      0x100\n      exp\n      swap1\n      div\n      0xffffffffffffffffffffffffffffffffffffffff\n      and\n        /* \"38.sol\":6127:6162  animalToOwner[_tokenId]==msg.sender */\n      0xffffffffffffffffffffffffffffffffffffffff\n      and\n      eq\n        /* \"38.sol\":6119:6163  require(animalToOwner[_tokenId]==msg.sender) */\n      iszero\n      iszero\n      tag_139\n      jumpi\n      0x0\n      dup1\n      revert\n    tag_139:\n        /* \"38.sol\":6324:6332  _tokenId */\n      dup1\n        /* \"38.sol\":6319:6322  _to */\n      dup3\n        /* \"38.sol\":6298:6333  Transfer(msg.sender, _to, _tokenId) */\n      0xffffffffffffffffffffffffffffffffffffffff\n      and\n        /* \"38.sol\":6307:6317  msg.sender */\n      caller\n        /* \"38.sol\":6298:6333  Transfer(msg.sender, _to, _tokenId) */\n      0xffffffffffffffffffffffffffffffffffffffff\n      and\n      0xddf252ad1be2c89b69c2b068fc378daa952ba7f163c4a11628f55a4df523b3ef\n      mload(0x40)\n      mload(0x40)\n      dup1\n      swap2\n      sub\n      swap1\n      log4\n        /* \"38.sol\":5984:6338  function transfer(address _to, uint256 _tokenId) public {... */\n      pop\n      pop\n      jump\t// out\n        /* \"38.sol\":3647:3676  string public symbol_ = \"ANI\" */\n    tag_79:\n      0x3\n      dup1\n      sload\n      0x1\n      dup2\n      0x1\n      and\n      iszero\n      0x100\n      mul\n      sub\n      and\n      0x2\n      swap1\n      div\n      dup1\n      0x1f\n      add\n      0x20\n      dup1\n      swap2\n      div\n      mul\n      0x20\n      add\n      mload(0x40)\n      swap1\n      dup2\n      add\n      0x40\n      mstore\n      dup1\n      swap3\n      swap2\n      swap1\n      dup2\n      dup2\n      mstore\n      0x20\n      add\n      dup3\n      dup1\n      sload\n      0x1\n      dup2\n      0x1\n      and\n      iszero\n      0x100\n      mul\n      sub\n      and\n      0x2\n      swap1\n      div\n      dup1\n      iszero\n      tag_140\n      jumpi\n      dup1\n      0x1f\n      lt\n      tag_141\n      jumpi\n      0x100\n      dup1\n      dup4\n      sload\n      div\n      mul\n      dup4\n      mstore\n      swap2\n      0x20\n      add\n      swap2\n      jump(tag_140)\n    tag_141:\n      dup3\n      add\n      swap2\n      swap1\n      0x0\n      mstore\n      keccak256(0x0, 0x20)\n      swap1\n    tag_142:\n      dup2\n      sload\n      dup2\n      mstore\n      swap1\n      0x1\n      add\n      swap1\n      0x20\n      add\n      dup1\n      dup4\n      gt\n      tag_142\n      jumpi\n      dup3\n      swap1\n      sub\n      0x1f\n      and\n      dup3\n      add\n      swap2\n    tag_140:\n      pop\n      pop\n      pop\n      pop\n      pop\n      dup2\n      jump\t// out\n        /* \"38.sol\":6749:7124  function takeOwnership(uint256 _tokenId) public {... */\n    tag_86:\n        /* \"38.sol\":6860:6873  address owner */\n      0x0\n        /* \"38.sol\":6838:6848  msg.sender */\n      caller\n        /* \"38.sol\":6811:6848  animalToOwner[_tokenId] == msg.sender */\n      0xffffffffffffffffffffffffffffffffffffffff\n      and\n        /* \"38.sol\":6811:6824  animalToOwner */\n      0x4\n        /* \"38.sol\":6811:6834  animalToOwner[_tokenId] */\n      0x0\n        /* \"38.sol\":6825:6833  _tokenId */\n      dup5\n        /* \"38.sol\":6811:6834  animalToOwner[_tokenId] */\n      dup2\n      mstore\n      0x20\n      add\n      swap1\n      dup2\n      mstore\n      0x20\n      add\n      0x0\n      keccak256\n      0x0\n      swap1\n      sload\n      swap1\n      0x100\n      exp\n      swap1\n      div\n      0xffffffffffffffffffffffffffffffffffffffff\n      and\n        /* \"38.sol\":6811:6848  animalToOwner[_tokenId] == msg.sender */\n      0xffffffffffffffffffffffffffffffffffffffff\n      and\n      eq\n        /* \"38.sol\":6803:6849  require(animalToOwner[_tokenId] == msg.sender) */\n      iszero\n      iszero\n      tag_144\n      jumpi\n      0x0\n      dup1\n      revert\n    tag_144:\n        /* \"38.sol\":6876:6893  ownerOf(_tokenId) */\n      tag_145\n        /* \"38.sol\":6884:6892  _tokenId */\n      dup3\n        /* \"38.sol\":6876:6883  ownerOf */\n      tag_48\n        /* \"38.sol\":6876:6893  ownerOf(_tokenId) */\n      jump\t// in\n    tag_145:\n        /* \"38.sol\":6860:6893  address owner = ownerOf(_tokenId) */\n      swap1\n      pop\n        /* \"38.sol\":6931:6966  ownerAnimalCount[msg.sender].add(1) */\n      tag_146\n        /* \"38.sol\":6964:6965  1 */\n      0x1\n        /* \"38.sol\":6931:6947  ownerAnimalCount */\n      0x5\n        /* \"38.sol\":6931:6959  ownerAnimalCount[msg.sender] */\n      0x0\n        /* \"38.sol\":6948:6958  msg.sender */\n      caller\n        /* \"38.sol\":6931:6959  ownerAnimalCount[msg.sender] */\n      0xffffffffffffffffffffffffffffffffffffffff\n      and\n      0xffffffffffffffffffffffffffffffffffffffff\n      and\n      dup2\n      mstore\n      0x20\n      add\n      swap1\n      dup2\n      mstore\n      0x20\n      add\n      0x0\n      keccak256\n      sload\n        /* \"38.sol\":6931:6963  ownerAnimalCount[msg.sender].add */\n      tag_147\n      swap1\n        /* \"38.sol\":6931:6966  ownerAnimalCount[msg.sender].add(1) */\n      swap2\n      swap1\n      0xffffffff\n      and\n      jump\t// in\n    tag_146:\n        /* \"38.sol\":6900:6916  ownerAnimalCount */\n      0x5\n        /* \"38.sol\":6900:6928  ownerAnimalCount[msg.sender] */\n      0x0\n        /* \"38.sol\":6917:6927  msg.sender */\n      caller\n        /* \"38.sol\":6900:6928  ownerAnimalCount[msg.sender] */\n      0xffffffffffffffffffffffffffffffffffffffff\n      and\n      0xffffffffffffffffffffffffffffffffffffffff\n      and\n      dup2\n      mstore\n      0x20\n      add\n      swap1\n      dup2\n      mstore\n      0x20\n      add\n      0x0\n      keccak256\n        /* \"38.sol\":6900:6966  ownerAnimalCount[msg.sender] = ownerAnimalCount[msg.sender].add(1) */\n      dup2\n      swap1\n      sstore\n      pop\n        /* \"38.sol\":6998:7028  ownerAnimalCount[owner].sub(1) */\n      tag_148\n        /* \"38.sol\":7026:7027  1 */\n      0x1\n        /* \"38.sol\":6998:7014  ownerAnimalCount */\n      0x5\n        /* \"38.sol\":6998:7021  ownerAnimalCount[owner] */\n      0x0\n        /* \"38.sol\":7015:7020  owner */\n      dup5\n        /* \"38.sol\":6998:7021  ownerAnimalCount[owner] */\n      0xffffffffffffffffffffffffffffffffffffffff\n      and\n      0xffffffffffffffffffffffffffffffffffffffff\n      and\n      dup2\n      mstore\n      0x20\n      add\n      swap1\n      dup2\n      mstore\n      0x20\n      add\n      0x0\n      keccak256\n      sload\n        /* \"38.sol\":6998:7025  ownerAnimalCount[owner].sub */\n      tag_149\n      swap1\n        /* \"38.sol\":6998:7028  ownerAnimalCount[owner].sub(1) */\n      swap2\n      swap1\n      0xffffffff\n      and\n      jump\t// in\n    tag_148:\n        /* \"38.sol\":6972:6988  ownerAnimalCount */\n      0x5\n        /* \"38.sol\":6972:6995  ownerAnimalCount[owner] */\n      0x0\n        /* \"38.sol\":6989:6994  owner */\n      dup4\n        /* \"38.sol\":6972:6995  ownerAnimalCount[owner] */\n      0xffffffffffffffffffffffffffffffffffffffff\n      and\n      0xffffffffffffffffffffffffffffffffffffffff\n      and\n      dup2\n      mstore\n      0x20\n      add\n      swap1\n      dup2\n      mstore\n      0x20\n      add\n      0x0\n      keccak256\n        /* \"38.sol\":6972:7028  ownerAnimalCount[owner] = ownerAnimalCount[owner].sub(1) */\n      dup2\n      swap1\n      sstore\n      pop\n        /* \"38.sol\":7060:7070  msg.sender */\n      caller\n        /* \"38.sol\":7034:7047  animalToOwner */\n      0x4\n        /* \"38.sol\":7034:7057  animalToOwner[_tokenId] */\n      0x0\n        /* \"38.sol\":7048:7056  _tokenId */\n      dup5\n        /* \"38.sol\":7034:7057  animalToOwner[_tokenId] */\n      dup2\n      mstore\n      0x20\n      add\n      swap1\n      dup2\n      mstore\n      0x20\n      add\n      0x0\n      keccak256\n      0x0\n        /* \"38.sol\":7034:7070  animalToOwner[_tokenId] = msg.sender */\n      0x100\n      exp\n      dup2\n      sload\n      dup2\n      0xffffffffffffffffffffffffffffffffffffffff\n      mul\n      not\n      and\n      swap1\n      dup4\n      0xffffffffffffffffffffffffffffffffffffffff\n      and\n      mul\n      or\n      swap1\n      sstore\n      pop\n        /* \"38.sol\":7086:7119  Take(msg.sender, owner, _tokenId) */\n      0x9bbd814328e65758b36306475bbc61410445dd088c88681ed74c940dc604db1a\n        /* \"38.sol\":7091:7101  msg.sender */\n      caller\n        /* \"38.sol\":7103:7108  owner */\n      dup3\n        /* \"38.sol\":7110:7118  _tokenId */\n      dup5\n        /* \"38.sol\":7086:7119  Take(msg.sender, owner, _tokenId) */\n      mload(0x40)\n      dup1\n      dup5\n      0xffffffffffffffffffffffffffffffffffffffff\n      and\n      0xffffffffffffffffffffffffffffffffffffffff\n      and\n      dup2\n      mstore\n      0x20\n      add\n      dup4\n      0xffffffffffffffffffffffffffffffffffffffff\n      and\n      0xffffffffffffffffffffffffffffffffffffffff\n      and\n      dup2\n      mstore\n      0x20\n      add\n      dup3\n      dup2\n      mstore\n      0x20\n      add\n      swap4\n      pop\n      pop\n      pop\n      pop\n      mload(0x40)\n      dup1\n      swap2\n      sub\n      swap1\n      log1\n        /* \"38.sol\":6749:7124  function takeOwnership(uint256 _tokenId) public {... */\n      pop\n      pop\n      jump\t// out\n        /* \"38.sol\":3730:3776  mapping (uint => address) public animalToOwner */\n    tag_89:\n      mstore(0x20, 0x4)\n      dup1\n      0x0\n      mstore\n      keccak256(0x0, 0x40)\n      0x0\n      swap2\n      pop\n      sload\n      swap1\n      0x100\n      exp\n      swap1\n      div\n      0xffffffffffffffffffffffffffffffffffffffff\n      and\n      dup2\n      jump\t// out\n        /* \"38.sol\":3423:3455  string public name_ = \"anitoken\" */\n    tag_92:\n      0x1\n      dup1\n      sload\n      0x1\n      dup2\n      0x1\n      and\n      iszero\n      0x100\n      mul\n      sub\n      and\n      0x2\n      swap1\n      div\n      dup1\n      0x1f\n      add\n      0x20\n      dup1\n      swap2\n      div\n      mul\n      0x20\n      add\n      mload(0x40)\n      swap1\n      dup2\n      add\n      0x40\n      mstore\n      dup1\n      swap3\n      swap2\n      swap1\n      dup2\n      dup2\n      mstore\n      0x20\n      add\n      dup3\n      dup1\n      sload\n      0x1\n      dup2\n      0x1\n      and\n      iszero\n      0x100\n      mul\n      sub\n      and\n      0x2\n      swap1\n      div\n      dup1\n      iszero\n      tag_150\n      jumpi\n      dup1\n      0x1f\n      lt\n      tag_151\n      jumpi\n      0x100\n      dup1\n      dup4\n      sload\n      div\n      mul\n      dup4\n      mstore\n      swap2\n      0x20\n      add\n      swap2\n      jump(tag_150)\n    tag_151:\n      dup3\n      add\n      swap2\n      swap1\n      0x0\n      mstore\n      keccak256(0x0, 0x20)\n      swap1\n    tag_152:\n      dup2\n      sload\n      dup2\n      mstore\n      swap1\n      0x1\n      add\n      swap1\n      0x20\n      add\n      dup1\n      dup4\n      gt\n      tag_152\n      jumpi\n      dup3\n      swap1\n      sub\n      0x1f\n      and\n      dup3\n      add\n      swap2\n    tag_150:\n      pop\n      pop\n      pop\n      pop\n      pop\n      dup2\n      jump\t// out\n        /* \"38.sol\":4921:5233  function checkAllOwner(uint256[] _tokenId, address owner) public view returns (bool) {... */\n    tag_99:\n        /* \"38.sol\":5000:5004  bool */\n      0x0\n        /* \"38.sol\":5016:5022  uint i */\n      dup1\n        /* \"38.sol\":5023:5024  0 */\n      0x0\n        /* \"38.sol\":5016:5024  uint i=0 */\n      swap1\n      pop\n        /* \"38.sol\":5012:5207  for(uint i=0;i<_tokenId.length;i++){... */\n    tag_154:\n        /* \"38.sol\":5027:5035  _tokenId */\n      dup4\n        /* \"38.sol\":5027:5042  _tokenId.length */\n      mload\n        /* \"38.sol\":5025:5026  i */\n      dup2\n        /* \"38.sol\":5025:5042  i<_tokenId.length */\n      lt\n        /* \"38.sol\":5012:5207  for(uint i=0;i<_tokenId.length;i++){... */\n      iszero\n      tag_155\n      jumpi\n        /* \"38.sol\":5069:5082  animalToOwner */\n      0x4\n        /* \"38.sol\":5069:5095  animalToOwner[_tokenId[i]] */\n      0x0\n        /* \"38.sol\":5083:5091  _tokenId */\n      dup6\n        /* \"38.sol\":5092:5093  i */\n      dup4\n        /* \"38.sol\":5083:5094  _tokenId[i] */\n      dup2\n      mload\n      dup2\n      lt\n      iszero\n      iszero\n      tag_157\n      jumpi\n      invalid\n    tag_157:\n      swap1\n      0x20\n      add\n      swap1\n      0x20\n      mul\n      add\n      mload\n        /* \"38.sol\":5069:5095  animalToOwner[_tokenId[i]] */\n      dup2\n      mstore\n      0x20\n      add\n      swap1\n      dup2\n      mstore\n      0x20\n      add\n      0x0\n      keccak256\n      0x0\n      swap1\n      sload\n      swap1\n      0x100\n      exp\n      swap1\n      div\n      0xffffffffffffffffffffffffffffffffffffffff\n      and\n        /* \"38.sol\":5060:5095  owner != animalToOwner[_tokenId[i]] */\n      0xffffffffffffffffffffffffffffffffffffffff\n      and\n        /* \"38.sol\":5060:5065  owner */\n      dup4\n        /* \"38.sol\":5060:5095  owner != animalToOwner[_tokenId[i]] */\n      0xffffffffffffffffffffffffffffffffffffffff\n      and\n      eq\n      iszero\n        /* \"38.sol\":5057:5201  if(owner != animalToOwner[_tokenId[i]]){... */\n      iszero\n      tag_158\n      jumpi\n        /* \"38.sol\":5117:5122  false */\n      0x0\n        /* \"38.sol\":5110:5122  return false */\n      swap2\n      pop\n      jump(tag_153)\n        /* \"38.sol\":5057:5201  if(owner != animalToOwner[_tokenId[i]]){... */\n    tag_158:\n        /* \"38.sol\":5043:5046  i++ */\n      dup1\n      dup1\n      0x1\n      add\n      swap2\n      pop\n      pop\n        /* \"38.sol\":5012:5207  for(uint i=0;i<_tokenId.length;i++){... */\n      jump(tag_154)\n    tag_155:\n        /* \"38.sol\":5224:5228  true */\n      0x1\n        /* \"38.sol\":5217:5228  return true */\n      swap2\n      pop\n        /* \"38.sol\":4921:5233  function checkAllOwner(uint256[] _tokenId, address owner) public view returns (bool) {... */\n    tag_153:\n      pop\n      swap3\n      swap2\n      pop\n      pop\n      jump\t// out\n        /* \"38.sol\":7170:8104  function createAnimal() public payable{... */\n    tag_101:\n        /* \"38.sol\":7218:7229  bytes32 dna */\n      0x0\n        /* \"38.sol\":7238:7247  uint star */\n      dup1\n        /* \"38.sol\":7256:7269  uint roletype */\n      0x0\n        /* \"38.sol\":7896:7903  uint id */\n      dup1\n        /* \"38.sol\":7333:7343  msg.sender */\n      caller\n        /* \"38.sol\":7344:7359  block.timestamp */\n      timestamp\n        /* \"38.sol\":7316:7360  abi.encodePacked(msg.sender,block.timestamp) */\n      add(0x20, mload(0x40))\n      dup1\n      dup4\n      0xffffffffffffffffffffffffffffffffffffffff\n      and\n      0xffffffffffffffffffffffffffffffffffffffff\n      and\n      0x1000000000000000000000000\n      mul\n      dup2\n      mstore\n      0x14\n      add\n      dup3\n      dup2\n      mstore\n      0x20\n      add\n      swap3\n      pop\n      pop\n      pop\n      mload(0x40)\n        /* \"--CODEGEN--\":49:53   */\n      0x20\n        /* \"--CODEGEN--\":39:46   */\n      dup2\n        /* \"--CODEGEN--\":30:37   */\n      dup4\n        /* \"--CODEGEN--\":26:47   */\n      sub\n        /* \"--CODEGEN--\":22:54   */\n      sub\n        /* \"--CODEGEN--\":13:20   */\n      dup2\n        /* \"--CODEGEN--\":6:55   */\n      mstore\n        /* \"38.sol\":7316:7360  abi.encodePacked(msg.sender,block.timestamp) */\n      swap1\n      0x40\n      mstore\n        /* \"38.sol\":7306:7361  keccak256(abi.encodePacked(msg.sender,block.timestamp)) */\n      mload(0x40)\n      dup1\n      dup3\n      dup1\n      mload\n      swap1\n      0x20\n      add\n      swap1\n      dup1\n      dup4\n      dup4\n        /* \"--CODEGEN--\":36:189   */\n    tag_160:\n        /* \"--CODEGEN--\":66:68   */\n      0x20\n        /* \"--CODEGEN--\":61:64   */\n      dup4\n        /* \"--CODEGEN--\":58:69   */\n      lt\n        /* \"--CODEGEN--\":51:70   */\n      iszero\n        /* \"--CODEGEN--\":36:189   */\n      iszero\n      tag_161\n      jumpi\n        /* \"--CODEGEN--\":182:185   */\n      dup1\n        /* \"--CODEGEN--\":176:186   */\n      mload\n        /* \"--CODEGEN--\":171:174   */\n      dup3\n        /* \"--CODEGEN--\":164:187   */\n      mstore\n        /* \"--CODEGEN--\":98:100   */\n      0x20\n        /* \"--CODEGEN--\":93:96   */\n      dup3\n        /* \"--CODEGEN--\":89:101   */\n      add\n        /* \"--CODEGEN--\":82:101   */\n      swap2\n      pop\n        /* \"--CODEGEN--\":123:125   */\n      0x20\n        /* \"--CODEGEN--\":118:121   */\n      dup2\n        /* \"--CODEGEN--\":114:126   */\n      add\n        /* \"--CODEGEN--\":107:126   */\n      swap1\n      pop\n        /* \"--CODEGEN--\":148:150   */\n      0x20\n        /* \"--CODEGEN--\":143:146   */\n      dup4\n        /* \"--CODEGEN--\":139:151   */\n      sub\n        /* \"--CODEGEN--\":132:151   */\n      swap3\n      pop\n        /* \"--CODEGEN--\":36:189   */\n      jump(tag_160)\n    tag_161:\n        /* \"--CODEGEN--\":274:275   */\n      0x1\n        /* \"--CODEGEN--\":267:270   */\n      dup4\n        /* \"--CODEGEN--\":263:265   */\n      0x20\n        /* \"--CODEGEN--\":259:271   */\n      sub\n        /* \"--CODEGEN--\":254:257   */\n      0x100\n        /* \"--CODEGEN--\":250:272   */\n      exp\n        /* \"--CODEGEN--\":246:276   */\n      sub\n        /* \"--CODEGEN--\":315:319   */\n      dup1\n        /* \"--CODEGEN--\":311:320   */\n      not\n        /* \"--CODEGEN--\":305:308   */\n      dup3\n        /* \"--CODEGEN--\":299:309   */\n      mload\n        /* \"--CODEGEN--\":295:321   */\n      and\n        /* \"--CODEGEN--\":356:360   */\n      dup2\n        /* \"--CODEGEN--\":350:353   */\n      dup5\n        /* \"--CODEGEN--\":344:354   */\n      mload\n        /* \"--CODEGEN--\":340:361   */\n      and\n        /* \"--CODEGEN--\":389:396   */\n      dup1\n        /* \"--CODEGEN--\":380:387   */\n      dup3\n        /* \"--CODEGEN--\":377:397   */\n      or\n        /* \"--CODEGEN--\":372:375   */\n      dup6\n        /* \"--CODEGEN--\":365:398   */\n      mstore\n        /* \"--CODEGEN--\":3:402   */\n      pop\n      pop\n      pop\n        /* \"38.sol\":7306:7361  keccak256(abi.encodePacked(msg.sender,block.timestamp)) */\n      pop\n      pop\n      pop\n      swap1\n      pop\n      add\n      swap2\n      pop\n      pop\n      mload(0x40)\n      dup1\n      swap2\n      sub\n      swap1\n      keccak256\n        /* \"38.sol\":7300:7361  dna = keccak256(abi.encodePacked(msg.sender,block.timestamp)) */\n      swap4\n      pop\n        /* \"38.sol\":7438:7439  4 */\n      0x4\n        /* \"38.sol\":7402:7417  block.timestamp */\n      timestamp\n        /* \"38.sol\":7419:7435  block.difficulty */\n      difficulty\n        /* \"38.sol\":7392:7436  keccak256(block.timestamp, block.difficulty) */\n      mload(0x40)\n      dup1\n      dup4\n      dup2\n      mstore\n      0x20\n      add\n      dup3\n      dup2\n      mstore\n      0x20\n      add\n      swap3\n      pop\n      pop\n      pop\n      mload(0x40)\n      dup1\n      swap2\n      sub\n      swap1\n      keccak256\n        /* \"38.sol\":7384:7437  uint256(keccak256(block.timestamp, block.difficulty)) */\n      0x1\n      swap1\n      div\n        /* \"38.sol\":7384:7439  uint256(keccak256(block.timestamp, block.difficulty))%4 */\n      dup2\n      iszero\n      iszero\n      tag_163\n      jumpi\n      invalid\n    tag_163:\n      mod\n        /* \"38.sol\":7369:7440  roletype=uint8(uint256(keccak256(block.timestamp, block.difficulty))%4) */\n      0xff\n      and\n      swap2\n      pop\n        /* \"38.sol\":7474:7476  91 */\n      0x5b\n        /* \"38.sol\":7456:7471  block.timestamp */\n      timestamp\n        /* \"38.sol\":7456:7476  block.timestamp % 91 */\n      dup2\n      iszero\n      iszero\n      tag_164\n      jumpi\n      invalid\n    tag_164:\n      mod\n        /* \"38.sol\":7449:7476  star = block.timestamp % 91 */\n      swap3\n      pop\n        /* \"38.sol\":7493:7494  5 */\n      0x5\n        /* \"38.sol\":7487:7491  star */\n      dup4\n        /* \"38.sol\":7487:7494  star<=5 */\n      gt\n      iszero\n        /* \"38.sol\":7484:7696  if(star<=5){... */\n      iszero\n      tag_165\n      jumpi\n        /* \"38.sol\":7510:7511  1 */\n      0x1\n        /* \"38.sol\":7505:7511  star=1 */\n      swap3\n      pop\n        /* \"38.sol\":7484:7696  if(star<=5){... */\n      jump(tag_166)\n    tag_165:\n        /* \"38.sol\":7534:7536  14 */\n      0xe\n        /* \"38.sol\":7528:7532  star */\n      dup4\n        /* \"38.sol\":7528:7536  star<=14 */\n      gt\n      iszero\n        /* \"38.sol\":7525:7696  if(star<=14){... */\n      iszero\n      tag_167\n      jumpi\n        /* \"38.sol\":7552:7553  2 */\n      0x2\n        /* \"38.sol\":7547:7553  star=2 */\n      swap3\n      pop\n        /* \"38.sol\":7525:7696  if(star<=14){... */\n      jump(tag_168)\n    tag_167:\n        /* \"38.sol\":7583:7585  30 */\n      0x1e\n        /* \"38.sol\":7577:7581  star */\n      dup4\n        /* \"38.sol\":7577:7585  star<=30 */\n      gt\n      iszero\n        /* \"38.sol\":7574:7696  if(star<=30){... */\n      iszero\n      tag_169\n      jumpi\n        /* \"38.sol\":7601:7602  3 */\n      0x3\n        /* \"38.sol\":7596:7602  star=3 */\n      swap3\n      pop\n        /* \"38.sol\":7574:7696  if(star<=30){... */\n      jump(tag_170)\n    tag_169:\n        /* \"38.sol\":7632:7634  55 */\n      0x37\n        /* \"38.sol\":7626:7630  star */\n      dup4\n        /* \"38.sol\":7626:7634  star<=55 */\n      gt\n      iszero\n        /* \"38.sol\":7623:7696  if(star<=55){... */\n      iszero\n      tag_171\n      jumpi\n        /* \"38.sol\":7650:7651  4 */\n      0x4\n        /* \"38.sol\":7645:7651  star=4 */\n      swap3\n      pop\n        /* \"38.sol\":7623:7696  if(star<=55){... */\n      jump(tag_172)\n    tag_171:\n        /* \"38.sol\":7686:7687  5 */\n      0x5\n        /* \"38.sol\":7681:7687  star=5 */\n      swap3\n      pop\n        /* \"38.sol\":7623:7696  if(star<=55){... */\n    tag_172:\n        /* \"38.sol\":7574:7696  if(star<=30){... */\n    tag_170:\n        /* \"38.sol\":7525:7696  if(star<=14){... */\n    tag_168:\n        /* \"38.sol\":7484:7696  if(star<=5){... */\n    tag_166:\n        /* \"38.sol\":7154:7165  0.0001*1e18 */\n      0x5af3107a4000\n        /* \"38.sol\":7780:7789  msg.value */\n      callvalue\n        /* \"38.sol\":7780:7801  msg.value >= minPrice */\n      lt\n      iszero\n        /* \"38.sol\":7772:7802  require(msg.value >= minPrice) */\n      iszero\n      iszero\n      tag_173\n      jumpi\n      0x0\n      dup1\n      revert\n    tag_173:\n        /* \"38.sol\":7964:7965  1 */\n      0x1\n        /* \"38.sol\":7906:7913  animals */\n      0x2\n        /* \"38.sol\":7919:7960  animal(dna, uint8(star), uint8(roletype)) */\n      0x60\n      mload(0x40)\n      swap1\n      dup2\n      add\n      0x40\n      mstore\n      dup1\n        /* \"38.sol\":7926:7929  dna */\n      dup8\n        /* \"38.sol\":7919:7960  animal(dna, uint8(star), uint8(roletype)) */\n      not(0x0)\n      and\n      dup2\n      mstore\n      0x20\n      add\n        /* \"38.sol\":7937:7941  star */\n      dup7\n        /* \"38.sol\":7919:7960  animal(dna, uint8(star), uint8(roletype)) */\n      0xff\n      and\n      dup2\n      mstore\n      0x20\n      add\n        /* \"38.sol\":7950:7958  roletype */\n      dup6\n        /* \"38.sol\":7919:7960  animal(dna, uint8(star), uint8(roletype)) */\n      0xff\n      and\n      0xffff\n      and\n      dup2\n      mstore\n      pop\n        /* \"38.sol\":7906:7961  animals.push(animal(dna, uint8(star), uint8(roletype))) */\n      swap1\n      dup1\n        /* \"--CODEGEN--\":39:40   */\n      0x1\n        /* \"--CODEGEN--\":33:36   */\n      dup2\n        /* \"--CODEGEN--\":27:37   */\n      sload\n        /* \"--CODEGEN--\":23:41   */\n      add\n        /* \"--CODEGEN--\":57:67   */\n      dup1\n        /* \"--CODEGEN--\":52:55   */\n      dup3\n        /* \"--CODEGEN--\":45:68   */\n      sstore\n        /* \"--CODEGEN--\":79:89   */\n      dup1\n        /* \"--CODEGEN--\":72:89   */\n      swap2\n      pop\n        /* \"--CODEGEN--\":0:93   */\n      pop\n        /* \"38.sol\":7906:7961  animals.push(animal(dna, uint8(star), uint8(roletype))) */\n      swap1\n      0x1\n      dup3\n      sub\n      swap1\n      0x0\n      mstore\n      keccak256(0x0, 0x20)\n      swap1\n      0x2\n      mul\n      add\n      0x0\n      swap1\n      swap2\n      swap3\n      swap1\n      swap2\n      swap1\n      swap2\n      pop\n      0x0\n      dup3\n      add\n      mload\n      dup2\n      0x0\n      add\n      swap1\n      not(0x0)\n      and\n      swap1\n      sstore\n      0x20\n      dup3\n      add\n      mload\n      dup2\n      0x1\n      add\n      exp(0x100, 0x0)\n      dup2\n      sload\n      dup2\n      0xff\n      mul\n      not\n      and\n      swap1\n      dup4\n      0xff\n      and\n      mul\n      or\n      swap1\n      sstore\n      pop\n      0x40\n      dup3\n      add\n      mload\n      dup2\n      0x1\n      add\n      exp(0x100, 0x1)\n      dup2\n      sload\n      dup2\n      0xffff\n      mul\n      not\n      and\n      swap1\n      dup4\n      0xffff\n      and\n      mul\n      or\n      swap1\n      sstore\n      pop\n      pop\n      pop\n        /* \"38.sol\":7906:7965  animals.push(animal(dna, uint8(star), uint8(roletype))) - 1 */\n      sub\n        /* \"38.sol\":7896:7965  uint id = animals.push(animal(dna, uint8(star), uint8(roletype))) - 1 */\n      swap1\n      pop\n        /* \"38.sol\":7993:8003  msg.sender */\n      caller\n        /* \"38.sol\":7973:7986  animalToOwner */\n      0x4\n        /* \"38.sol\":7973:7990  animalToOwner[id] */\n      0x0\n        /* \"38.sol\":7987:7989  id */\n      dup4\n        /* \"38.sol\":7973:7990  animalToOwner[id] */\n      dup2\n      mstore\n      0x20\n      add\n      swap1\n      dup2\n      mstore\n      0x20\n      add\n      0x0\n      keccak256\n      0x0\n        /* \"38.sol\":7973:8003  animalToOwner[id] = msg.sender */\n      0x100\n      exp\n      dup2\n      sload\n      dup2\n      0xffffffffffffffffffffffffffffffffffffffff\n      mul\n      not\n      and\n      swap1\n      dup4\n      0xffffffffffffffffffffffffffffffffffffffff\n      and\n      mul\n      or\n      swap1\n      sstore\n      pop\n        /* \"38.sol\":8011:8027  ownerAnimalCount */\n      0x5\n        /* \"38.sol\":8011:8039  ownerAnimalCount[msg.sender] */\n      0x0\n        /* \"38.sol\":8028:8038  msg.sender */\n      caller\n        /* \"38.sol\":8011:8039  ownerAnimalCount[msg.sender] */\n      0xffffffffffffffffffffffffffffffffffffffff\n      and\n      0xffffffffffffffffffffffffffffffffffffffff\n      and\n      dup2\n      mstore\n      0x20\n      add\n      swap1\n      dup2\n      mstore\n      0x20\n      add\n      0x0\n      keccak256\n      0x0\n        /* \"38.sol\":8011:8041  ownerAnimalCount[msg.sender]++ */\n      dup2\n      sload\n      dup1\n      swap3\n      swap2\n      swap1\n      0x1\n      add\n      swap2\n      swap1\n      pop\n      sstore\n      pop\n        /* \"38.sol\":8055:8099  Create(id,dna,uint8(star), uint16(roletype)) */\n      0x16a51feae275c0349d34d2c79ecbdae4fcc7b9fd1b5e1840028a775e2a35b542\n        /* \"38.sol\":8062:8064  id */\n      dup2\n        /* \"38.sol\":8065:8068  dna */\n      dup6\n        /* \"38.sol\":8075:8079  star */\n      dup6\n        /* \"38.sol\":8089:8097  roletype */\n      dup6\n        /* \"38.sol\":8055:8099  Create(id,dna,uint8(star), uint16(roletype)) */\n      mload(0x40)\n      dup1\n      dup6\n      dup2\n      mstore\n      0x20\n      add\n      dup5\n      not(0x0)\n      and\n      not(0x0)\n      and\n      dup2\n      mstore\n      0x20\n      add\n      dup4\n      0xff\n      and\n      0xff\n      and\n      dup2\n      mstore\n      0x20\n      add\n      dup3\n      0xffff\n      and\n      0xffff\n      and\n      dup2\n      mstore\n      0x20\n      add\n      swap5\n      pop\n      pop\n      pop\n      pop\n      pop\n      mload(0x40)\n      dup1\n      swap2\n      sub\n      swap1\n      log1\n        /* \"38.sol\":7170:8104  function createAnimal() public payable{... */\n      pop\n      pop\n      pop\n      pop\n      jump\t// out\n        /* \"38.sol\":3165:3339  function transferOwnership(address newOwner) public onlyOwner {... */\n    tag_104:\n        /* \"38.sol\":2985:2990  owner */\n      0x0\n      dup1\n      swap1\n      sload\n      swap1\n      0x100\n      exp\n      swap1\n      div\n      0xffffffffffffffffffffffffffffffffffffffff\n      and\n        /* \"38.sol\":2971:2990  msg.sender == owner */\n      0xffffffffffffffffffffffffffffffffffffffff\n      and\n        /* \"38.sol\":2971:2981  msg.sender */\n      caller\n        /* \"38.sol\":2971:2990  msg.sender == owner */\n      0xffffffffffffffffffffffffffffffffffffffff\n      and\n      eq\n        /* \"38.sol\":2963:2991  require(msg.sender == owner) */\n      iszero\n      iszero\n      tag_176\n      jumpi\n      0x0\n      dup1\n      revert\n    tag_176:\n        /* \"38.sol\":3261:3262  0 */\n      0x0\n        /* \"38.sol\":3241:3263  newOwner != address(0) */\n      0xffffffffffffffffffffffffffffffffffffffff\n      and\n        /* \"38.sol\":3241:3249  newOwner */\n      dup2\n        /* \"38.sol\":3241:3263  newOwner != address(0) */\n      0xffffffffffffffffffffffffffffffffffffffff\n      and\n      eq\n      iszero\n        /* \"38.sol\":3233:3264  require(newOwner != address(0)) */\n      iszero\n      iszero\n      tag_178\n      jumpi\n      0x0\n      dup1\n      revert\n    tag_178:\n        /* \"38.sol\":3303:3311  newOwner */\n      dup1\n        /* \"38.sol\":3275:3312  OwnershipTransferred(owner, newOwner) */\n      0xffffffffffffffffffffffffffffffffffffffff\n      and\n        /* \"38.sol\":3296:3301  owner */\n      0x0\n      dup1\n      swap1\n      sload\n      swap1\n      0x100\n      exp\n      swap1\n      div\n      0xffffffffffffffffffffffffffffffffffffffff\n      and\n        /* \"38.sol\":3275:3312  OwnershipTransferred(owner, newOwner) */\n      0xffffffffffffffffffffffffffffffffffffffff\n      and\n      0x8be0079c531659141344cd1fd0a4f28419497f9722a3daafe3b4186f6b6457e0\n      mload(0x40)\n      mload(0x40)\n      dup1\n      swap2\n      sub\n      swap1\n      log3\n        /* \"38.sol\":3326:3334  newOwner */\n      dup1\n        /* \"38.sol\":3318:3323  owner */\n      0x0\n      dup1\n        /* \"38.sol\":3318:3334  owner = newOwner */\n      0x100\n      exp\n      dup2\n      sload\n      dup2\n      0xffffffffffffffffffffffffffffffffffffffff\n      mul\n      not\n      and\n      swap1\n      dup4\n      0xffffffffffffffffffffffffffffffffffffffff\n      and\n      mul\n      or\n      swap1\n      sstore\n      pop\n        /* \"38.sol\":3165:3339  function transferOwnership(address newOwner) public onlyOwner {... */\n      pop\n      jump\t// out\n        /* \"38.sol\":5474:5597  function seeAnimalRole(uint256 _tokenId) public view returns (uint16 roletype) {... */\n    tag_107:\n        /* \"38.sol\":5536:5551  uint16 roletype */\n      0x0\n        /* \"38.sol\":5566:5573  animals */\n      0x2\n        /* \"38.sol\":5574:5582  _tokenId */\n      dup3\n        /* \"38.sol\":5566:5583  animals[_tokenId] */\n      dup2\n      sload\n      dup2\n      lt\n      iszero\n      iszero\n      tag_180\n      jumpi\n      invalid\n    tag_180:\n      swap1\n      0x0\n      mstore\n      keccak256(0x0, 0x20)\n      swap1\n      0x2\n      mul\n      add\n        /* \"38.sol\":5566:5592  animals[_tokenId].roletype */\n      0x1\n      add\n      0x1\n      swap1\n      sload\n      swap1\n      0x100\n      exp\n      swap1\n      div\n      0xffff\n      and\n        /* \"38.sol\":5559:5592  return animals[_tokenId].roletype */\n      swap1\n      pop\n        /* \"38.sol\":5474:5597  function seeAnimalRole(uint256 _tokenId) public view returns (uint16 roletype) {... */\n      swap2\n      swap1\n      pop\n      jump\t// out\n        /* \"38.sol\":2226:2355  function add(uint256 a, uint256 b) internal pure returns (uint256) {... */\n    tag_147:\n        /* \"38.sol\":2284:2291  uint256 */\n      0x0\n        /* \"38.sol\":2299:2308  uint256 c */\n      dup1\n        /* \"38.sol\":2315:2316  b */\n      dup3\n        /* \"38.sol\":2311:2312  a */\n      dup5\n        /* \"38.sol\":2311:2316  a + b */\n      add\n        /* \"38.sol\":2299:2316  uint256 c = a + b */\n      swap1\n      pop\n        /* \"38.sol\":2334:2335  a */\n      dup4\n        /* \"38.sol\":2329:2330  c */\n      dup2\n        /* \"38.sol\":2329:2335  c >= a */\n      lt\n      iszero\n        /* \"38.sol\":2322:2336  assert(c >= a) */\n      iszero\n      iszero\n      tag_183\n      jumpi\n      invalid\n    tag_183:\n        /* \"38.sol\":2349:2350  c */\n      dup1\n        /* \"38.sol\":2342:2350  return c */\n      swap2\n      pop\n        /* \"38.sol\":2226:2355  function add(uint256 a, uint256 b) internal pure returns (uint256) {... */\n      pop\n      swap3\n      swap2\n      pop\n      pop\n      jump\t// out\n        /* \"38.sol\":2054:2164  function sub(uint256 a, uint256 b) internal pure returns (uint256) {... */\n    tag_149:\n        /* \"38.sol\":2112:2119  uint256 */\n      0x0\n        /* \"38.sol\":2139:2140  a */\n      dup3\n        /* \"38.sol\":2134:2135  b */\n      dup3\n        /* \"38.sol\":2134:2140  b <= a */\n      gt\n      iszero\n        /* \"38.sol\":2127:2141  assert(b <= a) */\n      iszero\n      iszero\n      tag_185\n      jumpi\n      invalid\n    tag_185:\n        /* \"38.sol\":2158:2159  b */\n      dup2\n        /* \"38.sol\":2154:2155  a */\n      dup4\n        /* \"38.sol\":2154:2159  a - b */\n      sub\n        /* \"38.sol\":2147:2159  return a - b */\n      swap1\n      pop\n        /* \"38.sol\":2054:2164  function sub(uint256 a, uint256 b) internal pure returns (uint256) {... */\n      swap3\n      swap2\n      pop\n      pop\n      jump\t// out\n\n    auxdata: 0xa165627a7a723058206b54d28b5c39108fd027c9351db400c53b87b2f7050ba23d5fab69088caa34430029\n}\n",
				"bytecode": {
					"linkReferences": {},
					"object": "60806040526040805190810160405280600881526020017f616e69746f6b656e0000000000000000000000000000000000000000000000008152506001908051906020019062000051929190620000b4565b506040805190810160405280600381526020017f414e490000000000000000000000000000000000000000000000000000000000815250600390805190602001906200009f929190620000b4565b50348015620000ad57600080fd5b5062000163565b828054600181600116156101000203166002900490600052602060002090601f016020900481019282601f10620000f757805160ff191683800117855562000128565b8280016001018555821562000128579182015b82811115620001275782518255916020019190600101906200010a565b5b5090506200013791906200013b565b5090565b6200016091905b808211156200015c57600081600090555060010162000142565b5090565b90565b61197d80620001736000396000f300608060405260043610610128576000357c0100000000000000000000000000000000000000000000000000000000900463ffffffff16806306fdde031461012d578063095ea7b3146101bd5780630c3795201461020a57806318160ddd1461025357806323b872dd1461027e57806336363d14146102eb5780636352211e1461033257806370a082311461039f5780638afc3605146103f65780638da5cb5b1461040d57806395d89b4114610464578063998dd3ca146104f45780639af636e514610559578063a9059cbb146105f1578063af17dea61461063e578063b2e6ceeb146106ce578063d81c513a146106fb578063e2b9e18614610768578063ea7cabdd146107f8578063ecaf39b014610896578063f2fde38b146108a0578063f34674d6146108e3575b600080fd5b34801561013957600080fd5b5061014261092c565b6040518080602001828103825283818151815260200191508051906020019080838360005b83811015610182578082015181840152602081019050610167565b50505050905090810190601f1680156101af5780820380516001836020036101000a031916815260200191505b509250505060405180910390f35b3480156101c957600080fd5b50610208600480360381019080803573ffffffffffffffffffffffffffffffffffffffff169060200190929190803590602001909291905050506109ce565b005b34801561021657600080fd5b5061023560048036038101908080359060200190929190505050610aec565b60405180826000191660001916815260200191505060405180910390f35b34801561025f57600080fd5b50610268610b16565b6040518082815260200191505060405180910390f35b34801561028a57600080fd5b506102e9600480360381019080803573ffffffffffffffffffffffffffffffffffffffff169060200190929190803573ffffffffffffffffffffffffffffffffffffffff16906020019092919080359060200190929190505050610b23565b005b3480156102f757600080fd5b5061031660048036038101908080359060200190929190505050610b83565b604051808260ff1660ff16815260200191505060405180910390f35b34801561033e57600080fd5b5061035d60048036038101908080359060200190929190505050610bba565b604051808273ffffffffffffffffffffffffffffffffffffffff1673ffffffffffffffffffffffffffffffffffffffff16815260200191505060405180910390f35b3480156103ab57600080fd5b506103e0600480360381019080803573ffffffffffffffffffffffffffffffffffffffff169060200190929190505050610bf7565b6040518082815260200191505060405180910390f35b34801561040257600080fd5b5061040b610c40565b005b34801561041957600080fd5b50610422610c82565b604051808273ffffffffffffffffffffffffffffffffffffffff1673ffffffffffffffffffffffffffffffffffffffff16815260200191505060405180910390f35b34801561047057600080fd5b50610479610ca7565b6040518080602001828103825283818151815260200191508051906020019080838360005b838110156104b957808201518184015260208101905061049e565b50505050905090810190601f1680156104e65780820380516001836020036101000a031916815260200191505b509250505060405180910390f35b34801561050057600080fd5b5061051f60048036038101908080359060200190929190505050610d49565b6040518084600019166000191681526020018360ff1660ff1681526020018261ffff1661ffff168152602001935050505060405180910390f35b34801561056557600080fd5b5061059a600480360381019080803573ffffffffffffffffffffffffffffffffffffffff169060200190929190505050610d9d565b6040518080602001828103825283818151815260200191508051906020019060200280838360005b838110156105dd5780820151818401526020810190506105c2565b505050509050019250505060405180910390f35b3480156105fd57600080fd5b5061063c600480360381019080803573ffffffffffffffffffffffffffffffffffffffff16906020019092919080359060200190929190505050610ecf565b005b34801561064a57600080fd5b50610653610f9b565b6040518080602001828103825283818151815260200191508051906020019080838360005b83811015610693578082015181840152602081019050610678565b50505050905090810190601f1680156106c05780820380516001836020036101000a031916815260200191505b509250505060405180910390f35b3480156106da57600080fd5b506106f960048036038101908080359060200190929190505050611039565b005b34801561070757600080fd5b50610726600480360381019080803590602001909291905050506112d4565b604051808273ffffffffffffffffffffffffffffffffffffffff1673ffffffffffffffffffffffffffffffffffffffff16815260200191505060405180910390f35b34801561077457600080fd5b5061077d611307565b6040518080602001828103825283818151815260200191508051906020019080838360005b838110156107bd5780820151818401526020810190506107a2565b50505050905090810190601f1680156107ea5780820380516001836020036101000a031916815260200191505b509250505060405180910390f35b34801561080457600080fd5b5061087c60048036038101908080359060200190820180359060200190808060200260200160405190810160405280939291908181526020018383602002808284378201915050505050509192919290803573ffffffffffffffffffffffffffffffffffffffff1690602001909291905050506113a5565b604051808215151515815260200191505060405180910390f35b61089e611457565b005b3480156108ac57600080fd5b506108e1600480360381019080803573ffffffffffffffffffffffffffffffffffffffff16906020019092919050505061178d565b005b3480156108ef57600080fd5b5061090e600480360381019080803590602001909291905050506118e2565b604051808261ffff1661ffff16815260200191505060405180910390f35b606060018054600181600116156101000203166002900480601f0160208091040260200160405190810160405280929190818152602001828054600181600116156101000203166002900480156109c45780601f10610999576101008083540402835291602001916109c4565b820191906000526020600020905b8154815290600101906020018083116109a757829003601f168201915b5050505050905090565b3373ffffffffffffffffffffffffffffffffffffffff166004600083815260200190815260200160002060009054906101000a900473ffffffffffffffffffffffffffffffffffffffff1673ffffffffffffffffffffffffffffffffffffffff16141515610a3b57600080fd5b816006600083815260200190815260200160002060006101000a81548173ffffffffffffffffffffffffffffffffffffffff021916908373ffffffffffffffffffffffffffffffffffffffff160217905550808273ffffffffffffffffffffffffffffffffffffffff163373ffffffffffffffffffffffffffffffffffffffff167f8c5be1e5ebec7d5bd14f71427d1e84f3dd0314c0f7b2291e5b200ac8c7c3b92560405160405180910390a45050565b6000600282815481101515610afd57fe5b9060005260206000209060020201600001549050919050565b6000600280549050905090565b808273ffffffffffffffffffffffffffffffffffffffff168473ffffffffffffffffffffffffffffffffffffffff167fddf252ad1be2c89b69c2b068fc378daa952ba7f163c4a11628f55a4df523b3ef60405160405180910390a4505050565b6000600282815481101515610b9457fe5b906000526020600020906002020160010160009054906101000a900460ff169050919050565b60006004600083815260200190815260200160002060009054906101000a900473ffffffffffffffffffffffffffffffffffffffff169050919050565b6000600560008373ffffffffffffffffffffffffffffffffffffffff1673ffffffffffffffffffffffffffffffffffffffff168152602001908152602001600020549050919050565b336000806101000a81548173ffffffffffffffffffffffffffffffffffffffff021916908373ffffffffffffffffffffffffffffffffffffffff160217905550565b6000809054906101000a900473ffffffffffffffffffffffffffffffffffffffff1681565b606060038054600181600116156101000203166002900480601f016020809104026020016040519081016040528092919081815260200182805460018160011615610100020316600290048015610d3f5780601f10610d1457610100808354040283529160200191610d3f565b820191906000526020600020905b815481529060010190602001808311610d2257829003601f168201915b5050505050905090565b600281815481101515610d5857fe5b90600052602060002090600202016000915090508060000154908060010160009054906101000a900460ff16908060010160019054906101000a900461ffff16905083565b606080600080600560008673ffffffffffffffffffffffffffffffffffffffff1673ffffffffffffffffffffffffffffffffffffffff16815260200190815260200160002054604051908082528060200260200182016040528015610e115781602001602082028038833980820191505090505b50925060009150600090505b600280549050811015610ec4578473ffffffffffffffffffffffffffffffffffffffff166004600083815260200190815260200160002060009054906101000a900473ffffffffffffffffffffffffffffffffffffffff1673ffffffffffffffffffffffffffffffffffffffff161415610eb757808383815181101515610ea057fe5b906020019060200201818152505081806001019250505b8080600101915050610e1d565b829350505050919050565b3373ffffffffffffffffffffffffffffffffffffffff166004600083815260200190815260200160002060009054906101000a900473ffffffffffffffffffffffffffffffffffffffff1673ffffffffffffffffffffffffffffffffffffffff16141515610f3c57600080fd5b808273ffffffffffffffffffffffffffffffffffffffff163373ffffffffffffffffffffffffffffffffffffffff167fddf252ad1be2c89b69c2b068fc378daa952ba7f163c4a11628f55a4df523b3ef60405160405180910390a45050565b60038054600181600116156101000203166002900480601f0160208091040260200160405190810160405280929190818152602001828054600181600116156101000203166002900480156110315780601f1061100657610100808354040283529160200191611031565b820191906000526020600020905b81548152906001019060200180831161101457829003601f168201915b505050505081565b60003373ffffffffffffffffffffffffffffffffffffffff166004600084815260200190815260200160002060009054906101000a900473ffffffffffffffffffffffffffffffffffffffff1673ffffffffffffffffffffffffffffffffffffffff161415156110a857600080fd5b6110b182610bba565b90506111066001600560003373ffffffffffffffffffffffffffffffffffffffff1673ffffffffffffffffffffffffffffffffffffffff1681526020019081526020016000205461191a90919063ffffffff16565b600560003373ffffffffffffffffffffffffffffffffffffffff1673ffffffffffffffffffffffffffffffffffffffff1681526020019081526020016000208190555061119c6001600560008473ffffffffffffffffffffffffffffffffffffffff1673ffffffffffffffffffffffffffffffffffffffff1681526020019081526020016000205461193890919063ffffffff16565b600560008373ffffffffffffffffffffffffffffffffffffffff1673ffffffffffffffffffffffffffffffffffffffff16815260200190815260200160002081905550336004600084815260200190815260200160002060006101000a81548173ffffffffffffffffffffffffffffffffffffffff021916908373ffffffffffffffffffffffffffffffffffffffff1602179055507f9bbd814328e65758b36306475bbc61410445dd088c88681ed74c940dc604db1a338284604051808473ffffffffffffffffffffffffffffffffffffffff1673ffffffffffffffffffffffffffffffffffffffff1681526020018373ffffffffffffffffffffffffffffffffffffffff1673ffffffffffffffffffffffffffffffffffffffff168152602001828152602001935050505060405180910390a15050565b60046020528060005260406000206000915054906101000a900473ffffffffffffffffffffffffffffffffffffffff1681565b60018054600181600116156101000203166002900480601f01602080910402602001604051908101604052809291908181526020018280546001816001161561010002031660029004801561139d5780601f106113725761010080835404028352916020019161139d565b820191906000526020600020905b81548152906001019060200180831161138057829003601f168201915b505050505081565b600080600090505b835181101561144b576004600085838151811015156113c857fe5b90602001906020020151815260200190815260200160002060009054906101000a900473ffffffffffffffffffffffffffffffffffffffff1673ffffffffffffffffffffffffffffffffffffffff168373ffffffffffffffffffffffffffffffffffffffff1614151561143e5760009150611450565b80806001019150506113ad565b600191505b5092915050565b6000806000803342604051602001808373ffffffffffffffffffffffffffffffffffffffff1673ffffffffffffffffffffffffffffffffffffffff166c01000000000000000000000000028152601401828152602001925050506040516020818303038152906040526040518082805190602001908083835b6020831015156114f557805182526020820191506020810190506020830392506114d0565b6001836020036101000a0380198251168184511680821785525050505050509050019150506040518091039020935060044244604051808381526020018281526020019250505060405180910390206001900481151561155157fe5b0660ff169150605b4281151561156357fe5b06925060058311151561157957600192506115ba565b600e8311151561158c57600292506115b9565b601e8311151561159f57600392506115b8565b6037831115156115b257600492506115b7565b600592505b5b5b5b655af3107a400034101515156115cf57600080fd5b60016002606060405190810160405280876000191681526020018660ff1681526020018560ff1661ffff16815250908060018154018082558091505090600182039060005260206000209060020201600090919290919091506000820151816000019060001916905560208201518160010160006101000a81548160ff021916908360ff16021790555060408201518160010160016101000a81548161ffff021916908361ffff1602179055505050039050336004600083815260200190815260200160002060006101000a81548173ffffffffffffffffffffffffffffffffffffffff021916908373ffffffffffffffffffffffffffffffffffffffff160217905550600560003373ffffffffffffffffffffffffffffffffffffffff1673ffffffffffffffffffffffffffffffffffffffff168152602001908152602001600020600081548092919060010191905055507f16a51feae275c0349d34d2c79ecbdae4fcc7b9fd1b5e1840028a775e2a35b542818585856040518085815260200184600019166000191681526020018360ff1660ff1681526020018261ffff1661ffff16815260200194505050505060405180910390a150505050565b6000809054906101000a900473ffffffffffffffffffffffffffffffffffffffff1673ffffffffffffffffffffffffffffffffffffffff163373ffffffffffffffffffffffffffffffffffffffff161415156117e857600080fd5b600073ffffffffffffffffffffffffffffffffffffffff168173ffffffffffffffffffffffffffffffffffffffff161415151561182457600080fd5b8073ffffffffffffffffffffffffffffffffffffffff166000809054906101000a900473ffffffffffffffffffffffffffffffffffffffff1673ffffffffffffffffffffffffffffffffffffffff167f8be0079c531659141344cd1fd0a4f28419497f9722a3daafe3b4186f6b6457e060405160405180910390a3806000806101000a81548173ffffffffffffffffffffffffffffffffffffffff021916908373ffffffffffffffffffffffffffffffffffffffff16021790555050565b60006002828154811015156118f357fe5b906000526020600020906002020160010160019054906101000a900461ffff169050919050565b600080828401905083811015151561192e57fe5b8091505092915050565b600082821115151561194657fe5b8183039050929150505600a165627a7a723058206b54d28b5c39108fd027c9351db400c53b87b2f7050ba23d5fab69088caa34430029",
					"opcodes": "PUSH1 0x80 PUSH1 0x40 MSTORE PUSH1 0x40 DUP1 MLOAD SWAP1 DUP2 ADD PUSH1 0x40 MSTORE DUP1 PUSH1 0x8 DUP2 MSTORE PUSH1 0x20 ADD PUSH32 0x616E69746F6B656E000000000000000000000000000000000000000000000000 DUP2 MSTORE POP PUSH1 0x1 SWAP1 DUP1 MLOAD SWAP1 PUSH1 0x20 ADD SWAP1 PUSH3 0x51 SWAP3 SWAP2 SWAP1 PUSH3 0xB4 JUMP JUMPDEST POP PUSH1 0x40 DUP1 MLOAD SWAP1 DUP2 ADD PUSH1 0x40 MSTORE DUP1 PUSH1 0x3 DUP2 MSTORE PUSH1 0x20 ADD PUSH32 0x414E490000000000000000000000000000000000000000000000000000000000 DUP2 MSTORE POP PUSH1 0x3 SWAP1 DUP1 MLOAD SWAP1 PUSH1 0x20 ADD SWAP1 PUSH3 0x9F SWAP3 SWAP2 SWAP1 PUSH3 0xB4 JUMP JUMPDEST POP CALLVALUE DUP1 ISZERO PUSH3 0xAD JUMPI PUSH1 0x0 DUP1 REVERT JUMPDEST POP PUSH3 0x163 JUMP JUMPDEST DUP3 DUP1 SLOAD PUSH1 0x1 DUP2 PUSH1 0x1 AND ISZERO PUSH2 0x100 MUL SUB AND PUSH1 0x2 SWAP1 DIV SWAP1 PUSH1 0x0 MSTORE PUSH1 0x20 PUSH1 0x0 KECCAK256 SWAP1 PUSH1 0x1F ADD PUSH1 0x20 SWAP1 DIV DUP2 ADD SWAP3 DUP3 PUSH1 0x1F LT PUSH3 0xF7 JUMPI DUP1 MLOAD PUSH1 0xFF NOT AND DUP4 DUP1 ADD OR DUP6 SSTORE PUSH3 0x128 JUMP JUMPDEST DUP3 DUP1 ADD PUSH1 0x1 ADD DUP6 SSTORE DUP3 ISZERO PUSH3 0x128 JUMPI SWAP2 DUP3 ADD JUMPDEST DUP3 DUP2 GT ISZERO PUSH3 0x127 JUMPI DUP3 MLOAD DUP3 SSTORE SWAP2 PUSH1 0x20 ADD SWAP2 SWAP1 PUSH1 0x1 ADD SWAP1 PUSH3 0x10A JUMP JUMPDEST JUMPDEST POP SWAP1 POP PUSH3 0x137 SWAP2 SWAP1 PUSH3 0x13B JUMP JUMPDEST POP SWAP1 JUMP JUMPDEST PUSH3 0x160 SWAP2 SWAP1 JUMPDEST DUP1 DUP3 GT ISZERO PUSH3 0x15C JUMPI PUSH1 0x0 DUP2 PUSH1 0x0 SWAP1 SSTORE POP PUSH1 0x1 ADD PUSH3 0x142 JUMP JUMPDEST POP SWAP1 JUMP JUMPDEST SWAP1 JUMP JUMPDEST PUSH2 0x197D DUP1 PUSH3 0x173 PUSH1 0x0 CODECOPY PUSH1 0x0 RETURN STOP PUSH1 0x80 PUSH1 0x40 MSTORE PUSH1 0x4 CALLDATASIZE LT PUSH2 0x128 JUMPI PUSH1 0x0 CALLDATALOAD PUSH29 0x100000000000000000000000000000000000000000000000000000000 SWAP1 DIV PUSH4 0xFFFFFFFF AND DUP1 PUSH4 0x6FDDE03 EQ PUSH2 0x12D JUMPI DUP1 PUSH4 0x95EA7B3 EQ PUSH2 0x1BD JUMPI DUP1 PUSH4 0xC379520 EQ PUSH2 0x20A JUMPI DUP1 PUSH4 0x18160DDD EQ PUSH2 0x253 JUMPI DUP1 PUSH4 0x23B872DD EQ PUSH2 0x27E JUMPI DUP1 PUSH4 0x36363D14 EQ PUSH2 0x2EB JUMPI DUP1 PUSH4 0x6352211E EQ PUSH2 0x332 JUMPI DUP1 PUSH4 0x70A08231 EQ PUSH2 0x39F JUMPI DUP1 PUSH4 0x8AFC3605 EQ PUSH2 0x3F6 JUMPI DUP1 PUSH4 0x8DA5CB5B EQ PUSH2 0x40D JUMPI DUP1 PUSH4 0x95D89B41 EQ PUSH2 0x464 JUMPI DUP1 PUSH4 0x998DD3CA EQ PUSH2 0x4F4 JUMPI DUP1 PUSH4 0x9AF636E5 EQ PUSH2 0x559 JUMPI DUP1 PUSH4 0xA9059CBB EQ PUSH2 0x5F1 JUMPI DUP1 PUSH4 0xAF17DEA6 EQ PUSH2 0x63E JUMPI DUP1 PUSH4 0xB2E6CEEB EQ PUSH2 0x6CE JUMPI DUP1 PUSH4 0xD81C513A EQ PUSH2 0x6FB JUMPI DUP1 PUSH4 0xE2B9E186 EQ PUSH2 0x768 JUMPI DUP1 PUSH4 0xEA7CABDD EQ PUSH2 0x7F8 JUMPI DUP1 PUSH4 0xECAF39B0 EQ PUSH2 0x896 JUMPI DUP1 PUSH4 0xF2FDE38B EQ PUSH2 0x8A0 JUMPI DUP1 PUSH4 0xF34674D6 EQ PUSH2 0x8E3 JUMPI JUMPDEST PUSH1 0x0 DUP1 REVERT JUMPDEST CALLVALUE DUP1 ISZERO PUSH2 0x139 JUMPI PUSH1 0x0 DUP1 REVERT JUMPDEST POP PUSH2 0x142 PUSH2 0x92C JUMP JUMPDEST PUSH1 0x40 MLOAD DUP1 DUP1 PUSH1 0x20 ADD DUP3 DUP2 SUB DUP3 MSTORE DUP4 DUP2 DUP2 MLOAD DUP2 MSTORE PUSH1 0x20 ADD SWAP2 POP DUP1 MLOAD SWAP1 PUSH1 0x20 ADD SWAP1 DUP1 DUP4 DUP4 PUSH1 0x0 JUMPDEST DUP4 DUP2 LT ISZERO PUSH2 0x182 JUMPI DUP1 DUP3 ADD MLOAD DUP2 DUP5 ADD MSTORE PUSH1 0x20 DUP2 ADD SWAP1 POP PUSH2 0x167 JUMP JUMPDEST POP POP POP POP SWAP1 POP SWAP1 DUP2 ADD SWAP1 PUSH1 0x1F AND DUP1 ISZERO PUSH2 0x1AF JUMPI DUP1 DUP3 SUB DUP1 MLOAD PUSH1 0x1 DUP4 PUSH1 0x20 SUB PUSH2 0x100 EXP SUB NOT AND DUP2 MSTORE PUSH1 0x20 ADD SWAP2 POP JUMPDEST POP SWAP3 POP POP POP PUSH1 0x40 MLOAD DUP1 SWAP2 SUB SWAP1 RETURN JUMPDEST CALLVALUE DUP1 ISZERO PUSH2 0x1C9 JUMPI PUSH1 0x0 DUP1 REVERT JUMPDEST POP PUSH2 0x208 PUSH1 0x4 DUP1 CALLDATASIZE SUB DUP2 ADD SWAP1 DUP1 DUP1 CALLDATALOAD PUSH20 0xFFFFFFFFFFFFFFFFFFFFFFFFFFFFFFFFFFFFFFFF AND SWAP1 PUSH1 0x20 ADD SWAP1 SWAP3 SWAP2 SWAP1 DUP1 CALLDATALOAD SWAP1 PUSH1 0x20 ADD SWAP1 SWAP3 SWAP2 SWAP1 POP POP POP PUSH2 0x9CE JUMP JUMPDEST STOP JUMPDEST CALLVALUE DUP1 ISZERO PUSH2 0x216 JUMPI PUSH1 0x0 DUP1 REVERT JUMPDEST POP PUSH2 0x235 PUSH1 0x4 DUP1 CALLDATASIZE SUB DUP2 ADD SWAP1 DUP1 DUP1 CALLDATALOAD SWAP1 PUSH1 0x20 ADD SWAP1 SWAP3 SWAP2 SWAP1 POP POP POP PUSH2 0xAEC JUMP JUMPDEST PUSH1 0x40 MLOAD DUP1 DUP3 PUSH1 0x0 NOT AND PUSH1 0x0 NOT AND DUP2 MSTORE PUSH1 0x20 ADD SWAP2 POP POP PUSH1 0x40 MLOAD DUP1 SWAP2 SUB SWAP1 RETURN JUMPDEST CALLVALUE DUP1 ISZERO PUSH2 0x25F JUMPI PUSH1 0x0 DUP1 REVERT JUMPDEST POP PUSH2 0x268 PUSH2 0xB16 JUMP JUMPDEST PUSH1 0x40 MLOAD DUP1 DUP3 DUP2 MSTORE PUSH1 0x20 ADD SWAP2 POP POP PUSH1 0x40 MLOAD DUP1 SWAP2 SUB SWAP1 RETURN JUMPDEST CALLVALUE DUP1 ISZERO PUSH2 0x28A JUMPI PUSH1 0x0 DUP1 REVERT JUMPDEST POP PUSH2 0x2E9 PUSH1 0x4 DUP1 CALLDATASIZE SUB DUP2 ADD SWAP1 DUP1 DUP1 CALLDATALOAD PUSH20 0xFFFFFFFFFFFFFFFFFFFFFFFFFFFFFFFFFFFFFFFF AND SWAP1 PUSH1 0x20 ADD SWAP1 SWAP3 SWAP2 SWAP1 DUP1 CALLDATALOAD PUSH20 0xFFFFFFFFFFFFFFFFFFFFFFFFFFFFFFFFFFFFFFFF AND SWAP1 PUSH1 0x20 ADD SWAP1 SWAP3 SWAP2 SWAP1 DUP1 CALLDATALOAD SWAP1 PUSH1 0x20 ADD SWAP1 SWAP3 SWAP2 SWAP1 POP POP POP PUSH2 0xB23 JUMP JUMPDEST STOP JUMPDEST CALLVALUE DUP1 ISZERO PUSH2 0x2F7 JUMPI PUSH1 0x0 DUP1 REVERT JUMPDEST POP PUSH2 0x316 PUSH1 0x4 DUP1 CALLDATASIZE SUB DUP2 ADD SWAP1 DUP1 DUP1 CALLDATALOAD SWAP1 PUSH1 0x20 ADD SWAP1 SWAP3 SWAP2 SWAP1 POP POP POP PUSH2 0xB83 JUMP JUMPDEST PUSH1 0x40 MLOAD DUP1 DUP3 PUSH1 0xFF AND PUSH1 0xFF AND DUP2 MSTORE PUSH1 0x20 ADD SWAP2 POP POP PUSH1 0x40 MLOAD DUP1 SWAP2 SUB SWAP1 RETURN JUMPDEST CALLVALUE DUP1 ISZERO PUSH2 0x33E JUMPI PUSH1 0x0 DUP1 REVERT JUMPDEST POP PUSH2 0x35D PUSH1 0x4 DUP1 CALLDATASIZE SUB DUP2 ADD SWAP1 DUP1 DUP1 CALLDATALOAD SWAP1 PUSH1 0x20 ADD SWAP1 SWAP3 SWAP2 SWAP1 POP POP POP PUSH2 0xBBA JUMP JUMPDEST PUSH1 0x40 MLOAD DUP1 DUP3 PUSH20 0xFFFFFFFFFFFFFFFFFFFFFFFFFFFFFFFFFFFFFFFF AND PUSH20 0xFFFFFFFFFFFFFFFFFFFFFFFFFFFFFFFFFFFFFFFF AND DUP2 MSTORE PUSH1 0x20 ADD SWAP2 POP POP PUSH1 0x40 MLOAD DUP1 SWAP2 SUB SWAP1 RETURN JUMPDEST CALLVALUE DUP1 ISZERO PUSH2 0x3AB JUMPI PUSH1 0x0 DUP1 REVERT JUMPDEST POP PUSH2 0x3E0 PUSH1 0x4 DUP1 CALLDATASIZE SUB DUP2 ADD SWAP1 DUP1 DUP1 CALLDATALOAD PUSH20 0xFFFFFFFFFFFFFFFFFFFFFFFFFFFFFFFFFFFFFFFF AND SWAP1 PUSH1 0x20 ADD SWAP1 SWAP3 SWAP2 SWAP1 POP POP POP PUSH2 0xBF7 JUMP JUMPDEST PUSH1 0x40 MLOAD DUP1 DUP3 DUP2 MSTORE PUSH1 0x20 ADD SWAP2 POP POP PUSH1 0x40 MLOAD DUP1 SWAP2 SUB SWAP1 RETURN JUMPDEST CALLVALUE DUP1 ISZERO PUSH2 0x402 JUMPI PUSH1 0x0 DUP1 REVERT JUMPDEST POP PUSH2 0x40B PUSH2 0xC40 JUMP JUMPDEST STOP JUMPDEST CALLVALUE DUP1 ISZERO PUSH2 0x419 JUMPI PUSH1 0x0 DUP1 REVERT JUMPDEST POP PUSH2 0x422 PUSH2 0xC82 JUMP JUMPDEST PUSH1 0x40 MLOAD DUP1 DUP3 PUSH20 0xFFFFFFFFFFFFFFFFFFFFFFFFFFFFFFFFFFFFFFFF AND PUSH20 0xFFFFFFFFFFFFFFFFFFFFFFFFFFFFFFFFFFFFFFFF AND DUP2 MSTORE PUSH1 0x20 ADD SWAP2 POP POP PUSH1 0x40 MLOAD DUP1 SWAP2 SUB SWAP1 RETURN JUMPDEST CALLVALUE DUP1 ISZERO PUSH2 0x470 JUMPI PUSH1 0x0 DUP1 REVERT JUMPDEST POP PUSH2 0x479 PUSH2 0xCA7 JUMP JUMPDEST PUSH1 0x40 MLOAD DUP1 DUP1 PUSH1 0x20 ADD DUP3 DUP2 SUB DUP3 MSTORE DUP4 DUP2 DUP2 MLOAD DUP2 MSTORE PUSH1 0x20 ADD SWAP2 POP DUP1 MLOAD SWAP1 PUSH1 0x20 ADD SWAP1 DUP1 DUP4 DUP4 PUSH1 0x0 JUMPDEST DUP4 DUP2 LT ISZERO PUSH2 0x4B9 JUMPI DUP1 DUP3 ADD MLOAD DUP2 DUP5 ADD MSTORE PUSH1 0x20 DUP2 ADD SWAP1 POP PUSH2 0x49E JUMP JUMPDEST POP POP POP POP SWAP1 POP SWAP1 DUP2 ADD SWAP1 PUSH1 0x1F AND DUP1 ISZERO PUSH2 0x4E6 JUMPI DUP1 DUP3 SUB DUP1 MLOAD PUSH1 0x1 DUP4 PUSH1 0x20 SUB PUSH2 0x100 EXP SUB NOT AND DUP2 MSTORE PUSH1 0x20 ADD SWAP2 POP JUMPDEST POP SWAP3 POP POP POP PUSH1 0x40 MLOAD DUP1 SWAP2 SUB SWAP1 RETURN JUMPDEST CALLVALUE DUP1 ISZERO PUSH2 0x500 JUMPI PUSH1 0x0 DUP1 REVERT JUMPDEST POP PUSH2 0x51F PUSH1 0x4 DUP1 CALLDATASIZE SUB DUP2 ADD SWAP1 DUP1 DUP1 CALLDATALOAD SWAP1 PUSH1 0x20 ADD SWAP1 SWAP3 SWAP2 SWAP1 POP POP POP PUSH2 0xD49 JUMP JUMPDEST PUSH1 0x40 MLOAD DUP1 DUP5 PUSH1 0x0 NOT AND PUSH1 0x0 NOT AND DUP2 MSTORE PUSH1 0x20 ADD DUP4 PUSH1 0xFF AND PUSH1 0xFF AND DUP2 MSTORE PUSH1 0x20 ADD DUP3 PUSH2 0xFFFF AND PUSH2 0xFFFF AND DUP2 MSTORE PUSH1 0x20 ADD SWAP4 POP POP POP POP PUSH1 0x40 MLOAD DUP1 SWAP2 SUB SWAP1 RETURN JUMPDEST CALLVALUE DUP1 ISZERO PUSH2 0x565 JUMPI PUSH1 0x0 DUP1 REVERT JUMPDEST POP PUSH2 0x59A PUSH1 0x4 DUP1 CALLDATASIZE SUB DUP2 ADD SWAP1 DUP1 DUP1 CALLDATALOAD PUSH20 0xFFFFFFFFFFFFFFFFFFFFFFFFFFFFFFFFFFFFFFFF AND SWAP1 PUSH1 0x20 ADD SWAP1 SWAP3 SWAP2 SWAP1 POP POP POP PUSH2 0xD9D JUMP JUMPDEST PUSH1 0x40 MLOAD DUP1 DUP1 PUSH1 0x20 ADD DUP3 DUP2 SUB DUP3 MSTORE DUP4 DUP2 DUP2 MLOAD DUP2 MSTORE PUSH1 0x20 ADD SWAP2 POP DUP1 MLOAD SWAP1 PUSH1 0x20 ADD SWAP1 PUSH1 0x20 MUL DUP1 DUP4 DUP4 PUSH1 0x0 JUMPDEST DUP4 DUP2 LT ISZERO PUSH2 0x5DD JUMPI DUP1 DUP3 ADD MLOAD DUP2 DUP5 ADD MSTORE PUSH1 0x20 DUP2 ADD SWAP1 POP PUSH2 0x5C2 JUMP JUMPDEST POP POP POP POP SWAP1 POP ADD SWAP3 POP POP POP PUSH1 0x40 MLOAD DUP1 SWAP2 SUB SWAP1 RETURN JUMPDEST CALLVALUE DUP1 ISZERO PUSH2 0x5FD JUMPI PUSH1 0x0 DUP1 REVERT JUMPDEST POP PUSH2 0x63C PUSH1 0x4 DUP1 CALLDATASIZE SUB DUP2 ADD SWAP1 DUP1 DUP1 CALLDATALOAD PUSH20 0xFFFFFFFFFFFFFFFFFFFFFFFFFFFFFFFFFFFFFFFF AND SWAP1 PUSH1 0x20 ADD SWAP1 SWAP3 SWAP2 SWAP1 DUP1 CALLDATALOAD SWAP1 PUSH1 0x20 ADD SWAP1 SWAP3 SWAP2 SWAP1 POP POP POP PUSH2 0xECF JUMP JUMPDEST STOP JUMPDEST CALLVALUE DUP1 ISZERO PUSH2 0x64A JUMPI PUSH1 0x0 DUP1 REVERT JUMPDEST POP PUSH2 0x653 PUSH2 0xF9B JUMP JUMPDEST PUSH1 0x40 MLOAD DUP1 DUP1 PUSH1 0x20 ADD DUP3 DUP2 SUB DUP3 MSTORE DUP4 DUP2 DUP2 MLOAD DUP2 MSTORE PUSH1 0x20 ADD SWAP2 POP DUP1 MLOAD SWAP1 PUSH1 0x20 ADD SWAP1 DUP1 DUP4 DUP4 PUSH1 0x0 JUMPDEST DUP4 DUP2 LT ISZERO PUSH2 0x693 JUMPI DUP1 DUP3 ADD MLOAD DUP2 DUP5 ADD MSTORE PUSH1 0x20 DUP2 ADD SWAP1 POP PUSH2 0x678 JUMP JUMPDEST POP POP POP POP SWAP1 POP SWAP1 DUP2 ADD SWAP1 PUSH1 0x1F AND DUP1 ISZERO PUSH2 0x6C0 JUMPI DUP1 DUP3 SUB DUP1 MLOAD PUSH1 0x1 DUP4 PUSH1 0x20 SUB PUSH2 0x100 EXP SUB NOT AND DUP2 MSTORE PUSH1 0x20 ADD SWAP2 POP JUMPDEST POP SWAP3 POP POP POP PUSH1 0x40 MLOAD DUP1 SWAP2 SUB SWAP1 RETURN JUMPDEST CALLVALUE DUP1 ISZERO PUSH2 0x6DA JUMPI PUSH1 0x0 DUP1 REVERT JUMPDEST POP PUSH2 0x6F9 PUSH1 0x4 DUP1 CALLDATASIZE SUB DUP2 ADD SWAP1 DUP1 DUP1 CALLDATALOAD SWAP1 PUSH1 0x20 ADD SWAP1 SWAP3 SWAP2 SWAP1 POP POP POP PUSH2 0x1039 JUMP JUMPDEST STOP JUMPDEST CALLVALUE DUP1 ISZERO PUSH2 0x707 JUMPI PUSH1 0x0 DUP1 REVERT JUMPDEST POP PUSH2 0x726 PUSH1 0x4 DUP1 CALLDATASIZE SUB DUP2 ADD SWAP1 DUP1 DUP1 CALLDATALOAD SWAP1 PUSH1 0x20 ADD SWAP1 SWAP3 SWAP2 SWAP1 POP POP POP PUSH2 0x12D4 JUMP JUMPDEST PUSH1 0x40 MLOAD DUP1 DUP3 PUSH20 0xFFFFFFFFFFFFFFFFFFFFFFFFFFFFFFFFFFFFFFFF AND PUSH20 0xFFFFFFFFFFFFFFFFFFFFFFFFFFFFFFFFFFFFFFFF AND DUP2 MSTORE PUSH1 0x20 ADD SWAP2 POP POP PUSH1 0x40 MLOAD DUP1 SWAP2 SUB SWAP1 RETURN JUMPDEST CALLVALUE DUP1 ISZERO PUSH2 0x774 JUMPI PUSH1 0x0 DUP1 REVERT JUMPDEST POP PUSH2 0x77D PUSH2 0x1307 JUMP JUMPDEST PUSH1 0x40 MLOAD DUP1 DUP1 PUSH1 0x20 ADD DUP3 DUP2 SUB DUP3 MSTORE DUP4 DUP2 DUP2 MLOAD DUP2 MSTORE PUSH1 0x20 ADD SWAP2 POP DUP1 MLOAD SWAP1 PUSH1 0x20 ADD SWAP1 DUP1 DUP4 DUP4 PUSH1 0x0 JUMPDEST DUP4 DUP2 LT ISZERO PUSH2 0x7BD JUMPI DUP1 DUP3 ADD MLOAD DUP2 DUP5 ADD MSTORE PUSH1 0x20 DUP2 ADD SWAP1 POP PUSH2 0x7A2 JUMP JUMPDEST POP POP POP POP SWAP1 POP SWAP1 DUP2 ADD SWAP1 PUSH1 0x1F AND DUP1 ISZERO PUSH2 0x7EA JUMPI DUP1 DUP3 SUB DUP1 MLOAD PUSH1 0x1 DUP4 PUSH1 0x20 SUB PUSH2 0x100 EXP SUB NOT AND DUP2 MSTORE PUSH1 0x20 ADD SWAP2 POP JUMPDEST POP SWAP3 POP POP POP PUSH1 0x40 MLOAD DUP1 SWAP2 SUB SWAP1 RETURN JUMPDEST CALLVALUE DUP1 ISZERO PUSH2 0x804 JUMPI PUSH1 0x0 DUP1 REVERT JUMPDEST POP PUSH2 0x87C PUSH1 0x4 DUP1 CALLDATASIZE SUB DUP2 ADD SWAP1 DUP1 DUP1 CALLDATALOAD SWAP1 PUSH1 0x20 ADD SWAP1 DUP3 ADD DUP1 CALLDATALOAD SWAP1 PUSH1 0x20 ADD SWAP1 DUP1 DUP1 PUSH1 0x20 MUL PUSH1 0x20 ADD PUSH1 0x40 MLOAD SWAP1 DUP2 ADD PUSH1 0x40 MSTORE DUP1 SWAP4 SWAP3 SWAP2 SWAP1 DUP2 DUP2 MSTORE PUSH1 0x20 ADD DUP4 DUP4 PUSH1 0x20 MUL DUP1 DUP3 DUP5 CALLDATACOPY DUP3 ADD SWAP2 POP POP POP POP POP POP SWAP2 SWAP3 SWAP2 SWAP3 SWAP1 DUP1 CALLDATALOAD PUSH20 0xFFFFFFFFFFFFFFFFFFFFFFFFFFFFFFFFFFFFFFFF AND SWAP1 PUSH1 0x20 ADD SWAP1 SWAP3 SWAP2 SWAP1 POP POP POP PUSH2 0x13A5 JUMP JUMPDEST PUSH1 0x40 MLOAD DUP1 DUP3 ISZERO ISZERO ISZERO ISZERO DUP2 MSTORE PUSH1 0x20 ADD SWAP2 POP POP PUSH1 0x40 MLOAD DUP1 SWAP2 SUB SWAP1 RETURN JUMPDEST PUSH2 0x89E PUSH2 0x1457 JUMP JUMPDEST STOP JUMPDEST CALLVALUE DUP1 ISZERO PUSH2 0x8AC JUMPI PUSH1 0x0 DUP1 REVERT JUMPDEST POP PUSH2 0x8E1 PUSH1 0x4 DUP1 CALLDATASIZE SUB DUP2 ADD SWAP1 DUP1 DUP1 CALLDATALOAD PUSH20 0xFFFFFFFFFFFFFFFFFFFFFFFFFFFFFFFFFFFFFFFF AND SWAP1 PUSH1 0x20 ADD SWAP1 SWAP3 SWAP2 SWAP1 POP POP POP PUSH2 0x178D JUMP JUMPDEST STOP JUMPDEST CALLVALUE DUP1 ISZERO PUSH2 0x8EF JUMPI PUSH1 0x0 DUP1 REVERT JUMPDEST POP PUSH2 0x90E PUSH1 0x4 DUP1 CALLDATASIZE SUB DUP2 ADD SWAP1 DUP1 DUP1 CALLDATALOAD SWAP1 PUSH1 0x20 ADD SWAP1 SWAP3 SWAP2 SWAP1 POP POP POP PUSH2 0x18E2 JUMP JUMPDEST PUSH1 0x40 MLOAD DUP1 DUP3 PUSH2 0xFFFF AND PUSH2 0xFFFF AND DUP2 MSTORE PUSH1 0x20 ADD SWAP2 POP POP PUSH1 0x40 MLOAD DUP1 SWAP2 SUB SWAP1 RETURN JUMPDEST PUSH1 0x60 PUSH1 0x1 DUP1 SLOAD PUSH1 0x1 DUP2 PUSH1 0x1 AND ISZERO PUSH2 0x100 MUL SUB AND PUSH1 0x2 SWAP1 DIV DUP1 PUSH1 0x1F ADD PUSH1 0x20 DUP1 SWAP2 DIV MUL PUSH1 0x20 ADD PUSH1 0x40 MLOAD SWAP1 DUP2 ADD PUSH1 0x40 MSTORE DUP1 SWAP3 SWAP2 SWAP1 DUP2 DUP2 MSTORE PUSH1 0x20 ADD DUP3 DUP1 SLOAD PUSH1 0x1 DUP2 PUSH1 0x1 AND ISZERO PUSH2 0x100 MUL SUB AND PUSH1 0x2 SWAP1 DIV DUP1 ISZERO PUSH2 0x9C4 JUMPI DUP1 PUSH1 0x1F LT PUSH2 0x999 JUMPI PUSH2 0x100 DUP1 DUP4 SLOAD DIV MUL DUP4 MSTORE SWAP2 PUSH1 0x20 ADD SWAP2 PUSH2 0x9C4 JUMP JUMPDEST DUP3 ADD SWAP2 SWAP1 PUSH1 0x0 MSTORE PUSH1 0x20 PUSH1 0x0 KECCAK256 SWAP1 JUMPDEST DUP2 SLOAD DUP2 MSTORE SWAP1 PUSH1 0x1 ADD SWAP1 PUSH1 0x20 ADD DUP1 DUP4 GT PUSH2 0x9A7 JUMPI DUP3 SWAP1 SUB PUSH1 0x1F AND DUP3 ADD SWAP2 JUMPDEST POP POP POP POP POP SWAP1 POP SWAP1 JUMP JUMPDEST CALLER PUSH20 0xFFFFFFFFFFFFFFFFFFFFFFFFFFFFFFFFFFFFFFFF AND PUSH1 0x4 PUSH1 0x0 DUP4 DUP2 MSTORE PUSH1 0x20 ADD SWAP1 DUP2 MSTORE PUSH1 0x20 ADD PUSH1 0x0 KECCAK256 PUSH1 0x0 SWAP1 SLOAD SWAP1 PUSH2 0x100 EXP SWAP1 DIV PUSH20 0xFFFFFFFFFFFFFFFFFFFFFFFFFFFFFFFFFFFFFFFF AND PUSH20 0xFFFFFFFFFFFFFFFFFFFFFFFFFFFFFFFFFFFFFFFF AND EQ ISZERO ISZERO PUSH2 0xA3B JUMPI PUSH1 0x0 DUP1 REVERT JUMPDEST DUP2 PUSH1 0x6 PUSH1 0x0 DUP4 DUP2 MSTORE PUSH1 0x20 ADD SWAP1 DUP2 MSTORE PUSH1 0x20 ADD PUSH1 0x0 KECCAK256 PUSH1 0x0 PUSH2 0x100 EXP DUP2 SLOAD DUP2 PUSH20 0xFFFFFFFFFFFFFFFFFFFFFFFFFFFFFFFFFFFFFFFF MUL NOT AND SWAP1 DUP4 PUSH20 0xFFFFFFFFFFFFFFFFFFFFFFFFFFFFFFFFFFFFFFFF AND MUL OR SWAP1 SSTORE POP DUP1 DUP3 PUSH20 0xFFFFFFFFFFFFFFFFFFFFFFFFFFFFFFFFFFFFFFFF AND CALLER PUSH20 0xFFFFFFFFFFFFFFFFFFFFFFFFFFFFFFFFFFFFFFFF AND PUSH32 0x8C5BE1E5EBEC7D5BD14F71427D1E84F3DD0314C0F7B2291E5B200AC8C7C3B925 PUSH1 0x40 MLOAD PUSH1 0x40 MLOAD DUP1 SWAP2 SUB SWAP1 LOG4 POP POP JUMP JUMPDEST PUSH1 0x0 PUSH1 0x2 DUP3 DUP2 SLOAD DUP2 LT ISZERO ISZERO PUSH2 0xAFD JUMPI INVALID JUMPDEST SWAP1 PUSH1 0x0 MSTORE PUSH1 0x20 PUSH1 0x0 KECCAK256 SWAP1 PUSH1 0x2 MUL ADD PUSH1 0x0 ADD SLOAD SWAP1 POP SWAP2 SWAP1 POP JUMP JUMPDEST PUSH1 0x0 PUSH1 0x2 DUP1 SLOAD SWAP1 POP SWAP1 POP SWAP1 JUMP JUMPDEST DUP1 DUP3 PUSH20 0xFFFFFFFFFFFFFFFFFFFFFFFFFFFFFFFFFFFFFFFF AND DUP5 PUSH20 0xFFFFFFFFFFFFFFFFFFFFFFFFFFFFFFFFFFFFFFFF AND PUSH32 0xDDF252AD1BE2C89B69C2B068FC378DAA952BA7F163C4A11628F55A4DF523B3EF PUSH1 0x40 MLOAD PUSH1 0x40 MLOAD DUP1 SWAP2 SUB SWAP1 LOG4 POP POP POP JUMP JUMPDEST PUSH1 0x0 PUSH1 0x2 DUP3 DUP2 SLOAD DUP2 LT ISZERO ISZERO PUSH2 0xB94 JUMPI INVALID JUMPDEST SWAP1 PUSH1 0x0 MSTORE PUSH1 0x20 PUSH1 0x0 KECCAK256 SWAP1 PUSH1 0x2 MUL ADD PUSH1 0x1 ADD PUSH1 0x0 SWAP1 SLOAD SWAP1 PUSH2 0x100 EXP SWAP1 DIV PUSH1 0xFF AND SWAP1 POP SWAP2 SWAP1 POP JUMP JUMPDEST PUSH1 0x0 PUSH1 0x4 PUSH1 0x0 DUP4 DUP2 MSTORE PUSH1 0x20 ADD SWAP1 DUP2 MSTORE PUSH1 0x20 ADD PUSH1 0x0 KECCAK256 PUSH1 0x0 SWAP1 SLOAD SWAP1 PUSH2 0x100 EXP SWAP1 DIV PUSH20 0xFFFFFFFFFFFFFFFFFFFFFFFFFFFFFFFFFFFFFFFF AND SWAP1 POP SWAP2 SWAP1 POP JUMP JUMPDEST PUSH1 0x0 PUSH1 0x5 PUSH1 0x0 DUP4 PUSH20 0xFFFFFFFFFFFFFFFFFFFFFFFFFFFFFFFFFFFFFFFF AND PUSH20 0xFFFFFFFFFFFFFFFFFFFFFFFFFFFFFFFFFFFFFFFF AND DUP2 MSTORE PUSH1 0x20 ADD SWAP1 DUP2 MSTORE PUSH1 0x20 ADD PUSH1 0x0 KECCAK256 SLOAD SWAP1 POP SWAP2 SWAP1 POP JUMP JUMPDEST CALLER PUSH1 0x0 DUP1 PUSH2 0x100 EXP DUP2 SLOAD DUP2 PUSH20 0xFFFFFFFFFFFFFFFFFFFFFFFFFFFFFFFFFFFFFFFF MUL NOT AND SWAP1 DUP4 PUSH20 0xFFFFFFFFFFFFFFFFFFFFFFFFFFFFFFFFFFFFFFFF AND MUL OR SWAP1 SSTORE POP JUMP JUMPDEST PUSH1 0x0 DUP1 SWAP1 SLOAD SWAP1 PUSH2 0x100 EXP SWAP1 DIV PUSH20 0xFFFFFFFFFFFFFFFFFFFFFFFFFFFFFFFFFFFFFFFF AND DUP2 JUMP JUMPDEST PUSH1 0x60 PUSH1 0x3 DUP1 SLOAD PUSH1 0x1 DUP2 PUSH1 0x1 AND ISZERO PUSH2 0x100 MUL SUB AND PUSH1 0x2 SWAP1 DIV DUP1 PUSH1 0x1F ADD PUSH1 0x20 DUP1 SWAP2 DIV MUL PUSH1 0x20 ADD PUSH1 0x40 MLOAD SWAP1 DUP2 ADD PUSH1 0x40 MSTORE DUP1 SWAP3 SWAP2 SWAP1 DUP2 DUP2 MSTORE PUSH1 0x20 ADD DUP3 DUP1 SLOAD PUSH1 0x1 DUP2 PUSH1 0x1 AND ISZERO PUSH2 0x100 MUL SUB AND PUSH1 0x2 SWAP1 DIV DUP1 ISZERO PUSH2 0xD3F JUMPI DUP1 PUSH1 0x1F LT PUSH2 0xD14 JUMPI PUSH2 0x100 DUP1 DUP4 SLOAD DIV MUL DUP4 MSTORE SWAP2 PUSH1 0x20 ADD SWAP2 PUSH2 0xD3F JUMP JUMPDEST DUP3 ADD SWAP2 SWAP1 PUSH1 0x0 MSTORE PUSH1 0x20 PUSH1 0x0 KECCAK256 SWAP1 JUMPDEST DUP2 SLOAD DUP2 MSTORE SWAP1 PUSH1 0x1 ADD SWAP1 PUSH1 0x20 ADD DUP1 DUP4 GT PUSH2 0xD22 JUMPI DUP3 SWAP1 SUB PUSH1 0x1F AND DUP3 ADD SWAP2 JUMPDEST POP POP POP POP POP SWAP1 POP SWAP1 JUMP JUMPDEST PUSH1 0x2 DUP2 DUP2 SLOAD DUP2 LT ISZERO ISZERO PUSH2 0xD58 JUMPI INVALID JUMPDEST SWAP1 PUSH1 0x0 MSTORE PUSH1 0x20 PUSH1 0x0 KECCAK256 SWAP1 PUSH1 0x2 MUL ADD PUSH1 0x0 SWAP2 POP SWAP1 POP DUP1 PUSH1 0x0 ADD SLOAD SWAP1 DUP1 PUSH1 0x1 ADD PUSH1 0x0 SWAP1 SLOAD SWAP1 PUSH2 0x100 EXP SWAP1 DIV PUSH1 0xFF AND SWAP1 DUP1 PUSH1 0x1 ADD PUSH1 0x1 SWAP1 SLOAD SWAP1 PUSH2 0x100 EXP SWAP1 DIV PUSH2 0xFFFF AND SWAP1 POP DUP4 JUMP JUMPDEST PUSH1 0x60 DUP1 PUSH1 0x0 DUP1 PUSH1 0x5 PUSH1 0x0 DUP7 PUSH20 0xFFFFFFFFFFFFFFFFFFFFFFFFFFFFFFFFFFFFFFFF AND PUSH20 0xFFFFFFFFFFFFFFFFFFFFFFFFFFFFFFFFFFFFFFFF AND DUP2 MSTORE PUSH1 0x20 ADD SWAP1 DUP2 MSTORE PUSH1 0x20 ADD PUSH1 0x0 KECCAK256 SLOAD PUSH1 0x40 MLOAD SWAP1 DUP1 DUP3 MSTORE DUP1 PUSH1 0x20 MUL PUSH1 0x20 ADD DUP3 ADD PUSH1 0x40 MSTORE DUP1 ISZERO PUSH2 0xE11 JUMPI DUP2 PUSH1 0x20 ADD PUSH1 0x20 DUP3 MUL DUP1 CODESIZE DUP4 CODECOPY DUP1 DUP3 ADD SWAP2 POP POP SWAP1 POP JUMPDEST POP SWAP3 POP PUSH1 0x0 SWAP2 POP PUSH1 0x0 SWAP1 POP JUMPDEST PUSH1 0x2 DUP1 SLOAD SWAP1 POP DUP2 LT ISZERO PUSH2 0xEC4 JUMPI DUP5 PUSH20 0xFFFFFFFFFFFFFFFFFFFFFFFFFFFFFFFFFFFFFFFF AND PUSH1 0x4 PUSH1 0x0 DUP4 DUP2 MSTORE PUSH1 0x20 ADD SWAP1 DUP2 MSTORE PUSH1 0x20 ADD PUSH1 0x0 KECCAK256 PUSH1 0x0 SWAP1 SLOAD SWAP1 PUSH2 0x100 EXP SWAP1 DIV PUSH20 0xFFFFFFFFFFFFFFFFFFFFFFFFFFFFFFFFFFFFFFFF AND PUSH20 0xFFFFFFFFFFFFFFFFFFFFFFFFFFFFFFFFFFFFFFFF AND EQ ISZERO PUSH2 0xEB7 JUMPI DUP1 DUP4 DUP4 DUP2 MLOAD DUP2 LT ISZERO ISZERO PUSH2 0xEA0 JUMPI INVALID JUMPDEST SWAP1 PUSH1 0x20 ADD SWAP1 PUSH1 0x20 MUL ADD DUP2 DUP2 MSTORE POP POP DUP2 DUP1 PUSH1 0x1 ADD SWAP3 POP POP JUMPDEST DUP1 DUP1 PUSH1 0x1 ADD SWAP2 POP POP PUSH2 0xE1D JUMP JUMPDEST DUP3 SWAP4 POP POP POP POP SWAP2 SWAP1 POP JUMP JUMPDEST CALLER PUSH20 0xFFFFFFFFFFFFFFFFFFFFFFFFFFFFFFFFFFFFFFFF AND PUSH1 0x4 PUSH1 0x0 DUP4 DUP2 MSTORE PUSH1 0x20 ADD SWAP1 DUP2 MSTORE PUSH1 0x20 ADD PUSH1 0x0 KECCAK256 PUSH1 0x0 SWAP1 SLOAD SWAP1 PUSH2 0x100 EXP SWAP1 DIV PUSH20 0xFFFFFFFFFFFFFFFFFFFFFFFFFFFFFFFFFFFFFFFF AND PUSH20 0xFFFFFFFFFFFFFFFFFFFFFFFFFFFFFFFFFFFFFFFF AND EQ ISZERO ISZERO PUSH2 0xF3C JUMPI PUSH1 0x0 DUP1 REVERT JUMPDEST DUP1 DUP3 PUSH20 0xFFFFFFFFFFFFFFFFFFFFFFFFFFFFFFFFFFFFFFFF AND CALLER PUSH20 0xFFFFFFFFFFFFFFFFFFFFFFFFFFFFFFFFFFFFFFFF AND PUSH32 0xDDF252AD1BE2C89B69C2B068FC378DAA952BA7F163C4A11628F55A4DF523B3EF PUSH1 0x40 MLOAD PUSH1 0x40 MLOAD DUP1 SWAP2 SUB SWAP1 LOG4 POP POP JUMP JUMPDEST PUSH1 0x3 DUP1 SLOAD PUSH1 0x1 DUP2 PUSH1 0x1 AND ISZERO PUSH2 0x100 MUL SUB AND PUSH1 0x2 SWAP1 DIV DUP1 PUSH1 0x1F ADD PUSH1 0x20 DUP1 SWAP2 DIV MUL PUSH1 0x20 ADD PUSH1 0x40 MLOAD SWAP1 DUP2 ADD PUSH1 0x40 MSTORE DUP1 SWAP3 SWAP2 SWAP1 DUP2 DUP2 MSTORE PUSH1 0x20 ADD DUP3 DUP1 SLOAD PUSH1 0x1 DUP2 PUSH1 0x1 AND ISZERO PUSH2 0x100 MUL SUB AND PUSH1 0x2 SWAP1 DIV DUP1 ISZERO PUSH2 0x1031 JUMPI DUP1 PUSH1 0x1F LT PUSH2 0x1006 JUMPI PUSH2 0x100 DUP1 DUP4 SLOAD DIV MUL DUP4 MSTORE SWAP2 PUSH1 0x20 ADD SWAP2 PUSH2 0x1031 JUMP JUMPDEST DUP3 ADD SWAP2 SWAP1 PUSH1 0x0 MSTORE PUSH1 0x20 PUSH1 0x0 KECCAK256 SWAP1 JUMPDEST DUP2 SLOAD DUP2 MSTORE SWAP1 PUSH1 0x1 ADD SWAP1 PUSH1 0x20 ADD DUP1 DUP4 GT PUSH2 0x1014 JUMPI DUP3 SWAP1 SUB PUSH1 0x1F AND DUP3 ADD SWAP2 JUMPDEST POP POP POP POP POP DUP2 JUMP JUMPDEST PUSH1 0x0 CALLER PUSH20 0xFFFFFFFFFFFFFFFFFFFFFFFFFFFFFFFFFFFFFFFF AND PUSH1 0x4 PUSH1 0x0 DUP5 DUP2 MSTORE PUSH1 0x20 ADD SWAP1 DUP2 MSTORE PUSH1 0x20 ADD PUSH1 0x0 KECCAK256 PUSH1 0x0 SWAP1 SLOAD SWAP1 PUSH2 0x100 EXP SWAP1 DIV PUSH20 0xFFFFFFFFFFFFFFFFFFFFFFFFFFFFFFFFFFFFFFFF AND PUSH20 0xFFFFFFFFFFFFFFFFFFFFFFFFFFFFFFFFFFFFFFFF AND EQ ISZERO ISZERO PUSH2 0x10A8 JUMPI PUSH1 0x0 DUP1 REVERT JUMPDEST PUSH2 0x10B1 DUP3 PUSH2 0xBBA JUMP JUMPDEST SWAP1 POP PUSH2 0x1106 PUSH1 0x1 PUSH1 0x5 PUSH1 0x0 CALLER PUSH20 0xFFFFFFFFFFFFFFFFFFFFFFFFFFFFFFFFFFFFFFFF AND PUSH20 0xFFFFFFFFFFFFFFFFFFFFFFFFFFFFFFFFFFFFFFFF AND DUP2 MSTORE PUSH1 0x20 ADD SWAP1 DUP2 MSTORE PUSH1 0x20 ADD PUSH1 0x0 KECCAK256 SLOAD PUSH2 0x191A SWAP1 SWAP2 SWAP1 PUSH4 0xFFFFFFFF AND JUMP JUMPDEST PUSH1 0x5 PUSH1 0x0 CALLER PUSH20 0xFFFFFFFFFFFFFFFFFFFFFFFFFFFFFFFFFFFFFFFF AND PUSH20 0xFFFFFFFFFFFFFFFFFFFFFFFFFFFFFFFFFFFFFFFF AND DUP2 MSTORE PUSH1 0x20 ADD SWAP1 DUP2 MSTORE PUSH1 0x20 ADD PUSH1 0x0 KECCAK256 DUP2 SWAP1 SSTORE POP PUSH2 0x119C PUSH1 0x1 PUSH1 0x5 PUSH1 0x0 DUP5 PUSH20 0xFFFFFFFFFFFFFFFFFFFFFFFFFFFFFFFFFFFFFFFF AND PUSH20 0xFFFFFFFFFFFFFFFFFFFFFFFFFFFFFFFFFFFFFFFF AND DUP2 MSTORE PUSH1 0x20 ADD SWAP1 DUP2 MSTORE PUSH1 0x20 ADD PUSH1 0x0 KECCAK256 SLOAD PUSH2 0x1938 SWAP1 SWAP2 SWAP1 PUSH4 0xFFFFFFFF AND JUMP JUMPDEST PUSH1 0x5 PUSH1 0x0 DUP4 PUSH20 0xFFFFFFFFFFFFFFFFFFFFFFFFFFFFFFFFFFFFFFFF AND PUSH20 0xFFFFFFFFFFFFFFFFFFFFFFFFFFFFFFFFFFFFFFFF AND DUP2 MSTORE PUSH1 0x20 ADD SWAP1 DUP2 MSTORE PUSH1 0x20 ADD PUSH1 0x0 KECCAK256 DUP2 SWAP1 SSTORE POP CALLER PUSH1 0x4 PUSH1 0x0 DUP5 DUP2 MSTORE PUSH1 0x20 ADD SWAP1 DUP2 MSTORE PUSH1 0x20 ADD PUSH1 0x0 KECCAK256 PUSH1 0x0 PUSH2 0x100 EXP DUP2 SLOAD DUP2 PUSH20 0xFFFFFFFFFFFFFFFFFFFFFFFFFFFFFFFFFFFFFFFF MUL NOT AND SWAP1 DUP4 PUSH20 0xFFFFFFFFFFFFFFFFFFFFFFFFFFFFFFFFFFFFFFFF AND MUL OR SWAP1 SSTORE POP PUSH32 0x9BBD814328E65758B36306475BBC61410445DD088C88681ED74C940DC604DB1A CALLER DUP3 DUP5 PUSH1 0x40 MLOAD DUP1 DUP5 PUSH20 0xFFFFFFFFFFFFFFFFFFFFFFFFFFFFFFFFFFFFFFFF AND PUSH20 0xFFFFFFFFFFFFFFFFFFFFFFFFFFFFFFFFFFFFFFFF AND DUP2 MSTORE PUSH1 0x20 ADD DUP4 PUSH20 0xFFFFFFFFFFFFFFFFFFFFFFFFFFFFFFFFFFFFFFFF AND PUSH20 0xFFFFFFFFFFFFFFFFFFFFFFFFFFFFFFFFFFFFFFFF AND DUP2 MSTORE PUSH1 0x20 ADD DUP3 DUP2 MSTORE PUSH1 0x20 ADD SWAP4 POP POP POP POP PUSH1 0x40 MLOAD DUP1 SWAP2 SUB SWAP1 LOG1 POP POP JUMP JUMPDEST PUSH1 0x4 PUSH1 0x20 MSTORE DUP1 PUSH1 0x0 MSTORE PUSH1 0x40 PUSH1 0x0 KECCAK256 PUSH1 0x0 SWAP2 POP SLOAD SWAP1 PUSH2 0x100 EXP SWAP1 DIV PUSH20 0xFFFFFFFFFFFFFFFFFFFFFFFFFFFFFFFFFFFFFFFF AND DUP2 JUMP JUMPDEST PUSH1 0x1 DUP1 SLOAD PUSH1 0x1 DUP2 PUSH1 0x1 AND ISZERO PUSH2 0x100 MUL SUB AND PUSH1 0x2 SWAP1 DIV DUP1 PUSH1 0x1F ADD PUSH1 0x20 DUP1 SWAP2 DIV MUL PUSH1 0x20 ADD PUSH1 0x40 MLOAD SWAP1 DUP2 ADD PUSH1 0x40 MSTORE DUP1 SWAP3 SWAP2 SWAP1 DUP2 DUP2 MSTORE PUSH1 0x20 ADD DUP3 DUP1 SLOAD PUSH1 0x1 DUP2 PUSH1 0x1 AND ISZERO PUSH2 0x100 MUL SUB AND PUSH1 0x2 SWAP1 DIV DUP1 ISZERO PUSH2 0x139D JUMPI DUP1 PUSH1 0x1F LT PUSH2 0x1372 JUMPI PUSH2 0x100 DUP1 DUP4 SLOAD DIV MUL DUP4 MSTORE SWAP2 PUSH1 0x20 ADD SWAP2 PUSH2 0x139D JUMP JUMPDEST DUP3 ADD SWAP2 SWAP1 PUSH1 0x0 MSTORE PUSH1 0x20 PUSH1 0x0 KECCAK256 SWAP1 JUMPDEST DUP2 SLOAD DUP2 MSTORE SWAP1 PUSH1 0x1 ADD SWAP1 PUSH1 0x20 ADD DUP1 DUP4 GT PUSH2 0x1380 JUMPI DUP3 SWAP1 SUB PUSH1 0x1F AND DUP3 ADD SWAP2 JUMPDEST POP POP POP POP POP DUP2 JUMP JUMPDEST PUSH1 0x0 DUP1 PUSH1 0x0 SWAP1 POP JUMPDEST DUP4 MLOAD DUP2 LT ISZERO PUSH2 0x144B JUMPI PUSH1 0x4 PUSH1 0x0 DUP6 DUP4 DUP2 MLOAD DUP2 LT ISZERO ISZERO PUSH2 0x13C8 JUMPI INVALID JUMPDEST SWAP1 PUSH1 0x20 ADD SWAP1 PUSH1 0x20 MUL ADD MLOAD DUP2 MSTORE PUSH1 0x20 ADD SWAP1 DUP2 MSTORE PUSH1 0x20 ADD PUSH1 0x0 KECCAK256 PUSH1 0x0 SWAP1 SLOAD SWAP1 PUSH2 0x100 EXP SWAP1 DIV PUSH20 0xFFFFFFFFFFFFFFFFFFFFFFFFFFFFFFFFFFFFFFFF AND PUSH20 0xFFFFFFFFFFFFFFFFFFFFFFFFFFFFFFFFFFFFFFFF AND DUP4 PUSH20 0xFFFFFFFFFFFFFFFFFFFFFFFFFFFFFFFFFFFFFFFF AND EQ ISZERO ISZERO PUSH2 0x143E JUMPI PUSH1 0x0 SWAP2 POP PUSH2 0x1450 JUMP JUMPDEST DUP1 DUP1 PUSH1 0x1 ADD SWAP2 POP POP PUSH2 0x13AD JUMP JUMPDEST PUSH1 0x1 SWAP2 POP JUMPDEST POP SWAP3 SWAP2 POP POP JUMP JUMPDEST PUSH1 0x0 DUP1 PUSH1 0x0 DUP1 CALLER TIMESTAMP PUSH1 0x40 MLOAD PUSH1 0x20 ADD DUP1 DUP4 PUSH20 0xFFFFFFFFFFFFFFFFFFFFFFFFFFFFFFFFFFFFFFFF AND PUSH20 0xFFFFFFFFFFFFFFFFFFFFFFFFFFFFFFFFFFFFFFFF AND PUSH13 0x1000000000000000000000000 MUL DUP2 MSTORE PUSH1 0x14 ADD DUP3 DUP2 MSTORE PUSH1 0x20 ADD SWAP3 POP POP POP PUSH1 0x40 MLOAD PUSH1 0x20 DUP2 DUP4 SUB SUB DUP2 MSTORE SWAP1 PUSH1 0x40 MSTORE PUSH1 0x40 MLOAD DUP1 DUP3 DUP1 MLOAD SWAP1 PUSH1 0x20 ADD SWAP1 DUP1 DUP4 DUP4 JUMPDEST PUSH1 0x20 DUP4 LT ISZERO ISZERO PUSH2 0x14F5 JUMPI DUP1 MLOAD DUP3 MSTORE PUSH1 0x20 DUP3 ADD SWAP2 POP PUSH1 0x20 DUP2 ADD SWAP1 POP PUSH1 0x20 DUP4 SUB SWAP3 POP PUSH2 0x14D0 JUMP JUMPDEST PUSH1 0x1 DUP4 PUSH1 0x20 SUB PUSH2 0x100 EXP SUB DUP1 NOT DUP3 MLOAD AND DUP2 DUP5 MLOAD AND DUP1 DUP3 OR DUP6 MSTORE POP POP POP POP POP POP SWAP1 POP ADD SWAP2 POP POP PUSH1 0x40 MLOAD DUP1 SWAP2 SUB SWAP1 KECCAK256 SWAP4 POP PUSH1 0x4 TIMESTAMP DIFFICULTY PUSH1 0x40 MLOAD DUP1 DUP4 DUP2 MSTORE PUSH1 0x20 ADD DUP3 DUP2 MSTORE PUSH1 0x20 ADD SWAP3 POP POP POP PUSH1 0x40 MLOAD DUP1 SWAP2 SUB SWAP1 KECCAK256 PUSH1 0x1 SWAP1 DIV DUP2 ISZERO ISZERO PUSH2 0x1551 JUMPI INVALID JUMPDEST MOD PUSH1 0xFF AND SWAP2 POP PUSH1 0x5B TIMESTAMP DUP2 ISZERO ISZERO PUSH2 0x1563 JUMPI INVALID JUMPDEST MOD SWAP3 POP PUSH1 0x5 DUP4 GT ISZERO ISZERO PUSH2 0x1579 JUMPI PUSH1 0x1 SWAP3 POP PUSH2 0x15BA JUMP JUMPDEST PUSH1 0xE DUP4 GT ISZERO ISZERO PUSH2 0x158C JUMPI PUSH1 0x2 SWAP3 POP PUSH2 0x15B9 JUMP JUMPDEST PUSH1 0x1E DUP4 GT ISZERO ISZERO PUSH2 0x159F JUMPI PUSH1 0x3 SWAP3 POP PUSH2 0x15B8 JUMP JUMPDEST PUSH1 0x37 DUP4 GT ISZERO ISZERO PUSH2 0x15B2 JUMPI PUSH1 0x4 SWAP3 POP PUSH2 0x15B7 JUMP JUMPDEST PUSH1 0x5 SWAP3 POP JUMPDEST JUMPDEST JUMPDEST JUMPDEST PUSH6 0x5AF3107A4000 CALLVALUE LT ISZERO ISZERO ISZERO PUSH2 0x15CF JUMPI PUSH1 0x0 DUP1 REVERT JUMPDEST PUSH1 0x1 PUSH1 0x2 PUSH1 0x60 PUSH1 0x40 MLOAD SWAP1 DUP2 ADD PUSH1 0x40 MSTORE DUP1 DUP8 PUSH1 0x0 NOT AND DUP2 MSTORE PUSH1 0x20 ADD DUP7 PUSH1 0xFF AND DUP2 MSTORE PUSH1 0x20 ADD DUP6 PUSH1 0xFF AND PUSH2 0xFFFF AND DUP2 MSTORE POP SWAP1 DUP1 PUSH1 0x1 DUP2 SLOAD ADD DUP1 DUP3 SSTORE DUP1 SWAP2 POP POP SWAP1 PUSH1 0x1 DUP3 SUB SWAP1 PUSH1 0x0 MSTORE PUSH1 0x20 PUSH1 0x0 KECCAK256 SWAP1 PUSH1 0x2 MUL ADD PUSH1 0x0 SWAP1 SWAP2 SWAP3 SWAP1 SWAP2 SWAP1 SWAP2 POP PUSH1 0x0 DUP3 ADD MLOAD DUP2 PUSH1 0x0 ADD SWAP1 PUSH1 0x0 NOT AND SWAP1 SSTORE PUSH1 0x20 DUP3 ADD MLOAD DUP2 PUSH1 0x1 ADD PUSH1 0x0 PUSH2 0x100 EXP DUP2 SLOAD DUP2 PUSH1 0xFF MUL NOT AND SWAP1 DUP4 PUSH1 0xFF AND MUL OR SWAP1 SSTORE POP PUSH1 0x40 DUP3 ADD MLOAD DUP2 PUSH1 0x1 ADD PUSH1 0x1 PUSH2 0x100 EXP DUP2 SLOAD DUP2 PUSH2 0xFFFF MUL NOT AND SWAP1 DUP4 PUSH2 0xFFFF AND MUL OR SWAP1 SSTORE POP POP POP SUB SWAP1 POP CALLER PUSH1 0x4 PUSH1 0x0 DUP4 DUP2 MSTORE PUSH1 0x20 ADD SWAP1 DUP2 MSTORE PUSH1 0x20 ADD PUSH1 0x0 KECCAK256 PUSH1 0x0 PUSH2 0x100 EXP DUP2 SLOAD DUP2 PUSH20 0xFFFFFFFFFFFFFFFFFFFFFFFFFFFFFFFFFFFFFFFF MUL NOT AND SWAP1 DUP4 PUSH20 0xFFFFFFFFFFFFFFFFFFFFFFFFFFFFFFFFFFFFFFFF AND MUL OR SWAP1 SSTORE POP PUSH1 0x5 PUSH1 0x0 CALLER PUSH20 0xFFFFFFFFFFFFFFFFFFFFFFFFFFFFFFFFFFFFFFFF AND PUSH20 0xFFFFFFFFFFFFFFFFFFFFFFFFFFFFFFFFFFFFFFFF AND DUP2 MSTORE PUSH1 0x20 ADD SWAP1 DUP2 MSTORE PUSH1 0x20 ADD PUSH1 0x0 KECCAK256 PUSH1 0x0 DUP2 SLOAD DUP1 SWAP3 SWAP2 SWAP1 PUSH1 0x1 ADD SWAP2 SWAP1 POP SSTORE POP PUSH32 0x16A51FEAE275C0349D34D2C79ECBDAE4FCC7B9FD1B5E1840028A775E2A35B542 DUP2 DUP6 DUP6 DUP6 PUSH1 0x40 MLOAD DUP1 DUP6 DUP2 MSTORE PUSH1 0x20 ADD DUP5 PUSH1 0x0 NOT AND PUSH1 0x0 NOT AND DUP2 MSTORE PUSH1 0x20 ADD DUP4 PUSH1 0xFF AND PUSH1 0xFF AND DUP2 MSTORE PUSH1 0x20 ADD DUP3 PUSH2 0xFFFF AND PUSH2 0xFFFF AND DUP2 MSTORE PUSH1 0x20 ADD SWAP5 POP POP POP POP POP PUSH1 0x40 MLOAD DUP1 SWAP2 SUB SWAP1 LOG1 POP POP POP POP JUMP JUMPDEST PUSH1 0x0 DUP1 SWAP1 SLOAD SWAP1 PUSH2 0x100 EXP SWAP1 DIV PUSH20 0xFFFFFFFFFFFFFFFFFFFFFFFFFFFFFFFFFFFFFFFF AND PUSH20 0xFFFFFFFFFFFFFFFFFFFFFFFFFFFFFFFFFFFFFFFF AND CALLER PUSH20 0xFFFFFFFFFFFFFFFFFFFFFFFFFFFFFFFFFFFFFFFF AND EQ ISZERO ISZERO PUSH2 0x17E8 JUMPI PUSH1 0x0 DUP1 REVERT JUMPDEST PUSH1 0x0 PUSH20 0xFFFFFFFFFFFFFFFFFFFFFFFFFFFFFFFFFFFFFFFF AND DUP2 PUSH20 0xFFFFFFFFFFFFFFFFFFFFFFFFFFFFFFFFFFFFFFFF AND EQ ISZERO ISZERO ISZERO PUSH2 0x1824 JUMPI PUSH1 0x0 DUP1 REVERT JUMPDEST DUP1 PUSH20 0xFFFFFFFFFFFFFFFFFFFFFFFFFFFFFFFFFFFFFFFF AND PUSH1 0x0 DUP1 SWAP1 SLOAD SWAP1 PUSH2 0x100 EXP SWAP1 DIV PUSH20 0xFFFFFFFFFFFFFFFFFFFFFFFFFFFFFFFFFFFFFFFF AND PUSH20 0xFFFFFFFFFFFFFFFFFFFFFFFFFFFFFFFFFFFFFFFF AND PUSH32 0x8BE0079C531659141344CD1FD0A4F28419497F9722A3DAAFE3B4186F6B6457E0 PUSH1 0x40 MLOAD PUSH1 0x40 MLOAD DUP1 SWAP2 SUB SWAP1 LOG3 DUP1 PUSH1 0x0 DUP1 PUSH2 0x100 EXP DUP2 SLOAD DUP2 PUSH20 0xFFFFFFFFFFFFFFFFFFFFFFFFFFFFFFFFFFFFFFFF MUL NOT AND SWAP1 DUP4 PUSH20 0xFFFFFFFFFFFFFFFFFFFFFFFFFFFFFFFFFFFFFFFF AND MUL OR SWAP1 SSTORE POP POP JUMP JUMPDEST PUSH1 0x0 PUSH1 0x2 DUP3 DUP2 SLOAD DUP2 LT ISZERO ISZERO PUSH2 0x18F3 JUMPI INVALID JUMPDEST SWAP1 PUSH1 0x0 MSTORE PUSH1 0x20 PUSH1 0x0 KECCAK256 SWAP1 PUSH1 0x2 MUL ADD PUSH1 0x1 ADD PUSH1 0x1 SWAP1 SLOAD SWAP1 PUSH2 0x100 EXP SWAP1 DIV PUSH2 0xFFFF AND SWAP1 POP SWAP2 SWAP1 POP JUMP JUMPDEST PUSH1 0x0 DUP1 DUP3 DUP5 ADD SWAP1 POP DUP4 DUP2 LT ISZERO ISZERO ISZERO PUSH2 0x192E JUMPI INVALID JUMPDEST DUP1 SWAP2 POP POP SWAP3 SWAP2 POP POP JUMP JUMPDEST PUSH1 0x0 DUP3 DUP3 GT ISZERO ISZERO ISZERO PUSH2 0x1946 JUMPI INVALID JUMPDEST DUP2 DUP4 SUB SWAP1 POP SWAP3 SWAP2 POP POP JUMP STOP LOG1 PUSH6 0x627A7A723058 KECCAK256 PUSH12 0x54D28B5C39108FD027C9351D 0xb4 STOP 0xc5 EXTCODESIZE DUP8 0xb2 0xf7 SDIV SIGNEXTEND LOG2 RETURNDATASIZE 0x5f 0xab PUSH10 0x88CAA34430029000000 "
				},
				"gasEstimates": {
					"creation": {
						"codeDepositCost": "1305000",
						"executionCost": "infinite",
						"totalCost": "infinite"
					},
					"external": {
						"Ownable()": "20575",
						"animalToOwner(uint256)": "915",
						"animals(uint256)": "1644",
						"approve(address,uint256)": "22869",
						"balanceOf(address)": "713",
						"checkAllOwner(uint256[],address)": "infinite",
						"createAnimal()": "infinite",
						"getAnimalByOwner(address)": "infinite",
						"name()": "infinite",
						"name_()": "infinite",
						"owner()": "640",
						"ownerOf(uint256)": "721",
						"seeAnimalDna(uint256)": "828",
						"seeAnimalRole(uint256)": "1326",
						"seeAnimalStar(uint256)": "924",
						"symbol()": "infinite",
						"symbol_()": "infinite",
						"takeOwnership(uint256)": "infinite",
						"totalSupply()": "476",
						"transfer(address,uint256)": "2788",
						"transferFrom(address,address,uint256)": "2272",
						"transferOwnership(address)": "23005"
					}
				},
				"methodIdentifiers": {
					"Ownable()": "8afc3605",
					"animalToOwner(uint256)": "d81c513a",
					"animals(uint256)": "998dd3ca",
					"approve(address,uint256)": "095ea7b3",
					"balanceOf(address)": "70a08231",
					"checkAllOwner(uint256[],address)": "ea7cabdd",
					"createAnimal()": "ecaf39b0",
					"getAnimalByOwner(address)": "9af636e5",
					"name()": "06fdde03",
					"name_()": "e2b9e186",
					"owner()": "8da5cb5b",
					"ownerOf(uint256)": "6352211e",
					"seeAnimalDna(uint256)": "0c379520",
					"seeAnimalRole(uint256)": "f34674d6",
					"seeAnimalStar(uint256)": "36363d14",
					"symbol()": "95d89b41",
					"symbol_()": "af17dea6",
					"takeOwnership(uint256)": "b2e6ceeb",
					"totalSupply()": "18160ddd",
					"transfer(address,uint256)": "a9059cbb",
					"transferFrom(address,address,uint256)": "23b872dd",
					"transferOwnership(address)": "f2fde38b"
				}
			},
			"userdoc": {
				"methods": {}
			}
		}
	}
}