{
	"test.sol": {
		"mikochi": {
			"abi": [
				{
					"constant": true,
					"inputs": [],
					"name": "bb",
					"outputs": [
						{
							"name": "",
							"type": "uint256"
						}
					],
					"payable": false,
					"stateMutability": "view",
					"type": "function"
				},
				{
					"constant": false,
					"inputs": [],
					"name": "take",
					"outputs": [
						{
							"name": "",
							"type": "uint256"
						}
					],
					"payable": false,
					"stateMutability": "nonpayable",
					"type": "function"
				},
				{
					"constant": true,
					"inputs": [],
					"name": "result",
					"outputs": [
						{
							"name": "",
							"type": "uint256"
						}
					],
					"payable": false,
					"stateMutability": "view",
					"type": "function"
				},
				{
					"inputs": [],
					"payable": true,
					"stateMutability": "payable",
					"type": "constructor"
				},
				{
					"payable": true,
					"stateMutability": "payable",
					"type": "fallback"
				}
			],
			"devdoc": {
				"methods": {}
			},
			"evm": {
				"assembly": "    /* \"test.sol\":26:341  contract mikochi{... */\n  mstore(0x40, 0x80)\n  dataSize(sub_0)\n  dup1\n  dataOffset(sub_0)\n  0x0\n  codecopy\n  0x0\n  return\nstop\n\nsub_0: assembly {\n        /* \"test.sol\":26:341  contract mikochi{... */\n      mstore(0x40, 0x80)\n      jumpi(tag_1, lt(calldatasize, 0x4))\n      calldataload(0x0)\n      0x100000000000000000000000000000000000000000000000000000000\n      swap1\n      div\n      0xffffffff\n      and\n      dup1\n      0xa9ae69d\n      eq\n      tag_2\n      jumpi\n      dup1\n      0x159090bd\n      eq\n      tag_3\n      jumpi\n      dup1\n      0x65372147\n      eq\n      tag_4\n      jumpi\n    tag_1:\n      stop\n        /* \"test.sol\":107:121  uint public bb */\n    tag_2:\n      callvalue\n        /* \"--CODEGEN--\":8:17   */\n      dup1\n        /* \"--CODEGEN--\":5:7   */\n      iszero\n      tag_7\n      jumpi\n        /* \"--CODEGEN--\":30:31   */\n      0x0\n        /* \"--CODEGEN--\":27:28   */\n      dup1\n        /* \"--CODEGEN--\":20:32   */\n      revert\n        /* \"--CODEGEN--\":5:7   */\n    tag_7:\n        /* \"test.sol\":107:121  uint public bb */\n      pop\n      tag_8\n      jump(tag_9)\n    tag_8:\n      mload(0x40)\n      dup1\n      dup3\n      dup2\n      mstore\n      0x20\n      add\n      swap2\n      pop\n      pop\n      mload(0x40)\n      dup1\n      swap2\n      sub\n      swap1\n      return\n        /* \"test.sol\":151:334  function take()public returns(uint){... */\n    tag_3:\n      callvalue\n        /* \"--CODEGEN--\":8:17   */\n      dup1\n        /* \"--CODEGEN--\":5:7   */\n      iszero\n      tag_10\n      jumpi\n        /* \"--CODEGEN--\":30:31   */\n      0x0\n        /* \"--CODEGEN--\":27:28   */\n      dup1\n        /* \"--CODEGEN--\":20:32   */\n      revert\n        /* \"--CODEGEN--\":5:7   */\n    tag_10:\n        /* \"test.sol\":151:334  function take()public returns(uint){... */\n      pop\n      tag_11\n      jump(tag_12)\n    tag_11:\n      mload(0x40)\n      dup1\n      dup3\n      dup2\n      mstore\n      0x20\n      add\n      swap2\n      pop\n      pop\n      mload(0x40)\n      dup1\n      swap2\n      sub\n      swap1\n      return\n        /* \"test.sol\":127:145  uint public result */\n    tag_4:\n      callvalue\n        /* \"--CODEGEN--\":8:17   */\n      dup1\n        /* \"--CODEGEN--\":5:7   */\n      iszero\n      tag_13\n      jumpi\n        /* \"--CODEGEN--\":30:31   */\n      0x0\n        /* \"--CODEGEN--\":27:28   */\n      dup1\n        /* \"--CODEGEN--\":20:32   */\n      revert\n        /* \"--CODEGEN--\":5:7   */\n    tag_13:\n        /* \"test.sol\":127:145  uint public result */\n      pop\n      tag_14\n      jump(tag_15)\n    tag_14:\n      mload(0x40)\n      dup1\n      dup3\n      dup2\n      mstore\n      0x20\n      add\n      swap2\n      pop\n      pop\n      mload(0x40)\n      dup1\n      swap2\n      sub\n      swap1\n      return\n        /* \"test.sol\":107:121  uint public bb */\n    tag_9:\n      sload(0x0)\n      dup2\n      jump\t// out\n        /* \"test.sol\":151:334  function take()public returns(uint){... */\n    tag_12:\n        /* \"test.sol\":181:185  uint */\n      0x0\n        /* \"test.sol\":199:215  block.difficulty */\n      difficulty\n        /* \"test.sol\":196:198  bb */\n      0x0\n        /* \"test.sol\":196:215  bb=block.difficulty */\n      dup2\n      swap1\n      sstore\n      pop\n        /* \"test.sol\":292:293  4 */\n      0x4\n        /* \"test.sol\":256:271  block.timestamp */\n      timestamp\n        /* \"test.sol\":273:289  block.difficulty */\n      difficulty\n        /* \"test.sol\":246:290  keccak256(block.timestamp, block.difficulty) */\n      mload(0x40)\n      dup1\n      dup4\n      dup2\n      mstore\n      0x20\n      add\n      dup3\n      dup2\n      mstore\n      0x20\n      add\n      swap3\n      pop\n      pop\n      pop\n      mload(0x40)\n      dup1\n      swap2\n      sub\n      swap1\n      keccak256\n        /* \"test.sol\":238:291  uint256(keccak256(block.timestamp, block.difficulty)) */\n      0x1\n      swap1\n      div\n        /* \"test.sol\":238:293  uint256(keccak256(block.timestamp, block.difficulty))%4 */\n      dup2\n      iszero\n      iszero\n      tag_17\n      jumpi\n      invalid\n    tag_17:\n      mod\n        /* \"test.sol\":225:294  result=uint8(uint256(keccak256(block.timestamp, block.difficulty))%4) */\n      0xff\n      and\n        /* \"test.sol\":225:231  result */\n      0x1\n        /* \"test.sol\":225:294  result=uint8(uint256(keccak256(block.timestamp, block.difficulty))%4) */\n      dup2\n      swap1\n      sstore\n      pop\n        /* \"test.sol\":311:317  result */\n      sload(0x1)\n        /* \"test.sol\":304:318  return(result) */\n      swap1\n      pop\n        /* \"test.sol\":151:334  function take()public returns(uint){... */\n      swap1\n      jump\t// out\n        /* \"test.sol\":127:145  uint public result */\n    tag_15:\n      sload(0x1)\n      dup2\n      jump\t// out\n\n    auxdata: 0xa165627a7a72305820ca2d37c107a168bf2bd829789d33b8bfce1fb5e56376a5f4f5bd62e3e416ee1b0029\n}\n",
				"bytecode": {
					"linkReferences": {},
					"object": "608060405261015a806100136000396000f300608060405260043610610057576000357c0100000000000000000000000000000000000000000000000000000000900463ffffffff1680630a9ae69d14610059578063159090bd1461008457806365372147146100af575b005b34801561006557600080fd5b5061006e6100da565b6040518082815260200191505060405180910390f35b34801561009057600080fd5b506100996100e0565b6040518082815260200191505060405180910390f35b3480156100bb57600080fd5b506100c4610128565b6040518082815260200191505060405180910390f35b60005481565b60004460008190555060044244604051808381526020018281526020019250505060405180910390206001900481151561011657fe5b0660ff16600181905550600154905090565b600154815600a165627a7a72305820ca2d37c107a168bf2bd829789d33b8bfce1fb5e56376a5f4f5bd62e3e416ee1b0029",
					"opcodes": "PUSH1 0x80 PUSH1 0x40 MSTORE PUSH2 0x15A DUP1 PUSH2 0x13 PUSH1 0x0 CODECOPY PUSH1 0x0 RETURN STOP PUSH1 0x80 PUSH1 0x40 MSTORE PUSH1 0x4 CALLDATASIZE LT PUSH2 0x57 JUMPI PUSH1 0x0 CALLDATALOAD PUSH29 0x100000000000000000000000000000000000000000000000000000000 SWAP1 DIV PUSH4 0xFFFFFFFF AND DUP1 PUSH4 0xA9AE69D EQ PUSH2 0x59 JUMPI DUP1 PUSH4 0x159090BD EQ PUSH2 0x84 JUMPI DUP1 PUSH4 0x65372147 EQ PUSH2 0xAF JUMPI JUMPDEST STOP JUMPDEST CALLVALUE DUP1 ISZERO PUSH2 0x65 JUMPI PUSH1 0x0 DUP1 REVERT JUMPDEST POP PUSH2 0x6E PUSH2 0xDA JUMP JUMPDEST PUSH1 0x40 MLOAD DUP1 DUP3 DUP2 MSTORE PUSH1 0x20 ADD SWAP2 POP POP PUSH1 0x40 MLOAD DUP1 SWAP2 SUB SWAP1 RETURN JUMPDEST CALLVALUE DUP1 ISZERO PUSH2 0x90 JUMPI PUSH1 0x0 DUP1 REVERT JUMPDEST POP PUSH2 0x99 PUSH2 0xE0 JUMP JUMPDEST PUSH1 0x40 MLOAD DUP1 DUP3 DUP2 MSTORE PUSH1 0x20 ADD SWAP2 POP POP PUSH1 0x40 MLOAD DUP1 SWAP2 SUB SWAP1 RETURN JUMPDEST CALLVALUE DUP1 ISZERO PUSH2 0xBB JUMPI PUSH1 0x0 DUP1 REVERT JUMPDEST POP PUSH2 0xC4 PUSH2 0x128 JUMP JUMPDEST PUSH1 0x40 MLOAD DUP1 DUP3 DUP2 MSTORE PUSH1 0x20 ADD SWAP2 POP POP PUSH1 0x40 MLOAD DUP1 SWAP2 SUB SWAP1 RETURN JUMPDEST PUSH1 0x0 SLOAD DUP2 JUMP JUMPDEST PUSH1 0x0 DIFFICULTY PUSH1 0x0 DUP2 SWAP1 SSTORE POP PUSH1 0x4 TIMESTAMP DIFFICULTY PUSH1 0x40 MLOAD DUP1 DUP4 DUP2 MSTORE PUSH1 0x20 ADD DUP3 DUP2 MSTORE PUSH1 0x20 ADD SWAP3 POP POP POP PUSH1 0x40 MLOAD DUP1 SWAP2 SUB SWAP1 KECCAK256 PUSH1 0x1 SWAP1 DIV DUP2 ISZERO ISZERO PUSH2 0x116 JUMPI INVALID JUMPDEST MOD PUSH1 0xFF AND PUSH1 0x1 DUP2 SWAP1 SSTORE POP PUSH1 0x1 SLOAD SWAP1 POP SWAP1 JUMP JUMPDEST PUSH1 0x1 SLOAD DUP2 JUMP STOP LOG1 PUSH6 0x627A7A723058 KECCAK256 0xca 0x2d CALLDATACOPY 0xc1 SMOD LOG1 PUSH9 0xBF2BD829789D33B8BF 0xce 0x1f 0xb5 0xe5 PUSH4 0x76A5F4F5 0xbd PUSH3 0xE3E416 0xee SHL STOP 0x29 "
				},
				"gasEstimates": {
					"creation": {
						"codeDepositCost": "69200",
						"executionCost": "93",
						"totalCost": "69293"
					},
					"external": {
						"": "129",
						"bb()": "394",
						"result()": "438",
						"take()": "40611"
					}
				},
				"methodIdentifiers": {
					"bb()": "0a9ae69d",
					"result()": "65372147",
					"take()": "159090bd"
				}
			},
			"userdoc": {
				"methods": {}
			}
		}
	}
}