{
	"test.sol": {
		"mikochi": {
			"abi": [
				{
					"constant": true,
					"inputs": [],
					"name": "tt",
					"outputs": [
						{
							"name": "",
							"type": "uint256"
						}
					],
					"payable": false,
					"stateMutability": "view",
					"type": "function"
				},
				{
					"constant": false,
					"inputs": [],
					"name": "di",
					"outputs": [],
					"payable": false,
					"stateMutability": "nonpayable",
					"type": "function"
				}
			],
			"devdoc": {
				"methods": {}
			},
			"evm": {
				"assembly": "    /* \"test.sol\":26:137  contract mikochi{... */\n  mstore(0x40, 0x80)\n    /* \"test.sol\":69:84  block.timestamp */\n  timestamp\n    /* \"test.sol\":52:84  uint public tt = block.timestamp */\n  0x0\n  sstore\n    /* \"test.sol\":26:137  contract mikochi{... */\n  callvalue\n    /* \"--CODEGEN--\":8:17   */\n  dup1\n    /* \"--CODEGEN--\":5:7   */\n  iszero\n  tag_1\n  jumpi\n    /* \"--CODEGEN--\":30:31   */\n  0x0\n    /* \"--CODEGEN--\":27:28   */\n  dup1\n    /* \"--CODEGEN--\":20:32   */\n  revert\n    /* \"--CODEGEN--\":5:7   */\ntag_1:\n    /* \"test.sol\":26:137  contract mikochi{... */\n  pop\n  dataSize(sub_0)\n  dup1\n  dataOffset(sub_0)\n  0x0\n  codecopy\n  0x0\n  return\nstop\n\nsub_0: assembly {\n        /* \"test.sol\":26:137  contract mikochi{... */\n      mstore(0x40, 0x80)\n      jumpi(tag_1, lt(calldatasize, 0x4))\n      calldataload(0x0)\n      0x100000000000000000000000000000000000000000000000000000000\n      swap1\n      div\n      0xffffffff\n      and\n      dup1\n      0x1e36169e\n      eq\n      tag_2\n      jumpi\n      dup1\n      0xde6327d3\n      eq\n      tag_3\n      jumpi\n    tag_1:\n      0x0\n      dup1\n      revert\n        /* \"test.sol\":52:84  uint public tt = block.timestamp */\n    tag_2:\n      callvalue\n        /* \"--CODEGEN--\":8:17   */\n      dup1\n        /* \"--CODEGEN--\":5:7   */\n      iszero\n      tag_4\n      jumpi\n        /* \"--CODEGEN--\":30:31   */\n      0x0\n        /* \"--CODEGEN--\":27:28   */\n      dup1\n        /* \"--CODEGEN--\":20:32   */\n      revert\n        /* \"--CODEGEN--\":5:7   */\n    tag_4:\n        /* \"test.sol\":52:84  uint public tt = block.timestamp */\n      pop\n      tag_5\n      jump(tag_6)\n    tag_5:\n      mload(0x40)\n      dup1\n      dup3\n      dup2\n      mstore\n      0x20\n      add\n      swap2\n      pop\n      pop\n      mload(0x40)\n      dup1\n      swap2\n      sub\n      swap1\n      return\n        /* \"test.sol\":90:134  function di() public{... */\n    tag_3:\n      callvalue\n        /* \"--CODEGEN--\":8:17   */\n      dup1\n        /* \"--CODEGEN--\":5:7   */\n      iszero\n      tag_7\n      jumpi\n        /* \"--CODEGEN--\":30:31   */\n      0x0\n        /* \"--CODEGEN--\":27:28   */\n      dup1\n        /* \"--CODEGEN--\":20:32   */\n      revert\n        /* \"--CODEGEN--\":5:7   */\n    tag_7:\n        /* \"test.sol\":90:134  function di() public{... */\n      pop\n      tag_8\n      jump(tag_9)\n    tag_8:\n      stop\n        /* \"test.sol\":52:84  uint public tt = block.timestamp */\n    tag_6:\n      sload(0x0)\n      dup2\n      jump\t// out\n        /* \"test.sol\":90:134  function di() public{... */\n    tag_9:\n        /* \"test.sol\":126:127  5 */\n      0x5\n        /* \"test.sol\":123:125  tt */\n      sload(0x0)\n        /* \"test.sol\":123:127  tt%5 */\n      dup2\n      iszero\n      iszero\n      tag_11\n      jumpi\n      invalid\n    tag_11:\n      mod\n        /* \"test.sol\":120:122  tt */\n      0x0\n        /* \"test.sol\":120:127  tt=tt%5 */\n      dup2\n      swap1\n      sstore\n      pop\n        /* \"test.sol\":90:134  function di() public{... */\n      jump\t// out\n\n    auxdata: 0xa165627a7a7230582087a36cfeeeb56b90d87354f1d04e97f81536b314e79825f86f5b43adf6385d860029\n}\n",
				"bytecode": {
					"linkReferences": {},
					"object": "60806040524260005534801561001457600080fd5b5060d2806100236000396000f3006080604052600436106049576000357c0100000000000000000000000000000000000000000000000000000000900463ffffffff1680631e36169e14604e578063de6327d3146076575b600080fd5b348015605957600080fd5b506060608a565b6040518082815260200191505060405180910390f35b348015608157600080fd5b5060886090565b005b60005481565b6005600054811515609d57fe5b066000819055505600a165627a7a7230582087a36cfeeeb56b90d87354f1d04e97f81536b314e79825f86f5b43adf6385d860029",
					"opcodes": "PUSH1 0x80 PUSH1 0x40 MSTORE TIMESTAMP PUSH1 0x0 SSTORE CALLVALUE DUP1 ISZERO PUSH2 0x14 JUMPI PUSH1 0x0 DUP1 REVERT JUMPDEST POP PUSH1 0xD2 DUP1 PUSH2 0x23 PUSH1 0x0 CODECOPY PUSH1 0x0 RETURN STOP PUSH1 0x80 PUSH1 0x40 MSTORE PUSH1 0x4 CALLDATASIZE LT PUSH1 0x49 JUMPI PUSH1 0x0 CALLDATALOAD PUSH29 0x100000000000000000000000000000000000000000000000000000000 SWAP1 DIV PUSH4 0xFFFFFFFF AND DUP1 PUSH4 0x1E36169E EQ PUSH1 0x4E JUMPI DUP1 PUSH4 0xDE6327D3 EQ PUSH1 0x76 JUMPI JUMPDEST PUSH1 0x0 DUP1 REVERT JUMPDEST CALLVALUE DUP1 ISZERO PUSH1 0x59 JUMPI PUSH1 0x0 DUP1 REVERT JUMPDEST POP PUSH1 0x60 PUSH1 0x8A JUMP JUMPDEST PUSH1 0x40 MLOAD DUP1 DUP3 DUP2 MSTORE PUSH1 0x20 ADD SWAP2 POP POP PUSH1 0x40 MLOAD DUP1 SWAP2 SUB SWAP1 RETURN JUMPDEST CALLVALUE DUP1 ISZERO PUSH1 0x81 JUMPI PUSH1 0x0 DUP1 REVERT JUMPDEST POP PUSH1 0x88 PUSH1 0x90 JUMP JUMPDEST STOP JUMPDEST PUSH1 0x0 SLOAD DUP2 JUMP JUMPDEST PUSH1 0x5 PUSH1 0x0 SLOAD DUP2 ISZERO ISZERO PUSH1 0x9D JUMPI INVALID JUMPDEST MOD PUSH1 0x0 DUP2 SWAP1 SSTORE POP JUMP STOP LOG1 PUSH6 0x627A7A723058 KECCAK256 DUP8 LOG3 PUSH13 0xFEEEB56B90D87354F1D04E97F8 ISZERO CALLDATASIZE 0xb3 EQ 0xe7 SWAP9 0x25 0xf8 PUSH16 0x5B43ADF6385D86002900000000000000 "
				},
				"gasEstimates": {
					"creation": {
						"codeDepositCost": "42000",
						"executionCost": "20098",
						"totalCost": "62098"
					},
					"external": {
						"di()": "20400",
						"tt()": "394"
					}
				},
				"methodIdentifiers": {
					"di()": "de6327d3",
					"tt()": "1e36169e"
				}
			},
			"userdoc": {
				"methods": {}
			}
		}
	}
}