{
	"test.sol": {
		"mikochi": {
			"abi": [
				{
					"constant": true,
					"inputs": [],
					"name": "bb",
					"outputs": [
						{
							"name": "",
							"type": "uint256"
						}
					],
					"payable": false,
					"stateMutability": "view",
					"type": "function"
				},
				{
					"constant": false,
					"inputs": [],
					"name": "take",
					"outputs": [
						{
							"name": "",
							"type": "uint256"
						}
					],
					"payable": false,
					"stateMutability": "nonpayable",
					"type": "function"
				}
			],
			"devdoc": {
				"methods": {}
			},
			"evm": {
				"assembly": "    /* \"test.sol\":26:184  contract mikochi{... */\n  mstore(0x40, 0x80)\n  callvalue\n    /* \"--CODEGEN--\":8:17   */\n  dup1\n    /* \"--CODEGEN--\":5:7   */\n  iszero\n  tag_1\n  jumpi\n    /* \"--CODEGEN--\":30:31   */\n  0x0\n    /* \"--CODEGEN--\":27:28   */\n  dup1\n    /* \"--CODEGEN--\":20:32   */\n  revert\n    /* \"--CODEGEN--\":5:7   */\ntag_1:\n    /* \"test.sol\":26:184  contract mikochi{... */\n  pop\n  dataSize(sub_0)\n  dup1\n  dataOffset(sub_0)\n  0x0\n  codecopy\n  0x0\n  return\nstop\n\nsub_0: assembly {\n        /* \"test.sol\":26:184  contract mikochi{... */\n      mstore(0x40, 0x80)\n      jumpi(tag_1, lt(calldatasize, 0x4))\n      calldataload(0x0)\n      0x100000000000000000000000000000000000000000000000000000000\n      swap1\n      div\n      0xffffffff\n      and\n      dup1\n      0xa9ae69d\n      eq\n      tag_2\n      jumpi\n      dup1\n      0x159090bd\n      eq\n      tag_3\n      jumpi\n    tag_1:\n      0x0\n      dup1\n      revert\n        /* \"test.sol\":52:66  uint public bb */\n    tag_2:\n      callvalue\n        /* \"--CODEGEN--\":8:17   */\n      dup1\n        /* \"--CODEGEN--\":5:7   */\n      iszero\n      tag_4\n      jumpi\n        /* \"--CODEGEN--\":30:31   */\n      0x0\n        /* \"--CODEGEN--\":27:28   */\n      dup1\n        /* \"--CODEGEN--\":20:32   */\n      revert\n        /* \"--CODEGEN--\":5:7   */\n    tag_4:\n        /* \"test.sol\":52:66  uint public bb */\n      pop\n      tag_5\n      jump(tag_6)\n    tag_5:\n      mload(0x40)\n      dup1\n      dup3\n      dup2\n      mstore\n      0x20\n      add\n      swap2\n      pop\n      pop\n      mload(0x40)\n      dup1\n      swap2\n      sub\n      swap1\n      return\n        /* \"test.sol\":72:177  function take()public returns(uint){... */\n    tag_3:\n      callvalue\n        /* \"--CODEGEN--\":8:17   */\n      dup1\n        /* \"--CODEGEN--\":5:7   */\n      iszero\n      tag_7\n      jumpi\n        /* \"--CODEGEN--\":30:31   */\n      0x0\n        /* \"--CODEGEN--\":27:28   */\n      dup1\n        /* \"--CODEGEN--\":20:32   */\n      revert\n        /* \"--CODEGEN--\":5:7   */\n    tag_7:\n        /* \"test.sol\":72:177  function take()public returns(uint){... */\n      pop\n      tag_8\n      jump(tag_9)\n    tag_8:\n      mload(0x40)\n      dup1\n      dup3\n      dup2\n      mstore\n      0x20\n      add\n      swap2\n      pop\n      pop\n      mload(0x40)\n      dup1\n      swap2\n      sub\n      swap1\n      return\n        /* \"test.sol\":52:66  uint public bb */\n    tag_6:\n      sload(0x0)\n      dup2\n      jump\t// out\n        /* \"test.sol\":72:177  function take()public returns(uint){... */\n    tag_9:\n        /* \"test.sol\":102:106  uint */\n      0x0\n        /* \"test.sol\":120:136  block.difficulty */\n      difficulty\n        /* \"test.sol\":117:119  bb */\n      0x0\n        /* \"test.sol\":117:136  bb=block.difficulty */\n      dup2\n      swap1\n      sstore\n      pop\n        /* \"test.sol\":156:160  1000 */\n      0x3e8\n        /* \"test.sol\":153:155  bb */\n      sload(0x0)\n        /* \"test.sol\":153:160  bb%1000 */\n      dup2\n      iszero\n      iszero\n      tag_11\n      jumpi\n      invalid\n    tag_11:\n      mod\n        /* \"test.sol\":146:161  return(bb%1000) */\n      swap1\n      pop\n        /* \"test.sol\":72:177  function take()public returns(uint){... */\n      swap1\n      jump\t// out\n\n    auxdata: 0xa165627a7a72305820b475e9a08cdca6ae55e9f9338ed4f15226ae59f5eefe644758dfd3889a7ac6c30029\n}\n",
				"bytecode": {
					"linkReferences": {},
					"object": "608060405234801561001057600080fd5b5060ed8061001f6000396000f3006080604052600436106049576000357c0100000000000000000000000000000000000000000000000000000000900463ffffffff1680630a9ae69d14604e578063159090bd146076575b600080fd5b348015605957600080fd5b506060609e565b6040518082815260200191505060405180910390f35b348015608157600080fd5b50608860a4565b6040518082815260200191505060405180910390f35b60005481565b6000446000819055506103e860005481151560bb57fe5b069050905600a165627a7a72305820b475e9a08cdca6ae55e9f9338ed4f15226ae59f5eefe644758dfd3889a7ac6c30029",
					"opcodes": "PUSH1 0x80 PUSH1 0x40 MSTORE CALLVALUE DUP1 ISZERO PUSH2 0x10 JUMPI PUSH1 0x0 DUP1 REVERT JUMPDEST POP PUSH1 0xED DUP1 PUSH2 0x1F PUSH1 0x0 CODECOPY PUSH1 0x0 RETURN STOP PUSH1 0x80 PUSH1 0x40 MSTORE PUSH1 0x4 CALLDATASIZE LT PUSH1 0x49 JUMPI PUSH1 0x0 CALLDATALOAD PUSH29 0x100000000000000000000000000000000000000000000000000000000 SWAP1 DIV PUSH4 0xFFFFFFFF AND DUP1 PUSH4 0xA9AE69D EQ PUSH1 0x4E JUMPI DUP1 PUSH4 0x159090BD EQ PUSH1 0x76 JUMPI JUMPDEST PUSH1 0x0 DUP1 REVERT JUMPDEST CALLVALUE DUP1 ISZERO PUSH1 0x59 JUMPI PUSH1 0x0 DUP1 REVERT JUMPDEST POP PUSH1 0x60 PUSH1 0x9E JUMP JUMPDEST PUSH1 0x40 MLOAD DUP1 DUP3 DUP2 MSTORE PUSH1 0x20 ADD SWAP2 POP POP PUSH1 0x40 MLOAD DUP1 SWAP2 SUB SWAP1 RETURN JUMPDEST CALLVALUE DUP1 ISZERO PUSH1 0x81 JUMPI PUSH1 0x0 DUP1 REVERT JUMPDEST POP PUSH1 0x88 PUSH1 0xA4 JUMP JUMPDEST PUSH1 0x40 MLOAD DUP1 DUP3 DUP2 MSTORE PUSH1 0x20 ADD SWAP2 POP POP PUSH1 0x40 MLOAD DUP1 SWAP2 SUB SWAP1 RETURN JUMPDEST PUSH1 0x0 SLOAD DUP2 JUMP JUMPDEST PUSH1 0x0 DIFFICULTY PUSH1 0x0 DUP2 SWAP1 SSTORE POP PUSH2 0x3E8 PUSH1 0x0 SLOAD DUP2 ISZERO ISZERO PUSH1 0xBB JUMPI INVALID JUMPDEST MOD SWAP1 POP SWAP1 JUMP STOP LOG1 PUSH6 0x627A7A723058 KECCAK256 0xb4 PUSH22 0xE9A08CDCA6AE55E9F9338ED4F15226AE59F5EEFE6447 PC 0xdf 0xd3 DUP9 SWAP11 PUSH27 0xC6C300290000000000000000000000000000000000000000000000 "
				},
				"gasEstimates": {
					"creation": {
						"codeDepositCost": "47400",
						"executionCost": "99",
						"totalCost": "47499"
					},
					"external": {
						"bb()": "394",
						"take()": "20468"
					}
				},
				"methodIdentifiers": {
					"bb()": "0a9ae69d",
					"take()": "159090bd"
				}
			},
			"userdoc": {
				"methods": {}
			}
		}
	}
}