{
	"test.sol": {
		"mikochi": {
			"abi": [
				{
					"constant": false,
					"inputs": [],
					"name": "take",
					"outputs": [],
					"payable": false,
					"stateMutability": "nonpayable",
					"type": "function"
				},
				{
					"constant": true,
					"inputs": [],
					"name": "tt",
					"outputs": [
						{
							"name": "",
							"type": "uint256"
						}
					],
					"payable": false,
					"stateMutability": "view",
					"type": "function"
				},
				{
					"constant": false,
					"inputs": [],
					"name": "di",
					"outputs": [],
					"payable": false,
					"stateMutability": "nonpayable",
					"type": "function"
				}
			],
			"devdoc": {
				"methods": {}
			},
			"evm": {
				"assembly": "    /* \"test.sol\":26:184  contract mikochi{... */\n  mstore(0x40, 0x80)\n    /* \"test.sol\":69:70  0 */\n  0x0\n    /* \"test.sol\":52:70  uint public tt = 0 */\n  dup1\n  sstore\n    /* \"test.sol\":26:184  contract mikochi{... */\n  callvalue\n    /* \"--CODEGEN--\":8:17   */\n  dup1\n    /* \"--CODEGEN--\":5:7   */\n  iszero\n  tag_1\n  jumpi\n    /* \"--CODEGEN--\":30:31   */\n  0x0\n    /* \"--CODEGEN--\":27:28   */\n  dup1\n    /* \"--CODEGEN--\":20:32   */\n  revert\n    /* \"--CODEGEN--\":5:7   */\ntag_1:\n    /* \"test.sol\":26:184  contract mikochi{... */\n  pop\n  dataSize(sub_0)\n  dup1\n  dataOffset(sub_0)\n  0x0\n  codecopy\n  0x0\n  return\nstop\n\nsub_0: assembly {\n        /* \"test.sol\":26:184  contract mikochi{... */\n      mstore(0x40, 0x80)\n      jumpi(tag_1, lt(calldatasize, 0x4))\n      calldataload(0x0)\n      0x100000000000000000000000000000000000000000000000000000000\n      swap1\n      div\n      0xffffffff\n      and\n      dup1\n      0x159090bd\n      eq\n      tag_2\n      jumpi\n      dup1\n      0x1e36169e\n      eq\n      tag_3\n      jumpi\n      dup1\n      0xde6327d3\n      eq\n      tag_4\n      jumpi\n    tag_1:\n      0x0\n      dup1\n      revert\n        /* \"test.sol\":76:132  function take()public{... */\n    tag_2:\n      callvalue\n        /* \"--CODEGEN--\":8:17   */\n      dup1\n        /* \"--CODEGEN--\":5:7   */\n      iszero\n      tag_5\n      jumpi\n        /* \"--CODEGEN--\":30:31   */\n      0x0\n        /* \"--CODEGEN--\":27:28   */\n      dup1\n        /* \"--CODEGEN--\":20:32   */\n      revert\n        /* \"--CODEGEN--\":5:7   */\n    tag_5:\n        /* \"test.sol\":76:132  function take()public{... */\n      pop\n      tag_6\n      jump(tag_7)\n    tag_6:\n      stop\n        /* \"test.sol\":52:70  uint public tt = 0 */\n    tag_3:\n      callvalue\n        /* \"--CODEGEN--\":8:17   */\n      dup1\n        /* \"--CODEGEN--\":5:7   */\n      iszero\n      tag_8\n      jumpi\n        /* \"--CODEGEN--\":30:31   */\n      0x0\n        /* \"--CODEGEN--\":27:28   */\n      dup1\n        /* \"--CODEGEN--\":20:32   */\n      revert\n        /* \"--CODEGEN--\":5:7   */\n    tag_8:\n        /* \"test.sol\":52:70  uint public tt = 0 */\n      pop\n      tag_9\n      jump(tag_10)\n    tag_9:\n      mload(0x40)\n      dup1\n      dup3\n      dup2\n      mstore\n      0x20\n      add\n      swap2\n      pop\n      pop\n      mload(0x40)\n      dup1\n      swap2\n      sub\n      swap1\n      return\n        /* \"test.sol\":137:181  function di() public{... */\n    tag_4:\n      callvalue\n        /* \"--CODEGEN--\":8:17   */\n      dup1\n        /* \"--CODEGEN--\":5:7   */\n      iszero\n      tag_11\n      jumpi\n        /* \"--CODEGEN--\":30:31   */\n      0x0\n        /* \"--CODEGEN--\":27:28   */\n      dup1\n        /* \"--CODEGEN--\":20:32   */\n      revert\n        /* \"--CODEGEN--\":5:7   */\n    tag_11:\n        /* \"test.sol\":137:181  function di() public{... */\n      pop\n      tag_12\n      jump(tag_13)\n    tag_12:\n      stop\n        /* \"test.sol\":76:132  function take()public{... */\n    tag_7:\n        /* \"test.sol\":110:125  block.timestamp */\n      timestamp\n        /* \"test.sol\":107:109  tt */\n      0x0\n        /* \"test.sol\":107:125  tt=block.timestamp */\n      dup2\n      swap1\n      sstore\n      pop\n        /* \"test.sol\":76:132  function take()public{... */\n      jump\t// out\n        /* \"test.sol\":52:70  uint public tt = 0 */\n    tag_10:\n      sload(0x0)\n      dup2\n      jump\t// out\n        /* \"test.sol\":137:181  function di() public{... */\n    tag_13:\n        /* \"test.sol\":173:174  5 */\n      0x5\n        /* \"test.sol\":170:172  tt */\n      sload(0x0)\n        /* \"test.sol\":170:174  tt%5 */\n      dup2\n      iszero\n      iszero\n      tag_16\n      jumpi\n      invalid\n    tag_16:\n      mod\n        /* \"test.sol\":167:169  tt */\n      0x0\n        /* \"test.sol\":167:174  tt=tt%5 */\n      dup2\n      swap1\n      sstore\n      pop\n        /* \"test.sol\":137:181  function di() public{... */\n      jump\t// out\n\n    auxdata: 0xa165627a7a72305820ce36500385c88e2eee1e6631ab358904d04e143846b66263e4c724037bd68d200029\n}\n",
				"bytecode": {
					"linkReferences": {},
					"object": "60806040526000805534801561001457600080fd5b5060f9806100236000396000f3006080604052600436106053576000357c0100000000000000000000000000000000000000000000000000000000900463ffffffff168063159090bd1460585780631e36169e14606c578063de6327d3146094575b600080fd5b348015606357600080fd5b50606a60a8565b005b348015607757600080fd5b50607e60b1565b6040518082815260200191505060405180910390f35b348015609f57600080fd5b5060a660b7565b005b42600081905550565b60005481565b600560005481151560c457fe5b066000819055505600a165627a7a72305820ce36500385c88e2eee1e6631ab358904d04e143846b66263e4c724037bd68d200029",
					"opcodes": "PUSH1 0x80 PUSH1 0x40 MSTORE PUSH1 0x0 DUP1 SSTORE CALLVALUE DUP1 ISZERO PUSH2 0x14 JUMPI PUSH1 0x0 DUP1 REVERT JUMPDEST POP PUSH1 0xF9 DUP1 PUSH2 0x23 PUSH1 0x0 CODECOPY PUSH1 0x0 RETURN STOP PUSH1 0x80 PUSH1 0x40 MSTORE PUSH1 0x4 CALLDATASIZE LT PUSH1 0x53 JUMPI PUSH1 0x0 CALLDATALOAD PUSH29 0x100000000000000000000000000000000000000000000000000000000 SWAP1 DIV PUSH4 0xFFFFFFFF AND DUP1 PUSH4 0x159090BD EQ PUSH1 0x58 JUMPI DUP1 PUSH4 0x1E36169E EQ PUSH1 0x6C JUMPI DUP1 PUSH4 0xDE6327D3 EQ PUSH1 0x94 JUMPI JUMPDEST PUSH1 0x0 DUP1 REVERT JUMPDEST CALLVALUE DUP1 ISZERO PUSH1 0x63 JUMPI PUSH1 0x0 DUP1 REVERT JUMPDEST POP PUSH1 0x6A PUSH1 0xA8 JUMP JUMPDEST STOP JUMPDEST CALLVALUE DUP1 ISZERO PUSH1 0x77 JUMPI PUSH1 0x0 DUP1 REVERT JUMPDEST POP PUSH1 0x7E PUSH1 0xB1 JUMP JUMPDEST PUSH1 0x40 MLOAD DUP1 DUP3 DUP2 MSTORE PUSH1 0x20 ADD SWAP2 POP POP PUSH1 0x40 MLOAD DUP1 SWAP2 SUB SWAP1 RETURN JUMPDEST CALLVALUE DUP1 ISZERO PUSH1 0x9F JUMPI PUSH1 0x0 DUP1 REVERT JUMPDEST POP PUSH1 0xA6 PUSH1 0xB7 JUMP JUMPDEST STOP JUMPDEST TIMESTAMP PUSH1 0x0 DUP2 SWAP1 SSTORE POP JUMP JUMPDEST PUSH1 0x0 SLOAD DUP2 JUMP JUMPDEST PUSH1 0x5 PUSH1 0x0 SLOAD DUP2 ISZERO ISZERO PUSH1 0xC4 JUMPI INVALID JUMPDEST MOD PUSH1 0x0 DUP2 SWAP1 SSTORE POP JUMP STOP LOG1 PUSH6 0x627A7A723058 KECCAK256 0xce CALLDATASIZE POP SUB DUP6 0xc8 DUP15 0x2e 0xee 0x1e PUSH7 0x31AB358904D04E EQ CODESIZE 0x46 0xb6 PUSH3 0x63E4C7 0x24 SUB PUSH28 0xD68D2000290000000000000000000000000000000000000000000000 "
				},
				"gasEstimates": {
					"creation": {
						"codeDepositCost": "49800",
						"executionCost": "5105",
						"totalCost": "54905"
					},
					"external": {
						"di()": "20422",
						"take()": "20146",
						"tt()": "416"
					}
				},
				"methodIdentifiers": {
					"di()": "de6327d3",
					"take()": "159090bd",
					"tt()": "1e36169e"
				}
			},
			"userdoc": {
				"methods": {}
			}
		}
	}
}