{
	"test.sol": {
		"mikochi": {
			"abi": [
				{
					"constant": false,
					"inputs": [],
					"name": "take",
					"outputs": [],
					"payable": false,
					"stateMutability": "nonpayable",
					"type": "function"
				},
				{
					"constant": true,
					"inputs": [],
					"name": "tt",
					"outputs": [
						{
							"name": "",
							"type": "uint256"
						}
					],
					"payable": false,
					"stateMutability": "view",
					"type": "function"
				},
				{
					"constant": true,
					"inputs": [],
					"name": "star",
					"outputs": [
						{
							"name": "",
							"type": "uint256"
						}
					],
					"payable": false,
					"stateMutability": "view",
					"type": "function"
				},
				{
					"constant": false,
					"inputs": [],
					"name": "di",
					"outputs": [],
					"payable": false,
					"stateMutability": "nonpayable",
					"type": "function"
				}
			],
			"devdoc": {
				"methods": {}
			},
			"evm": {
				"assembly": "    /* \"test.sol\":26:445  contract mikochi{... */\n  mstore(0x40, 0x80)\n    /* \"test.sol\":69:70  0 */\n  0x0\n    /* \"test.sol\":52:70  uint public tt = 0 */\n  dup1\n  sstore\n    /* \"test.sol\":93:94  0 */\n  0x0\n    /* \"test.sol\":76:94  uint public star=0 */\n  0x1\n  sstore\n    /* \"test.sol\":26:445  contract mikochi{... */\n  callvalue\n    /* \"--CODEGEN--\":8:17   */\n  dup1\n    /* \"--CODEGEN--\":5:7   */\n  iszero\n  tag_1\n  jumpi\n    /* \"--CODEGEN--\":30:31   */\n  0x0\n    /* \"--CODEGEN--\":27:28   */\n  dup1\n    /* \"--CODEGEN--\":20:32   */\n  revert\n    /* \"--CODEGEN--\":5:7   */\ntag_1:\n    /* \"test.sol\":26:445  contract mikochi{... */\n  pop\n  dataSize(sub_0)\n  dup1\n  dataOffset(sub_0)\n  0x0\n  codecopy\n  0x0\n  return\nstop\n\nsub_0: assembly {\n        /* \"test.sol\":26:445  contract mikochi{... */\n      mstore(0x40, 0x80)\n      jumpi(tag_1, lt(calldatasize, 0x4))\n      calldataload(0x0)\n      0x100000000000000000000000000000000000000000000000000000000\n      swap1\n      div\n      0xffffffff\n      and\n      dup1\n      0x159090bd\n      eq\n      tag_2\n      jumpi\n      dup1\n      0x1e36169e\n      eq\n      tag_3\n      jumpi\n      dup1\n      0x2c6dbb1c\n      eq\n      tag_4\n      jumpi\n      dup1\n      0xde6327d3\n      eq\n      tag_5\n      jumpi\n    tag_1:\n      0x0\n      dup1\n      revert\n        /* \"test.sol\":100:156  function take()public{... */\n    tag_2:\n      callvalue\n        /* \"--CODEGEN--\":8:17   */\n      dup1\n        /* \"--CODEGEN--\":5:7   */\n      iszero\n      tag_6\n      jumpi\n        /* \"--CODEGEN--\":30:31   */\n      0x0\n        /* \"--CODEGEN--\":27:28   */\n      dup1\n        /* \"--CODEGEN--\":20:32   */\n      revert\n        /* \"--CODEGEN--\":5:7   */\n    tag_6:\n        /* \"test.sol\":100:156  function take()public{... */\n      pop\n      tag_7\n      jump(tag_8)\n    tag_7:\n      stop\n        /* \"test.sol\":52:70  uint public tt = 0 */\n    tag_3:\n      callvalue\n        /* \"--CODEGEN--\":8:17   */\n      dup1\n        /* \"--CODEGEN--\":5:7   */\n      iszero\n      tag_9\n      jumpi\n        /* \"--CODEGEN--\":30:31   */\n      0x0\n        /* \"--CODEGEN--\":27:28   */\n      dup1\n        /* \"--CODEGEN--\":20:32   */\n      revert\n        /* \"--CODEGEN--\":5:7   */\n    tag_9:\n        /* \"test.sol\":52:70  uint public tt = 0 */\n      pop\n      tag_10\n      jump(tag_11)\n    tag_10:\n      mload(0x40)\n      dup1\n      dup3\n      dup2\n      mstore\n      0x20\n      add\n      swap2\n      pop\n      pop\n      mload(0x40)\n      dup1\n      swap2\n      sub\n      swap1\n      return\n        /* \"test.sol\":76:94  uint public star=0 */\n    tag_4:\n      callvalue\n        /* \"--CODEGEN--\":8:17   */\n      dup1\n        /* \"--CODEGEN--\":5:7   */\n      iszero\n      tag_12\n      jumpi\n        /* \"--CODEGEN--\":30:31   */\n      0x0\n        /* \"--CODEGEN--\":27:28   */\n      dup1\n        /* \"--CODEGEN--\":20:32   */\n      revert\n        /* \"--CODEGEN--\":5:7   */\n    tag_12:\n        /* \"test.sol\":76:94  uint public star=0 */\n      pop\n      tag_13\n      jump(tag_14)\n    tag_13:\n      mload(0x40)\n      dup1\n      dup3\n      dup2\n      mstore\n      0x20\n      add\n      swap2\n      pop\n      pop\n      mload(0x40)\n      dup1\n      swap2\n      sub\n      swap1\n      return\n        /* \"test.sol\":161:442  function di() public{... */\n    tag_5:\n      callvalue\n        /* \"--CODEGEN--\":8:17   */\n      dup1\n        /* \"--CODEGEN--\":5:7   */\n      iszero\n      tag_15\n      jumpi\n        /* \"--CODEGEN--\":30:31   */\n      0x0\n        /* \"--CODEGEN--\":27:28   */\n      dup1\n        /* \"--CODEGEN--\":20:32   */\n      revert\n        /* \"--CODEGEN--\":5:7   */\n    tag_15:\n        /* \"test.sol\":161:442  function di() public{... */\n      pop\n      tag_16\n      jump(tag_17)\n    tag_16:\n      stop\n        /* \"test.sol\":100:156  function take()public{... */\n    tag_8:\n        /* \"test.sol\":134:149  block.timestamp */\n      timestamp\n        /* \"test.sol\":131:133  tt */\n      0x0\n        /* \"test.sol\":131:149  tt=block.timestamp */\n      dup2\n      swap1\n      sstore\n      pop\n        /* \"test.sol\":100:156  function take()public{... */\n      jump\t// out\n        /* \"test.sol\":52:70  uint public tt = 0 */\n    tag_11:\n      sload(0x0)\n      dup2\n      jump\t// out\n        /* \"test.sol\":76:94  uint public star=0 */\n    tag_14:\n      sload(0x1)\n      dup2\n      jump\t// out\n        /* \"test.sol\":161:442  function di() public{... */\n    tag_17:\n        /* \"test.sol\":214:216  91 */\n      0x5b\n        /* \"test.sol\":196:211  block.timestamp */\n      timestamp\n        /* \"test.sol\":196:216  block.timestamp % 91 */\n      dup2\n      iszero\n      iszero\n      tag_20\n      jumpi\n      invalid\n    tag_20:\n      mod\n        /* \"test.sol\":189:193  star */\n      0x1\n        /* \"test.sol\":189:216  star = block.timestamp % 91 */\n      dup2\n      swap1\n      sstore\n      pop\n        /* \"test.sol\":233:234  5 */\n      0x5\n        /* \"test.sol\":227:231  star */\n      sload(0x1)\n        /* \"test.sol\":227:234  star<=5 */\n      gt\n      iszero\n        /* \"test.sol\":224:436  if(star<=5){... */\n      iszero\n      tag_21\n      jumpi\n        /* \"test.sol\":250:251  5 */\n      0x5\n        /* \"test.sol\":245:249  star */\n      0x1\n        /* \"test.sol\":245:251  star=5 */\n      dup2\n      swap1\n      sstore\n      pop\n        /* \"test.sol\":224:436  if(star<=5){... */\n      jump(tag_22)\n    tag_21:\n        /* \"test.sol\":274:276  14 */\n      0xe\n        /* \"test.sol\":268:272  star */\n      sload(0x1)\n        /* \"test.sol\":268:276  star<=14 */\n      gt\n      iszero\n        /* \"test.sol\":265:436  if(star<=14){... */\n      iszero\n      tag_23\n      jumpi\n        /* \"test.sol\":292:293  4 */\n      0x4\n        /* \"test.sol\":287:291  star */\n      0x1\n        /* \"test.sol\":287:293  star=4 */\n      dup2\n      swap1\n      sstore\n      pop\n        /* \"test.sol\":265:436  if(star<=14){... */\n      jump(tag_24)\n    tag_23:\n        /* \"test.sol\":323:325  30 */\n      0x1e\n        /* \"test.sol\":317:321  star */\n      sload(0x1)\n        /* \"test.sol\":317:325  star<=30 */\n      gt\n      iszero\n        /* \"test.sol\":314:436  if(star<=30){... */\n      iszero\n      tag_25\n      jumpi\n        /* \"test.sol\":341:342  3 */\n      0x3\n        /* \"test.sol\":336:340  star */\n      0x1\n        /* \"test.sol\":336:342  star=3 */\n      dup2\n      swap1\n      sstore\n      pop\n        /* \"test.sol\":314:436  if(star<=30){... */\n      jump(tag_26)\n    tag_25:\n        /* \"test.sol\":372:374  55 */\n      0x37\n        /* \"test.sol\":366:370  star */\n      sload(0x1)\n        /* \"test.sol\":366:374  star<=55 */\n      gt\n      iszero\n        /* \"test.sol\":363:436  if(star<=55){... */\n      iszero\n      tag_27\n      jumpi\n        /* \"test.sol\":390:391  2 */\n      0x2\n        /* \"test.sol\":385:389  star */\n      0x1\n        /* \"test.sol\":385:391  star=2 */\n      dup2\n      swap1\n      sstore\n      pop\n        /* \"test.sol\":363:436  if(star<=55){... */\n      jump(tag_28)\n    tag_27:\n        /* \"test.sol\":426:427  1 */\n      0x1\n        /* \"test.sol\":421:425  star */\n      dup1\n        /* \"test.sol\":421:427  star=1 */\n      dup2\n      swap1\n      sstore\n      pop\n        /* \"test.sol\":363:436  if(star<=55){... */\n    tag_28:\n        /* \"test.sol\":314:436  if(star<=30){... */\n    tag_26:\n        /* \"test.sol\":265:436  if(star<=14){... */\n    tag_24:\n        /* \"test.sol\":224:436  if(star<=5){... */\n    tag_22:\n        /* \"test.sol\":161:442  function di() public{... */\n      jump\t// out\n\n    auxdata: 0xa165627a7a723058206bf7d75ad330be82f9925ce62d03df12360b6c66b0c4ed19b2c347d5a5f98f280029\n}\n",
				"bytecode": {
					"linkReferences": {},
					"object": "608060405260008055600060015534801561001957600080fd5b506101b0806100296000396000f300608060405260043610610062576000357c0100000000000000000000000000000000000000000000000000000000900463ffffffff168063159090bd146100675780631e36169e1461007e5780632c6dbb1c146100a9578063de6327d3146100d4575b600080fd5b34801561007357600080fd5b5061007c6100eb565b005b34801561008a57600080fd5b506100936100f4565b6040518082815260200191505060405180910390f35b3480156100b557600080fd5b506100be6100fa565b6040518082815260200191505060405180910390f35b3480156100e057600080fd5b506100e9610100565b005b42600081905550565b60005481565b60015481565b605b4281151561010c57fe5b06600181905550600560015411151561012c576005600181905550610182565b600e600154111515610145576004600181905550610181565b601e60015411151561015e576003600181905550610180565b603760015411151561017757600260018190555061017f565b600180819055505b5b5b5b5600a165627a7a723058206bf7d75ad330be82f9925ce62d03df12360b6c66b0c4ed19b2c347d5a5f98f280029",
					"opcodes": "PUSH1 0x80 PUSH1 0x40 MSTORE PUSH1 0x0 DUP1 SSTORE PUSH1 0x0 PUSH1 0x1 SSTORE CALLVALUE DUP1 ISZERO PUSH2 0x19 JUMPI PUSH1 0x0 DUP1 REVERT JUMPDEST POP PUSH2 0x1B0 DUP1 PUSH2 0x29 PUSH1 0x0 CODECOPY PUSH1 0x0 RETURN STOP PUSH1 0x80 PUSH1 0x40 MSTORE PUSH1 0x4 CALLDATASIZE LT PUSH2 0x62 JUMPI PUSH1 0x0 CALLDATALOAD PUSH29 0x100000000000000000000000000000000000000000000000000000000 SWAP1 DIV PUSH4 0xFFFFFFFF AND DUP1 PUSH4 0x159090BD EQ PUSH2 0x67 JUMPI DUP1 PUSH4 0x1E36169E EQ PUSH2 0x7E JUMPI DUP1 PUSH4 0x2C6DBB1C EQ PUSH2 0xA9 JUMPI DUP1 PUSH4 0xDE6327D3 EQ PUSH2 0xD4 JUMPI JUMPDEST PUSH1 0x0 DUP1 REVERT JUMPDEST CALLVALUE DUP1 ISZERO PUSH2 0x73 JUMPI PUSH1 0x0 DUP1 REVERT JUMPDEST POP PUSH2 0x7C PUSH2 0xEB JUMP JUMPDEST STOP JUMPDEST CALLVALUE DUP1 ISZERO PUSH2 0x8A JUMPI PUSH1 0x0 DUP1 REVERT JUMPDEST POP PUSH2 0x93 PUSH2 0xF4 JUMP JUMPDEST PUSH1 0x40 MLOAD DUP1 DUP3 DUP2 MSTORE PUSH1 0x20 ADD SWAP2 POP POP PUSH1 0x40 MLOAD DUP1 SWAP2 SUB SWAP1 RETURN JUMPDEST CALLVALUE DUP1 ISZERO PUSH2 0xB5 JUMPI PUSH1 0x0 DUP1 REVERT JUMPDEST POP PUSH2 0xBE PUSH2 0xFA JUMP JUMPDEST PUSH1 0x40 MLOAD DUP1 DUP3 DUP2 MSTORE PUSH1 0x20 ADD SWAP2 POP POP PUSH1 0x40 MLOAD DUP1 SWAP2 SUB SWAP1 RETURN JUMPDEST CALLVALUE DUP1 ISZERO PUSH2 0xE0 JUMPI PUSH1 0x0 DUP1 REVERT JUMPDEST POP PUSH2 0xE9 PUSH2 0x100 JUMP JUMPDEST STOP JUMPDEST TIMESTAMP PUSH1 0x0 DUP2 SWAP1 SSTORE POP JUMP JUMPDEST PUSH1 0x0 SLOAD DUP2 JUMP JUMPDEST PUSH1 0x1 SLOAD DUP2 JUMP JUMPDEST PUSH1 0x5B TIMESTAMP DUP2 ISZERO ISZERO PUSH2 0x10C JUMPI INVALID JUMPDEST MOD PUSH1 0x1 DUP2 SWAP1 SSTORE POP PUSH1 0x5 PUSH1 0x1 SLOAD GT ISZERO ISZERO PUSH2 0x12C JUMPI PUSH1 0x5 PUSH1 0x1 DUP2 SWAP1 SSTORE POP PUSH2 0x182 JUMP JUMPDEST PUSH1 0xE PUSH1 0x1 SLOAD GT ISZERO ISZERO PUSH2 0x145 JUMPI PUSH1 0x4 PUSH1 0x1 DUP2 SWAP1 SSTORE POP PUSH2 0x181 JUMP JUMPDEST PUSH1 0x1E PUSH1 0x1 SLOAD GT ISZERO ISZERO PUSH2 0x15E JUMPI PUSH1 0x3 PUSH1 0x1 DUP2 SWAP1 SSTORE POP PUSH2 0x180 JUMP JUMPDEST PUSH1 0x37 PUSH1 0x1 SLOAD GT ISZERO ISZERO PUSH2 0x177 JUMPI PUSH1 0x2 PUSH1 0x1 DUP2 SWAP1 SSTORE POP PUSH2 0x17F JUMP JUMPDEST PUSH1 0x1 DUP1 DUP2 SWAP1 SSTORE POP JUMPDEST JUMPDEST JUMPDEST JUMPDEST JUMP STOP LOG1 PUSH6 0x627A7A723058 KECCAK256 PUSH12 0xF7D75AD330BE82F9925CE62D SUB 0xdf SLT CALLDATASIZE SIGNEXTEND PUSH13 0x66B0C4ED19B2C347D5A5F98F28 STOP 0x29 "
				},
				"gasEstimates": {
					"creation": {
						"codeDepositCost": "86400",
						"executionCost": "10147",
						"totalCost": "96547"
					},
					"external": {
						"di()": "41187",
						"star()": "438",
						"take()": "20146",
						"tt()": "416"
					}
				},
				"methodIdentifiers": {
					"di()": "de6327d3",
					"star()": "2c6dbb1c",
					"take()": "159090bd",
					"tt()": "1e36169e"
				}
			},
			"userdoc": {
				"methods": {}
			}
		}
	}
}