{
	"44.sol": {
		"class44_game": {
			"abi": [
				{
					"constant": false,
					"inputs": [],
					"name": "play",
					"outputs": [],
					"payable": true,
					"stateMutability": "payable",
					"type": "function"
				},
				{
					"constant": true,
					"inputs": [],
					"name": "get_random",
					"outputs": [
						{
							"name": "",
							"type": "uint256"
						}
					],
					"payable": false,
					"stateMutability": "view",
					"type": "function"
				},
				{
					"inputs": [],
					"payable": true,
					"stateMutability": "payable",
					"type": "constructor"
				},
				{
					"payable": true,
					"stateMutability": "payable",
					"type": "fallback"
				},
				{
					"anonymous": false,
					"inputs": [
						{
							"indexed": false,
							"name": "",
							"type": "address"
						}
					],
					"name": "win",
					"type": "event"
				}
			],
			"devdoc": {
				"methods": {}
			},
			"evm": {
				"assembly": "    /* \"44.sol\":26:623  contract class44_game{... */\n  mstore(0x40, 0x80)\n    /* \"44.sol\":606:613  1 ether */\n  0xde0b6b3a7640000\n    /* \"44.sol\":593:602  msg.value */\n  callvalue\n    /* \"44.sol\":593:613  msg.value == 1 ether */\n  eq\n    /* \"44.sol\":585:614  require(msg.value == 1 ether) */\n  iszero\n  iszero\n  tag_3\n  jumpi\n  0x0\n  dup1\n  revert\ntag_3:\n    /* \"44.sol\":26:623  contract class44_game{... */\n  dataSize(sub_0)\n  dup1\n  dataOffset(sub_0)\n  0x0\n  codecopy\n  0x0\n  return\nstop\n\nsub_0: assembly {\n        /* \"44.sol\":26:623  contract class44_game{... */\n      mstore(0x40, 0x80)\n      jumpi(tag_1, lt(calldatasize, 0x4))\n      calldataload(0x0)\n      0x100000000000000000000000000000000000000000000000000000000\n      swap1\n      div\n      0xffffffff\n      and\n      dup1\n      0x93e84cd9\n      eq\n      tag_2\n      jumpi\n      dup1\n      0x98107e5b\n      eq\n      tag_3\n      jumpi\n    tag_1:\n        /* \"44.sol\":521:528  1 ether */\n      0xde0b6b3a7640000\n        /* \"44.sol\":508:517  msg.value */\n      callvalue\n        /* \"44.sol\":508:528  msg.value == 1 ether */\n      eq\n        /* \"44.sol\":500:529  require(msg.value == 1 ether) */\n      iszero\n      iszero\n      tag_6\n      jumpi\n      0x0\n      dup1\n      revert\n    tag_6:\n        /* \"44.sol\":26:623  contract class44_game{... */\n      stop\n        /* \"44.sol\":258:458  function play() public payable {... */\n    tag_2:\n      tag_7\n      jump(tag_8)\n    tag_7:\n      stop\n        /* \"44.sol\":77:252  function get_random() public view returns(uint){... */\n    tag_3:\n      callvalue\n        /* \"--CODEGEN--\":8:17   */\n      dup1\n        /* \"--CODEGEN--\":5:7   */\n      iszero\n      tag_9\n      jumpi\n        /* \"--CODEGEN--\":30:31   */\n      0x0\n        /* \"--CODEGEN--\":27:28   */\n      dup1\n        /* \"--CODEGEN--\":20:32   */\n      revert\n        /* \"--CODEGEN--\":5:7   */\n    tag_9:\n        /* \"44.sol\":77:252  function get_random() public view returns(uint){... */\n      pop\n      tag_10\n      jump(tag_11)\n    tag_10:\n      mload(0x40)\n      dup1\n      dup3\n      dup2\n      mstore\n      0x20\n      add\n      swap2\n      pop\n      pop\n      mload(0x40)\n      dup1\n      swap2\n      sub\n      swap1\n      return\n        /* \"44.sol\":258:458  function play() public payable {... */\n    tag_8:\n        /* \"44.sol\":320:330  0.01 ether */\n      0x2386f26fc10000\n        /* \"44.sol\":307:316  msg.value */\n      callvalue\n        /* \"44.sol\":307:330  msg.value == 0.01 ether */\n      eq\n        /* \"44.sol\":299:331  require(msg.value == 0.01 ether) */\n      iszero\n      iszero\n      tag_13\n      jumpi\n      0x0\n      dup1\n      revert\n    tag_13:\n        /* \"44.sol\":358:361  500 */\n      0x1f4\n        /* \"44.sol\":344:356  get_random() */\n      tag_14\n        /* \"44.sol\":344:354  get_random */\n      tag_11\n        /* \"44.sol\":344:356  get_random() */\n      jump\t// in\n    tag_14:\n        /* \"44.sol\":344:361  get_random()>=500 */\n      lt\n      iszero\n        /* \"44.sol\":341:452  if(get_random()>=500){... */\n      iszero\n      tag_15\n      jumpi\n        /* \"44.sol\":376:386  msg.sender */\n      caller\n        /* \"44.sol\":376:395  msg.sender.transfer */\n      0xffffffffffffffffffffffffffffffffffffffff\n      and\n        /* \"44.sol\":376:407  msg.sender.transfer(0.02 ether) */\n      0x8fc\n        /* \"44.sol\":396:406  0.02 ether */\n      0x470de4df820000\n        /* \"44.sol\":376:407  msg.sender.transfer(0.02 ether) */\n      swap1\n      dup2\n      iszero\n      mul\n      swap1\n      mload(0x40)\n      0x0\n      mload(0x40)\n      dup1\n      dup4\n      sub\n      dup2\n      dup6\n      dup9\n      dup9\n      call\n      swap4\n      pop\n      pop\n      pop\n      pop\n      iszero\n        /* \"--CODEGEN--\":8:17   */\n      dup1\n        /* \"--CODEGEN--\":5:7   */\n      iszero\n      tag_16\n      jumpi\n        /* \"--CODEGEN--\":45:61   */\n      returndatasize\n        /* \"--CODEGEN--\":42:43   */\n      0x0\n        /* \"--CODEGEN--\":39:40   */\n      dup1\n        /* \"--CODEGEN--\":24:62   */\n      returndatacopy\n        /* \"--CODEGEN--\":77:93   */\n      returndatasize\n        /* \"--CODEGEN--\":74:75   */\n      0x0\n        /* \"--CODEGEN--\":67:94   */\n      revert\n        /* \"--CODEGEN--\":5:7   */\n    tag_16:\n        /* \"44.sol\":376:407  msg.sender.transfer(0.02 ether) */\n      pop\n        /* \"44.sol\":426:441  win(msg.sender) */\n      0xa34cc845dfe7e94da90b41e77f799f7c29c20a39271c97a2469ce08afed0830b\n        /* \"44.sol\":430:440  msg.sender */\n      caller\n        /* \"44.sol\":426:441  win(msg.sender) */\n      mload(0x40)\n      dup1\n      dup3\n      0xffffffffffffffffffffffffffffffffffffffff\n      and\n      0xffffffffffffffffffffffffffffffffffffffff\n      and\n      dup2\n      mstore\n      0x20\n      add\n      swap2\n      pop\n      pop\n      mload(0x40)\n      dup1\n      swap2\n      sub\n      swap1\n      log1\n        /* \"44.sol\":341:452  if(get_random()>=500){... */\n    tag_15:\n        /* \"44.sol\":258:458  function play() public payable {... */\n      jump\t// out\n        /* \"44.sol\":77:252  function get_random() public view returns(uint){... */\n    tag_11:\n        /* \"44.sol\":119:123  uint */\n      0x0\n        /* \"44.sol\":134:148  bytes32 ramdon */\n      dup1\n        /* \"44.sol\":178:181  now */\n      timestamp\n        /* \"44.sol\":205:206  1 */\n      0x1\n        /* \"44.sol\":192:204  block.number */\n      number\n        /* \"44.sol\":192:206  block.number-1 */\n      sub\n        /* \"44.sol\":182:207  blockhash(block.number-1) */\n      blockhash\n        /* \"44.sol\":161:208  abi.encodePacked(now,blockhash(block.number-1)) */\n      add(0x20, mload(0x40))\n      dup1\n      dup4\n      dup2\n      mstore\n      0x20\n      add\n      dup3\n      not(0x0)\n      and\n      not(0x0)\n      and\n      dup2\n      mstore\n      0x20\n      add\n      swap3\n      pop\n      pop\n      pop\n      mload(0x40)\n        /* \"--CODEGEN--\":49:53   */\n      0x20\n        /* \"--CODEGEN--\":39:46   */\n      dup2\n        /* \"--CODEGEN--\":30:37   */\n      dup4\n        /* \"--CODEGEN--\":26:47   */\n      sub\n        /* \"--CODEGEN--\":22:54   */\n      sub\n        /* \"--CODEGEN--\":13:20   */\n      dup2\n        /* \"--CODEGEN--\":6:55   */\n      mstore\n        /* \"44.sol\":161:208  abi.encodePacked(now,blockhash(block.number-1)) */\n      swap1\n      0x40\n      mstore\n        /* \"44.sol\":151:209  keccak256(abi.encodePacked(now,blockhash(block.number-1))) */\n      mload(0x40)\n      dup1\n      dup3\n      dup1\n      mload\n      swap1\n      0x20\n      add\n      swap1\n      dup1\n      dup4\n      dup4\n        /* \"--CODEGEN--\":36:189   */\n    tag_18:\n        /* \"--CODEGEN--\":66:68   */\n      0x20\n        /* \"--CODEGEN--\":61:64   */\n      dup4\n        /* \"--CODEGEN--\":58:69   */\n      lt\n        /* \"--CODEGEN--\":51:70   */\n      iszero\n        /* \"--CODEGEN--\":36:189   */\n      iszero\n      tag_19\n      jumpi\n        /* \"--CODEGEN--\":182:185   */\n      dup1\n        /* \"--CODEGEN--\":176:186   */\n      mload\n        /* \"--CODEGEN--\":171:174   */\n      dup3\n        /* \"--CODEGEN--\":164:187   */\n      mstore\n        /* \"--CODEGEN--\":98:100   */\n      0x20\n        /* \"--CODEGEN--\":93:96   */\n      dup3\n        /* \"--CODEGEN--\":89:101   */\n      add\n        /* \"--CODEGEN--\":82:101   */\n      swap2\n      pop\n        /* \"--CODEGEN--\":123:125   */\n      0x20\n        /* \"--CODEGEN--\":118:121   */\n      dup2\n        /* \"--CODEGEN--\":114:126   */\n      add\n        /* \"--CODEGEN--\":107:126   */\n      swap1\n      pop\n        /* \"--CODEGEN--\":148:150   */\n      0x20\n        /* \"--CODEGEN--\":143:146   */\n      dup4\n        /* \"--CODEGEN--\":139:151   */\n      sub\n        /* \"--CODEGEN--\":132:151   */\n      swap3\n      pop\n        /* \"--CODEGEN--\":36:189   */\n      jump(tag_18)\n    tag_19:\n        /* \"--CODEGEN--\":274:275   */\n      0x1\n        /* \"--CODEGEN--\":267:270   */\n      dup4\n        /* \"--CODEGEN--\":263:265   */\n      0x20\n        /* \"--CODEGEN--\":259:271   */\n      sub\n        /* \"--CODEGEN--\":254:257   */\n      0x100\n        /* \"--CODEGEN--\":250:272   */\n      exp\n        /* \"--CODEGEN--\":246:276   */\n      sub\n        /* \"--CODEGEN--\":315:319   */\n      dup1\n        /* \"--CODEGEN--\":311:320   */\n      not\n        /* \"--CODEGEN--\":305:308   */\n      dup3\n        /* \"--CODEGEN--\":299:309   */\n      mload\n        /* \"--CODEGEN--\":295:321   */\n      and\n        /* \"--CODEGEN--\":356:360   */\n      dup2\n        /* \"--CODEGEN--\":350:353   */\n      dup5\n        /* \"--CODEGEN--\":344:354   */\n      mload\n        /* \"--CODEGEN--\":340:361   */\n      and\n        /* \"--CODEGEN--\":389:396   */\n      dup1\n        /* \"--CODEGEN--\":380:387   */\n      dup3\n        /* \"--CODEGEN--\":377:397   */\n      or\n        /* \"--CODEGEN--\":372:375   */\n      dup6\n        /* \"--CODEGEN--\":365:398   */\n      mstore\n        /* \"--CODEGEN--\":3:402   */\n      pop\n      pop\n      pop\n        /* \"44.sol\":151:209  keccak256(abi.encodePacked(now,blockhash(block.number-1))) */\n      pop\n      pop\n      pop\n      swap1\n      pop\n      add\n      swap2\n      pop\n      pop\n      mload(0x40)\n      dup1\n      swap2\n      sub\n      swap1\n      keccak256\n        /* \"44.sol\":134:209  bytes32 ramdon = keccak256(abi.encodePacked(now,blockhash(block.number-1))) */\n      swap1\n      pop\n        /* \"44.sol\":241:245  1000 */\n      0x3e8\n        /* \"44.sol\":231:237  ramdon */\n      dup2\n        /* \"44.sol\":226:238  uint(ramdon) */\n      0x1\n      swap1\n      div\n        /* \"44.sol\":226:245  uint(ramdon) % 1000 */\n      dup2\n      iszero\n      iszero\n      tag_21\n      jumpi\n      invalid\n    tag_21:\n      mod\n        /* \"44.sol\":219:245  return uint(ramdon) % 1000 */\n      swap2\n      pop\n        /* \"44.sol\":77:252  function get_random() public view returns(uint){... */\n      pop\n      swap1\n      jump\t// out\n\n    auxdata: 0xa165627a7a72305820a18bda46d2db24177f7db6d88251d718026ff6da371d9631b4e7da9eba069a650029\n}\n",
				"bytecode": {
					"linkReferences": {},
					"object": "6080604052670de0b6b3a76400003414151561001a57600080fd5b610253806100296000396000f30060806040526004361061004c576000357c0100000000000000000000000000000000000000000000000000000000900463ffffffff16806393e84cd91461006457806398107e5b1461006e575b670de0b6b3a76400003414151561006257600080fd5b005b61006c610099565b005b34801561007a57600080fd5b50610083610174565b6040518082815260200191505060405180910390f35b662386f26fc10000341415156100ae57600080fd5b6101f46100b9610174565b101515610172573373ffffffffffffffffffffffffffffffffffffffff166108fc66470de4df8200009081150290604051600060405180830381858888f1935050505015801561010d573d6000803e3d6000fd5b507fa34cc845dfe7e94da90b41e77f799f7c29c20a39271c97a2469ce08afed0830b33604051808273ffffffffffffffffffffffffffffffffffffffff1673ffffffffffffffffffffffffffffffffffffffff16815260200191505060405180910390a15b565b600080426001430340604051602001808381526020018260001916600019168152602001925050506040516020818303038152906040526040518082805190602001908083835b6020831015156101e057805182526020820191506020810190506020830392506101bb565b6001836020036101000a038019825116818451168082178552505050505050905001915050604051809103902090506103e8816001900481151561022057fe5b06915050905600a165627a7a72305820a18bda46d2db24177f7db6d88251d718026ff6da371d9631b4e7da9eba069a650029",
					"opcodes": "PUSH1 0x80 PUSH1 0x40 MSTORE PUSH8 0xDE0B6B3A7640000 CALLVALUE EQ ISZERO ISZERO PUSH2 0x1A JUMPI PUSH1 0x0 DUP1 REVERT JUMPDEST PUSH2 0x253 DUP1 PUSH2 0x29 PUSH1 0x0 CODECOPY PUSH1 0x0 RETURN STOP PUSH1 0x80 PUSH1 0x40 MSTORE PUSH1 0x4 CALLDATASIZE LT PUSH2 0x4C JUMPI PUSH1 0x0 CALLDATALOAD PUSH29 0x100000000000000000000000000000000000000000000000000000000 SWAP1 DIV PUSH4 0xFFFFFFFF AND DUP1 PUSH4 0x93E84CD9 EQ PUSH2 0x64 JUMPI DUP1 PUSH4 0x98107E5B EQ PUSH2 0x6E JUMPI JUMPDEST PUSH8 0xDE0B6B3A7640000 CALLVALUE EQ ISZERO ISZERO PUSH2 0x62 JUMPI PUSH1 0x0 DUP1 REVERT JUMPDEST STOP JUMPDEST PUSH2 0x6C PUSH2 0x99 JUMP JUMPDEST STOP JUMPDEST CALLVALUE DUP1 ISZERO PUSH2 0x7A JUMPI PUSH1 0x0 DUP1 REVERT JUMPDEST POP PUSH2 0x83 PUSH2 0x174 JUMP JUMPDEST PUSH1 0x40 MLOAD DUP1 DUP3 DUP2 MSTORE PUSH1 0x20 ADD SWAP2 POP POP PUSH1 0x40 MLOAD DUP1 SWAP2 SUB SWAP1 RETURN JUMPDEST PUSH7 0x2386F26FC10000 CALLVALUE EQ ISZERO ISZERO PUSH2 0xAE JUMPI PUSH1 0x0 DUP1 REVERT JUMPDEST PUSH2 0x1F4 PUSH2 0xB9 PUSH2 0x174 JUMP JUMPDEST LT ISZERO ISZERO PUSH2 0x172 JUMPI CALLER PUSH20 0xFFFFFFFFFFFFFFFFFFFFFFFFFFFFFFFFFFFFFFFF AND PUSH2 0x8FC PUSH7 0x470DE4DF820000 SWAP1 DUP2 ISZERO MUL SWAP1 PUSH1 0x40 MLOAD PUSH1 0x0 PUSH1 0x40 MLOAD DUP1 DUP4 SUB DUP2 DUP6 DUP9 DUP9 CALL SWAP4 POP POP POP POP ISZERO DUP1 ISZERO PUSH2 0x10D JUMPI RETURNDATASIZE PUSH1 0x0 DUP1 RETURNDATACOPY RETURNDATASIZE PUSH1 0x0 REVERT JUMPDEST POP PUSH32 0xA34CC845DFE7E94DA90B41E77F799F7C29C20A39271C97A2469CE08AFED0830B CALLER PUSH1 0x40 MLOAD DUP1 DUP3 PUSH20 0xFFFFFFFFFFFFFFFFFFFFFFFFFFFFFFFFFFFFFFFF AND PUSH20 0xFFFFFFFFFFFFFFFFFFFFFFFFFFFFFFFFFFFFFFFF AND DUP2 MSTORE PUSH1 0x20 ADD SWAP2 POP POP PUSH1 0x40 MLOAD DUP1 SWAP2 SUB SWAP1 LOG1 JUMPDEST JUMP JUMPDEST PUSH1 0x0 DUP1 TIMESTAMP PUSH1 0x1 NUMBER SUB BLOCKHASH PUSH1 0x40 MLOAD PUSH1 0x20 ADD DUP1 DUP4 DUP2 MSTORE PUSH1 0x20 ADD DUP3 PUSH1 0x0 NOT AND PUSH1 0x0 NOT AND DUP2 MSTORE PUSH1 0x20 ADD SWAP3 POP POP POP PUSH1 0x40 MLOAD PUSH1 0x20 DUP2 DUP4 SUB SUB DUP2 MSTORE SWAP1 PUSH1 0x40 MSTORE PUSH1 0x40 MLOAD DUP1 DUP3 DUP1 MLOAD SWAP1 PUSH1 0x20 ADD SWAP1 DUP1 DUP4 DUP4 JUMPDEST PUSH1 0x20 DUP4 LT ISZERO ISZERO PUSH2 0x1E0 JUMPI DUP1 MLOAD DUP3 MSTORE PUSH1 0x20 DUP3 ADD SWAP2 POP PUSH1 0x20 DUP2 ADD SWAP1 POP PUSH1 0x20 DUP4 SUB SWAP3 POP PUSH2 0x1BB JUMP JUMPDEST PUSH1 0x1 DUP4 PUSH1 0x20 SUB PUSH2 0x100 EXP SUB DUP1 NOT DUP3 MLOAD AND DUP2 DUP5 MLOAD AND DUP1 DUP3 OR DUP6 MSTORE POP POP POP POP POP POP SWAP1 POP ADD SWAP2 POP POP PUSH1 0x40 MLOAD DUP1 SWAP2 SUB SWAP1 KECCAK256 SWAP1 POP PUSH2 0x3E8 DUP2 PUSH1 0x1 SWAP1 DIV DUP2 ISZERO ISZERO PUSH2 0x220 JUMPI INVALID JUMPDEST MOD SWAP2 POP POP SWAP1 JUMP STOP LOG1 PUSH6 0x627A7A723058 KECCAK256 LOG1 DUP12 0xda 0x46 0xd2 0xdb 0x24 OR PUSH32 0x7DB6D88251D718026FF6DA371D9631B4E7DA9EBA069A65002900000000000000 "
				},
				"gasEstimates": {
					"creation": {
						"codeDepositCost": "119000",
						"executionCost": "169",
						"totalCost": "119169"
					},
					"external": {
						"": "140",
						"get_random()": "infinite",
						"play()": "infinite"
					}
				},
				"methodIdentifiers": {
					"get_random()": "98107e5b",
					"play()": "93e84cd9"
				}
			},
			"userdoc": {
				"methods": {}
			}
		}
	}
}