{
	"test.sol": {
		"paperstone": {
			"abi": [
				{
					"constant": false,
					"inputs": [],
					"name": "bet",
					"outputs": [],
					"payable": true,
					"stateMutability": "payable",
					"type": "function"
				},
				{
					"constant": true,
					"inputs": [
						{
							"name": "",
							"type": "uint256"
						}
					],
					"name": "result",
					"outputs": [
						{
							"name": "",
							"type": "string"
						}
					],
					"payable": false,
					"stateMutability": "view",
					"type": "function"
				},
				{
					"constant": true,
					"inputs": [],
					"name": "money",
					"outputs": [
						{
							"name": "",
							"type": "uint256"
						}
					],
					"payable": false,
					"stateMutability": "view",
					"type": "function"
				},
				{
					"constant": false,
					"inputs": [
						{
							"name": "choose",
							"type": "uint256"
						}
					],
					"name": "play",
					"outputs": [],
					"payable": false,
					"stateMutability": "nonpayable",
					"type": "function"
				},
				{
					"constant": true,
					"inputs": [
						{
							"name": "",
							"type": "uint256"
						}
					],
					"name": "item",
					"outputs": [
						{
							"name": "",
							"type": "uint256"
						}
					],
					"payable": false,
					"stateMutability": "view",
					"type": "function"
				},
				{
					"constant": true,
					"inputs": [
						{
							"name": "",
							"type": "uint256"
						}
					],
					"name": "player",
					"outputs": [
						{
							"name": "",
							"type": "address"
						}
					],
					"payable": false,
					"stateMutability": "view",
					"type": "function"
				},
				{
					"inputs": [],
					"payable": true,
					"stateMutability": "payable",
					"type": "constructor"
				}
			],
			"devdoc": {
				"methods": {}
			},
			"evm": {
				"assembly": "    /* \"test.sol\":857:1822  contract paperstone {... */\n  mstore(0x40, 0x80)\n    /* \"test.sol\":927:928  0 */\n  0x0\n    /* \"test.sol\":909:928  uint public money=0 */\n  dup1\n  sstore\n    /* \"test.sol\":972:973  0 */\n  0x0\n    /* \"test.sol\":961:973  uint round=0 */\n  0x1\n  sstore\n    /* \"test.sol\":857:1822  contract paperstone {... */\n  dataSize(sub_0)\n  dup1\n  dataOffset(sub_0)\n  0x0\n  codecopy\n  0x0\n  return\nstop\n\nsub_0: assembly {\n        /* \"test.sol\":857:1822  contract paperstone {... */\n      mstore(0x40, 0x80)\n      jumpi(tag_1, lt(calldatasize, 0x4))\n      calldataload(0x0)\n      0x100000000000000000000000000000000000000000000000000000000\n      swap1\n      div\n      0xffffffff\n      and\n      dup1\n      0x11610c25\n      eq\n      tag_2\n      jumpi\n      dup1\n      0x3c594059\n      eq\n      tag_3\n      jumpi\n      dup1\n      0x4ddd108a\n      eq\n      tag_4\n      jumpi\n      dup1\n      0x6898f82b\n      eq\n      tag_5\n      jumpi\n      dup1\n      0x898e6219\n      eq\n      tag_6\n      jumpi\n      dup1\n      0x9e0551c6\n      eq\n      tag_7\n      jumpi\n    tag_1:\n      0x0\n      dup1\n      revert\n        /* \"test.sol\":1254:1376  function bet() public payable{... */\n    tag_2:\n      tag_8\n      jump(tag_9)\n    tag_8:\n      stop\n        /* \"test.sol\":1111:1147  mapping(uint => string)public result */\n    tag_3:\n      callvalue\n        /* \"--CODEGEN--\":8:17   */\n      dup1\n        /* \"--CODEGEN--\":5:7   */\n      iszero\n      tag_10\n      jumpi\n        /* \"--CODEGEN--\":30:31   */\n      0x0\n        /* \"--CODEGEN--\":27:28   */\n      dup1\n        /* \"--CODEGEN--\":20:32   */\n      revert\n        /* \"--CODEGEN--\":5:7   */\n    tag_10:\n        /* \"test.sol\":1111:1147  mapping(uint => string)public result */\n      pop\n      tag_11\n      0x4\n      dup1\n      calldatasize\n      sub\n      dup2\n      add\n      swap1\n      dup1\n      dup1\n      calldataload\n      swap1\n      0x20\n      add\n      swap1\n      swap3\n      swap2\n      swap1\n      pop\n      pop\n      pop\n      jump(tag_12)\n    tag_11:\n      mload(0x40)\n      dup1\n      dup1\n      0x20\n      add\n      dup3\n      dup2\n      sub\n      dup3\n      mstore\n      dup4\n      dup2\n      dup2\n      mload\n      dup2\n      mstore\n      0x20\n      add\n      swap2\n      pop\n      dup1\n      mload\n      swap1\n      0x20\n      add\n      swap1\n      dup1\n      dup4\n      dup4\n        /* \"--CODEGEN--\":23:24   */\n      0x0\n        /* \"--CODEGEN--\":8:108   */\n    tag_13:\n        /* \"--CODEGEN--\":33:36   */\n      dup4\n        /* \"--CODEGEN--\":30:31   */\n      dup2\n        /* \"--CODEGEN--\":27:37   */\n      lt\n        /* \"--CODEGEN--\":8:108   */\n      iszero\n      tag_14\n      jumpi\n        /* \"--CODEGEN--\":99:100   */\n      dup1\n        /* \"--CODEGEN--\":94:97   */\n      dup3\n        /* \"--CODEGEN--\":90:101   */\n      add\n        /* \"--CODEGEN--\":84:102   */\n      mload\n        /* \"--CODEGEN--\":80:81   */\n      dup2\n        /* \"--CODEGEN--\":75:78   */\n      dup5\n        /* \"--CODEGEN--\":71:82   */\n      add\n        /* \"--CODEGEN--\":64:103   */\n      mstore\n        /* \"--CODEGEN--\":52:54   */\n      0x20\n        /* \"--CODEGEN--\":49:50   */\n      dup2\n        /* \"--CODEGEN--\":45:55   */\n      add\n        /* \"--CODEGEN--\":40:55   */\n      swap1\n      pop\n        /* \"--CODEGEN--\":8:108   */\n      jump(tag_13)\n    tag_14:\n        /* \"--CODEGEN--\":12:26   */\n      pop\n        /* \"test.sol\":1111:1147  mapping(uint => string)public result */\n      pop\n      pop\n      pop\n      swap1\n      pop\n      swap1\n      dup2\n      add\n      swap1\n      0x1f\n      and\n      dup1\n      iszero\n      tag_16\n      jumpi\n      dup1\n      dup3\n      sub\n      dup1\n      mload\n      0x1\n      dup4\n      0x20\n      sub\n      0x100\n      exp\n      sub\n      not\n      and\n      dup2\n      mstore\n      0x20\n      add\n      swap2\n      pop\n    tag_16:\n      pop\n      swap3\n      pop\n      pop\n      pop\n      mload(0x40)\n      dup1\n      swap2\n      sub\n      swap1\n      return\n        /* \"test.sol\":909:928  uint public money=0 */\n    tag_4:\n      callvalue\n        /* \"--CODEGEN--\":8:17   */\n      dup1\n        /* \"--CODEGEN--\":5:7   */\n      iszero\n      tag_17\n      jumpi\n        /* \"--CODEGEN--\":30:31   */\n      0x0\n        /* \"--CODEGEN--\":27:28   */\n      dup1\n        /* \"--CODEGEN--\":20:32   */\n      revert\n        /* \"--CODEGEN--\":5:7   */\n    tag_17:\n        /* \"test.sol\":909:928  uint public money=0 */\n      pop\n      tag_18\n      jump(tag_19)\n    tag_18:\n      mload(0x40)\n      dup1\n      dup3\n      dup2\n      mstore\n      0x20\n      add\n      swap2\n      pop\n      pop\n      mload(0x40)\n      dup1\n      swap2\n      sub\n      swap1\n      return\n        /* \"test.sol\":1380:1819  function play(uint choose)public betcheck{... */\n    tag_5:\n      callvalue\n        /* \"--CODEGEN--\":8:17   */\n      dup1\n        /* \"--CODEGEN--\":5:7   */\n      iszero\n      tag_20\n      jumpi\n        /* \"--CODEGEN--\":30:31   */\n      0x0\n        /* \"--CODEGEN--\":27:28   */\n      dup1\n        /* \"--CODEGEN--\":20:32   */\n      revert\n        /* \"--CODEGEN--\":5:7   */\n    tag_20:\n        /* \"test.sol\":1380:1819  function play(uint choose)public betcheck{... */\n      pop\n      tag_21\n      0x4\n      dup1\n      calldatasize\n      sub\n      dup2\n      add\n      swap1\n      dup1\n      dup1\n      calldataload\n      swap1\n      0x20\n      add\n      swap1\n      swap3\n      swap2\n      swap1\n      pop\n      pop\n      pop\n      jump(tag_22)\n    tag_21:\n      stop\n        /* \"test.sol\":1077:1109  mapping(uint => uint)public item */\n    tag_6:\n      callvalue\n        /* \"--CODEGEN--\":8:17   */\n      dup1\n        /* \"--CODEGEN--\":5:7   */\n      iszero\n      tag_23\n      jumpi\n        /* \"--CODEGEN--\":30:31   */\n      0x0\n        /* \"--CODEGEN--\":27:28   */\n      dup1\n        /* \"--CODEGEN--\":20:32   */\n      revert\n        /* \"--CODEGEN--\":5:7   */\n    tag_23:\n        /* \"test.sol\":1077:1109  mapping(uint => uint)public item */\n      pop\n      tag_24\n      0x4\n      dup1\n      calldatasize\n      sub\n      dup2\n      add\n      swap1\n      dup1\n      dup1\n      calldataload\n      swap1\n      0x20\n      add\n      swap1\n      swap3\n      swap2\n      swap1\n      pop\n      pop\n      pop\n      jump(tag_25)\n    tag_24:\n      mload(0x40)\n      dup1\n      dup3\n      dup2\n      mstore\n      0x20\n      add\n      swap2\n      pop\n      pop\n      mload(0x40)\n      dup1\n      swap2\n      sub\n      swap1\n      return\n        /* \"test.sol\":1038:1075  mapping(uint => address)public player */\n    tag_7:\n      callvalue\n        /* \"--CODEGEN--\":8:17   */\n      dup1\n        /* \"--CODEGEN--\":5:7   */\n      iszero\n      tag_26\n      jumpi\n        /* \"--CODEGEN--\":30:31   */\n      0x0\n        /* \"--CODEGEN--\":27:28   */\n      dup1\n        /* \"--CODEGEN--\":20:32   */\n      revert\n        /* \"--CODEGEN--\":5:7   */\n    tag_26:\n        /* \"test.sol\":1038:1075  mapping(uint => address)public player */\n      pop\n      tag_27\n      0x4\n      dup1\n      calldatasize\n      sub\n      dup2\n      add\n      swap1\n      dup1\n      dup1\n      calldataload\n      swap1\n      0x20\n      add\n      swap1\n      swap3\n      swap2\n      swap1\n      pop\n      pop\n      pop\n      jump(tag_28)\n    tag_27:\n      mload(0x40)\n      dup1\n      dup3\n      0xffffffffffffffffffffffffffffffffffffffff\n      and\n      0xffffffffffffffffffffffffffffffffffffffff\n      and\n      dup2\n      mstore\n      0x20\n      add\n      swap2\n      pop\n      pop\n      mload(0x40)\n      dup1\n      swap2\n      sub\n      swap1\n      return\n        /* \"test.sol\":1254:1376  function bet() public payable{... */\n    tag_9:\n        /* \"test.sol\":950:959  0.1 ether */\n      0x16345785d8a0000\n        /* \"test.sol\":1297:1306  msg.value */\n      callvalue\n        /* \"test.sol\":1297:1313  msg.value==miner */\n      eq\n        /* \"test.sol\":1289:1314  require(msg.value==miner) */\n      iszero\n      iszero\n      tag_30\n      jumpi\n      0x0\n      dup1\n      revert\n    tag_30:\n        /* \"test.sol\":950:959  0.1 ether */\n      0x16345785d8a0000\n        /* \"test.sol\":1328:1333  money */\n      sload(0x0)\n        /* \"test.sol\":1328:1341  money + miner */\n      add\n        /* \"test.sol\":1320:1325  money */\n      0x0\n        /* \"test.sol\":1320:1341  money = money + miner */\n      dup2\n      swap1\n      sstore\n      pop\n        /* \"test.sol\":1362:1372  msg.sender */\n      caller\n        /* \"test.sol\":1347:1372  player[round]==msg.sender */\n      0xffffffffffffffffffffffffffffffffffffffff\n      and\n        /* \"test.sol\":1347:1353  player */\n      0x4\n        /* \"test.sol\":1347:1360  player[round] */\n      0x0\n        /* \"test.sol\":1354:1359  round */\n      sload(0x1)\n        /* \"test.sol\":1347:1360  player[round] */\n      dup2\n      mstore\n      0x20\n      add\n      swap1\n      dup2\n      mstore\n      0x20\n      add\n      0x0\n      keccak256\n      0x0\n      swap1\n      sload\n      swap1\n      0x100\n      exp\n      swap1\n      pop\n      pop\n        /* \"test.sol\":1347:1372  player[round]==msg.sender */\n      pop\n        /* \"test.sol\":1254:1376  function bet() public payable{... */\n      jump\t// out\n        /* \"test.sol\":1111:1147  mapping(uint => string)public result */\n    tag_12:\n      mstore(0x20, 0x6)\n      dup1\n      0x0\n      mstore\n      keccak256(0x0, 0x40)\n      0x0\n      swap2\n      pop\n      swap1\n      pop\n      dup1\n      sload\n      0x1\n      dup2\n      0x1\n      and\n      iszero\n      0x100\n      mul\n      sub\n      and\n      0x2\n      swap1\n      div\n      dup1\n      0x1f\n      add\n      0x20\n      dup1\n      swap2\n      div\n      mul\n      0x20\n      add\n      mload(0x40)\n      swap1\n      dup2\n      add\n      0x40\n      mstore\n      dup1\n      swap3\n      swap2\n      swap1\n      dup2\n      dup2\n      mstore\n      0x20\n      add\n      dup3\n      dup1\n      sload\n      0x1\n      dup2\n      0x1\n      and\n      iszero\n      0x100\n      mul\n      sub\n      and\n      0x2\n      swap1\n      div\n      dup1\n      iszero\n      tag_31\n      jumpi\n      dup1\n      0x1f\n      lt\n      tag_32\n      jumpi\n      0x100\n      dup1\n      dup4\n      sload\n      div\n      mul\n      dup4\n      mstore\n      swap2\n      0x20\n      add\n      swap2\n      jump(tag_31)\n    tag_32:\n      dup3\n      add\n      swap2\n      swap1\n      0x0\n      mstore\n      keccak256(0x0, 0x20)\n      swap1\n    tag_33:\n      dup2\n      sload\n      dup2\n      mstore\n      swap1\n      0x1\n      add\n      swap1\n      0x20\n      add\n      dup1\n      dup4\n      gt\n      tag_33\n      jumpi\n      dup3\n      swap1\n      sub\n      0x1f\n      and\n      dup3\n      add\n      swap2\n    tag_31:\n      pop\n      pop\n      pop\n      pop\n      pop\n      dup2\n      jump\t// out\n        /* \"test.sol\":909:928  uint public money=0 */\n    tag_19:\n      sload(0x0)\n      dup2\n      jump\t// out\n        /* \"test.sol\":1380:1819  function play(uint choose)public betcheck{... */\n    tag_22:\n        /* \"test.sol\":1185:1186  0 */\n      0x0\n        /* \"test.sol\":1178:1183  money */\n      dup1\n      sload\n        /* \"test.sol\":1178:1186  money!=0 */\n      eq\n      iszero\n        /* \"test.sol\":1175:1242  if(money!=0){... */\n      iszero\n      tag_35\n      jumpi\n        /* \"test.sol\":1220:1230  msg.sender */\n      caller\n        /* \"test.sol\":1205:1230  player[round]==msg.sender */\n      0xffffffffffffffffffffffffffffffffffffffff\n      and\n        /* \"test.sol\":1205:1211  player */\n      0x4\n        /* \"test.sol\":1205:1218  player[round] */\n      0x0\n        /* \"test.sol\":1212:1217  round */\n      sload(0x1)\n        /* \"test.sol\":1205:1218  player[round] */\n      dup2\n      mstore\n      0x20\n      add\n      swap1\n      dup2\n      mstore\n      0x20\n      add\n      0x0\n      keccak256\n      0x0\n      swap1\n      sload\n      swap1\n      0x100\n      exp\n      swap1\n      div\n      0xffffffffffffffffffffffffffffffffffffffff\n      and\n        /* \"test.sol\":1205:1230  player[round]==msg.sender */\n      0xffffffffffffffffffffffffffffffffffffffff\n      and\n      eq\n        /* \"test.sol\":1197:1231  require(player[round]==msg.sender) */\n      iszero\n      iszero\n      tag_36\n      jumpi\n      0x0\n      dup1\n      revert\n    tag_36:\n        /* \"test.sol\":1175:1242  if(money!=0){... */\n    tag_35:\n        /* \"test.sol\":1442:1443  0 */\n      0x0\n        /* \"test.sol\":1435:1440  money */\n      dup1\n      sload\n        /* \"test.sol\":1435:1443  money>=0 */\n      lt\n      iszero\n        /* \"test.sol\":1427:1444  require(money>=0) */\n      iszero\n      iszero\n      tag_38\n      jumpi\n      0x0\n      dup1\n      revert\n    tag_38:\n        /* \"test.sol\":1463:1469  choose */\n      dup1\n        /* \"test.sol\":1450:1454  item */\n      0x5\n        /* \"test.sol\":1450:1461  item[round] */\n      0x0\n        /* \"test.sol\":1455:1460  round */\n      sload(0x1)\n        /* \"test.sol\":1450:1461  item[round] */\n      dup2\n      mstore\n      0x20\n      add\n      swap1\n      dup2\n      mstore\n      0x20\n      add\n      0x0\n      keccak256\n      pop\n        /* \"test.sol\":1450:1469  item[round]==choose */\n      pop\n        /* \"test.sol\":1503:1504  1 */\n      0x1\n        /* \"test.sol\":1501:1502  3 */\n      0x3\n        /* \"test.sol\":1484:1499  block.timestamp */\n      timestamp\n        /* \"test.sol\":1484:1502  block.timestamp %3 */\n      dup2\n      iszero\n      iszero\n      tag_39\n      jumpi\n      invalid\n    tag_39:\n      mod\n        /* \"test.sol\":1484:1504  block.timestamp %3+1 */\n      add\n        /* \"test.sol\":1475:1483  computer */\n      0x3\n        /* \"test.sol\":1475:1504  computer=block.timestamp %3+1 */\n      dup2\n      swap1\n      sstore\n      pop\n        /* \"test.sol\":1521:1529  computer */\n      sload(0x3)\n        /* \"test.sol\":1513:1519  choose */\n      dup2\n        /* \"test.sol\":1513:1529  choose==computer */\n      eq\n        /* \"test.sol\":1510:1799  if(choose==computer)... */\n      iszero\n      tag_40\n      jumpi\n        /* \"test.sol\":1553:1573  result[round]=\"DRAW\" */\n      0x40\n      dup1\n      mload\n      swap1\n      dup2\n      add\n      0x40\n      mstore\n      dup1\n      0x4\n      dup2\n      mstore\n      0x20\n      add\n      0x4452415700000000000000000000000000000000000000000000000000000000\n      dup2\n      mstore\n      pop\n        /* \"test.sol\":1553:1559  result */\n      0x6\n        /* \"test.sol\":1553:1566  result[round] */\n      0x0\n        /* \"test.sol\":1560:1565  round */\n      sload(0x1)\n        /* \"test.sol\":1553:1566  result[round] */\n      dup2\n      mstore\n      0x20\n      add\n      swap1\n      dup2\n      mstore\n      0x20\n      add\n      0x0\n      keccak256\n        /* \"test.sol\":1553:1573  result[round]=\"DRAW\" */\n      swap1\n      dup1\n      mload\n      swap1\n      0x20\n      add\n      swap1\n      tag_41\n      swap3\n      swap2\n      swap1\n      jump\t// in(tag_42)\n    tag_41:\n      pop\n        /* \"test.sol\":1587:1597  msg.sender */\n      caller\n        /* \"test.sol\":1587:1606  msg.sender.transfer */\n      0xffffffffffffffffffffffffffffffffffffffff\n      and\n        /* \"test.sol\":1587:1613  msg.sender.transfer(money) */\n      0x8fc\n        /* \"test.sol\":1607:1612  money */\n      sload(0x0)\n        /* \"test.sol\":1587:1613  msg.sender.transfer(money) */\n      swap1\n      dup2\n      iszero\n      mul\n      swap1\n      mload(0x40)\n      0x0\n      mload(0x40)\n      dup1\n      dup4\n      sub\n      dup2\n      dup6\n      dup9\n      dup9\n      call\n      swap4\n      pop\n      pop\n      pop\n      pop\n      iszero\n        /* \"--CODEGEN--\":8:17   */\n      dup1\n        /* \"--CODEGEN--\":5:7   */\n      iszero\n      tag_43\n      jumpi\n        /* \"--CODEGEN--\":45:61   */\n      returndatasize\n        /* \"--CODEGEN--\":42:43   */\n      0x0\n        /* \"--CODEGEN--\":39:40   */\n      dup1\n        /* \"--CODEGEN--\":24:62   */\n      returndatacopy\n        /* \"--CODEGEN--\":77:93   */\n      returndatasize\n        /* \"--CODEGEN--\":74:75   */\n      0x0\n        /* \"--CODEGEN--\":67:94   */\n      revert\n        /* \"--CODEGEN--\":5:7   */\n    tag_43:\n        /* \"test.sol\":1587:1613  msg.sender.transfer(money) */\n      pop\n        /* \"test.sol\":1510:1799  if(choose==computer)... */\n      jump(tag_44)\n    tag_40:\n        /* \"test.sol\":1644:1652  computer */\n      sload(0x3)\n        /* \"test.sol\":1637:1643  choose */\n      dup2\n        /* \"test.sol\":1637:1652  choose<computer */\n      lt\n        /* \"test.sol\":1637:1678  choose<computer||(computer==1&&choose==2) */\n      dup1\n      tag_45\n      jumpi\n      pop\n        /* \"test.sol\":1665:1666  1 */\n      0x1\n        /* \"test.sol\":1655:1663  computer */\n      sload(0x3)\n        /* \"test.sol\":1655:1666  computer==1 */\n      eq\n        /* \"test.sol\":1655:1677  computer==1&&choose==2 */\n      dup1\n      iszero\n      tag_46\n      jumpi\n      pop\n        /* \"test.sol\":1676:1677  2 */\n      0x2\n        /* \"test.sol\":1668:1674  choose */\n      dup2\n        /* \"test.sol\":1668:1677  choose==2 */\n      eq\n        /* \"test.sol\":1655:1677  computer==1&&choose==2 */\n    tag_46:\n        /* \"test.sol\":1637:1678  choose<computer||(computer==1&&choose==2) */\n    tag_45:\n        /* \"test.sol\":1634:1799  if(choose<computer||(computer==1&&choose==2)){... */\n      iszero\n      tag_47\n      jumpi\n        /* \"test.sol\":1689:1709  result[round]=\"LOSE\" */\n      0x40\n      dup1\n      mload\n      swap1\n      dup2\n      add\n      0x40\n      mstore\n      dup1\n      0x4\n      dup2\n      mstore\n      0x20\n      add\n      0x4c4f534500000000000000000000000000000000000000000000000000000000\n      dup2\n      mstore\n      pop\n        /* \"test.sol\":1689:1695  result */\n      0x6\n        /* \"test.sol\":1689:1702  result[round] */\n      0x0\n        /* \"test.sol\":1696:1701  round */\n      sload(0x1)\n        /* \"test.sol\":1689:1702  result[round] */\n      dup2\n      mstore\n      0x20\n      add\n      swap1\n      dup2\n      mstore\n      0x20\n      add\n      0x0\n      keccak256\n        /* \"test.sol\":1689:1709  result[round]=\"LOSE\" */\n      swap1\n      dup1\n      mload\n      swap1\n      0x20\n      add\n      swap1\n      tag_48\n      swap3\n      swap2\n      swap1\n      jump\t// in(tag_42)\n    tag_48:\n      pop\n        /* \"test.sol\":1634:1799  if(choose<computer||(computer==1&&choose==2)){... */\n      jump(tag_49)\n    tag_47:\n        /* \"test.sol\":1735:1754  result[round]=\"WIN\" */\n      0x40\n      dup1\n      mload\n      swap1\n      dup2\n      add\n      0x40\n      mstore\n      dup1\n      0x3\n      dup2\n      mstore\n      0x20\n      add\n      0x57494e0000000000000000000000000000000000000000000000000000000000\n      dup2\n      mstore\n      pop\n        /* \"test.sol\":1735:1741  result */\n      0x6\n        /* \"test.sol\":1735:1748  result[round] */\n      0x0\n        /* \"test.sol\":1742:1747  round */\n      sload(0x1)\n        /* \"test.sol\":1735:1748  result[round] */\n      dup2\n      mstore\n      0x20\n      add\n      swap1\n      dup2\n      mstore\n      0x20\n      add\n      0x0\n      keccak256\n        /* \"test.sol\":1735:1754  result[round]=\"WIN\" */\n      swap1\n      dup1\n      mload\n      swap1\n      0x20\n      add\n      swap1\n      tag_50\n      swap3\n      swap2\n      swap1\n      jump\t// in(tag_42)\n    tag_50:\n      pop\n        /* \"test.sol\":1764:1774  msg.sender */\n      caller\n        /* \"test.sol\":1764:1783  msg.sender.transfer */\n      0xffffffffffffffffffffffffffffffffffffffff\n      and\n        /* \"test.sol\":1764:1792  msg.sender.transfer(money*2) */\n      0x8fc\n        /* \"test.sol\":1790:1791  2 */\n      0x2\n        /* \"test.sol\":1784:1789  money */\n      sload(0x0)\n        /* \"test.sol\":1784:1791  money*2 */\n      mul\n        /* \"test.sol\":1764:1792  msg.sender.transfer(money*2) */\n      swap1\n      dup2\n      iszero\n      mul\n      swap1\n      mload(0x40)\n      0x0\n      mload(0x40)\n      dup1\n      dup4\n      sub\n      dup2\n      dup6\n      dup9\n      dup9\n      call\n      swap4\n      pop\n      pop\n      pop\n      pop\n      iszero\n        /* \"--CODEGEN--\":8:17   */\n      dup1\n        /* \"--CODEGEN--\":5:7   */\n      iszero\n      tag_51\n      jumpi\n        /* \"--CODEGEN--\":45:61   */\n      returndatasize\n        /* \"--CODEGEN--\":42:43   */\n      0x0\n        /* \"--CODEGEN--\":39:40   */\n      dup1\n        /* \"--CODEGEN--\":24:62   */\n      returndatacopy\n        /* \"--CODEGEN--\":77:93   */\n      returndatasize\n        /* \"--CODEGEN--\":74:75   */\n      0x0\n        /* \"--CODEGEN--\":67:94   */\n      revert\n        /* \"--CODEGEN--\":5:7   */\n    tag_51:\n        /* \"test.sol\":1764:1792  msg.sender.transfer(money*2) */\n      pop\n        /* \"test.sol\":1634:1799  if(choose<computer||(computer==1&&choose==2)){... */\n    tag_49:\n        /* \"test.sol\":1510:1799  if(choose==computer)... */\n    tag_44:\n        /* \"test.sol\":1804:1809  round */\n      0x1\n      0x0\n        /* \"test.sol\":1804:1811  round++ */\n      dup2\n      sload\n      dup1\n      swap3\n      swap2\n      swap1\n      0x1\n      add\n      swap2\n      swap1\n      pop\n      sstore\n      pop\n        /* \"test.sol\":1380:1819  function play(uint choose)public betcheck{... */\n      pop\n      jump\t// out\n        /* \"test.sol\":1077:1109  mapping(uint => uint)public item */\n    tag_25:\n      mstore(0x20, 0x5)\n      dup1\n      0x0\n      mstore\n      keccak256(0x0, 0x40)\n      0x0\n      swap2\n      pop\n      swap1\n      pop\n      sload\n      dup2\n      jump\t// out\n        /* \"test.sol\":1038:1075  mapping(uint => address)public player */\n    tag_28:\n      mstore(0x20, 0x4)\n      dup1\n      0x0\n      mstore\n      keccak256(0x0, 0x40)\n      0x0\n      swap2\n      pop\n      sload\n      swap1\n      0x100\n      exp\n      swap1\n      div\n      0xffffffffffffffffffffffffffffffffffffffff\n      and\n      dup2\n      jump\t// out\n        /* \"test.sol\":857:1822  contract paperstone {... */\n    tag_42:\n      dup3\n      dup1\n      sload\n      0x1\n      dup2\n      0x1\n      and\n      iszero\n      0x100\n      mul\n      sub\n      and\n      0x2\n      swap1\n      div\n      swap1\n      0x0\n      mstore\n      keccak256(0x0, 0x20)\n      swap1\n      0x1f\n      add\n      0x20\n      swap1\n      div\n      dup2\n      add\n      swap3\n      dup3\n      0x1f\n      lt\n      tag_53\n      jumpi\n      dup1\n      mload\n      not(0xff)\n      and\n      dup4\n      dup1\n      add\n      or\n      dup6\n      sstore\n      jump(tag_52)\n    tag_53:\n      dup3\n      dup1\n      add\n      0x1\n      add\n      dup6\n      sstore\n      dup3\n      iszero\n      tag_52\n      jumpi\n      swap2\n      dup3\n      add\n    tag_54:\n      dup3\n      dup2\n      gt\n      iszero\n      tag_55\n      jumpi\n      dup3\n      mload\n      dup3\n      sstore\n      swap2\n      0x20\n      add\n      swap2\n      swap1\n      0x1\n      add\n      swap1\n      jump(tag_54)\n    tag_55:\n    tag_52:\n      pop\n      swap1\n      pop\n      tag_56\n      swap2\n      swap1\n      jump\t// in(tag_57)\n    tag_56:\n      pop\n      swap1\n      jump\t// out\n    tag_57:\n      tag_58\n      swap2\n      swap1\n    tag_59:\n      dup1\n      dup3\n      gt\n      iszero\n      tag_60\n      jumpi\n      0x0\n      dup2\n      0x0\n      swap1\n      sstore\n      pop\n      0x1\n      add\n      jump(tag_59)\n    tag_60:\n      pop\n      swap1\n      jump\n    tag_58:\n      swap1\n      jump\t// out\n\n    auxdata: 0xa165627a7a72305820c4823448b0d0b30efc4f512d3a3f753c6c8aaa79043375d3a617238663639e410029\n}\n",
				"bytecode": {
					"linkReferences": {},
					"object": "60806040526000805560006001556107238061001c6000396000f300608060405260043610610078576000357c0100000000000000000000000000000000000000000000000000000000900463ffffffff16806311610c251461007d5780633c594059146100875780634ddd108a1461012d5780636898f82b14610158578063898e6219146101855780639e0551c6146101c6575b600080fd5b610085610233565b005b34801561009357600080fd5b506100b260048036038101908080359060200190929190505050610297565b6040518080602001828103825283818151815260200191508051906020019080838360005b838110156100f25780820151818401526020810190506100d7565b50505050905090810190601f16801561011f5780820380516001836020036101000a031916815260200191505b509250505060405180910390f35b34801561013957600080fd5b50610142610347565b6040518082815260200191505060405180910390f35b34801561016457600080fd5b506101836004803603810190808035906020019092919050505061034d565b005b34801561019157600080fd5b506101b060048036038101908080359060200190929190505050610607565b6040518082815260200191505060405180910390f35b3480156101d257600080fd5b506101f16004803603810190808035906020019092919050505061061f565b604051808273ffffffffffffffffffffffffffffffffffffffff1673ffffffffffffffffffffffffffffffffffffffff16815260200191505060405180910390f35b67016345785d8a00003414151561024957600080fd5b67016345785d8a0000600054016000819055503373ffffffffffffffffffffffffffffffffffffffff1660046000600154815260200190815260200160002060009054906101000a90505050565b60066020528060005260406000206000915090508054600181600116156101000203166002900480601f01602080910402602001604051908101604052809291908181526020018280546001816001161561010002031660029004801561033f5780601f106103145761010080835404028352916020019161033f565b820191906000526020600020905b81548152906001019060200180831161032257829003601f168201915b505050505081565b60005481565b600080541415156103c8573373ffffffffffffffffffffffffffffffffffffffff1660046000600154815260200190815260200160002060009054906101000a900473ffffffffffffffffffffffffffffffffffffffff1673ffffffffffffffffffffffffffffffffffffffff161415156103c757600080fd5b5b60008054101515156103d957600080fd5b80600560006001548152602001908152602001600020505060016003428115156103ff57fe5b06016003819055506003548114156104be576040805190810160405280600481526020017f4452415700000000000000000000000000000000000000000000000000000000815250600660006001548152602001908152602001600020908051906020019061046f929190610652565b503373ffffffffffffffffffffffffffffffffffffffff166108fc6000549081150290604051600060405180830381858888f193505050501580156104b8573d6000803e3d6000fd5b506105f2565b6003548110806104dc575060016003541480156104db5750600281145b5b15610545576040805190810160405280600481526020017f4c4f534500000000000000000000000000000000000000000000000000000000815250600660006001548152602001908152602001600020908051906020019061053f929190610652565b506105f1565b6040805190810160405280600381526020017f57494e000000000000000000000000000000000000000000000000000000000081525060066000600154815260200190815260200160002090805190602001906105a3929190610652565b503373ffffffffffffffffffffffffffffffffffffffff166108fc6002600054029081150290604051600060405180830381858888f193505050501580156105ef573d6000803e3d6000fd5b505b5b60016000815480929190600101919050555050565b60056020528060005260406000206000915090505481565b60046020528060005260406000206000915054906101000a900473ffffffffffffffffffffffffffffffffffffffff1681565b828054600181600116156101000203166002900490600052602060002090601f016020900481019282601f1061069357805160ff19168380011785556106c1565b828001600101855582156106c1579182015b828111156106c05782518255916020019190600101906106a5565b5b5090506106ce91906106d2565b5090565b6106f491905b808211156106f05760008160009055506001016106d8565b5090565b905600a165627a7a72305820c4823448b0d0b30efc4f512d3a3f753c6c8aaa79043375d3a617238663639e410029",
					"opcodes": "PUSH1 0x80 PUSH1 0x40 MSTORE PUSH1 0x0 DUP1 SSTORE PUSH1 0x0 PUSH1 0x1 SSTORE PUSH2 0x723 DUP1 PUSH2 0x1C PUSH1 0x0 CODECOPY PUSH1 0x0 RETURN STOP PUSH1 0x80 PUSH1 0x40 MSTORE PUSH1 0x4 CALLDATASIZE LT PUSH2 0x78 JUMPI PUSH1 0x0 CALLDATALOAD PUSH29 0x100000000000000000000000000000000000000000000000000000000 SWAP1 DIV PUSH4 0xFFFFFFFF AND DUP1 PUSH4 0x11610C25 EQ PUSH2 0x7D JUMPI DUP1 PUSH4 0x3C594059 EQ PUSH2 0x87 JUMPI DUP1 PUSH4 0x4DDD108A EQ PUSH2 0x12D JUMPI DUP1 PUSH4 0x6898F82B EQ PUSH2 0x158 JUMPI DUP1 PUSH4 0x898E6219 EQ PUSH2 0x185 JUMPI DUP1 PUSH4 0x9E0551C6 EQ PUSH2 0x1C6 JUMPI JUMPDEST PUSH1 0x0 DUP1 REVERT JUMPDEST PUSH2 0x85 PUSH2 0x233 JUMP JUMPDEST STOP JUMPDEST CALLVALUE DUP1 ISZERO PUSH2 0x93 JUMPI PUSH1 0x0 DUP1 REVERT JUMPDEST POP PUSH2 0xB2 PUSH1 0x4 DUP1 CALLDATASIZE SUB DUP2 ADD SWAP1 DUP1 DUP1 CALLDATALOAD SWAP1 PUSH1 0x20 ADD SWAP1 SWAP3 SWAP2 SWAP1 POP POP POP PUSH2 0x297 JUMP JUMPDEST PUSH1 0x40 MLOAD DUP1 DUP1 PUSH1 0x20 ADD DUP3 DUP2 SUB DUP3 MSTORE DUP4 DUP2 DUP2 MLOAD DUP2 MSTORE PUSH1 0x20 ADD SWAP2 POP DUP1 MLOAD SWAP1 PUSH1 0x20 ADD SWAP1 DUP1 DUP4 DUP4 PUSH1 0x0 JUMPDEST DUP4 DUP2 LT ISZERO PUSH2 0xF2 JUMPI DUP1 DUP3 ADD MLOAD DUP2 DUP5 ADD MSTORE PUSH1 0x20 DUP2 ADD SWAP1 POP PUSH2 0xD7 JUMP JUMPDEST POP POP POP POP SWAP1 POP SWAP1 DUP2 ADD SWAP1 PUSH1 0x1F AND DUP1 ISZERO PUSH2 0x11F JUMPI DUP1 DUP3 SUB DUP1 MLOAD PUSH1 0x1 DUP4 PUSH1 0x20 SUB PUSH2 0x100 EXP SUB NOT AND DUP2 MSTORE PUSH1 0x20 ADD SWAP2 POP JUMPDEST POP SWAP3 POP POP POP PUSH1 0x40 MLOAD DUP1 SWAP2 SUB SWAP1 RETURN JUMPDEST CALLVALUE DUP1 ISZERO PUSH2 0x139 JUMPI PUSH1 0x0 DUP1 REVERT JUMPDEST POP PUSH2 0x142 PUSH2 0x347 JUMP JUMPDEST PUSH1 0x40 MLOAD DUP1 DUP3 DUP2 MSTORE PUSH1 0x20 ADD SWAP2 POP POP PUSH1 0x40 MLOAD DUP1 SWAP2 SUB SWAP1 RETURN JUMPDEST CALLVALUE DUP1 ISZERO PUSH2 0x164 JUMPI PUSH1 0x0 DUP1 REVERT JUMPDEST POP PUSH2 0x183 PUSH1 0x4 DUP1 CALLDATASIZE SUB DUP2 ADD SWAP1 DUP1 DUP1 CALLDATALOAD SWAP1 PUSH1 0x20 ADD SWAP1 SWAP3 SWAP2 SWAP1 POP POP POP PUSH2 0x34D JUMP JUMPDEST STOP JUMPDEST CALLVALUE DUP1 ISZERO PUSH2 0x191 JUMPI PUSH1 0x0 DUP1 REVERT JUMPDEST POP PUSH2 0x1B0 PUSH1 0x4 DUP1 CALLDATASIZE SUB DUP2 ADD SWAP1 DUP1 DUP1 CALLDATALOAD SWAP1 PUSH1 0x20 ADD SWAP1 SWAP3 SWAP2 SWAP1 POP POP POP PUSH2 0x607 JUMP JUMPDEST PUSH1 0x40 MLOAD DUP1 DUP3 DUP2 MSTORE PUSH1 0x20 ADD SWAP2 POP POP PUSH1 0x40 MLOAD DUP1 SWAP2 SUB SWAP1 RETURN JUMPDEST CALLVALUE DUP1 ISZERO PUSH2 0x1D2 JUMPI PUSH1 0x0 DUP1 REVERT JUMPDEST POP PUSH2 0x1F1 PUSH1 0x4 DUP1 CALLDATASIZE SUB DUP2 ADD SWAP1 DUP1 DUP1 CALLDATALOAD SWAP1 PUSH1 0x20 ADD SWAP1 SWAP3 SWAP2 SWAP1 POP POP POP PUSH2 0x61F JUMP JUMPDEST PUSH1 0x40 MLOAD DUP1 DUP3 PUSH20 0xFFFFFFFFFFFFFFFFFFFFFFFFFFFFFFFFFFFFFFFF AND PUSH20 0xFFFFFFFFFFFFFFFFFFFFFFFFFFFFFFFFFFFFFFFF AND DUP2 MSTORE PUSH1 0x20 ADD SWAP2 POP POP PUSH1 0x40 MLOAD DUP1 SWAP2 SUB SWAP1 RETURN JUMPDEST PUSH8 0x16345785D8A0000 CALLVALUE EQ ISZERO ISZERO PUSH2 0x249 JUMPI PUSH1 0x0 DUP1 REVERT JUMPDEST PUSH8 0x16345785D8A0000 PUSH1 0x0 SLOAD ADD PUSH1 0x0 DUP2 SWAP1 SSTORE POP CALLER PUSH20 0xFFFFFFFFFFFFFFFFFFFFFFFFFFFFFFFFFFFFFFFF AND PUSH1 0x4 PUSH1 0x0 PUSH1 0x1 SLOAD DUP2 MSTORE PUSH1 0x20 ADD SWAP1 DUP2 MSTORE PUSH1 0x20 ADD PUSH1 0x0 KECCAK256 PUSH1 0x0 SWAP1 SLOAD SWAP1 PUSH2 0x100 EXP SWAP1 POP POP POP JUMP JUMPDEST PUSH1 0x6 PUSH1 0x20 MSTORE DUP1 PUSH1 0x0 MSTORE PUSH1 0x40 PUSH1 0x0 KECCAK256 PUSH1 0x0 SWAP2 POP SWAP1 POP DUP1 SLOAD PUSH1 0x1 DUP2 PUSH1 0x1 AND ISZERO PUSH2 0x100 MUL SUB AND PUSH1 0x2 SWAP1 DIV DUP1 PUSH1 0x1F ADD PUSH1 0x20 DUP1 SWAP2 DIV MUL PUSH1 0x20 ADD PUSH1 0x40 MLOAD SWAP1 DUP2 ADD PUSH1 0x40 MSTORE DUP1 SWAP3 SWAP2 SWAP1 DUP2 DUP2 MSTORE PUSH1 0x20 ADD DUP3 DUP1 SLOAD PUSH1 0x1 DUP2 PUSH1 0x1 AND ISZERO PUSH2 0x100 MUL SUB AND PUSH1 0x2 SWAP1 DIV DUP1 ISZERO PUSH2 0x33F JUMPI DUP1 PUSH1 0x1F LT PUSH2 0x314 JUMPI PUSH2 0x100 DUP1 DUP4 SLOAD DIV MUL DUP4 MSTORE SWAP2 PUSH1 0x20 ADD SWAP2 PUSH2 0x33F JUMP JUMPDEST DUP3 ADD SWAP2 SWAP1 PUSH1 0x0 MSTORE PUSH1 0x20 PUSH1 0x0 KECCAK256 SWAP1 JUMPDEST DUP2 SLOAD DUP2 MSTORE SWAP1 PUSH1 0x1 ADD SWAP1 PUSH1 0x20 ADD DUP1 DUP4 GT PUSH2 0x322 JUMPI DUP3 SWAP1 SUB PUSH1 0x1F AND DUP3 ADD SWAP2 JUMPDEST POP POP POP POP POP DUP2 JUMP JUMPDEST PUSH1 0x0 SLOAD DUP2 JUMP JUMPDEST PUSH1 0x0 DUP1 SLOAD EQ ISZERO ISZERO PUSH2 0x3C8 JUMPI CALLER PUSH20 0xFFFFFFFFFFFFFFFFFFFFFFFFFFFFFFFFFFFFFFFF AND PUSH1 0x4 PUSH1 0x0 PUSH1 0x1 SLOAD DUP2 MSTORE PUSH1 0x20 ADD SWAP1 DUP2 MSTORE PUSH1 0x20 ADD PUSH1 0x0 KECCAK256 PUSH1 0x0 SWAP1 SLOAD SWAP1 PUSH2 0x100 EXP SWAP1 DIV PUSH20 0xFFFFFFFFFFFFFFFFFFFFFFFFFFFFFFFFFFFFFFFF AND PUSH20 0xFFFFFFFFFFFFFFFFFFFFFFFFFFFFFFFFFFFFFFFF AND EQ ISZERO ISZERO PUSH2 0x3C7 JUMPI PUSH1 0x0 DUP1 REVERT JUMPDEST JUMPDEST PUSH1 0x0 DUP1 SLOAD LT ISZERO ISZERO ISZERO PUSH2 0x3D9 JUMPI PUSH1 0x0 DUP1 REVERT JUMPDEST DUP1 PUSH1 0x5 PUSH1 0x0 PUSH1 0x1 SLOAD DUP2 MSTORE PUSH1 0x20 ADD SWAP1 DUP2 MSTORE PUSH1 0x20 ADD PUSH1 0x0 KECCAK256 POP POP PUSH1 0x1 PUSH1 0x3 TIMESTAMP DUP2 ISZERO ISZERO PUSH2 0x3FF JUMPI INVALID JUMPDEST MOD ADD PUSH1 0x3 DUP2 SWAP1 SSTORE POP PUSH1 0x3 SLOAD DUP2 EQ ISZERO PUSH2 0x4BE JUMPI PUSH1 0x40 DUP1 MLOAD SWAP1 DUP2 ADD PUSH1 0x40 MSTORE DUP1 PUSH1 0x4 DUP2 MSTORE PUSH1 0x20 ADD PUSH32 0x4452415700000000000000000000000000000000000000000000000000000000 DUP2 MSTORE POP PUSH1 0x6 PUSH1 0x0 PUSH1 0x1 SLOAD DUP2 MSTORE PUSH1 0x20 ADD SWAP1 DUP2 MSTORE PUSH1 0x20 ADD PUSH1 0x0 KECCAK256 SWAP1 DUP1 MLOAD SWAP1 PUSH1 0x20 ADD SWAP1 PUSH2 0x46F SWAP3 SWAP2 SWAP1 PUSH2 0x652 JUMP JUMPDEST POP CALLER PUSH20 0xFFFFFFFFFFFFFFFFFFFFFFFFFFFFFFFFFFFFFFFF AND PUSH2 0x8FC PUSH1 0x0 SLOAD SWAP1 DUP2 ISZERO MUL SWAP1 PUSH1 0x40 MLOAD PUSH1 0x0 PUSH1 0x40 MLOAD DUP1 DUP4 SUB DUP2 DUP6 DUP9 DUP9 CALL SWAP4 POP POP POP POP ISZERO DUP1 ISZERO PUSH2 0x4B8 JUMPI RETURNDATASIZE PUSH1 0x0 DUP1 RETURNDATACOPY RETURNDATASIZE PUSH1 0x0 REVERT JUMPDEST POP PUSH2 0x5F2 JUMP JUMPDEST PUSH1 0x3 SLOAD DUP2 LT DUP1 PUSH2 0x4DC JUMPI POP PUSH1 0x1 PUSH1 0x3 SLOAD EQ DUP1 ISZERO PUSH2 0x4DB JUMPI POP PUSH1 0x2 DUP2 EQ JUMPDEST JUMPDEST ISZERO PUSH2 0x545 JUMPI PUSH1 0x40 DUP1 MLOAD SWAP1 DUP2 ADD PUSH1 0x40 MSTORE DUP1 PUSH1 0x4 DUP2 MSTORE PUSH1 0x20 ADD PUSH32 0x4C4F534500000000000000000000000000000000000000000000000000000000 DUP2 MSTORE POP PUSH1 0x6 PUSH1 0x0 PUSH1 0x1 SLOAD DUP2 MSTORE PUSH1 0x20 ADD SWAP1 DUP2 MSTORE PUSH1 0x20 ADD PUSH1 0x0 KECCAK256 SWAP1 DUP1 MLOAD SWAP1 PUSH1 0x20 ADD SWAP1 PUSH2 0x53F SWAP3 SWAP2 SWAP1 PUSH2 0x652 JUMP JUMPDEST POP PUSH2 0x5F1 JUMP JUMPDEST PUSH1 0x40 DUP1 MLOAD SWAP1 DUP2 ADD PUSH1 0x40 MSTORE DUP1 PUSH1 0x3 DUP2 MSTORE PUSH1 0x20 ADD PUSH32 0x57494E0000000000000000000000000000000000000000000000000000000000 DUP2 MSTORE POP PUSH1 0x6 PUSH1 0x0 PUSH1 0x1 SLOAD DUP2 MSTORE PUSH1 0x20 ADD SWAP1 DUP2 MSTORE PUSH1 0x20 ADD PUSH1 0x0 KECCAK256 SWAP1 DUP1 MLOAD SWAP1 PUSH1 0x20 ADD SWAP1 PUSH2 0x5A3 SWAP3 SWAP2 SWAP1 PUSH2 0x652 JUMP JUMPDEST POP CALLER PUSH20 0xFFFFFFFFFFFFFFFFFFFFFFFFFFFFFFFFFFFFFFFF AND PUSH2 0x8FC PUSH1 0x2 PUSH1 0x0 SLOAD MUL SWAP1 DUP2 ISZERO MUL SWAP1 PUSH1 0x40 MLOAD PUSH1 0x0 PUSH1 0x40 MLOAD DUP1 DUP4 SUB DUP2 DUP6 DUP9 DUP9 CALL SWAP4 POP POP POP POP ISZERO DUP1 ISZERO PUSH2 0x5EF JUMPI RETURNDATASIZE PUSH1 0x0 DUP1 RETURNDATACOPY RETURNDATASIZE PUSH1 0x0 REVERT JUMPDEST POP JUMPDEST JUMPDEST PUSH1 0x1 PUSH1 0x0 DUP2 SLOAD DUP1 SWAP3 SWAP2 SWAP1 PUSH1 0x1 ADD SWAP2 SWAP1 POP SSTORE POP POP JUMP JUMPDEST PUSH1 0x5 PUSH1 0x20 MSTORE DUP1 PUSH1 0x0 MSTORE PUSH1 0x40 PUSH1 0x0 KECCAK256 PUSH1 0x0 SWAP2 POP SWAP1 POP SLOAD DUP2 JUMP JUMPDEST PUSH1 0x4 PUSH1 0x20 MSTORE DUP1 PUSH1 0x0 MSTORE PUSH1 0x40 PUSH1 0x0 KECCAK256 PUSH1 0x0 SWAP2 POP SLOAD SWAP1 PUSH2 0x100 EXP SWAP1 DIV PUSH20 0xFFFFFFFFFFFFFFFFFFFFFFFFFFFFFFFFFFFFFFFF AND DUP2 JUMP JUMPDEST DUP3 DUP1 SLOAD PUSH1 0x1 DUP2 PUSH1 0x1 AND ISZERO PUSH2 0x100 MUL SUB AND PUSH1 0x2 SWAP1 DIV SWAP1 PUSH1 0x0 MSTORE PUSH1 0x20 PUSH1 0x0 KECCAK256 SWAP1 PUSH1 0x1F ADD PUSH1 0x20 SWAP1 DIV DUP2 ADD SWAP3 DUP3 PUSH1 0x1F LT PUSH2 0x693 JUMPI DUP1 MLOAD PUSH1 0xFF NOT AND DUP4 DUP1 ADD OR DUP6 SSTORE PUSH2 0x6C1 JUMP JUMPDEST DUP3 DUP1 ADD PUSH1 0x1 ADD DUP6 SSTORE DUP3 ISZERO PUSH2 0x6C1 JUMPI SWAP2 DUP3 ADD JUMPDEST DUP3 DUP2 GT ISZERO PUSH2 0x6C0 JUMPI DUP3 MLOAD DUP3 SSTORE SWAP2 PUSH1 0x20 ADD SWAP2 SWAP1 PUSH1 0x1 ADD SWAP1 PUSH2 0x6A5 JUMP JUMPDEST JUMPDEST POP SWAP1 POP PUSH2 0x6CE SWAP2 SWAP1 PUSH2 0x6D2 JUMP JUMPDEST POP SWAP1 JUMP JUMPDEST PUSH2 0x6F4 SWAP2 SWAP1 JUMPDEST DUP1 DUP3 GT ISZERO PUSH2 0x6F0 JUMPI PUSH1 0x0 DUP2 PUSH1 0x0 SWAP1 SSTORE POP PUSH1 0x1 ADD PUSH2 0x6D8 JUMP JUMPDEST POP SWAP1 JUMP JUMPDEST SWAP1 JUMP STOP LOG1 PUSH6 0x627A7A723058 KECCAK256 0xc4 DUP3 CALLVALUE 0x48 0xb0 0xd0 0xb3 0xe 0xfc 0x4f MLOAD 0x2d GASPRICE 0x3f PUSH22 0x3C6C8AAA79043375D3A617238663639E410029000000 "
				},
				"gasEstimates": {
					"creation": {
						"codeDepositCost": "365400",
						"executionCost": "10393",
						"totalCost": "375793"
					},
					"external": {
						"bet()": "20877",
						"item(uint256)": "614",
						"money()": "438",
						"play(uint256)": "infinite",
						"player(uint256)": "673",
						"result(uint256)": "infinite"
					}
				},
				"methodIdentifiers": {
					"bet()": "11610c25",
					"item(uint256)": "898e6219",
					"money()": "4ddd108a",
					"play(uint256)": "6898f82b",
					"player(uint256)": "9e0551c6",
					"result(uint256)": "3c594059"
				}
			},
			"userdoc": {
				"methods": {}
			}
		}
	}
}