{
	"test.sol": {
		"mikochi": {
			"abi": [
				{
					"constant": true,
					"inputs": [],
					"name": "bb",
					"outputs": [
						{
							"name": "",
							"type": "uint256"
						}
					],
					"payable": false,
					"stateMutability": "view",
					"type": "function"
				},
				{
					"constant": false,
					"inputs": [],
					"name": "take",
					"outputs": [
						{
							"name": "",
							"type": "uint256"
						}
					],
					"payable": false,
					"stateMutability": "nonpayable",
					"type": "function"
				},
				{
					"constant": true,
					"inputs": [],
					"name": "result",
					"outputs": [
						{
							"name": "",
							"type": "uint256"
						}
					],
					"payable": false,
					"stateMutability": "view",
					"type": "function"
				},
				{
					"inputs": [],
					"payable": true,
					"stateMutability": "payable",
					"type": "constructor"
				},
				{
					"payable": true,
					"stateMutability": "payable",
					"type": "fallback"
				}
			],
			"devdoc": {
				"methods": {}
			},
			"evm": {
				"assembly": "    /* \"test.sol\":26:386  contract mikochi{... */\n  mstore(0x40, 0x80)\n  dataSize(sub_0)\n  dup1\n  dataOffset(sub_0)\n  0x0\n  codecopy\n  0x0\n  return\nstop\n\nsub_0: assembly {\n        /* \"test.sol\":26:386  contract mikochi{... */\n      mstore(0x40, 0x80)\n      jumpi(tag_1, lt(calldatasize, 0x4))\n      calldataload(0x0)\n      0x100000000000000000000000000000000000000000000000000000000\n      swap1\n      div\n      0xffffffff\n      and\n      dup1\n      0xa9ae69d\n      eq\n      tag_2\n      jumpi\n      dup1\n      0x159090bd\n      eq\n      tag_3\n      jumpi\n      dup1\n      0x65372147\n      eq\n      tag_4\n      jumpi\n    tag_1:\n        /* \"test.sol\":132:139  1 ether */\n      0xde0b6b3a7640000\n        /* \"test.sol\":119:128  msg.value */\n      callvalue\n        /* \"test.sol\":119:139  msg.value >= 1 ether */\n      lt\n      iszero\n        /* \"test.sol\":111:140  require(msg.value >= 1 ether) */\n      iszero\n      iszero\n      tag_7\n      jumpi\n      0x0\n      dup1\n      revert\n    tag_7:\n        /* \"test.sol\":26:386  contract mikochi{... */\n      stop\n        /* \"test.sol\":152:166  uint public bb */\n    tag_2:\n      callvalue\n        /* \"--CODEGEN--\":8:17   */\n      dup1\n        /* \"--CODEGEN--\":5:7   */\n      iszero\n      tag_8\n      jumpi\n        /* \"--CODEGEN--\":30:31   */\n      0x0\n        /* \"--CODEGEN--\":27:28   */\n      dup1\n        /* \"--CODEGEN--\":20:32   */\n      revert\n        /* \"--CODEGEN--\":5:7   */\n    tag_8:\n        /* \"test.sol\":152:166  uint public bb */\n      pop\n      tag_9\n      jump(tag_10)\n    tag_9:\n      mload(0x40)\n      dup1\n      dup3\n      dup2\n      mstore\n      0x20\n      add\n      swap2\n      pop\n      pop\n      mload(0x40)\n      dup1\n      swap2\n      sub\n      swap1\n      return\n        /* \"test.sol\":196:379  function take()public returns(uint){... */\n    tag_3:\n      callvalue\n        /* \"--CODEGEN--\":8:17   */\n      dup1\n        /* \"--CODEGEN--\":5:7   */\n      iszero\n      tag_11\n      jumpi\n        /* \"--CODEGEN--\":30:31   */\n      0x0\n        /* \"--CODEGEN--\":27:28   */\n      dup1\n        /* \"--CODEGEN--\":20:32   */\n      revert\n        /* \"--CODEGEN--\":5:7   */\n    tag_11:\n        /* \"test.sol\":196:379  function take()public returns(uint){... */\n      pop\n      tag_12\n      jump(tag_13)\n    tag_12:\n      mload(0x40)\n      dup1\n      dup3\n      dup2\n      mstore\n      0x20\n      add\n      swap2\n      pop\n      pop\n      mload(0x40)\n      dup1\n      swap2\n      sub\n      swap1\n      return\n        /* \"test.sol\":172:190  uint public result */\n    tag_4:\n      callvalue\n        /* \"--CODEGEN--\":8:17   */\n      dup1\n        /* \"--CODEGEN--\":5:7   */\n      iszero\n      tag_14\n      jumpi\n        /* \"--CODEGEN--\":30:31   */\n      0x0\n        /* \"--CODEGEN--\":27:28   */\n      dup1\n        /* \"--CODEGEN--\":20:32   */\n      revert\n        /* \"--CODEGEN--\":5:7   */\n    tag_14:\n        /* \"test.sol\":172:190  uint public result */\n      pop\n      tag_15\n      jump(tag_16)\n    tag_15:\n      mload(0x40)\n      dup1\n      dup3\n      dup2\n      mstore\n      0x20\n      add\n      swap2\n      pop\n      pop\n      mload(0x40)\n      dup1\n      swap2\n      sub\n      swap1\n      return\n        /* \"test.sol\":152:166  uint public bb */\n    tag_10:\n      sload(0x0)\n      dup2\n      jump\t// out\n        /* \"test.sol\":196:379  function take()public returns(uint){... */\n    tag_13:\n        /* \"test.sol\":226:230  uint */\n      0x0\n        /* \"test.sol\":244:260  block.difficulty */\n      difficulty\n        /* \"test.sol\":241:243  bb */\n      0x0\n        /* \"test.sol\":241:260  bb=block.difficulty */\n      dup2\n      swap1\n      sstore\n      pop\n        /* \"test.sol\":337:338  4 */\n      0x4\n        /* \"test.sol\":301:316  block.timestamp */\n      timestamp\n        /* \"test.sol\":318:334  block.difficulty */\n      difficulty\n        /* \"test.sol\":291:335  keccak256(block.timestamp, block.difficulty) */\n      mload(0x40)\n      dup1\n      dup4\n      dup2\n      mstore\n      0x20\n      add\n      dup3\n      dup2\n      mstore\n      0x20\n      add\n      swap3\n      pop\n      pop\n      pop\n      mload(0x40)\n      dup1\n      swap2\n      sub\n      swap1\n      keccak256\n        /* \"test.sol\":283:336  uint256(keccak256(block.timestamp, block.difficulty)) */\n      0x1\n      swap1\n      div\n        /* \"test.sol\":283:338  uint256(keccak256(block.timestamp, block.difficulty))%4 */\n      dup2\n      iszero\n      iszero\n      tag_18\n      jumpi\n      invalid\n    tag_18:\n      mod\n        /* \"test.sol\":270:339  result=uint8(uint256(keccak256(block.timestamp, block.difficulty))%4) */\n      0xff\n      and\n        /* \"test.sol\":270:276  result */\n      0x1\n        /* \"test.sol\":270:339  result=uint8(uint256(keccak256(block.timestamp, block.difficulty))%4) */\n      dup2\n      swap1\n      sstore\n      pop\n        /* \"test.sol\":356:362  result */\n      sload(0x1)\n        /* \"test.sol\":349:363  return(result) */\n      swap1\n      pop\n        /* \"test.sol\":196:379  function take()public returns(uint){... */\n      swap1\n      jump\t// out\n        /* \"test.sol\":172:190  uint public result */\n    tag_16:\n      sload(0x1)\n      dup2\n      jump\t// out\n\n    auxdata: 0xa165627a7a72305820fbec03e435bf0e43924c72f22ccb2acac883481665952f77b0b473c1cc6c50460029\n}\n",
				"bytecode": {
					"linkReferences": {},
					"object": "6080604052610171806100136000396000f300608060405260043610610057576000357c0100000000000000000000000000000000000000000000000000000000900463ffffffff1680630a9ae69d14610070578063159090bd1461009b57806365372147146100c6575b670de0b6b3a7640000341015151561006e57600080fd5b005b34801561007c57600080fd5b506100856100f1565b6040518082815260200191505060405180910390f35b3480156100a757600080fd5b506100b06100f7565b6040518082815260200191505060405180910390f35b3480156100d257600080fd5b506100db61013f565b6040518082815260200191505060405180910390f35b60005481565b60004460008190555060044244604051808381526020018281526020019250505060405180910390206001900481151561012d57fe5b0660ff16600181905550600154905090565b600154815600a165627a7a72305820fbec03e435bf0e43924c72f22ccb2acac883481665952f77b0b473c1cc6c50460029",
					"opcodes": "PUSH1 0x80 PUSH1 0x40 MSTORE PUSH2 0x171 DUP1 PUSH2 0x13 PUSH1 0x0 CODECOPY PUSH1 0x0 RETURN STOP PUSH1 0x80 PUSH1 0x40 MSTORE PUSH1 0x4 CALLDATASIZE LT PUSH2 0x57 JUMPI PUSH1 0x0 CALLDATALOAD PUSH29 0x100000000000000000000000000000000000000000000000000000000 SWAP1 DIV PUSH4 0xFFFFFFFF AND DUP1 PUSH4 0xA9AE69D EQ PUSH2 0x70 JUMPI DUP1 PUSH4 0x159090BD EQ PUSH2 0x9B JUMPI DUP1 PUSH4 0x65372147 EQ PUSH2 0xC6 JUMPI JUMPDEST PUSH8 0xDE0B6B3A7640000 CALLVALUE LT ISZERO ISZERO ISZERO PUSH2 0x6E JUMPI PUSH1 0x0 DUP1 REVERT JUMPDEST STOP JUMPDEST CALLVALUE DUP1 ISZERO PUSH2 0x7C JUMPI PUSH1 0x0 DUP1 REVERT JUMPDEST POP PUSH2 0x85 PUSH2 0xF1 JUMP JUMPDEST PUSH1 0x40 MLOAD DUP1 DUP3 DUP2 MSTORE PUSH1 0x20 ADD SWAP2 POP POP PUSH1 0x40 MLOAD DUP1 SWAP2 SUB SWAP1 RETURN JUMPDEST CALLVALUE DUP1 ISZERO PUSH2 0xA7 JUMPI PUSH1 0x0 DUP1 REVERT JUMPDEST POP PUSH2 0xB0 PUSH2 0xF7 JUMP JUMPDEST PUSH1 0x40 MLOAD DUP1 DUP3 DUP2 MSTORE PUSH1 0x20 ADD SWAP2 POP POP PUSH1 0x40 MLOAD DUP1 SWAP2 SUB SWAP1 RETURN JUMPDEST CALLVALUE DUP1 ISZERO PUSH2 0xD2 JUMPI PUSH1 0x0 DUP1 REVERT JUMPDEST POP PUSH2 0xDB PUSH2 0x13F JUMP JUMPDEST PUSH1 0x40 MLOAD DUP1 DUP3 DUP2 MSTORE PUSH1 0x20 ADD SWAP2 POP POP PUSH1 0x40 MLOAD DUP1 SWAP2 SUB SWAP1 RETURN JUMPDEST PUSH1 0x0 SLOAD DUP2 JUMP JUMPDEST PUSH1 0x0 DIFFICULTY PUSH1 0x0 DUP2 SWAP1 SSTORE POP PUSH1 0x4 TIMESTAMP DIFFICULTY PUSH1 0x40 MLOAD DUP1 DUP4 DUP2 MSTORE PUSH1 0x20 ADD DUP3 DUP2 MSTORE PUSH1 0x20 ADD SWAP3 POP POP POP PUSH1 0x40 MLOAD DUP1 SWAP2 SUB SWAP1 KECCAK256 PUSH1 0x1 SWAP1 DIV DUP2 ISZERO ISZERO PUSH2 0x12D JUMPI INVALID JUMPDEST MOD PUSH1 0xFF AND PUSH1 0x1 DUP2 SWAP1 SSTORE POP PUSH1 0x1 SLOAD SWAP1 POP SWAP1 JUMP JUMPDEST PUSH1 0x1 SLOAD DUP2 JUMP STOP LOG1 PUSH6 0x627A7A723058 KECCAK256 CREATE2 0xec SUB 0xe4 CALLDATALOAD 0xbf 0xe NUMBER SWAP3 0x4c PUSH19 0xF22CCB2ACAC883481665952F77B0B473C1CC6C POP 0x46 STOP 0x29 "
				},
				"gasEstimates": {
					"creation": {
						"codeDepositCost": "73800",
						"executionCost": "99",
						"totalCost": "73899"
					},
					"external": {
						"": "165",
						"bb()": "394",
						"result()": "438",
						"take()": "40611"
					}
				},
				"methodIdentifiers": {
					"bb()": "0a9ae69d",
					"result()": "65372147",
					"take()": "159090bd"
				}
			},
			"userdoc": {
				"methods": {}
			}
		}
	}
}