{
	"29..sol": {
		"class28": {
			"abi": [
				{
					"constant": false,
					"inputs": [
						{
							"name": "x",
							"type": "uint256"
						}
					],
					"name": "Add_checkSender_And_Num",
					"outputs": [],
					"payable": false,
					"stateMutability": "nonpayable",
					"type": "function"
				},
				{
					"constant": true,
					"inputs": [],
					"name": "integer_1",
					"outputs": [
						{
							"name": "",
							"type": "uint256"
						}
					],
					"payable": false,
					"stateMutability": "view",
					"type": "function"
				},
				{
					"constant": true,
					"inputs": [],
					"name": "owner",
					"outputs": [
						{
							"name": "",
							"type": "address"
						}
					],
					"payable": false,
					"stateMutability": "view",
					"type": "function"
				},
				{
					"constant": false,
					"inputs": [
						{
							"name": "x",
							"type": "uint256"
						}
					],
					"name": "Add_check_Num_30",
					"outputs": [],
					"payable": false,
					"stateMutability": "nonpayable",
					"type": "function"
				},
				{
					"constant": false,
					"inputs": [
						{
							"name": "x",
							"type": "uint256"
						}
					],
					"name": "Add_check_Sender",
					"outputs": [],
					"payable": false,
					"stateMutability": "nonpayable",
					"type": "function"
				},
				{
					"inputs": [],
					"payable": false,
					"stateMutability": "nonpayable",
					"type": "constructor"
				}
			],
			"devdoc": {
				"methods": {}
			},
			"evm": {
				"assembly": "    /* \"29..sol\":25:830  contract class28{    ... */\n  mstore(0x40, 0x80)\n    /* \"29..sol\":105:185  constructor() public {... */\n  callvalue\n    /* \"--CODEGEN--\":8:17   */\n  dup1\n    /* \"--CODEGEN--\":5:7   */\n  iszero\n  tag_1\n  jumpi\n    /* \"--CODEGEN--\":30:31   */\n  0x0\n    /* \"--CODEGEN--\":27:28   */\n  dup1\n    /* \"--CODEGEN--\":20:32   */\n  revert\n    /* \"--CODEGEN--\":5:7   */\ntag_1:\n    /* \"29..sol\":105:185  constructor() public {... */\n  pop\n    /* \"29..sol\":144:154  msg.sender */\n  caller\n    /* \"29..sol\":136:141  owner */\n  0x0\n  dup1\n    /* \"29..sol\":136:154  owner = msg.sender */\n  0x100\n  exp\n  dup2\n  sload\n  dup2\n  0xffffffffffffffffffffffffffffffffffffffff\n  mul\n  not\n  and\n  swap1\n  dup4\n  0xffffffffffffffffffffffffffffffffffffffff\n  and\n  mul\n  or\n  swap1\n  sstore\n  pop\n    /* \"29..sol\":176:178  50 */\n  0x32\n    /* \"29..sol\":164:173  integer_1 */\n  0x1\n    /* \"29..sol\":164:178  integer_1 = 50 */\n  dup2\n  swap1\n  sstore\n  pop\n    /* \"29..sol\":25:830  contract class28{    ... */\n  dataSize(sub_0)\n  dup1\n  dataOffset(sub_0)\n  0x0\n  codecopy\n  0x0\n  return\nstop\n\nsub_0: assembly {\n        /* \"29..sol\":25:830  contract class28{    ... */\n      mstore(0x40, 0x80)\n      jumpi(tag_1, lt(calldatasize, 0x4))\n      calldataload(0x0)\n      0x100000000000000000000000000000000000000000000000000000000\n      swap1\n      div\n      0xffffffff\n      and\n      dup1\n      0x52ec3399\n      eq\n      tag_2\n      jumpi\n      dup1\n      0x5db1ad7b\n      eq\n      tag_3\n      jumpi\n      dup1\n      0x8da5cb5b\n      eq\n      tag_4\n      jumpi\n      dup1\n      0xa1d274b2\n      eq\n      tag_5\n      jumpi\n      dup1\n      0xfbb57583\n      eq\n      tag_6\n      jumpi\n    tag_1:\n      0x0\n      dup1\n      revert\n        /* \"29..sol\":628:714  function Add_checkSender_And_Num(uint x)public checkInt{... */\n    tag_2:\n      callvalue\n        /* \"--CODEGEN--\":8:17   */\n      dup1\n        /* \"--CODEGEN--\":5:7   */\n      iszero\n      tag_7\n      jumpi\n        /* \"--CODEGEN--\":30:31   */\n      0x0\n        /* \"--CODEGEN--\":27:28   */\n      dup1\n        /* \"--CODEGEN--\":20:32   */\n      revert\n        /* \"--CODEGEN--\":5:7   */\n    tag_7:\n        /* \"29..sol\":628:714  function Add_checkSender_And_Num(uint x)public checkInt{... */\n      pop\n      tag_8\n      0x4\n      dup1\n      calldatasize\n      sub\n      dup2\n      add\n      swap1\n      dup1\n      dup1\n      calldataload\n      swap1\n      0x20\n      add\n      swap1\n      swap3\n      swap2\n      swap1\n      pop\n      pop\n      pop\n      jump(tag_9)\n    tag_8:\n      stop\n        /* \"29..sol\":77:98  uint public integer_1 */\n    tag_3:\n      callvalue\n        /* \"--CODEGEN--\":8:17   */\n      dup1\n        /* \"--CODEGEN--\":5:7   */\n      iszero\n      tag_10\n      jumpi\n        /* \"--CODEGEN--\":30:31   */\n      0x0\n        /* \"--CODEGEN--\":27:28   */\n      dup1\n        /* \"--CODEGEN--\":20:32   */\n      revert\n        /* \"--CODEGEN--\":5:7   */\n    tag_10:\n        /* \"29..sol\":77:98  uint public integer_1 */\n      pop\n      tag_11\n      jump(tag_12)\n    tag_11:\n      mload(0x40)\n      dup1\n      dup3\n      dup2\n      mstore\n      0x20\n      add\n      swap2\n      pop\n      pop\n      mload(0x40)\n      dup1\n      swap2\n      sub\n      swap1\n      return\n        /* \"29..sol\":51:71  address public owner */\n    tag_4:\n      callvalue\n        /* \"--CODEGEN--\":8:17   */\n      dup1\n        /* \"--CODEGEN--\":5:7   */\n      iszero\n      tag_13\n      jumpi\n        /* \"--CODEGEN--\":30:31   */\n      0x0\n        /* \"--CODEGEN--\":27:28   */\n      dup1\n        /* \"--CODEGEN--\":20:32   */\n      revert\n        /* \"--CODEGEN--\":5:7   */\n    tag_13:\n        /* \"29..sol\":51:71  address public owner */\n      pop\n      tag_14\n      jump(tag_15)\n    tag_14:\n      mload(0x40)\n      dup1\n      dup3\n      0xffffffffffffffffffffffffffffffffffffffff\n      and\n      0xffffffffffffffffffffffffffffffffffffffff\n      and\n      dup2\n      mstore\n      0x20\n      add\n      swap2\n      pop\n      pop\n      mload(0x40)\n      dup1\n      swap2\n      sub\n      swap1\n      return\n        /* \"29..sol\":739:828  function Add_check_Num_30(uint x)public checkMoreThan30(x){... */\n    tag_5:\n      callvalue\n        /* \"--CODEGEN--\":8:17   */\n      dup1\n        /* \"--CODEGEN--\":5:7   */\n      iszero\n      tag_16\n      jumpi\n        /* \"--CODEGEN--\":30:31   */\n      0x0\n        /* \"--CODEGEN--\":27:28   */\n      dup1\n        /* \"--CODEGEN--\":20:32   */\n      revert\n        /* \"--CODEGEN--\":5:7   */\n    tag_16:\n        /* \"29..sol\":739:828  function Add_check_Num_30(uint x)public checkMoreThan30(x){... */\n      pop\n      tag_17\n      0x4\n      dup1\n      calldatasize\n      sub\n      dup2\n      add\n      swap1\n      dup1\n      dup1\n      calldataload\n      swap1\n      0x20\n      add\n      swap1\n      swap3\n      swap2\n      swap1\n      pop\n      pop\n      pop\n      jump(tag_18)\n    tag_17:\n      stop\n        /* \"29..sol\":502:582  function Add_check_Sender(uint x)public onlyOwner{... */\n    tag_6:\n      callvalue\n        /* \"--CODEGEN--\":8:17   */\n      dup1\n        /* \"--CODEGEN--\":5:7   */\n      iszero\n      tag_19\n      jumpi\n        /* \"--CODEGEN--\":30:31   */\n      0x0\n        /* \"--CODEGEN--\":27:28   */\n      dup1\n        /* \"--CODEGEN--\":20:32   */\n      revert\n        /* \"--CODEGEN--\":5:7   */\n    tag_19:\n        /* \"29..sol\":502:582  function Add_check_Sender(uint x)public onlyOwner{... */\n      pop\n      tag_20\n      0x4\n      dup1\n      calldatasize\n      sub\n      dup2\n      add\n      swap1\n      dup1\n      dup1\n      calldataload\n      swap1\n      0x20\n      add\n      swap1\n      swap3\n      swap2\n      swap1\n      pop\n      pop\n      pop\n      jump(tag_21)\n    tag_20:\n      stop\n        /* \"29..sol\":628:714  function Add_checkSender_And_Num(uint x)public checkInt{... */\n    tag_9:\n        /* \"29..sol\":328:333  owner */\n      0x0\n      dup1\n      swap1\n      sload\n      swap1\n      0x100\n      exp\n      swap1\n      div\n      0xffffffffffffffffffffffffffffffffffffffff\n      and\n        /* \"29..sol\":314:333  msg.sender == owner */\n      0xffffffffffffffffffffffffffffffffffffffff\n      and\n        /* \"29..sol\":314:324  msg.sender */\n      caller\n        /* \"29..sol\":314:333  msg.sender == owner */\n      0xffffffffffffffffffffffffffffffffffffffff\n      and\n      eq\n        /* \"29..sol\":306:334  require(msg.sender == owner) */\n      iszero\n      iszero\n      tag_23\n      jumpi\n      0x0\n      dup1\n      revert\n    tag_23:\n        /* \"29..sol\":706:707  x */\n      dup1\n        /* \"29..sol\":693:702  integer_1 */\n      0x1\n      0x0\n        /* \"29..sol\":693:707  integer_1 += x */\n      dup3\n      dup3\n      sload\n      add\n      swap3\n      pop\n      pop\n      dup2\n      swap1\n      sstore\n      pop\n        /* \"29..sol\":376:379  100 */\n      0x64\n        /* \"29..sol\":363:372  integer_1 */\n      sload(0x1)\n        /* \"29..sol\":363:379  integer_1 <= 100 */\n      gt\n      iszero\n        /* \"29..sol\":355:380  require(integer_1 <= 100) */\n      iszero\n      iszero\n      tag_25\n      jumpi\n      0x0\n      dup1\n      revert\n    tag_25:\n        /* \"29..sol\":628:714  function Add_checkSender_And_Num(uint x)public checkInt{... */\n      pop\n      jump\t// out\n        /* \"29..sol\":77:98  uint public integer_1 */\n    tag_12:\n      sload(0x1)\n      dup2\n      jump\t// out\n        /* \"29..sol\":51:71  address public owner */\n    tag_15:\n      0x0\n      dup1\n      swap1\n      sload\n      swap1\n      0x100\n      exp\n      swap1\n      div\n      0xffffffffffffffffffffffffffffffffffffffff\n      and\n      dup2\n      jump\t// out\n        /* \"29..sol\":739:828  function Add_check_Num_30(uint x)public checkMoreThan30(x){... */\n    tag_18:\n        /* \"29..sol\":795:796  x */\n      dup1\n        /* \"29..sol\":450:452  30 */\n      0x1e\n        /* \"29..sol\":446:447  y */\n      dup2\n        /* \"29..sol\":446:452  y > 30 */\n      gt\n        /* \"29..sol\":438:453  require(y > 30) */\n      iszero\n      iszero\n      tag_27\n      jumpi\n      0x0\n      dup1\n      revert\n    tag_27:\n        /* \"29..sol\":820:821  x */\n      dup2\n        /* \"29..sol\":807:816  integer_1 */\n      0x1\n      0x0\n        /* \"29..sol\":807:821  integer_1 += x */\n      dup3\n      dup3\n      sload\n      add\n      swap3\n      pop\n      pop\n      dup2\n      swap1\n      sstore\n      pop\n        /* \"29..sol\":739:828  function Add_check_Num_30(uint x)public checkMoreThan30(x){... */\n      pop\n      pop\n      jump\t// out\n        /* \"29..sol\":502:582  function Add_check_Sender(uint x)public onlyOwner{... */\n    tag_21:\n        /* \"29..sol\":246:251  owner */\n      0x0\n      dup1\n      swap1\n      sload\n      swap1\n      0x100\n      exp\n      swap1\n      div\n      0xffffffffffffffffffffffffffffffffffffffff\n      and\n        /* \"29..sol\":232:251  msg.sender == owner */\n      0xffffffffffffffffffffffffffffffffffffffff\n      and\n        /* \"29..sol\":232:242  msg.sender */\n      caller\n        /* \"29..sol\":232:251  msg.sender == owner */\n      0xffffffffffffffffffffffffffffffffffffffff\n      and\n      eq\n        /* \"29..sol\":224:252  require(msg.sender == owner) */\n      iszero\n      iszero\n      tag_30\n      jumpi\n      0x0\n      dup1\n      revert\n    tag_30:\n        /* \"29..sol\":574:575  x */\n      dup1\n        /* \"29..sol\":561:570  integer_1 */\n      0x1\n      0x0\n        /* \"29..sol\":561:575  integer_1 += x */\n      dup3\n      dup3\n      sload\n      add\n      swap3\n      pop\n      pop\n      dup2\n      swap1\n      sstore\n      pop\n        /* \"29..sol\":502:582  function Add_check_Sender(uint x)public onlyOwner{... */\n      pop\n      jump\t// out\n\n    auxdata: 0xa165627a7a723058203279ac11ec9a092ab2a9e0b75f80ff692d97d27d58e3483857dc46c65962142c0029\n}\n",
				"bytecode": {
					"linkReferences": {},
					"object": "608060405234801561001057600080fd5b50336000806101000a81548173ffffffffffffffffffffffffffffffffffffffff021916908373ffffffffffffffffffffffffffffffffffffffff16021790555060326001819055506102e4806100686000396000f30060806040526004361061006d576000357c0100000000000000000000000000000000000000000000000000000000900463ffffffff16806352ec3399146100725780635db1ad7b1461009f5780638da5cb5b146100ca578063a1d274b214610121578063fbb575831461014e575b600080fd5b34801561007e57600080fd5b5061009d6004803603810190808035906020019092919050505061017b565b005b3480156100ab57600080fd5b506100b46101fb565b6040518082815260200191505060405180910390f35b3480156100d657600080fd5b506100df610201565b604051808273ffffffffffffffffffffffffffffffffffffffff1673ffffffffffffffffffffffffffffffffffffffff16815260200191505060405180910390f35b34801561012d57600080fd5b5061014c60048036038101908080359060200190929190505050610226565b005b34801561015a57600080fd5b506101796004803603810190808035906020019092919050505061024a565b005b6000809054906101000a900473ffffffffffffffffffffffffffffffffffffffff1673ffffffffffffffffffffffffffffffffffffffff163373ffffffffffffffffffffffffffffffffffffffff161415156101d657600080fd5b806001600082825401925050819055506064600154111515156101f857600080fd5b50565b60015481565b6000809054906101000a900473ffffffffffffffffffffffffffffffffffffffff1681565b80601e8111151561023657600080fd5b816001600082825401925050819055505050565b6000809054906101000a900473ffffffffffffffffffffffffffffffffffffffff1673ffffffffffffffffffffffffffffffffffffffff163373ffffffffffffffffffffffffffffffffffffffff161415156102a557600080fd5b80600160008282540192505081905550505600a165627a7a723058203279ac11ec9a092ab2a9e0b75f80ff692d97d27d58e3483857dc46c65962142c0029",
					"opcodes": "PUSH1 0x80 PUSH1 0x40 MSTORE CALLVALUE DUP1 ISZERO PUSH2 0x10 JUMPI PUSH1 0x0 DUP1 REVERT JUMPDEST POP CALLER PUSH1 0x0 DUP1 PUSH2 0x100 EXP DUP2 SLOAD DUP2 PUSH20 0xFFFFFFFFFFFFFFFFFFFFFFFFFFFFFFFFFFFFFFFF MUL NOT AND SWAP1 DUP4 PUSH20 0xFFFFFFFFFFFFFFFFFFFFFFFFFFFFFFFFFFFFFFFF AND MUL OR SWAP1 SSTORE POP PUSH1 0x32 PUSH1 0x1 DUP2 SWAP1 SSTORE POP PUSH2 0x2E4 DUP1 PUSH2 0x68 PUSH1 0x0 CODECOPY PUSH1 0x0 RETURN STOP PUSH1 0x80 PUSH1 0x40 MSTORE PUSH1 0x4 CALLDATASIZE LT PUSH2 0x6D JUMPI PUSH1 0x0 CALLDATALOAD PUSH29 0x100000000000000000000000000000000000000000000000000000000 SWAP1 DIV PUSH4 0xFFFFFFFF AND DUP1 PUSH4 0x52EC3399 EQ PUSH2 0x72 JUMPI DUP1 PUSH4 0x5DB1AD7B EQ PUSH2 0x9F JUMPI DUP1 PUSH4 0x8DA5CB5B EQ PUSH2 0xCA JUMPI DUP1 PUSH4 0xA1D274B2 EQ PUSH2 0x121 JUMPI DUP1 PUSH4 0xFBB57583 EQ PUSH2 0x14E JUMPI JUMPDEST PUSH1 0x0 DUP1 REVERT JUMPDEST CALLVALUE DUP1 ISZERO PUSH2 0x7E JUMPI PUSH1 0x0 DUP1 REVERT JUMPDEST POP PUSH2 0x9D PUSH1 0x4 DUP1 CALLDATASIZE SUB DUP2 ADD SWAP1 DUP1 DUP1 CALLDATALOAD SWAP1 PUSH1 0x20 ADD SWAP1 SWAP3 SWAP2 SWAP1 POP POP POP PUSH2 0x17B JUMP JUMPDEST STOP JUMPDEST CALLVALUE DUP1 ISZERO PUSH2 0xAB JUMPI PUSH1 0x0 DUP1 REVERT JUMPDEST POP PUSH2 0xB4 PUSH2 0x1FB JUMP JUMPDEST PUSH1 0x40 MLOAD DUP1 DUP3 DUP2 MSTORE PUSH1 0x20 ADD SWAP2 POP POP PUSH1 0x40 MLOAD DUP1 SWAP2 SUB SWAP1 RETURN JUMPDEST CALLVALUE DUP1 ISZERO PUSH2 0xD6 JUMPI PUSH1 0x0 DUP1 REVERT JUMPDEST POP PUSH2 0xDF PUSH2 0x201 JUMP JUMPDEST PUSH1 0x40 MLOAD DUP1 DUP3 PUSH20 0xFFFFFFFFFFFFFFFFFFFFFFFFFFFFFFFFFFFFFFFF AND PUSH20 0xFFFFFFFFFFFFFFFFFFFFFFFFFFFFFFFFFFFFFFFF AND DUP2 MSTORE PUSH1 0x20 ADD SWAP2 POP POP PUSH1 0x40 MLOAD DUP1 SWAP2 SUB SWAP1 RETURN JUMPDEST CALLVALUE DUP1 ISZERO PUSH2 0x12D JUMPI PUSH1 0x0 DUP1 REVERT JUMPDEST POP PUSH2 0x14C PUSH1 0x4 DUP1 CALLDATASIZE SUB DUP2 ADD SWAP1 DUP1 DUP1 CALLDATALOAD SWAP1 PUSH1 0x20 ADD SWAP1 SWAP3 SWAP2 SWAP1 POP POP POP PUSH2 0x226 JUMP JUMPDEST STOP JUMPDEST CALLVALUE DUP1 ISZERO PUSH2 0x15A JUMPI PUSH1 0x0 DUP1 REVERT JUMPDEST POP PUSH2 0x179 PUSH1 0x4 DUP1 CALLDATASIZE SUB DUP2 ADD SWAP1 DUP1 DUP1 CALLDATALOAD SWAP1 PUSH1 0x20 ADD SWAP1 SWAP3 SWAP2 SWAP1 POP POP POP PUSH2 0x24A JUMP JUMPDEST STOP JUMPDEST PUSH1 0x0 DUP1 SWAP1 SLOAD SWAP1 PUSH2 0x100 EXP SWAP1 DIV PUSH20 0xFFFFFFFFFFFFFFFFFFFFFFFFFFFFFFFFFFFFFFFF AND PUSH20 0xFFFFFFFFFFFFFFFFFFFFFFFFFFFFFFFFFFFFFFFF AND CALLER PUSH20 0xFFFFFFFFFFFFFFFFFFFFFFFFFFFFFFFFFFFFFFFF AND EQ ISZERO ISZERO PUSH2 0x1D6 JUMPI PUSH1 0x0 DUP1 REVERT JUMPDEST DUP1 PUSH1 0x1 PUSH1 0x0 DUP3 DUP3 SLOAD ADD SWAP3 POP POP DUP2 SWAP1 SSTORE POP PUSH1 0x64 PUSH1 0x1 SLOAD GT ISZERO ISZERO ISZERO PUSH2 0x1F8 JUMPI PUSH1 0x0 DUP1 REVERT JUMPDEST POP JUMP JUMPDEST PUSH1 0x1 SLOAD DUP2 JUMP JUMPDEST PUSH1 0x0 DUP1 SWAP1 SLOAD SWAP1 PUSH2 0x100 EXP SWAP1 DIV PUSH20 0xFFFFFFFFFFFFFFFFFFFFFFFFFFFFFFFFFFFFFFFF AND DUP2 JUMP JUMPDEST DUP1 PUSH1 0x1E DUP2 GT ISZERO ISZERO PUSH2 0x236 JUMPI PUSH1 0x0 DUP1 REVERT JUMPDEST DUP2 PUSH1 0x1 PUSH1 0x0 DUP3 DUP3 SLOAD ADD SWAP3 POP POP DUP2 SWAP1 SSTORE POP POP POP JUMP JUMPDEST PUSH1 0x0 DUP1 SWAP1 SLOAD SWAP1 PUSH2 0x100 EXP SWAP1 DIV PUSH20 0xFFFFFFFFFFFFFFFFFFFFFFFFFFFFFFFFFFFFFFFF AND PUSH20 0xFFFFFFFFFFFFFFFFFFFFFFFFFFFFFFFFFFFFFFFF AND CALLER PUSH20 0xFFFFFFFFFFFFFFFFFFFFFFFFFFFFFFFFFFFFFFFF AND EQ ISZERO ISZERO PUSH2 0x2A5 JUMPI PUSH1 0x0 DUP1 REVERT JUMPDEST DUP1 PUSH1 0x1 PUSH1 0x0 DUP3 DUP3 SLOAD ADD SWAP3 POP POP DUP2 SWAP1 SSTORE POP POP JUMP STOP LOG1 PUSH6 0x627A7A723058 KECCAK256 ORIGIN PUSH26 0xAC11EC9A092AB2A9E0B75F80FF692D97D27D58E3483857DC46C6 MSIZE PUSH3 0x142C00 0x29 "
				},
				"gasEstimates": {
					"creation": {
						"codeDepositCost": "148000",
						"executionCost": "40476",
						"totalCost": "188476"
					},
					"external": {
						"Add_checkSender_And_Num(uint256)": "20932",
						"Add_check_Num_30(uint256)": "20524",
						"Add_check_Sender(uint256)": "20788",
						"integer_1()": "416",
						"owner()": "486"
					}
				},
				"methodIdentifiers": {
					"Add_checkSender_And_Num(uint256)": "52ec3399",
					"Add_check_Num_30(uint256)": "a1d274b2",
					"Add_check_Sender(uint256)": "fbb57583",
					"integer_1()": "5db1ad7b",
					"owner()": "8da5cb5b"
				}
			},
			"userdoc": {
				"methods": {}
			}
		}
	}
}