{
	"test.sol": {
		"paperstone": {
			"abi": [
				{
					"constant": false,
					"inputs": [],
					"name": "bet",
					"outputs": [],
					"payable": true,
					"stateMutability": "payable",
					"type": "function"
				},
				{
					"constant": true,
					"inputs": [
						{
							"name": "",
							"type": "uint256"
						}
					],
					"name": "result",
					"outputs": [
						{
							"name": "",
							"type": "string"
						}
					],
					"payable": false,
					"stateMutability": "view",
					"type": "function"
				},
				{
					"constant": false,
					"inputs": [
						{
							"name": "choose",
							"type": "uint256"
						}
					],
					"name": "play",
					"outputs": [],
					"payable": false,
					"stateMutability": "nonpayable",
					"type": "function"
				},
				{
					"constant": true,
					"inputs": [
						{
							"name": "",
							"type": "uint256"
						}
					],
					"name": "item",
					"outputs": [
						{
							"name": "",
							"type": "uint256"
						}
					],
					"payable": false,
					"stateMutability": "view",
					"type": "function"
				},
				{
					"constant": true,
					"inputs": [
						{
							"name": "",
							"type": "uint256"
						}
					],
					"name": "player",
					"outputs": [
						{
							"name": "",
							"type": "address"
						}
					],
					"payable": false,
					"stateMutability": "view",
					"type": "function"
				},
				{
					"inputs": [],
					"payable": true,
					"stateMutability": "payable",
					"type": "constructor"
				}
			],
			"devdoc": {
				"methods": {}
			},
			"evm": {
				"assembly": "    /* \"test.sol\":857:1824  contract paperstone {... */\n  mstore(0x40, 0x80)\n    /* \"test.sol\":920:921  0 */\n  0x0\n    /* \"test.sol\":909:921  uint money=0 */\n  dup1\n  sstore\n    /* \"test.sol\":965:966  0 */\n  0x0\n    /* \"test.sol\":954:966  uint round=0 */\n  0x1\n  sstore\n    /* \"test.sol\":857:1824  contract paperstone {... */\n  dataSize(sub_0)\n  dup1\n  dataOffset(sub_0)\n  0x0\n  codecopy\n  0x0\n  return\nstop\n\nsub_0: assembly {\n        /* \"test.sol\":857:1824  contract paperstone {... */\n      mstore(0x40, 0x80)\n      jumpi(tag_1, lt(calldatasize, 0x4))\n      calldataload(0x0)\n      0x100000000000000000000000000000000000000000000000000000000\n      swap1\n      div\n      0xffffffff\n      and\n      dup1\n      0x11610c25\n      eq\n      tag_2\n      jumpi\n      dup1\n      0x3c594059\n      eq\n      tag_3\n      jumpi\n      dup1\n      0x6898f82b\n      eq\n      tag_4\n      jumpi\n      dup1\n      0x898e6219\n      eq\n      tag_5\n      jumpi\n      dup1\n      0x9e0551c6\n      eq\n      tag_6\n      jumpi\n    tag_1:\n      0x0\n      dup1\n      revert\n        /* \"test.sol\":1247:1378  function bet() public payable betcheck{... */\n    tag_2:\n      tag_7\n      jump(tag_8)\n    tag_7:\n      stop\n        /* \"test.sol\":1104:1140  mapping(uint => string)public result */\n    tag_3:\n      callvalue\n        /* \"--CODEGEN--\":8:17   */\n      dup1\n        /* \"--CODEGEN--\":5:7   */\n      iszero\n      tag_9\n      jumpi\n        /* \"--CODEGEN--\":30:31   */\n      0x0\n        /* \"--CODEGEN--\":27:28   */\n      dup1\n        /* \"--CODEGEN--\":20:32   */\n      revert\n        /* \"--CODEGEN--\":5:7   */\n    tag_9:\n        /* \"test.sol\":1104:1140  mapping(uint => string)public result */\n      pop\n      tag_10\n      0x4\n      dup1\n      calldatasize\n      sub\n      dup2\n      add\n      swap1\n      dup1\n      dup1\n      calldataload\n      swap1\n      0x20\n      add\n      swap1\n      swap3\n      swap2\n      swap1\n      pop\n      pop\n      pop\n      jump(tag_11)\n    tag_10:\n      mload(0x40)\n      dup1\n      dup1\n      0x20\n      add\n      dup3\n      dup2\n      sub\n      dup3\n      mstore\n      dup4\n      dup2\n      dup2\n      mload\n      dup2\n      mstore\n      0x20\n      add\n      swap2\n      pop\n      dup1\n      mload\n      swap1\n      0x20\n      add\n      swap1\n      dup1\n      dup4\n      dup4\n        /* \"--CODEGEN--\":23:24   */\n      0x0\n        /* \"--CODEGEN--\":8:108   */\n    tag_12:\n        /* \"--CODEGEN--\":33:36   */\n      dup4\n        /* \"--CODEGEN--\":30:31   */\n      dup2\n        /* \"--CODEGEN--\":27:37   */\n      lt\n        /* \"--CODEGEN--\":8:108   */\n      iszero\n      tag_13\n      jumpi\n        /* \"--CODEGEN--\":99:100   */\n      dup1\n        /* \"--CODEGEN--\":94:97   */\n      dup3\n        /* \"--CODEGEN--\":90:101   */\n      add\n        /* \"--CODEGEN--\":84:102   */\n      mload\n        /* \"--CODEGEN--\":80:81   */\n      dup2\n        /* \"--CODEGEN--\":75:78   */\n      dup5\n        /* \"--CODEGEN--\":71:82   */\n      add\n        /* \"--CODEGEN--\":64:103   */\n      mstore\n        /* \"--CODEGEN--\":52:54   */\n      0x20\n        /* \"--CODEGEN--\":49:50   */\n      dup2\n        /* \"--CODEGEN--\":45:55   */\n      add\n        /* \"--CODEGEN--\":40:55   */\n      swap1\n      pop\n        /* \"--CODEGEN--\":8:108   */\n      jump(tag_12)\n    tag_13:\n        /* \"--CODEGEN--\":12:26   */\n      pop\n        /* \"test.sol\":1104:1140  mapping(uint => string)public result */\n      pop\n      pop\n      pop\n      swap1\n      pop\n      swap1\n      dup2\n      add\n      swap1\n      0x1f\n      and\n      dup1\n      iszero\n      tag_15\n      jumpi\n      dup1\n      dup3\n      sub\n      dup1\n      mload\n      0x1\n      dup4\n      0x20\n      sub\n      0x100\n      exp\n      sub\n      not\n      and\n      dup2\n      mstore\n      0x20\n      add\n      swap2\n      pop\n    tag_15:\n      pop\n      swap3\n      pop\n      pop\n      pop\n      mload(0x40)\n      dup1\n      swap2\n      sub\n      swap1\n      return\n        /* \"test.sol\":1382:1821  function play(uint choose)public betcheck{... */\n    tag_4:\n      callvalue\n        /* \"--CODEGEN--\":8:17   */\n      dup1\n        /* \"--CODEGEN--\":5:7   */\n      iszero\n      tag_16\n      jumpi\n        /* \"--CODEGEN--\":30:31   */\n      0x0\n        /* \"--CODEGEN--\":27:28   */\n      dup1\n        /* \"--CODEGEN--\":20:32   */\n      revert\n        /* \"--CODEGEN--\":5:7   */\n    tag_16:\n        /* \"test.sol\":1382:1821  function play(uint choose)public betcheck{... */\n      pop\n      tag_17\n      0x4\n      dup1\n      calldatasize\n      sub\n      dup2\n      add\n      swap1\n      dup1\n      dup1\n      calldataload\n      swap1\n      0x20\n      add\n      swap1\n      swap3\n      swap2\n      swap1\n      pop\n      pop\n      pop\n      jump(tag_18)\n    tag_17:\n      stop\n        /* \"test.sol\":1070:1102  mapping(uint => uint)public item */\n    tag_5:\n      callvalue\n        /* \"--CODEGEN--\":8:17   */\n      dup1\n        /* \"--CODEGEN--\":5:7   */\n      iszero\n      tag_19\n      jumpi\n        /* \"--CODEGEN--\":30:31   */\n      0x0\n        /* \"--CODEGEN--\":27:28   */\n      dup1\n        /* \"--CODEGEN--\":20:32   */\n      revert\n        /* \"--CODEGEN--\":5:7   */\n    tag_19:\n        /* \"test.sol\":1070:1102  mapping(uint => uint)public item */\n      pop\n      tag_20\n      0x4\n      dup1\n      calldatasize\n      sub\n      dup2\n      add\n      swap1\n      dup1\n      dup1\n      calldataload\n      swap1\n      0x20\n      add\n      swap1\n      swap3\n      swap2\n      swap1\n      pop\n      pop\n      pop\n      jump(tag_21)\n    tag_20:\n      mload(0x40)\n      dup1\n      dup3\n      dup2\n      mstore\n      0x20\n      add\n      swap2\n      pop\n      pop\n      mload(0x40)\n      dup1\n      swap2\n      sub\n      swap1\n      return\n        /* \"test.sol\":1031:1068  mapping(uint => address)public player */\n    tag_6:\n      callvalue\n        /* \"--CODEGEN--\":8:17   */\n      dup1\n        /* \"--CODEGEN--\":5:7   */\n      iszero\n      tag_22\n      jumpi\n        /* \"--CODEGEN--\":30:31   */\n      0x0\n        /* \"--CODEGEN--\":27:28   */\n      dup1\n        /* \"--CODEGEN--\":20:32   */\n      revert\n        /* \"--CODEGEN--\":5:7   */\n    tag_22:\n        /* \"test.sol\":1031:1068  mapping(uint => address)public player */\n      pop\n      tag_23\n      0x4\n      dup1\n      calldatasize\n      sub\n      dup2\n      add\n      swap1\n      dup1\n      dup1\n      calldataload\n      swap1\n      0x20\n      add\n      swap1\n      swap3\n      swap2\n      swap1\n      pop\n      pop\n      pop\n      jump(tag_24)\n    tag_23:\n      mload(0x40)\n      dup1\n      dup3\n      0xffffffffffffffffffffffffffffffffffffffff\n      and\n      0xffffffffffffffffffffffffffffffffffffffff\n      and\n      dup2\n      mstore\n      0x20\n      add\n      swap2\n      pop\n      pop\n      mload(0x40)\n      dup1\n      swap2\n      sub\n      swap1\n      return\n        /* \"test.sol\":1247:1378  function bet() public payable betcheck{... */\n    tag_8:\n        /* \"test.sol\":1178:1179  0 */\n      0x0\n        /* \"test.sol\":1171:1176  money */\n      dup1\n      sload\n        /* \"test.sol\":1171:1179  money!=0 */\n      eq\n      iszero\n        /* \"test.sol\":1168:1235  if(money!=0){... */\n      iszero\n      tag_26\n      jumpi\n        /* \"test.sol\":1213:1223  msg.sender */\n      caller\n        /* \"test.sol\":1198:1223  player[round]==msg.sender */\n      0xffffffffffffffffffffffffffffffffffffffff\n      and\n        /* \"test.sol\":1198:1204  player */\n      0x4\n        /* \"test.sol\":1198:1211  player[round] */\n      0x0\n        /* \"test.sol\":1205:1210  round */\n      sload(0x1)\n        /* \"test.sol\":1198:1211  player[round] */\n      dup2\n      mstore\n      0x20\n      add\n      swap1\n      dup2\n      mstore\n      0x20\n      add\n      0x0\n      keccak256\n      0x0\n      swap1\n      sload\n      swap1\n      0x100\n      exp\n      swap1\n      div\n      0xffffffffffffffffffffffffffffffffffffffff\n      and\n        /* \"test.sol\":1198:1223  player[round]==msg.sender */\n      0xffffffffffffffffffffffffffffffffffffffff\n      and\n      eq\n        /* \"test.sol\":1190:1224  require(player[round]==msg.sender) */\n      iszero\n      iszero\n      tag_27\n      jumpi\n      0x0\n      dup1\n      revert\n    tag_27:\n        /* \"test.sol\":1168:1235  if(money!=0){... */\n    tag_26:\n        /* \"test.sol\":943:952  0.1 ether */\n      0x16345785d8a0000\n        /* \"test.sol\":1299:1308  msg.value */\n      callvalue\n        /* \"test.sol\":1299:1315  msg.value==miner */\n      eq\n        /* \"test.sol\":1291:1316  require(msg.value==miner) */\n      iszero\n      iszero\n      tag_29\n      jumpi\n      0x0\n      dup1\n      revert\n    tag_29:\n        /* \"test.sol\":943:952  0.1 ether */\n      0x16345785d8a0000\n        /* \"test.sol\":1330:1335  money */\n      sload(0x0)\n        /* \"test.sol\":1330:1343  money + miner */\n      add\n        /* \"test.sol\":1322:1327  money */\n      0x0\n        /* \"test.sol\":1322:1343  money = money + miner */\n      dup2\n      swap1\n      sstore\n      pop\n        /* \"test.sol\":1364:1374  msg.sender */\n      caller\n        /* \"test.sol\":1349:1374  player[round]==msg.sender */\n      0xffffffffffffffffffffffffffffffffffffffff\n      and\n        /* \"test.sol\":1349:1355  player */\n      0x4\n        /* \"test.sol\":1349:1362  player[round] */\n      0x0\n        /* \"test.sol\":1356:1361  round */\n      sload(0x1)\n        /* \"test.sol\":1349:1362  player[round] */\n      dup2\n      mstore\n      0x20\n      add\n      swap1\n      dup2\n      mstore\n      0x20\n      add\n      0x0\n      keccak256\n      0x0\n      swap1\n      sload\n      swap1\n      0x100\n      exp\n      swap1\n      pop\n      pop\n        /* \"test.sol\":1349:1374  player[round]==msg.sender */\n      pop\n        /* \"test.sol\":1247:1378  function bet() public payable betcheck{... */\n      jump\t// out\n        /* \"test.sol\":1104:1140  mapping(uint => string)public result */\n    tag_11:\n      mstore(0x20, 0x6)\n      dup1\n      0x0\n      mstore\n      keccak256(0x0, 0x40)\n      0x0\n      swap2\n      pop\n      swap1\n      pop\n      dup1\n      sload\n      0x1\n      dup2\n      0x1\n      and\n      iszero\n      0x100\n      mul\n      sub\n      and\n      0x2\n      swap1\n      div\n      dup1\n      0x1f\n      add\n      0x20\n      dup1\n      swap2\n      div\n      mul\n      0x20\n      add\n      mload(0x40)\n      swap1\n      dup2\n      add\n      0x40\n      mstore\n      dup1\n      swap3\n      swap2\n      swap1\n      dup2\n      dup2\n      mstore\n      0x20\n      add\n      dup3\n      dup1\n      sload\n      0x1\n      dup2\n      0x1\n      and\n      iszero\n      0x100\n      mul\n      sub\n      and\n      0x2\n      swap1\n      div\n      dup1\n      iszero\n      tag_30\n      jumpi\n      dup1\n      0x1f\n      lt\n      tag_31\n      jumpi\n      0x100\n      dup1\n      dup4\n      sload\n      div\n      mul\n      dup4\n      mstore\n      swap2\n      0x20\n      add\n      swap2\n      jump(tag_30)\n    tag_31:\n      dup3\n      add\n      swap2\n      swap1\n      0x0\n      mstore\n      keccak256(0x0, 0x20)\n      swap1\n    tag_32:\n      dup2\n      sload\n      dup2\n      mstore\n      swap1\n      0x1\n      add\n      swap1\n      0x20\n      add\n      dup1\n      dup4\n      gt\n      tag_32\n      jumpi\n      dup3\n      swap1\n      sub\n      0x1f\n      and\n      dup3\n      add\n      swap2\n    tag_30:\n      pop\n      pop\n      pop\n      pop\n      pop\n      dup2\n      jump\t// out\n        /* \"test.sol\":1382:1821  function play(uint choose)public betcheck{... */\n    tag_18:\n        /* \"test.sol\":1178:1179  0 */\n      0x0\n        /* \"test.sol\":1171:1176  money */\n      dup1\n      sload\n        /* \"test.sol\":1171:1179  money!=0 */\n      eq\n      iszero\n        /* \"test.sol\":1168:1235  if(money!=0){... */\n      iszero\n      tag_34\n      jumpi\n        /* \"test.sol\":1213:1223  msg.sender */\n      caller\n        /* \"test.sol\":1198:1223  player[round]==msg.sender */\n      0xffffffffffffffffffffffffffffffffffffffff\n      and\n        /* \"test.sol\":1198:1204  player */\n      0x4\n        /* \"test.sol\":1198:1211  player[round] */\n      0x0\n        /* \"test.sol\":1205:1210  round */\n      sload(0x1)\n        /* \"test.sol\":1198:1211  player[round] */\n      dup2\n      mstore\n      0x20\n      add\n      swap1\n      dup2\n      mstore\n      0x20\n      add\n      0x0\n      keccak256\n      0x0\n      swap1\n      sload\n      swap1\n      0x100\n      exp\n      swap1\n      div\n      0xffffffffffffffffffffffffffffffffffffffff\n      and\n        /* \"test.sol\":1198:1223  player[round]==msg.sender */\n      0xffffffffffffffffffffffffffffffffffffffff\n      and\n      eq\n        /* \"test.sol\":1190:1224  require(player[round]==msg.sender) */\n      iszero\n      iszero\n      tag_35\n      jumpi\n      0x0\n      dup1\n      revert\n    tag_35:\n        /* \"test.sol\":1168:1235  if(money!=0){... */\n    tag_34:\n        /* \"test.sol\":1444:1445  0 */\n      0x0\n        /* \"test.sol\":1437:1442  money */\n      dup1\n      sload\n        /* \"test.sol\":1437:1445  money>=0 */\n      lt\n      iszero\n        /* \"test.sol\":1429:1446  require(money>=0) */\n      iszero\n      iszero\n      tag_37\n      jumpi\n      0x0\n      dup1\n      revert\n    tag_37:\n        /* \"test.sol\":1465:1471  choose */\n      dup1\n        /* \"test.sol\":1452:1456  item */\n      0x5\n        /* \"test.sol\":1452:1463  item[round] */\n      0x0\n        /* \"test.sol\":1457:1462  round */\n      sload(0x1)\n        /* \"test.sol\":1452:1463  item[round] */\n      dup2\n      mstore\n      0x20\n      add\n      swap1\n      dup2\n      mstore\n      0x20\n      add\n      0x0\n      keccak256\n      pop\n        /* \"test.sol\":1452:1471  item[round]==choose */\n      pop\n        /* \"test.sol\":1505:1506  1 */\n      0x1\n        /* \"test.sol\":1503:1504  3 */\n      0x3\n        /* \"test.sol\":1486:1501  block.timestamp */\n      timestamp\n        /* \"test.sol\":1486:1504  block.timestamp %3 */\n      dup2\n      iszero\n      iszero\n      tag_38\n      jumpi\n      invalid\n    tag_38:\n      mod\n        /* \"test.sol\":1486:1506  block.timestamp %3+1 */\n      add\n        /* \"test.sol\":1477:1485  computer */\n      0x3\n        /* \"test.sol\":1477:1506  computer=block.timestamp %3+1 */\n      dup2\n      swap1\n      sstore\n      pop\n        /* \"test.sol\":1523:1531  computer */\n      sload(0x3)\n        /* \"test.sol\":1515:1521  choose */\n      dup2\n        /* \"test.sol\":1515:1531  choose==computer */\n      eq\n        /* \"test.sol\":1512:1801  if(choose==computer)... */\n      iszero\n      tag_39\n      jumpi\n        /* \"test.sol\":1555:1575  result[round]=\"DRAW\" */\n      0x40\n      dup1\n      mload\n      swap1\n      dup2\n      add\n      0x40\n      mstore\n      dup1\n      0x4\n      dup2\n      mstore\n      0x20\n      add\n      0x4452415700000000000000000000000000000000000000000000000000000000\n      dup2\n      mstore\n      pop\n        /* \"test.sol\":1555:1561  result */\n      0x6\n        /* \"test.sol\":1555:1568  result[round] */\n      0x0\n        /* \"test.sol\":1562:1567  round */\n      sload(0x1)\n        /* \"test.sol\":1555:1568  result[round] */\n      dup2\n      mstore\n      0x20\n      add\n      swap1\n      dup2\n      mstore\n      0x20\n      add\n      0x0\n      keccak256\n        /* \"test.sol\":1555:1575  result[round]=\"DRAW\" */\n      swap1\n      dup1\n      mload\n      swap1\n      0x20\n      add\n      swap1\n      tag_40\n      swap3\n      swap2\n      swap1\n      jump\t// in(tag_41)\n    tag_40:\n      pop\n        /* \"test.sol\":1589:1599  msg.sender */\n      caller\n        /* \"test.sol\":1589:1608  msg.sender.transfer */\n      0xffffffffffffffffffffffffffffffffffffffff\n      and\n        /* \"test.sol\":1589:1615  msg.sender.transfer(money) */\n      0x8fc\n        /* \"test.sol\":1609:1614  money */\n      sload(0x0)\n        /* \"test.sol\":1589:1615  msg.sender.transfer(money) */\n      swap1\n      dup2\n      iszero\n      mul\n      swap1\n      mload(0x40)\n      0x0\n      mload(0x40)\n      dup1\n      dup4\n      sub\n      dup2\n      dup6\n      dup9\n      dup9\n      call\n      swap4\n      pop\n      pop\n      pop\n      pop\n      iszero\n        /* \"--CODEGEN--\":8:17   */\n      dup1\n        /* \"--CODEGEN--\":5:7   */\n      iszero\n      tag_42\n      jumpi\n        /* \"--CODEGEN--\":45:61   */\n      returndatasize\n        /* \"--CODEGEN--\":42:43   */\n      0x0\n        /* \"--CODEGEN--\":39:40   */\n      dup1\n        /* \"--CODEGEN--\":24:62   */\n      returndatacopy\n        /* \"--CODEGEN--\":77:93   */\n      returndatasize\n        /* \"--CODEGEN--\":74:75   */\n      0x0\n        /* \"--CODEGEN--\":67:94   */\n      revert\n        /* \"--CODEGEN--\":5:7   */\n    tag_42:\n        /* \"test.sol\":1589:1615  msg.sender.transfer(money) */\n      pop\n        /* \"test.sol\":1512:1801  if(choose==computer)... */\n      jump(tag_43)\n    tag_39:\n        /* \"test.sol\":1646:1654  computer */\n      sload(0x3)\n        /* \"test.sol\":1639:1645  choose */\n      dup2\n        /* \"test.sol\":1639:1654  choose<computer */\n      lt\n        /* \"test.sol\":1639:1680  choose<computer||(computer==1&&choose==2) */\n      dup1\n      tag_44\n      jumpi\n      pop\n        /* \"test.sol\":1667:1668  1 */\n      0x1\n        /* \"test.sol\":1657:1665  computer */\n      sload(0x3)\n        /* \"test.sol\":1657:1668  computer==1 */\n      eq\n        /* \"test.sol\":1657:1679  computer==1&&choose==2 */\n      dup1\n      iszero\n      tag_45\n      jumpi\n      pop\n        /* \"test.sol\":1678:1679  2 */\n      0x2\n        /* \"test.sol\":1670:1676  choose */\n      dup2\n        /* \"test.sol\":1670:1679  choose==2 */\n      eq\n        /* \"test.sol\":1657:1679  computer==1&&choose==2 */\n    tag_45:\n        /* \"test.sol\":1639:1680  choose<computer||(computer==1&&choose==2) */\n    tag_44:\n        /* \"test.sol\":1636:1801  if(choose<computer||(computer==1&&choose==2)){... */\n      iszero\n      tag_46\n      jumpi\n        /* \"test.sol\":1691:1711  result[round]=\"LOSE\" */\n      0x40\n      dup1\n      mload\n      swap1\n      dup2\n      add\n      0x40\n      mstore\n      dup1\n      0x4\n      dup2\n      mstore\n      0x20\n      add\n      0x4c4f534500000000000000000000000000000000000000000000000000000000\n      dup2\n      mstore\n      pop\n        /* \"test.sol\":1691:1697  result */\n      0x6\n        /* \"test.sol\":1691:1704  result[round] */\n      0x0\n        /* \"test.sol\":1698:1703  round */\n      sload(0x1)\n        /* \"test.sol\":1691:1704  result[round] */\n      dup2\n      mstore\n      0x20\n      add\n      swap1\n      dup2\n      mstore\n      0x20\n      add\n      0x0\n      keccak256\n        /* \"test.sol\":1691:1711  result[round]=\"LOSE\" */\n      swap1\n      dup1\n      mload\n      swap1\n      0x20\n      add\n      swap1\n      tag_47\n      swap3\n      swap2\n      swap1\n      jump\t// in(tag_41)\n    tag_47:\n      pop\n        /* \"test.sol\":1636:1801  if(choose<computer||(computer==1&&choose==2)){... */\n      jump(tag_48)\n    tag_46:\n        /* \"test.sol\":1737:1756  result[round]=\"WIN\" */\n      0x40\n      dup1\n      mload\n      swap1\n      dup2\n      add\n      0x40\n      mstore\n      dup1\n      0x3\n      dup2\n      mstore\n      0x20\n      add\n      0x57494e0000000000000000000000000000000000000000000000000000000000\n      dup2\n      mstore\n      pop\n        /* \"test.sol\":1737:1743  result */\n      0x6\n        /* \"test.sol\":1737:1750  result[round] */\n      0x0\n        /* \"test.sol\":1744:1749  round */\n      sload(0x1)\n        /* \"test.sol\":1737:1750  result[round] */\n      dup2\n      mstore\n      0x20\n      add\n      swap1\n      dup2\n      mstore\n      0x20\n      add\n      0x0\n      keccak256\n        /* \"test.sol\":1737:1756  result[round]=\"WIN\" */\n      swap1\n      dup1\n      mload\n      swap1\n      0x20\n      add\n      swap1\n      tag_49\n      swap3\n      swap2\n      swap1\n      jump\t// in(tag_41)\n    tag_49:\n      pop\n        /* \"test.sol\":1766:1776  msg.sender */\n      caller\n        /* \"test.sol\":1766:1785  msg.sender.transfer */\n      0xffffffffffffffffffffffffffffffffffffffff\n      and\n        /* \"test.sol\":1766:1794  msg.sender.transfer(money*2) */\n      0x8fc\n        /* \"test.sol\":1792:1793  2 */\n      0x2\n        /* \"test.sol\":1786:1791  money */\n      sload(0x0)\n        /* \"test.sol\":1786:1793  money*2 */\n      mul\n        /* \"test.sol\":1766:1794  msg.sender.transfer(money*2) */\n      swap1\n      dup2\n      iszero\n      mul\n      swap1\n      mload(0x40)\n      0x0\n      mload(0x40)\n      dup1\n      dup4\n      sub\n      dup2\n      dup6\n      dup9\n      dup9\n      call\n      swap4\n      pop\n      pop\n      pop\n      pop\n      iszero\n        /* \"--CODEGEN--\":8:17   */\n      dup1\n        /* \"--CODEGEN--\":5:7   */\n      iszero\n      tag_50\n      jumpi\n        /* \"--CODEGEN--\":45:61   */\n      returndatasize\n        /* \"--CODEGEN--\":42:43   */\n      0x0\n        /* \"--CODEGEN--\":39:40   */\n      dup1\n        /* \"--CODEGEN--\":24:62   */\n      returndatacopy\n        /* \"--CODEGEN--\":77:93   */\n      returndatasize\n        /* \"--CODEGEN--\":74:75   */\n      0x0\n        /* \"--CODEGEN--\":67:94   */\n      revert\n        /* \"--CODEGEN--\":5:7   */\n    tag_50:\n        /* \"test.sol\":1766:1794  msg.sender.transfer(money*2) */\n      pop\n        /* \"test.sol\":1636:1801  if(choose<computer||(computer==1&&choose==2)){... */\n    tag_48:\n        /* \"test.sol\":1512:1801  if(choose==computer)... */\n    tag_43:\n        /* \"test.sol\":1806:1811  round */\n      0x1\n      0x0\n        /* \"test.sol\":1806:1813  round++ */\n      dup2\n      sload\n      dup1\n      swap3\n      swap2\n      swap1\n      0x1\n      add\n      swap2\n      swap1\n      pop\n      sstore\n      pop\n        /* \"test.sol\":1382:1821  function play(uint choose)public betcheck{... */\n      pop\n      jump\t// out\n        /* \"test.sol\":1070:1102  mapping(uint => uint)public item */\n    tag_21:\n      mstore(0x20, 0x5)\n      dup1\n      0x0\n      mstore\n      keccak256(0x0, 0x40)\n      0x0\n      swap2\n      pop\n      swap1\n      pop\n      sload\n      dup2\n      jump\t// out\n        /* \"test.sol\":1031:1068  mapping(uint => address)public player */\n    tag_24:\n      mstore(0x20, 0x4)\n      dup1\n      0x0\n      mstore\n      keccak256(0x0, 0x40)\n      0x0\n      swap2\n      pop\n      sload\n      swap1\n      0x100\n      exp\n      swap1\n      div\n      0xffffffffffffffffffffffffffffffffffffffff\n      and\n      dup2\n      jump\t// out\n        /* \"test.sol\":857:1824  contract paperstone {... */\n    tag_41:\n      dup3\n      dup1\n      sload\n      0x1\n      dup2\n      0x1\n      and\n      iszero\n      0x100\n      mul\n      sub\n      and\n      0x2\n      swap1\n      div\n      swap1\n      0x0\n      mstore\n      keccak256(0x0, 0x20)\n      swap1\n      0x1f\n      add\n      0x20\n      swap1\n      div\n      dup2\n      add\n      swap3\n      dup3\n      0x1f\n      lt\n      tag_52\n      jumpi\n      dup1\n      mload\n      not(0xff)\n      and\n      dup4\n      dup1\n      add\n      or\n      dup6\n      sstore\n      jump(tag_51)\n    tag_52:\n      dup3\n      dup1\n      add\n      0x1\n      add\n      dup6\n      sstore\n      dup3\n      iszero\n      tag_51\n      jumpi\n      swap2\n      dup3\n      add\n    tag_53:\n      dup3\n      dup2\n      gt\n      iszero\n      tag_54\n      jumpi\n      dup3\n      mload\n      dup3\n      sstore\n      swap2\n      0x20\n      add\n      swap2\n      swap1\n      0x1\n      add\n      swap1\n      jump(tag_53)\n    tag_54:\n    tag_51:\n      pop\n      swap1\n      pop\n      tag_55\n      swap2\n      swap1\n      jump\t// in(tag_56)\n    tag_55:\n      pop\n      swap1\n      jump\t// out\n    tag_56:\n      tag_57\n      swap2\n      swap1\n    tag_58:\n      dup1\n      dup3\n      gt\n      iszero\n      tag_59\n      jumpi\n      0x0\n      dup2\n      0x0\n      swap1\n      sstore\n      pop\n      0x1\n      add\n      jump(tag_58)\n    tag_59:\n      pop\n      swap1\n      jump\n    tag_57:\n      swap1\n      jump\t// out\n\n    auxdata: 0xa165627a7a723058208bf676d990d03277070c1befc066f13ea9f4db211c961b4ff2ee9ffbd87683870029\n}\n",
				"bytecode": {
					"linkReferences": {},
					"object": "60806040526000805560006001556107628061001c6000396000f30060806040526004361061006d576000357c0100000000000000000000000000000000000000000000000000000000900463ffffffff16806311610c25146100725780633c5940591461007c5780636898f82b14610122578063898e62191461014f5780639e0551c614610190575b600080fd5b61007a6101fd565b005b34801561008857600080fd5b506100a7600480360381019080803590602001909291905050506102dc565b6040518080602001828103825283818151815260200191508051906020019080838360005b838110156100e75780820151818401526020810190506100cc565b50505050905090810190601f1680156101145780820380516001836020036101000a031916815260200191505b509250505060405180910390f35b34801561012e57600080fd5b5061014d6004803603810190808035906020019092919050505061038c565b005b34801561015b57600080fd5b5061017a60048036038101908080359060200190929190505050610646565b6040518082815260200191505060405180910390f35b34801561019c57600080fd5b506101bb6004803603810190808035906020019092919050505061065e565b604051808273ffffffffffffffffffffffffffffffffffffffff1673ffffffffffffffffffffffffffffffffffffffff16815260200191505060405180910390f35b60008054141515610278573373ffffffffffffffffffffffffffffffffffffffff1660046000600154815260200190815260200160002060009054906101000a900473ffffffffffffffffffffffffffffffffffffffff1673ffffffffffffffffffffffffffffffffffffffff1614151561027757600080fd5b5b67016345785d8a00003414151561028e57600080fd5b67016345785d8a0000600054016000819055503373ffffffffffffffffffffffffffffffffffffffff1660046000600154815260200190815260200160002060009054906101000a90505050565b60066020528060005260406000206000915090508054600181600116156101000203166002900480601f0160208091040260200160405190810160405280929190818152602001828054600181600116156101000203166002900480156103845780601f1061035957610100808354040283529160200191610384565b820191906000526020600020905b81548152906001019060200180831161036757829003601f168201915b505050505081565b60008054141515610407573373ffffffffffffffffffffffffffffffffffffffff1660046000600154815260200190815260200160002060009054906101000a900473ffffffffffffffffffffffffffffffffffffffff1673ffffffffffffffffffffffffffffffffffffffff1614151561040657600080fd5b5b600080541015151561041857600080fd5b806005600060015481526020019081526020016000205050600160034281151561043e57fe5b06016003819055506003548114156104fd576040805190810160405280600481526020017f445241570000000000000000000000000000000000000000000000000000000081525060066000600154815260200190815260200160002090805190602001906104ae929190610691565b503373ffffffffffffffffffffffffffffffffffffffff166108fc6000549081150290604051600060405180830381858888f193505050501580156104f7573d6000803e3d6000fd5b50610631565b60035481108061051b5750600160035414801561051a5750600281145b5b15610584576040805190810160405280600481526020017f4c4f534500000000000000000000000000000000000000000000000000000000815250600660006001548152602001908152602001600020908051906020019061057e929190610691565b50610630565b6040805190810160405280600381526020017f57494e000000000000000000000000000000000000000000000000000000000081525060066000600154815260200190815260200160002090805190602001906105e2929190610691565b503373ffffffffffffffffffffffffffffffffffffffff166108fc6002600054029081150290604051600060405180830381858888f1935050505015801561062e573d6000803e3d6000fd5b505b5b60016000815480929190600101919050555050565b60056020528060005260406000206000915090505481565b60046020528060005260406000206000915054906101000a900473ffffffffffffffffffffffffffffffffffffffff1681565b828054600181600116156101000203166002900490600052602060002090601f016020900481019282601f106106d257805160ff1916838001178555610700565b82800160010185558215610700579182015b828111156106ff5782518255916020019190600101906106e4565b5b50905061070d9190610711565b5090565b61073391905b8082111561072f576000816000905550600101610717565b5090565b905600a165627a7a723058208bf676d990d03277070c1befc066f13ea9f4db211c961b4ff2ee9ffbd87683870029",
					"opcodes": "PUSH1 0x80 PUSH1 0x40 MSTORE PUSH1 0x0 DUP1 SSTORE PUSH1 0x0 PUSH1 0x1 SSTORE PUSH2 0x762 DUP1 PUSH2 0x1C PUSH1 0x0 CODECOPY PUSH1 0x0 RETURN STOP PUSH1 0x80 PUSH1 0x40 MSTORE PUSH1 0x4 CALLDATASIZE LT PUSH2 0x6D JUMPI PUSH1 0x0 CALLDATALOAD PUSH29 0x100000000000000000000000000000000000000000000000000000000 SWAP1 DIV PUSH4 0xFFFFFFFF AND DUP1 PUSH4 0x11610C25 EQ PUSH2 0x72 JUMPI DUP1 PUSH4 0x3C594059 EQ PUSH2 0x7C JUMPI DUP1 PUSH4 0x6898F82B EQ PUSH2 0x122 JUMPI DUP1 PUSH4 0x898E6219 EQ PUSH2 0x14F JUMPI DUP1 PUSH4 0x9E0551C6 EQ PUSH2 0x190 JUMPI JUMPDEST PUSH1 0x0 DUP1 REVERT JUMPDEST PUSH2 0x7A PUSH2 0x1FD JUMP JUMPDEST STOP JUMPDEST CALLVALUE DUP1 ISZERO PUSH2 0x88 JUMPI PUSH1 0x0 DUP1 REVERT JUMPDEST POP PUSH2 0xA7 PUSH1 0x4 DUP1 CALLDATASIZE SUB DUP2 ADD SWAP1 DUP1 DUP1 CALLDATALOAD SWAP1 PUSH1 0x20 ADD SWAP1 SWAP3 SWAP2 SWAP1 POP POP POP PUSH2 0x2DC JUMP JUMPDEST PUSH1 0x40 MLOAD DUP1 DUP1 PUSH1 0x20 ADD DUP3 DUP2 SUB DUP3 MSTORE DUP4 DUP2 DUP2 MLOAD DUP2 MSTORE PUSH1 0x20 ADD SWAP2 POP DUP1 MLOAD SWAP1 PUSH1 0x20 ADD SWAP1 DUP1 DUP4 DUP4 PUSH1 0x0 JUMPDEST DUP4 DUP2 LT ISZERO PUSH2 0xE7 JUMPI DUP1 DUP3 ADD MLOAD DUP2 DUP5 ADD MSTORE PUSH1 0x20 DUP2 ADD SWAP1 POP PUSH2 0xCC JUMP JUMPDEST POP POP POP POP SWAP1 POP SWAP1 DUP2 ADD SWAP1 PUSH1 0x1F AND DUP1 ISZERO PUSH2 0x114 JUMPI DUP1 DUP3 SUB DUP1 MLOAD PUSH1 0x1 DUP4 PUSH1 0x20 SUB PUSH2 0x100 EXP SUB NOT AND DUP2 MSTORE PUSH1 0x20 ADD SWAP2 POP JUMPDEST POP SWAP3 POP POP POP PUSH1 0x40 MLOAD DUP1 SWAP2 SUB SWAP1 RETURN JUMPDEST CALLVALUE DUP1 ISZERO PUSH2 0x12E JUMPI PUSH1 0x0 DUP1 REVERT JUMPDEST POP PUSH2 0x14D PUSH1 0x4 DUP1 CALLDATASIZE SUB DUP2 ADD SWAP1 DUP1 DUP1 CALLDATALOAD SWAP1 PUSH1 0x20 ADD SWAP1 SWAP3 SWAP2 SWAP1 POP POP POP PUSH2 0x38C JUMP JUMPDEST STOP JUMPDEST CALLVALUE DUP1 ISZERO PUSH2 0x15B JUMPI PUSH1 0x0 DUP1 REVERT JUMPDEST POP PUSH2 0x17A PUSH1 0x4 DUP1 CALLDATASIZE SUB DUP2 ADD SWAP1 DUP1 DUP1 CALLDATALOAD SWAP1 PUSH1 0x20 ADD SWAP1 SWAP3 SWAP2 SWAP1 POP POP POP PUSH2 0x646 JUMP JUMPDEST PUSH1 0x40 MLOAD DUP1 DUP3 DUP2 MSTORE PUSH1 0x20 ADD SWAP2 POP POP PUSH1 0x40 MLOAD DUP1 SWAP2 SUB SWAP1 RETURN JUMPDEST CALLVALUE DUP1 ISZERO PUSH2 0x19C JUMPI PUSH1 0x0 DUP1 REVERT JUMPDEST POP PUSH2 0x1BB PUSH1 0x4 DUP1 CALLDATASIZE SUB DUP2 ADD SWAP1 DUP1 DUP1 CALLDATALOAD SWAP1 PUSH1 0x20 ADD SWAP1 SWAP3 SWAP2 SWAP1 POP POP POP PUSH2 0x65E JUMP JUMPDEST PUSH1 0x40 MLOAD DUP1 DUP3 PUSH20 0xFFFFFFFFFFFFFFFFFFFFFFFFFFFFFFFFFFFFFFFF AND PUSH20 0xFFFFFFFFFFFFFFFFFFFFFFFFFFFFFFFFFFFFFFFF AND DUP2 MSTORE PUSH1 0x20 ADD SWAP2 POP POP PUSH1 0x40 MLOAD DUP1 SWAP2 SUB SWAP1 RETURN JUMPDEST PUSH1 0x0 DUP1 SLOAD EQ ISZERO ISZERO PUSH2 0x278 JUMPI CALLER PUSH20 0xFFFFFFFFFFFFFFFFFFFFFFFFFFFFFFFFFFFFFFFF AND PUSH1 0x4 PUSH1 0x0 PUSH1 0x1 SLOAD DUP2 MSTORE PUSH1 0x20 ADD SWAP1 DUP2 MSTORE PUSH1 0x20 ADD PUSH1 0x0 KECCAK256 PUSH1 0x0 SWAP1 SLOAD SWAP1 PUSH2 0x100 EXP SWAP1 DIV PUSH20 0xFFFFFFFFFFFFFFFFFFFFFFFFFFFFFFFFFFFFFFFF AND PUSH20 0xFFFFFFFFFFFFFFFFFFFFFFFFFFFFFFFFFFFFFFFF AND EQ ISZERO ISZERO PUSH2 0x277 JUMPI PUSH1 0x0 DUP1 REVERT JUMPDEST JUMPDEST PUSH8 0x16345785D8A0000 CALLVALUE EQ ISZERO ISZERO PUSH2 0x28E JUMPI PUSH1 0x0 DUP1 REVERT JUMPDEST PUSH8 0x16345785D8A0000 PUSH1 0x0 SLOAD ADD PUSH1 0x0 DUP2 SWAP1 SSTORE POP CALLER PUSH20 0xFFFFFFFFFFFFFFFFFFFFFFFFFFFFFFFFFFFFFFFF AND PUSH1 0x4 PUSH1 0x0 PUSH1 0x1 SLOAD DUP2 MSTORE PUSH1 0x20 ADD SWAP1 DUP2 MSTORE PUSH1 0x20 ADD PUSH1 0x0 KECCAK256 PUSH1 0x0 SWAP1 SLOAD SWAP1 PUSH2 0x100 EXP SWAP1 POP POP POP JUMP JUMPDEST PUSH1 0x6 PUSH1 0x20 MSTORE DUP1 PUSH1 0x0 MSTORE PUSH1 0x40 PUSH1 0x0 KECCAK256 PUSH1 0x0 SWAP2 POP SWAP1 POP DUP1 SLOAD PUSH1 0x1 DUP2 PUSH1 0x1 AND ISZERO PUSH2 0x100 MUL SUB AND PUSH1 0x2 SWAP1 DIV DUP1 PUSH1 0x1F ADD PUSH1 0x20 DUP1 SWAP2 DIV MUL PUSH1 0x20 ADD PUSH1 0x40 MLOAD SWAP1 DUP2 ADD PUSH1 0x40 MSTORE DUP1 SWAP3 SWAP2 SWAP1 DUP2 DUP2 MSTORE PUSH1 0x20 ADD DUP3 DUP1 SLOAD PUSH1 0x1 DUP2 PUSH1 0x1 AND ISZERO PUSH2 0x100 MUL SUB AND PUSH1 0x2 SWAP1 DIV DUP1 ISZERO PUSH2 0x384 JUMPI DUP1 PUSH1 0x1F LT PUSH2 0x359 JUMPI PUSH2 0x100 DUP1 DUP4 SLOAD DIV MUL DUP4 MSTORE SWAP2 PUSH1 0x20 ADD SWAP2 PUSH2 0x384 JUMP JUMPDEST DUP3 ADD SWAP2 SWAP1 PUSH1 0x0 MSTORE PUSH1 0x20 PUSH1 0x0 KECCAK256 SWAP1 JUMPDEST DUP2 SLOAD DUP2 MSTORE SWAP1 PUSH1 0x1 ADD SWAP1 PUSH1 0x20 ADD DUP1 DUP4 GT PUSH2 0x367 JUMPI DUP3 SWAP1 SUB PUSH1 0x1F AND DUP3 ADD SWAP2 JUMPDEST POP POP POP POP POP DUP2 JUMP JUMPDEST PUSH1 0x0 DUP1 SLOAD EQ ISZERO ISZERO PUSH2 0x407 JUMPI CALLER PUSH20 0xFFFFFFFFFFFFFFFFFFFFFFFFFFFFFFFFFFFFFFFF AND PUSH1 0x4 PUSH1 0x0 PUSH1 0x1 SLOAD DUP2 MSTORE PUSH1 0x20 ADD SWAP1 DUP2 MSTORE PUSH1 0x20 ADD PUSH1 0x0 KECCAK256 PUSH1 0x0 SWAP1 SLOAD SWAP1 PUSH2 0x100 EXP SWAP1 DIV PUSH20 0xFFFFFFFFFFFFFFFFFFFFFFFFFFFFFFFFFFFFFFFF AND PUSH20 0xFFFFFFFFFFFFFFFFFFFFFFFFFFFFFFFFFFFFFFFF AND EQ ISZERO ISZERO PUSH2 0x406 JUMPI PUSH1 0x0 DUP1 REVERT JUMPDEST JUMPDEST PUSH1 0x0 DUP1 SLOAD LT ISZERO ISZERO ISZERO PUSH2 0x418 JUMPI PUSH1 0x0 DUP1 REVERT JUMPDEST DUP1 PUSH1 0x5 PUSH1 0x0 PUSH1 0x1 SLOAD DUP2 MSTORE PUSH1 0x20 ADD SWAP1 DUP2 MSTORE PUSH1 0x20 ADD PUSH1 0x0 KECCAK256 POP POP PUSH1 0x1 PUSH1 0x3 TIMESTAMP DUP2 ISZERO ISZERO PUSH2 0x43E JUMPI INVALID JUMPDEST MOD ADD PUSH1 0x3 DUP2 SWAP1 SSTORE POP PUSH1 0x3 SLOAD DUP2 EQ ISZERO PUSH2 0x4FD JUMPI PUSH1 0x40 DUP1 MLOAD SWAP1 DUP2 ADD PUSH1 0x40 MSTORE DUP1 PUSH1 0x4 DUP2 MSTORE PUSH1 0x20 ADD PUSH32 0x4452415700000000000000000000000000000000000000000000000000000000 DUP2 MSTORE POP PUSH1 0x6 PUSH1 0x0 PUSH1 0x1 SLOAD DUP2 MSTORE PUSH1 0x20 ADD SWAP1 DUP2 MSTORE PUSH1 0x20 ADD PUSH1 0x0 KECCAK256 SWAP1 DUP1 MLOAD SWAP1 PUSH1 0x20 ADD SWAP1 PUSH2 0x4AE SWAP3 SWAP2 SWAP1 PUSH2 0x691 JUMP JUMPDEST POP CALLER PUSH20 0xFFFFFFFFFFFFFFFFFFFFFFFFFFFFFFFFFFFFFFFF AND PUSH2 0x8FC PUSH1 0x0 SLOAD SWAP1 DUP2 ISZERO MUL SWAP1 PUSH1 0x40 MLOAD PUSH1 0x0 PUSH1 0x40 MLOAD DUP1 DUP4 SUB DUP2 DUP6 DUP9 DUP9 CALL SWAP4 POP POP POP POP ISZERO DUP1 ISZERO PUSH2 0x4F7 JUMPI RETURNDATASIZE PUSH1 0x0 DUP1 RETURNDATACOPY RETURNDATASIZE PUSH1 0x0 REVERT JUMPDEST POP PUSH2 0x631 JUMP JUMPDEST PUSH1 0x3 SLOAD DUP2 LT DUP1 PUSH2 0x51B JUMPI POP PUSH1 0x1 PUSH1 0x3 SLOAD EQ DUP1 ISZERO PUSH2 0x51A JUMPI POP PUSH1 0x2 DUP2 EQ JUMPDEST JUMPDEST ISZERO PUSH2 0x584 JUMPI PUSH1 0x40 DUP1 MLOAD SWAP1 DUP2 ADD PUSH1 0x40 MSTORE DUP1 PUSH1 0x4 DUP2 MSTORE PUSH1 0x20 ADD PUSH32 0x4C4F534500000000000000000000000000000000000000000000000000000000 DUP2 MSTORE POP PUSH1 0x6 PUSH1 0x0 PUSH1 0x1 SLOAD DUP2 MSTORE PUSH1 0x20 ADD SWAP1 DUP2 MSTORE PUSH1 0x20 ADD PUSH1 0x0 KECCAK256 SWAP1 DUP1 MLOAD SWAP1 PUSH1 0x20 ADD SWAP1 PUSH2 0x57E SWAP3 SWAP2 SWAP1 PUSH2 0x691 JUMP JUMPDEST POP PUSH2 0x630 JUMP JUMPDEST PUSH1 0x40 DUP1 MLOAD SWAP1 DUP2 ADD PUSH1 0x40 MSTORE DUP1 PUSH1 0x3 DUP2 MSTORE PUSH1 0x20 ADD PUSH32 0x57494E0000000000000000000000000000000000000000000000000000000000 DUP2 MSTORE POP PUSH1 0x6 PUSH1 0x0 PUSH1 0x1 SLOAD DUP2 MSTORE PUSH1 0x20 ADD SWAP1 DUP2 MSTORE PUSH1 0x20 ADD PUSH1 0x0 KECCAK256 SWAP1 DUP1 MLOAD SWAP1 PUSH1 0x20 ADD SWAP1 PUSH2 0x5E2 SWAP3 SWAP2 SWAP1 PUSH2 0x691 JUMP JUMPDEST POP CALLER PUSH20 0xFFFFFFFFFFFFFFFFFFFFFFFFFFFFFFFFFFFFFFFF AND PUSH2 0x8FC PUSH1 0x2 PUSH1 0x0 SLOAD MUL SWAP1 DUP2 ISZERO MUL SWAP1 PUSH1 0x40 MLOAD PUSH1 0x0 PUSH1 0x40 MLOAD DUP1 DUP4 SUB DUP2 DUP6 DUP9 DUP9 CALL SWAP4 POP POP POP POP ISZERO DUP1 ISZERO PUSH2 0x62E JUMPI RETURNDATASIZE PUSH1 0x0 DUP1 RETURNDATACOPY RETURNDATASIZE PUSH1 0x0 REVERT JUMPDEST POP JUMPDEST JUMPDEST PUSH1 0x1 PUSH1 0x0 DUP2 SLOAD DUP1 SWAP3 SWAP2 SWAP1 PUSH1 0x1 ADD SWAP2 SWAP1 POP SSTORE POP POP JUMP JUMPDEST PUSH1 0x5 PUSH1 0x20 MSTORE DUP1 PUSH1 0x0 MSTORE PUSH1 0x40 PUSH1 0x0 KECCAK256 PUSH1 0x0 SWAP2 POP SWAP1 POP SLOAD DUP2 JUMP JUMPDEST PUSH1 0x4 PUSH1 0x20 MSTORE DUP1 PUSH1 0x0 MSTORE PUSH1 0x40 PUSH1 0x0 KECCAK256 PUSH1 0x0 SWAP2 POP SLOAD SWAP1 PUSH2 0x100 EXP SWAP1 DIV PUSH20 0xFFFFFFFFFFFFFFFFFFFFFFFFFFFFFFFFFFFFFFFF AND DUP2 JUMP JUMPDEST DUP3 DUP1 SLOAD PUSH1 0x1 DUP2 PUSH1 0x1 AND ISZERO PUSH2 0x100 MUL SUB AND PUSH1 0x2 SWAP1 DIV SWAP1 PUSH1 0x0 MSTORE PUSH1 0x20 PUSH1 0x0 KECCAK256 SWAP1 PUSH1 0x1F ADD PUSH1 0x20 SWAP1 DIV DUP2 ADD SWAP3 DUP3 PUSH1 0x1F LT PUSH2 0x6D2 JUMPI DUP1 MLOAD PUSH1 0xFF NOT AND DUP4 DUP1 ADD OR DUP6 SSTORE PUSH2 0x700 JUMP JUMPDEST DUP3 DUP1 ADD PUSH1 0x1 ADD DUP6 SSTORE DUP3 ISZERO PUSH2 0x700 JUMPI SWAP2 DUP3 ADD JUMPDEST DUP3 DUP2 GT ISZERO PUSH2 0x6FF JUMPI DUP3 MLOAD DUP3 SSTORE SWAP2 PUSH1 0x20 ADD SWAP2 SWAP1 PUSH1 0x1 ADD SWAP1 PUSH2 0x6E4 JUMP JUMPDEST JUMPDEST POP SWAP1 POP PUSH2 0x70D SWAP2 SWAP1 PUSH2 0x711 JUMP JUMPDEST POP SWAP1 JUMP JUMPDEST PUSH2 0x733 SWAP2 SWAP1 JUMPDEST DUP1 DUP3 GT ISZERO PUSH2 0x72F JUMPI PUSH1 0x0 DUP2 PUSH1 0x0 SWAP1 SSTORE POP PUSH1 0x1 ADD PUSH2 0x717 JUMP JUMPDEST POP SWAP1 JUMP JUMPDEST SWAP1 JUMP STOP LOG1 PUSH6 0x627A7A723058 KECCAK256 DUP12 0xf6 PUSH23 0xD990D03277070C1BEFC066F13EA9F4DB211C961B4FF2EE SWAP16 CREATE2 0xd8 PUSH23 0x8387002900000000000000000000000000000000000000 "
				},
				"gasEstimates": {
					"creation": {
						"codeDepositCost": "378000",
						"executionCost": "10406",
						"totalCost": "388406"
					},
					"external": {
						"bet()": "21660",
						"item(uint256)": "592",
						"play(uint256)": "infinite",
						"player(uint256)": "651",
						"result(uint256)": "infinite"
					}
				},
				"methodIdentifiers": {
					"bet()": "11610c25",
					"item(uint256)": "898e6219",
					"play(uint256)": "6898f82b",
					"player(uint256)": "9e0551c6",
					"result(uint256)": "3c594059"
				}
			},
			"userdoc": {
				"methods": {}
			}
		}
	}
}