{
	"test.sol": {
		"mikochi": {
			"abi": [
				{
					"inputs": [
						{
							"internalType": "string",
							"name": "_text",
							"type": "string"
						},
						{
							"internalType": "uint256",
							"name": "_num",
							"type": "uint256"
						},
						{
							"internalType": "address",
							"name": "_addr",
							"type": "address"
						}
					],
					"name": "hash",
					"outputs": [
						{
							"internalType": "bytes32",
							"name": "",
							"type": "bytes32"
						}
					],
					"stateMutability": "pure",
					"type": "function"
				}
			],
			"devdoc": {
				"kind": "dev",
				"methods": {},
				"version": 1
			},
			"evm": {
				"assembly": "    /* \"test.sol\":25:243  contract mikochi{... */\n  mstore(0x40, 0x80)\n  callvalue\n  dup1\n  iszero\n  tag_1\n  jumpi\n  0x00\n  dup1\n  revert\ntag_1:\n  pop\n  dataSize(sub_0)\n  dup1\n  dataOffset(sub_0)\n  0x00\n  codecopy\n  0x00\n  return\nstop\n\nsub_0: assembly {\n        /* \"test.sol\":25:243  contract mikochi{... */\n      mstore(0x40, 0x80)\n      callvalue\n      dup1\n      iszero\n      tag_1\n      jumpi\n      0x00\n      dup1\n      revert\n    tag_1:\n      pop\n      jumpi(tag_2, lt(calldatasize, 0x04))\n      shr(0xe0, calldataload(0x00))\n      dup1\n      0x5dda416e\n      eq\n      tag_3\n      jumpi\n    tag_2:\n      0x00\n      dup1\n      revert\n        /* \"test.sol\":48:240  function hash(... */\n    tag_3:\n      tag_4\n      0x04\n      dup1\n      calldatasize\n      sub\n      dup2\n      add\n      swap1\n      tag_5\n      swap2\n      swap1\n      tag_6\n      jump\t// in\n    tag_5:\n      tag_7\n      jump\t// in\n    tag_4:\n      mload(0x40)\n      tag_8\n      swap2\n      swap1\n      tag_9\n      jump\t// in\n    tag_8:\n      mload(0x40)\n      dup1\n      swap2\n      sub\n      swap1\n      return\n    tag_7:\n        /* \"test.sol\":160:167  bytes32 */\n      0x00\n        /* \"test.sol\":213:218  _text */\n      dup4\n        /* \"test.sol\":220:224  _num */\n      dup4\n        /* \"test.sol\":226:231  _addr */\n      dup4\n        /* \"test.sol\":196:232  abi.encodePacked(_text, _num, _addr) */\n      add(0x20, mload(0x40))\n      tag_11\n      swap4\n      swap3\n      swap2\n      swap1\n      tag_12\n      jump\t// in\n    tag_11:\n      mload(0x40)\n      0x20\n      dup2\n      dup4\n      sub\n      sub\n      dup2\n      mstore\n      swap1\n      0x40\n      mstore\n        /* \"test.sol\":186:233  keccak256(abi.encodePacked(_text, _num, _addr)) */\n      dup1\n      mload\n      swap1\n      0x20\n      add\n      keccak256\n        /* \"test.sol\":179:233  return keccak256(abi.encodePacked(_text, _num, _addr)) */\n      swap1\n      pop\n        /* \"test.sol\":48:240  function hash(... */\n      swap4\n      swap3\n      pop\n      pop\n      pop\n      jump\t// out\n        /* \"#utility.yul\":7:352   */\n    tag_14:\n        /* \"#utility.yul\":85:90   */\n      0x00\n        /* \"#utility.yul\":110:176   */\n      tag_16\n        /* \"#utility.yul\":126:175   */\n      tag_17\n        /* \"#utility.yul\":168:174   */\n      dup5\n        /* \"#utility.yul\":126:175   */\n      tag_18\n      jump\t// in\n    tag_17:\n        /* \"#utility.yul\":110:176   */\n      tag_19\n      jump\t// in\n    tag_16:\n        /* \"#utility.yul\":101:176   */\n      swap1\n      pop\n        /* \"#utility.yul\":199:205   */\n      dup3\n        /* \"#utility.yul\":192:197   */\n      dup2\n        /* \"#utility.yul\":185:206   */\n      mstore\n        /* \"#utility.yul\":237:241   */\n      0x20\n        /* \"#utility.yul\":230:235   */\n      dup2\n        /* \"#utility.yul\":226:242   */\n      add\n        /* \"#utility.yul\":275:278   */\n      dup5\n        /* \"#utility.yul\":266:272   */\n      dup5\n        /* \"#utility.yul\":261:264   */\n      dup5\n        /* \"#utility.yul\":257:273   */\n      add\n        /* \"#utility.yul\":254:279   */\n      gt\n        /* \"#utility.yul\":251:253   */\n      iszero\n      tag_20\n      jumpi\n        /* \"#utility.yul\":292:293   */\n      0x00\n        /* \"#utility.yul\":289:290   */\n      dup1\n        /* \"#utility.yul\":282:294   */\n      revert\n        /* \"#utility.yul\":251:253   */\n    tag_20:\n        /* \"#utility.yul\":305:346   */\n      tag_21\n        /* \"#utility.yul\":339:345   */\n      dup5\n        /* \"#utility.yul\":334:337   */\n      dup3\n        /* \"#utility.yul\":329:332   */\n      dup6\n        /* \"#utility.yul\":305:346   */\n      tag_22\n      jump\t// in\n    tag_21:\n        /* \"#utility.yul\":91:352   */\n      pop\n      swap4\n      swap3\n      pop\n      pop\n      pop\n      jump\t// out\n        /* \"#utility.yul\":358:497   */\n    tag_23:\n        /* \"#utility.yul\":404:409   */\n      0x00\n        /* \"#utility.yul\":442:448   */\n      dup2\n        /* \"#utility.yul\":429:449   */\n      calldataload\n        /* \"#utility.yul\":420:449   */\n      swap1\n      pop\n        /* \"#utility.yul\":458:491   */\n      tag_25\n        /* \"#utility.yul\":485:490   */\n      dup2\n        /* \"#utility.yul\":458:491   */\n      tag_26\n      jump\t// in\n    tag_25:\n        /* \"#utility.yul\":410:497   */\n      swap3\n      swap2\n      pop\n      pop\n      jump\t// out\n        /* \"#utility.yul\":517:790   */\n    tag_27:\n        /* \"#utility.yul\":573:578   */\n      0x00\n        /* \"#utility.yul\":622:625   */\n      dup3\n        /* \"#utility.yul\":615:619   */\n      0x1f\n        /* \"#utility.yul\":607:613   */\n      dup4\n        /* \"#utility.yul\":603:620   */\n      add\n        /* \"#utility.yul\":599:626   */\n      slt\n        /* \"#utility.yul\":589:591   */\n      tag_29\n      jumpi\n        /* \"#utility.yul\":640:641   */\n      0x00\n        /* \"#utility.yul\":637:638   */\n      dup1\n        /* \"#utility.yul\":630:642   */\n      revert\n        /* \"#utility.yul\":589:591   */\n    tag_29:\n        /* \"#utility.yul\":680:686   */\n      dup2\n        /* \"#utility.yul\":667:687   */\n      calldataload\n        /* \"#utility.yul\":705:784   */\n      tag_30\n        /* \"#utility.yul\":780:783   */\n      dup5\n        /* \"#utility.yul\":772:778   */\n      dup3\n        /* \"#utility.yul\":765:769   */\n      0x20\n        /* \"#utility.yul\":757:763   */\n      dup7\n        /* \"#utility.yul\":753:770   */\n      add\n        /* \"#utility.yul\":705:784   */\n      tag_14\n      jump\t// in\n    tag_30:\n        /* \"#utility.yul\":696:784   */\n      swap2\n      pop\n        /* \"#utility.yul\":579:790   */\n      pop\n      swap3\n      swap2\n      pop\n      pop\n      jump\t// out\n        /* \"#utility.yul\":796:935   */\n    tag_31:\n        /* \"#utility.yul\":842:847   */\n      0x00\n        /* \"#utility.yul\":880:886   */\n      dup2\n        /* \"#utility.yul\":867:887   */\n      calldataload\n        /* \"#utility.yul\":858:887   */\n      swap1\n      pop\n        /* \"#utility.yul\":896:929   */\n      tag_33\n        /* \"#utility.yul\":923:928   */\n      dup2\n        /* \"#utility.yul\":896:929   */\n      tag_34\n      jump\t// in\n    tag_33:\n        /* \"#utility.yul\":848:935   */\n      swap3\n      swap2\n      pop\n      pop\n      jump\t// out\n        /* \"#utility.yul\":941:1606   */\n    tag_6:\n        /* \"#utility.yul\":1028:1034   */\n      0x00\n        /* \"#utility.yul\":1036:1042   */\n      dup1\n        /* \"#utility.yul\":1044:1050   */\n      0x00\n        /* \"#utility.yul\":1093:1095   */\n      0x60\n        /* \"#utility.yul\":1081:1090   */\n      dup5\n        /* \"#utility.yul\":1072:1079   */\n      dup7\n        /* \"#utility.yul\":1068:1091   */\n      sub\n        /* \"#utility.yul\":1064:1096   */\n      slt\n        /* \"#utility.yul\":1061:1063   */\n      iszero\n      tag_36\n      jumpi\n        /* \"#utility.yul\":1109:1110   */\n      0x00\n        /* \"#utility.yul\":1106:1107   */\n      dup1\n        /* \"#utility.yul\":1099:1111   */\n      revert\n        /* \"#utility.yul\":1061:1063   */\n    tag_36:\n        /* \"#utility.yul\":1180:1181   */\n      0x00\n        /* \"#utility.yul\":1169:1178   */\n      dup5\n        /* \"#utility.yul\":1165:1182   */\n      add\n        /* \"#utility.yul\":1152:1183   */\n      calldataload\n        /* \"#utility.yul\":1210:1228   */\n      0xffffffffffffffff\n        /* \"#utility.yul\":1202:1208   */\n      dup2\n        /* \"#utility.yul\":1199:1229   */\n      gt\n        /* \"#utility.yul\":1196:1198   */\n      iszero\n      tag_37\n      jumpi\n        /* \"#utility.yul\":1242:1243   */\n      0x00\n        /* \"#utility.yul\":1239:1240   */\n      dup1\n        /* \"#utility.yul\":1232:1244   */\n      revert\n        /* \"#utility.yul\":1196:1198   */\n    tag_37:\n        /* \"#utility.yul\":1270:1333   */\n      tag_38\n        /* \"#utility.yul\":1325:1332   */\n      dup7\n        /* \"#utility.yul\":1316:1322   */\n      dup3\n        /* \"#utility.yul\":1305:1314   */\n      dup8\n        /* \"#utility.yul\":1301:1323   */\n      add\n        /* \"#utility.yul\":1270:1333   */\n      tag_27\n      jump\t// in\n    tag_38:\n        /* \"#utility.yul\":1260:1333   */\n      swap4\n      pop\n        /* \"#utility.yul\":1123:1343   */\n      pop\n        /* \"#utility.yul\":1382:1384   */\n      0x20\n        /* \"#utility.yul\":1408:1461   */\n      tag_39\n        /* \"#utility.yul\":1453:1460   */\n      dup7\n        /* \"#utility.yul\":1444:1450   */\n      dup3\n        /* \"#utility.yul\":1433:1442   */\n      dup8\n        /* \"#utility.yul\":1429:1451   */\n      add\n        /* \"#utility.yul\":1408:1461   */\n      tag_31\n      jump\t// in\n    tag_39:\n        /* \"#utility.yul\":1398:1461   */\n      swap3\n      pop\n        /* \"#utility.yul\":1353:1471   */\n      pop\n        /* \"#utility.yul\":1510:1512   */\n      0x40\n        /* \"#utility.yul\":1536:1589   */\n      tag_40\n        /* \"#utility.yul\":1581:1588   */\n      dup7\n        /* \"#utility.yul\":1572:1578   */\n      dup3\n        /* \"#utility.yul\":1561:1570   */\n      dup8\n        /* \"#utility.yul\":1557:1579   */\n      add\n        /* \"#utility.yul\":1536:1589   */\n      tag_23\n      jump\t// in\n    tag_40:\n        /* \"#utility.yul\":1526:1589   */\n      swap2\n      pop\n        /* \"#utility.yul\":1481:1599   */\n      pop\n        /* \"#utility.yul\":1051:1606   */\n      swap3\n      pop\n      swap3\n      pop\n      swap3\n      jump\t// out\n        /* \"#utility.yul\":1612:1769   */\n    tag_41:\n        /* \"#utility.yul\":1717:1762   */\n      tag_43\n        /* \"#utility.yul\":1737:1761   */\n      tag_44\n        /* \"#utility.yul\":1755:1760   */\n      dup3\n        /* \"#utility.yul\":1737:1761   */\n      tag_45\n      jump\t// in\n    tag_44:\n        /* \"#utility.yul\":1717:1762   */\n      tag_46\n      jump\t// in\n    tag_43:\n        /* \"#utility.yul\":1712:1715   */\n      dup3\n        /* \"#utility.yul\":1705:1763   */\n      mstore\n        /* \"#utility.yul\":1695:1769   */\n      pop\n      pop\n      jump\t// out\n        /* \"#utility.yul\":1775:1893   */\n    tag_47:\n        /* \"#utility.yul\":1862:1886   */\n      tag_49\n        /* \"#utility.yul\":1880:1885   */\n      dup2\n        /* \"#utility.yul\":1862:1886   */\n      tag_50\n      jump\t// in\n    tag_49:\n        /* \"#utility.yul\":1857:1860   */\n      dup3\n        /* \"#utility.yul\":1850:1887   */\n      mstore\n        /* \"#utility.yul\":1840:1893   */\n      pop\n      pop\n      jump\t// out\n        /* \"#utility.yul\":1899:2276   */\n    tag_51:\n        /* \"#utility.yul\":2005:2008   */\n      0x00\n        /* \"#utility.yul\":2033:2072   */\n      tag_53\n        /* \"#utility.yul\":2066:2071   */\n      dup3\n        /* \"#utility.yul\":2033:2072   */\n      tag_54\n      jump\t// in\n    tag_53:\n        /* \"#utility.yul\":2088:2177   */\n      tag_55\n        /* \"#utility.yul\":2170:2176   */\n      dup2\n        /* \"#utility.yul\":2165:2168   */\n      dup6\n        /* \"#utility.yul\":2088:2177   */\n      tag_56\n      jump\t// in\n    tag_55:\n        /* \"#utility.yul\":2081:2177   */\n      swap4\n      pop\n        /* \"#utility.yul\":2186:2238   */\n      tag_57\n        /* \"#utility.yul\":2231:2237   */\n      dup2\n        /* \"#utility.yul\":2226:2229   */\n      dup6\n        /* \"#utility.yul\":2219:2223   */\n      0x20\n        /* \"#utility.yul\":2212:2217   */\n      dup7\n        /* \"#utility.yul\":2208:2224   */\n      add\n        /* \"#utility.yul\":2186:2238   */\n      tag_58\n      jump\t// in\n    tag_57:\n        /* \"#utility.yul\":2263:2269   */\n      dup1\n        /* \"#utility.yul\":2258:2261   */\n      dup5\n        /* \"#utility.yul\":2254:2270   */\n      add\n        /* \"#utility.yul\":2247:2270   */\n      swap2\n      pop\n        /* \"#utility.yul\":2009:2276   */\n      pop\n      swap3\n      swap2\n      pop\n      pop\n      jump\t// out\n        /* \"#utility.yul\":2282:2439   */\n    tag_59:\n        /* \"#utility.yul\":2387:2432   */\n      tag_61\n        /* \"#utility.yul\":2407:2431   */\n      tag_62\n        /* \"#utility.yul\":2425:2430   */\n      dup3\n        /* \"#utility.yul\":2407:2431   */\n      tag_63\n      jump\t// in\n    tag_62:\n        /* \"#utility.yul\":2387:2432   */\n      tag_64\n      jump\t// in\n    tag_61:\n        /* \"#utility.yul\":2382:2385   */\n      dup3\n        /* \"#utility.yul\":2375:2433   */\n      mstore\n        /* \"#utility.yul\":2365:2439   */\n      pop\n      pop\n      jump\t// out\n        /* \"#utility.yul\":2445:3002   */\n    tag_12:\n        /* \"#utility.yul\":2633:2636   */\n      0x00\n        /* \"#utility.yul\":2655:2750   */\n      tag_66\n        /* \"#utility.yul\":2746:2749   */\n      dup3\n        /* \"#utility.yul\":2737:2743   */\n      dup7\n        /* \"#utility.yul\":2655:2750   */\n      tag_51\n      jump\t// in\n    tag_66:\n        /* \"#utility.yul\":2648:2750   */\n      swap2\n      pop\n        /* \"#utility.yul\":2760:2835   */\n      tag_67\n        /* \"#utility.yul\":2831:2834   */\n      dup3\n        /* \"#utility.yul\":2822:2828   */\n      dup6\n        /* \"#utility.yul\":2760:2835   */\n      tag_59\n      jump\t// in\n    tag_67:\n        /* \"#utility.yul\":2860:2862   */\n      0x20\n        /* \"#utility.yul\":2855:2858   */\n      dup3\n        /* \"#utility.yul\":2851:2863   */\n      add\n        /* \"#utility.yul\":2844:2863   */\n      swap2\n      pop\n        /* \"#utility.yul\":2873:2948   */\n      tag_68\n        /* \"#utility.yul\":2944:2947   */\n      dup3\n        /* \"#utility.yul\":2935:2941   */\n      dup5\n        /* \"#utility.yul\":2873:2948   */\n      tag_41\n      jump\t// in\n    tag_68:\n        /* \"#utility.yul\":2973:2975   */\n      0x14\n        /* \"#utility.yul\":2968:2971   */\n      dup3\n        /* \"#utility.yul\":2964:2976   */\n      add\n        /* \"#utility.yul\":2957:2976   */\n      swap2\n      pop\n        /* \"#utility.yul\":2993:2996   */\n      dup2\n        /* \"#utility.yul\":2986:2996   */\n      swap1\n      pop\n        /* \"#utility.yul\":2637:3002   */\n      swap5\n      swap4\n      pop\n      pop\n      pop\n      pop\n      jump\t// out\n        /* \"#utility.yul\":3008:3230   */\n    tag_9:\n        /* \"#utility.yul\":3101:3105   */\n      0x00\n        /* \"#utility.yul\":3139:3141   */\n      0x20\n        /* \"#utility.yul\":3128:3137   */\n      dup3\n        /* \"#utility.yul\":3124:3142   */\n      add\n        /* \"#utility.yul\":3116:3142   */\n      swap1\n      pop\n        /* \"#utility.yul\":3152:3223   */\n      tag_70\n        /* \"#utility.yul\":3220:3221   */\n      0x00\n        /* \"#utility.yul\":3209:3218   */\n      dup4\n        /* \"#utility.yul\":3205:3222   */\n      add\n        /* \"#utility.yul\":3196:3202   */\n      dup5\n        /* \"#utility.yul\":3152:3223   */\n      tag_47\n      jump\t// in\n    tag_70:\n        /* \"#utility.yul\":3106:3230   */\n      swap3\n      swap2\n      pop\n      pop\n      jump\t// out\n        /* \"#utility.yul\":3236:3365   */\n    tag_19:\n        /* \"#utility.yul\":3270:3276   */\n      0x00\n        /* \"#utility.yul\":3297:3317   */\n      tag_72\n      tag_73\n      jump\t// in\n    tag_72:\n        /* \"#utility.yul\":3287:3317   */\n      swap1\n      pop\n        /* \"#utility.yul\":3326:3359   */\n      tag_74\n        /* \"#utility.yul\":3354:3358   */\n      dup3\n        /* \"#utility.yul\":3346:3352   */\n      dup3\n        /* \"#utility.yul\":3326:3359   */\n      tag_75\n      jump\t// in\n    tag_74:\n        /* \"#utility.yul\":3277:3365   */\n      swap2\n      swap1\n      pop\n      jump\t// out\n        /* \"#utility.yul\":3371:3446   */\n    tag_73:\n        /* \"#utility.yul\":3404:3410   */\n      0x00\n        /* \"#utility.yul\":3437:3439   */\n      0x40\n        /* \"#utility.yul\":3431:3440   */\n      mload\n        /* \"#utility.yul\":3421:3440   */\n      swap1\n      pop\n        /* \"#utility.yul\":3411:3446   */\n      swap1\n      jump\t// out\n        /* \"#utility.yul\":3452:3760   */\n    tag_18:\n        /* \"#utility.yul\":3514:3518   */\n      0x00\n        /* \"#utility.yul\":3604:3622   */\n      0xffffffffffffffff\n        /* \"#utility.yul\":3596:3602   */\n      dup3\n        /* \"#utility.yul\":3593:3623   */\n      gt\n        /* \"#utility.yul\":3590:3592   */\n      iszero\n      tag_78\n      jumpi\n        /* \"#utility.yul\":3626:3644   */\n      tag_79\n      tag_80\n      jump\t// in\n    tag_79:\n        /* \"#utility.yul\":3590:3592   */\n    tag_78:\n        /* \"#utility.yul\":3664:3693   */\n      tag_81\n        /* \"#utility.yul\":3686:3692   */\n      dup3\n        /* \"#utility.yul\":3664:3693   */\n      tag_82\n      jump\t// in\n    tag_81:\n        /* \"#utility.yul\":3656:3693   */\n      swap1\n      pop\n        /* \"#utility.yul\":3748:3752   */\n      0x20\n        /* \"#utility.yul\":3742:3746   */\n      dup2\n        /* \"#utility.yul\":3738:3753   */\n      add\n        /* \"#utility.yul\":3730:3753   */\n      swap1\n      pop\n        /* \"#utility.yul\":3519:3760   */\n      swap2\n      swap1\n      pop\n      jump\t// out\n        /* \"#utility.yul\":3766:3865   */\n    tag_54:\n        /* \"#utility.yul\":3818:3824   */\n      0x00\n        /* \"#utility.yul\":3852:3857   */\n      dup2\n        /* \"#utility.yul\":3846:3858   */\n      mload\n        /* \"#utility.yul\":3836:3858   */\n      swap1\n      pop\n        /* \"#utility.yul\":3825:3865   */\n      swap2\n      swap1\n      pop\n      jump\t// out\n        /* \"#utility.yul\":3871:4019   */\n    tag_56:\n        /* \"#utility.yul\":3973:3984   */\n      0x00\n        /* \"#utility.yul\":4010:4013   */\n      dup2\n        /* \"#utility.yul\":3995:4013   */\n      swap1\n      pop\n        /* \"#utility.yul\":3985:4019   */\n      swap3\n      swap2\n      pop\n      pop\n      jump\t// out\n        /* \"#utility.yul\":4025:4121   */\n    tag_45:\n        /* \"#utility.yul\":4062:4069   */\n      0x00\n        /* \"#utility.yul\":4091:4115   */\n      tag_86\n        /* \"#utility.yul\":4109:4114   */\n      dup3\n        /* \"#utility.yul\":4091:4115   */\n      tag_87\n      jump\t// in\n    tag_86:\n        /* \"#utility.yul\":4080:4115   */\n      swap1\n      pop\n        /* \"#utility.yul\":4070:4121   */\n      swap2\n      swap1\n      pop\n      jump\t// out\n        /* \"#utility.yul\":4127:4204   */\n    tag_50:\n        /* \"#utility.yul\":4164:4171   */\n      0x00\n        /* \"#utility.yul\":4193:4198   */\n      dup2\n        /* \"#utility.yul\":4182:4198   */\n      swap1\n      pop\n        /* \"#utility.yul\":4172:4204   */\n      swap2\n      swap1\n      pop\n      jump\t// out\n        /* \"#utility.yul\":4210:4336   */\n    tag_87:\n        /* \"#utility.yul\":4247:4254   */\n      0x00\n        /* \"#utility.yul\":4287:4329   */\n      0xffffffffffffffffffffffffffffffffffffffff\n        /* \"#utility.yul\":4280:4285   */\n      dup3\n        /* \"#utility.yul\":4276:4330   */\n      and\n        /* \"#utility.yul\":4265:4330   */\n      swap1\n      pop\n        /* \"#utility.yul\":4255:4336   */\n      swap2\n      swap1\n      pop\n      jump\t// out\n        /* \"#utility.yul\":4342:4419   */\n    tag_63:\n        /* \"#utility.yul\":4379:4386   */\n      0x00\n        /* \"#utility.yul\":4408:4413   */\n      dup2\n        /* \"#utility.yul\":4397:4413   */\n      swap1\n      pop\n        /* \"#utility.yul\":4387:4419   */\n      swap2\n      swap1\n      pop\n      jump\t// out\n        /* \"#utility.yul\":4425:4579   */\n    tag_22:\n        /* \"#utility.yul\":4509:4515   */\n      dup3\n        /* \"#utility.yul\":4504:4507   */\n      dup2\n        /* \"#utility.yul\":4499:4502   */\n      dup4\n        /* \"#utility.yul\":4486:4516   */\n      calldatacopy\n        /* \"#utility.yul\":4571:4572   */\n      0x00\n        /* \"#utility.yul\":4562:4568   */\n      dup4\n        /* \"#utility.yul\":4557:4560   */\n      dup4\n        /* \"#utility.yul\":4553:4569   */\n      add\n        /* \"#utility.yul\":4546:4573   */\n      mstore\n        /* \"#utility.yul\":4476:4579   */\n      pop\n      pop\n      pop\n      jump\t// out\n        /* \"#utility.yul\":4585:4892   */\n    tag_58:\n        /* \"#utility.yul\":4653:4654   */\n      0x00\n        /* \"#utility.yul\":4663:4776   */\n    tag_93:\n        /* \"#utility.yul\":4677:4683   */\n      dup4\n        /* \"#utility.yul\":4674:4675   */\n      dup2\n        /* \"#utility.yul\":4671:4684   */\n      lt\n        /* \"#utility.yul\":4663:4776   */\n      iszero\n      tag_95\n      jumpi\n        /* \"#utility.yul\":4762:4763   */\n      dup1\n        /* \"#utility.yul\":4757:4760   */\n      dup3\n        /* \"#utility.yul\":4753:4764   */\n      add\n        /* \"#utility.yul\":4747:4765   */\n      mload\n        /* \"#utility.yul\":4743:4744   */\n      dup2\n        /* \"#utility.yul\":4738:4741   */\n      dup5\n        /* \"#utility.yul\":4734:4745   */\n      add\n        /* \"#utility.yul\":4727:4766   */\n      mstore\n        /* \"#utility.yul\":4699:4701   */\n      0x20\n        /* \"#utility.yul\":4696:4697   */\n      dup2\n        /* \"#utility.yul\":4692:4702   */\n      add\n        /* \"#utility.yul\":4687:4702   */\n      swap1\n      pop\n        /* \"#utility.yul\":4663:4776   */\n      jump(tag_93)\n    tag_95:\n        /* \"#utility.yul\":4794:4800   */\n      dup4\n        /* \"#utility.yul\":4791:4792   */\n      dup2\n        /* \"#utility.yul\":4788:4801   */\n      gt\n        /* \"#utility.yul\":4785:4787   */\n      iszero\n      tag_96\n      jumpi\n        /* \"#utility.yul\":4874:4875   */\n      0x00\n        /* \"#utility.yul\":4865:4871   */\n      dup5\n        /* \"#utility.yul\":4860:4863   */\n      dup5\n        /* \"#utility.yul\":4856:4872   */\n      add\n        /* \"#utility.yul\":4849:4876   */\n      mstore\n        /* \"#utility.yul\":4785:4787   */\n    tag_96:\n        /* \"#utility.yul\":4634:4892   */\n      pop\n      pop\n      pop\n      pop\n      jump\t// out\n        /* \"#utility.yul\":4898:5179   */\n    tag_75:\n        /* \"#utility.yul\":4981:5008   */\n      tag_98\n        /* \"#utility.yul\":5003:5007   */\n      dup3\n        /* \"#utility.yul\":4981:5008   */\n      tag_82\n      jump\t// in\n    tag_98:\n        /* \"#utility.yul\":4973:4979   */\n      dup2\n        /* \"#utility.yul\":4969:5009   */\n      add\n        /* \"#utility.yul\":5111:5117   */\n      dup2\n        /* \"#utility.yul\":5099:5109   */\n      dup2\n        /* \"#utility.yul\":5096:5118   */\n      lt\n        /* \"#utility.yul\":5075:5093   */\n      0xffffffffffffffff\n        /* \"#utility.yul\":5063:5073   */\n      dup3\n        /* \"#utility.yul\":5060:5094   */\n      gt\n        /* \"#utility.yul\":5057:5119   */\n      or\n        /* \"#utility.yul\":5054:5056   */\n      iszero\n      tag_99\n      jumpi\n        /* \"#utility.yul\":5122:5140   */\n      tag_100\n      tag_80\n      jump\t// in\n    tag_100:\n        /* \"#utility.yul\":5054:5056   */\n    tag_99:\n        /* \"#utility.yul\":5162:5172   */\n      dup1\n        /* \"#utility.yul\":5158:5160   */\n      0x40\n        /* \"#utility.yul\":5151:5173   */\n      mstore\n        /* \"#utility.yul\":4941:5179   */\n      pop\n      pop\n      pop\n      jump\t// out\n        /* \"#utility.yul\":5185:5285   */\n    tag_46:\n        /* \"#utility.yul\":5224:5231   */\n      0x00\n        /* \"#utility.yul\":5253:5279   */\n      tag_102\n        /* \"#utility.yul\":5273:5278   */\n      dup3\n        /* \"#utility.yul\":5253:5279   */\n      tag_103\n      jump\t// in\n    tag_102:\n        /* \"#utility.yul\":5242:5279   */\n      swap1\n      pop\n        /* \"#utility.yul\":5232:5285   */\n      swap2\n      swap1\n      pop\n      jump\t// out\n        /* \"#utility.yul\":5291:5385   */\n    tag_103:\n        /* \"#utility.yul\":5330:5337   */\n      0x00\n        /* \"#utility.yul\":5359:5379   */\n      tag_105\n        /* \"#utility.yul\":5373:5378   */\n      dup3\n        /* \"#utility.yul\":5359:5379   */\n      tag_106\n      jump\t// in\n    tag_105:\n        /* \"#utility.yul\":5348:5379   */\n      swap1\n      pop\n        /* \"#utility.yul\":5338:5385   */\n      swap2\n      swap1\n      pop\n      jump\t// out\n        /* \"#utility.yul\":5391:5470   */\n    tag_64:\n        /* \"#utility.yul\":5430:5437   */\n      0x00\n        /* \"#utility.yul\":5459:5464   */\n      dup2\n        /* \"#utility.yul\":5448:5464   */\n      swap1\n      pop\n        /* \"#utility.yul\":5438:5470   */\n      swap2\n      swap1\n      pop\n      jump\t// out\n        /* \"#utility.yul\":5476:5656   */\n    tag_80:\n        /* \"#utility.yul\":5524:5601   */\n      0x4e487b7100000000000000000000000000000000000000000000000000000000\n        /* \"#utility.yul\":5521:5522   */\n      0x00\n        /* \"#utility.yul\":5514:5602   */\n      mstore\n        /* \"#utility.yul\":5621:5625   */\n      0x41\n        /* \"#utility.yul\":5618:5619   */\n      0x04\n        /* \"#utility.yul\":5611:5626   */\n      mstore\n        /* \"#utility.yul\":5645:5649   */\n      0x24\n        /* \"#utility.yul\":5642:5643   */\n      0x00\n        /* \"#utility.yul\":5635:5650   */\n      revert\n        /* \"#utility.yul\":5662:5764   */\n    tag_82:\n        /* \"#utility.yul\":5703:5709   */\n      0x00\n        /* \"#utility.yul\":5754:5756   */\n      0x1f\n        /* \"#utility.yul\":5750:5757   */\n      not\n        /* \"#utility.yul\":5745:5747   */\n      0x1f\n        /* \"#utility.yul\":5738:5743   */\n      dup4\n        /* \"#utility.yul\":5734:5748   */\n      add\n        /* \"#utility.yul\":5730:5758   */\n      and\n        /* \"#utility.yul\":5720:5758   */\n      swap1\n      pop\n        /* \"#utility.yul\":5710:5764   */\n      swap2\n      swap1\n      pop\n      jump\t// out\n        /* \"#utility.yul\":5770:5864   */\n    tag_106:\n        /* \"#utility.yul\":5803:5811   */\n      0x00\n        /* \"#utility.yul\":5851:5856   */\n      dup2\n        /* \"#utility.yul\":5847:5849   */\n      0x60\n        /* \"#utility.yul\":5843:5857   */\n      shl\n        /* \"#utility.yul\":5822:5857   */\n      swap1\n      pop\n        /* \"#utility.yul\":5812:5864   */\n      swap2\n      swap1\n      pop\n      jump\t// out\n        /* \"#utility.yul\":5870:5992   */\n    tag_26:\n        /* \"#utility.yul\":5943:5967   */\n      tag_112\n        /* \"#utility.yul\":5961:5966   */\n      dup2\n        /* \"#utility.yul\":5943:5967   */\n      tag_45\n      jump\t// in\n    tag_112:\n        /* \"#utility.yul\":5936:5941   */\n      dup2\n        /* \"#utility.yul\":5933:5968   */\n      eq\n        /* \"#utility.yul\":5923:5925   */\n      tag_113\n      jumpi\n        /* \"#utility.yul\":5982:5983   */\n      0x00\n        /* \"#utility.yul\":5979:5980   */\n      dup1\n        /* \"#utility.yul\":5972:5984   */\n      revert\n        /* \"#utility.yul\":5923:5925   */\n    tag_113:\n        /* \"#utility.yul\":5913:5992   */\n      pop\n      jump\t// out\n        /* \"#utility.yul\":5998:6120   */\n    tag_34:\n        /* \"#utility.yul\":6071:6095   */\n      tag_115\n        /* \"#utility.yul\":6089:6094   */\n      dup2\n        /* \"#utility.yul\":6071:6095   */\n      tag_63\n      jump\t// in\n    tag_115:\n        /* \"#utility.yul\":6064:6069   */\n      dup2\n        /* \"#utility.yul\":6061:6096   */\n      eq\n        /* \"#utility.yul\":6051:6053   */\n      tag_116\n      jumpi\n        /* \"#utility.yul\":6110:6111   */\n      0x00\n        /* \"#utility.yul\":6107:6108   */\n      dup1\n        /* \"#utility.yul\":6100:6112   */\n      revert\n        /* \"#utility.yul\":6051:6053   */\n    tag_116:\n        /* \"#utility.yul\":6041:6120   */\n      pop\n      jump\t// out\n\n    auxdata: 0xa2646970667358221220e5ccb7e2e4e7f9653107fbe94dcd06d878ce8c868d34be93a6ed3157d51ec0ab64736f6c63430008040033\n}\n",
				"bytecode": {
					"linkReferences": {},
					"object": "608060405234801561001057600080fd5b50610455806100206000396000f3fe608060405234801561001057600080fd5b506004361061002b5760003560e01c80635dda416e14610030575b600080fd5b61004a60048036038101906100459190610128565b610060565b6040516100579190610236565b60405180910390f35b6000838383604051602001610077939291906101fd565b6040516020818303038152906040528051906020012090509392505050565b60006100a96100a484610276565b610251565b9050828152602081018484840111156100c157600080fd5b6100cc848285610303565b509392505050565b6000813590506100e3816103f1565b92915050565b600082601f8301126100fa57600080fd5b813561010a848260208601610096565b91505092915050565b60008135905061012281610408565b92915050565b60008060006060848603121561013d57600080fd5b600084013567ffffffffffffffff81111561015757600080fd5b610163868287016100e9565b935050602061017486828701610113565b9250506040610185868287016100d4565b9150509250925092565b6101a061019b826102bd565b610376565b82525050565b6101af816102cf565b82525050565b60006101c0826102a7565b6101ca81856102b2565b93506101da818560208601610312565b80840191505092915050565b6101f76101f2826102f9565b61039a565b82525050565b600061020982866101b5565b915061021582856101e6565b602082019150610225828461018f565b601482019150819050949350505050565b600060208201905061024b60008301846101a6565b92915050565b600061025b61026c565b90506102678282610345565b919050565b6000604051905090565b600067ffffffffffffffff821115610291576102906103a4565b5b61029a826103d3565b9050602081019050919050565b600081519050919050565b600081905092915050565b60006102c8826102d9565b9050919050565b6000819050919050565b600073ffffffffffffffffffffffffffffffffffffffff82169050919050565b6000819050919050565b82818337600083830152505050565b60005b83811015610330578082015181840152602081019050610315565b8381111561033f576000848401525b50505050565b61034e826103d3565b810181811067ffffffffffffffff8211171561036d5761036c6103a4565b5b80604052505050565b600061038182610388565b9050919050565b6000610393826103e4565b9050919050565b6000819050919050565b7f4e487b7100000000000000000000000000000000000000000000000000000000600052604160045260246000fd5b6000601f19601f8301169050919050565b60008160601b9050919050565b6103fa816102bd565b811461040557600080fd5b50565b610411816102f9565b811461041c57600080fd5b5056fea2646970667358221220e5ccb7e2e4e7f9653107fbe94dcd06d878ce8c868d34be93a6ed3157d51ec0ab64736f6c63430008040033",
					"opcodes": "PUSH1 0x80 PUSH1 0x40 MSTORE CALLVALUE DUP1 ISZERO PUSH2 0x10 JUMPI PUSH1 0x0 DUP1 REVERT JUMPDEST POP PUSH2 0x455 DUP1 PUSH2 0x20 PUSH1 0x0 CODECOPY PUSH1 0x0 RETURN INVALID PUSH1 0x80 PUSH1 0x40 MSTORE CALLVALUE DUP1 ISZERO PUSH2 0x10 JUMPI PUSH1 0x0 DUP1 REVERT JUMPDEST POP PUSH1 0x4 CALLDATASIZE LT PUSH2 0x2B JUMPI PUSH1 0x0 CALLDATALOAD PUSH1 0xE0 SHR DUP1 PUSH4 0x5DDA416E EQ PUSH2 0x30 JUMPI JUMPDEST PUSH1 0x0 DUP1 REVERT JUMPDEST PUSH2 0x4A PUSH1 0x4 DUP1 CALLDATASIZE SUB DUP2 ADD SWAP1 PUSH2 0x45 SWAP2 SWAP1 PUSH2 0x128 JUMP JUMPDEST PUSH2 0x60 JUMP JUMPDEST PUSH1 0x40 MLOAD PUSH2 0x57 SWAP2 SWAP1 PUSH2 0x236 JUMP JUMPDEST PUSH1 0x40 MLOAD DUP1 SWAP2 SUB SWAP1 RETURN JUMPDEST PUSH1 0x0 DUP4 DUP4 DUP4 PUSH1 0x40 MLOAD PUSH1 0x20 ADD PUSH2 0x77 SWAP4 SWAP3 SWAP2 SWAP1 PUSH2 0x1FD JUMP JUMPDEST PUSH1 0x40 MLOAD PUSH1 0x20 DUP2 DUP4 SUB SUB DUP2 MSTORE SWAP1 PUSH1 0x40 MSTORE DUP1 MLOAD SWAP1 PUSH1 0x20 ADD KECCAK256 SWAP1 POP SWAP4 SWAP3 POP POP POP JUMP JUMPDEST PUSH1 0x0 PUSH2 0xA9 PUSH2 0xA4 DUP5 PUSH2 0x276 JUMP JUMPDEST PUSH2 0x251 JUMP JUMPDEST SWAP1 POP DUP3 DUP2 MSTORE PUSH1 0x20 DUP2 ADD DUP5 DUP5 DUP5 ADD GT ISZERO PUSH2 0xC1 JUMPI PUSH1 0x0 DUP1 REVERT JUMPDEST PUSH2 0xCC DUP5 DUP3 DUP6 PUSH2 0x303 JUMP JUMPDEST POP SWAP4 SWAP3 POP POP POP JUMP JUMPDEST PUSH1 0x0 DUP2 CALLDATALOAD SWAP1 POP PUSH2 0xE3 DUP2 PUSH2 0x3F1 JUMP JUMPDEST SWAP3 SWAP2 POP POP JUMP JUMPDEST PUSH1 0x0 DUP3 PUSH1 0x1F DUP4 ADD SLT PUSH2 0xFA JUMPI PUSH1 0x0 DUP1 REVERT JUMPDEST DUP2 CALLDATALOAD PUSH2 0x10A DUP5 DUP3 PUSH1 0x20 DUP7 ADD PUSH2 0x96 JUMP JUMPDEST SWAP2 POP POP SWAP3 SWAP2 POP POP JUMP JUMPDEST PUSH1 0x0 DUP2 CALLDATALOAD SWAP1 POP PUSH2 0x122 DUP2 PUSH2 0x408 JUMP JUMPDEST SWAP3 SWAP2 POP POP JUMP JUMPDEST PUSH1 0x0 DUP1 PUSH1 0x0 PUSH1 0x60 DUP5 DUP7 SUB SLT ISZERO PUSH2 0x13D JUMPI PUSH1 0x0 DUP1 REVERT JUMPDEST PUSH1 0x0 DUP5 ADD CALLDATALOAD PUSH8 0xFFFFFFFFFFFFFFFF DUP2 GT ISZERO PUSH2 0x157 JUMPI PUSH1 0x0 DUP1 REVERT JUMPDEST PUSH2 0x163 DUP7 DUP3 DUP8 ADD PUSH2 0xE9 JUMP JUMPDEST SWAP4 POP POP PUSH1 0x20 PUSH2 0x174 DUP7 DUP3 DUP8 ADD PUSH2 0x113 JUMP JUMPDEST SWAP3 POP POP PUSH1 0x40 PUSH2 0x185 DUP7 DUP3 DUP8 ADD PUSH2 0xD4 JUMP JUMPDEST SWAP2 POP POP SWAP3 POP SWAP3 POP SWAP3 JUMP JUMPDEST PUSH2 0x1A0 PUSH2 0x19B DUP3 PUSH2 0x2BD JUMP JUMPDEST PUSH2 0x376 JUMP JUMPDEST DUP3 MSTORE POP POP JUMP JUMPDEST PUSH2 0x1AF DUP2 PUSH2 0x2CF JUMP JUMPDEST DUP3 MSTORE POP POP JUMP JUMPDEST PUSH1 0x0 PUSH2 0x1C0 DUP3 PUSH2 0x2A7 JUMP JUMPDEST PUSH2 0x1CA DUP2 DUP6 PUSH2 0x2B2 JUMP JUMPDEST SWAP4 POP PUSH2 0x1DA DUP2 DUP6 PUSH1 0x20 DUP7 ADD PUSH2 0x312 JUMP JUMPDEST DUP1 DUP5 ADD SWAP2 POP POP SWAP3 SWAP2 POP POP JUMP JUMPDEST PUSH2 0x1F7 PUSH2 0x1F2 DUP3 PUSH2 0x2F9 JUMP JUMPDEST PUSH2 0x39A JUMP JUMPDEST DUP3 MSTORE POP POP JUMP JUMPDEST PUSH1 0x0 PUSH2 0x209 DUP3 DUP7 PUSH2 0x1B5 JUMP JUMPDEST SWAP2 POP PUSH2 0x215 DUP3 DUP6 PUSH2 0x1E6 JUMP JUMPDEST PUSH1 0x20 DUP3 ADD SWAP2 POP PUSH2 0x225 DUP3 DUP5 PUSH2 0x18F JUMP JUMPDEST PUSH1 0x14 DUP3 ADD SWAP2 POP DUP2 SWAP1 POP SWAP5 SWAP4 POP POP POP POP JUMP JUMPDEST PUSH1 0x0 PUSH1 0x20 DUP3 ADD SWAP1 POP PUSH2 0x24B PUSH1 0x0 DUP4 ADD DUP5 PUSH2 0x1A6 JUMP JUMPDEST SWAP3 SWAP2 POP POP JUMP JUMPDEST PUSH1 0x0 PUSH2 0x25B PUSH2 0x26C JUMP JUMPDEST SWAP1 POP PUSH2 0x267 DUP3 DUP3 PUSH2 0x345 JUMP JUMPDEST SWAP2 SWAP1 POP JUMP JUMPDEST PUSH1 0x0 PUSH1 0x40 MLOAD SWAP1 POP SWAP1 JUMP JUMPDEST PUSH1 0x0 PUSH8 0xFFFFFFFFFFFFFFFF DUP3 GT ISZERO PUSH2 0x291 JUMPI PUSH2 0x290 PUSH2 0x3A4 JUMP JUMPDEST JUMPDEST PUSH2 0x29A DUP3 PUSH2 0x3D3 JUMP JUMPDEST SWAP1 POP PUSH1 0x20 DUP2 ADD SWAP1 POP SWAP2 SWAP1 POP JUMP JUMPDEST PUSH1 0x0 DUP2 MLOAD SWAP1 POP SWAP2 SWAP1 POP JUMP JUMPDEST PUSH1 0x0 DUP2 SWAP1 POP SWAP3 SWAP2 POP POP JUMP JUMPDEST PUSH1 0x0 PUSH2 0x2C8 DUP3 PUSH2 0x2D9 JUMP JUMPDEST SWAP1 POP SWAP2 SWAP1 POP JUMP JUMPDEST PUSH1 0x0 DUP2 SWAP1 POP SWAP2 SWAP1 POP JUMP JUMPDEST PUSH1 0x0 PUSH20 0xFFFFFFFFFFFFFFFFFFFFFFFFFFFFFFFFFFFFFFFF DUP3 AND SWAP1 POP SWAP2 SWAP1 POP JUMP JUMPDEST PUSH1 0x0 DUP2 SWAP1 POP SWAP2 SWAP1 POP JUMP JUMPDEST DUP3 DUP2 DUP4 CALLDATACOPY PUSH1 0x0 DUP4 DUP4 ADD MSTORE POP POP POP JUMP JUMPDEST PUSH1 0x0 JUMPDEST DUP4 DUP2 LT ISZERO PUSH2 0x330 JUMPI DUP1 DUP3 ADD MLOAD DUP2 DUP5 ADD MSTORE PUSH1 0x20 DUP2 ADD SWAP1 POP PUSH2 0x315 JUMP JUMPDEST DUP4 DUP2 GT ISZERO PUSH2 0x33F JUMPI PUSH1 0x0 DUP5 DUP5 ADD MSTORE JUMPDEST POP POP POP POP JUMP JUMPDEST PUSH2 0x34E DUP3 PUSH2 0x3D3 JUMP JUMPDEST DUP2 ADD DUP2 DUP2 LT PUSH8 0xFFFFFFFFFFFFFFFF DUP3 GT OR ISZERO PUSH2 0x36D JUMPI PUSH2 0x36C PUSH2 0x3A4 JUMP JUMPDEST JUMPDEST DUP1 PUSH1 0x40 MSTORE POP POP POP JUMP JUMPDEST PUSH1 0x0 PUSH2 0x381 DUP3 PUSH2 0x388 JUMP JUMPDEST SWAP1 POP SWAP2 SWAP1 POP JUMP JUMPDEST PUSH1 0x0 PUSH2 0x393 DUP3 PUSH2 0x3E4 JUMP JUMPDEST SWAP1 POP SWAP2 SWAP1 POP JUMP JUMPDEST PUSH1 0x0 DUP2 SWAP1 POP SWAP2 SWAP1 POP JUMP JUMPDEST PUSH32 0x4E487B7100000000000000000000000000000000000000000000000000000000 PUSH1 0x0 MSTORE PUSH1 0x41 PUSH1 0x4 MSTORE PUSH1 0x24 PUSH1 0x0 REVERT JUMPDEST PUSH1 0x0 PUSH1 0x1F NOT PUSH1 0x1F DUP4 ADD AND SWAP1 POP SWAP2 SWAP1 POP JUMP JUMPDEST PUSH1 0x0 DUP2 PUSH1 0x60 SHL SWAP1 POP SWAP2 SWAP1 POP JUMP JUMPDEST PUSH2 0x3FA DUP2 PUSH2 0x2BD JUMP JUMPDEST DUP2 EQ PUSH2 0x405 JUMPI PUSH1 0x0 DUP1 REVERT JUMPDEST POP JUMP JUMPDEST PUSH2 0x411 DUP2 PUSH2 0x2F9 JUMP JUMPDEST DUP2 EQ PUSH2 0x41C JUMPI PUSH1 0x0 DUP1 REVERT JUMPDEST POP JUMP INVALID LOG2 PUSH5 0x6970667358 0x22 SLT KECCAK256 0xE5 0xCC 0xB7 0xE2 0xE4 0xE7 0xF9 PUSH6 0x3107FBE94DCD MOD 0xD8 PUSH25 0xCE8C868D34BE93A6ED3157D51EC0AB64736F6C634300080400 CALLER "
				},
				"gasEstimates": {
					"creation": {
						"codeDepositCost": "221800",
						"executionCost": "263",
						"totalCost": "222063"
					},
					"external": {
						"hash(string,uint256,address)": "infinite"
					}
				},
				"methodIdentifiers": {
					"hash(string,uint256,address)": "5dda416e"
				}
			},
			"userdoc": {
				"kind": "user",
				"methods": {},
				"version": 1
			}
		}
	}
}