{
	"38.sol": {
		"animalMain": {
			"abi": [
				{
					"constant": true,
					"inputs": [],
					"name": "name",
					"outputs": [
						{
							"name": "",
							"type": "string"
						}
					],
					"payable": false,
					"stateMutability": "view",
					"type": "function"
				},
				{
					"constant": false,
					"inputs": [
						{
							"name": "_to",
							"type": "address"
						},
						{
							"name": "_tokenId",
							"type": "uint256"
						}
					],
					"name": "approve",
					"outputs": [],
					"payable": false,
					"stateMutability": "nonpayable",
					"type": "function"
				},
				{
					"constant": true,
					"inputs": [
						{
							"name": "_tokenId",
							"type": "uint256"
						}
					],
					"name": "seeAnimalDna",
					"outputs": [
						{
							"name": "dna",
							"type": "bytes32"
						}
					],
					"payable": false,
					"stateMutability": "view",
					"type": "function"
				},
				{
					"constant": true,
					"inputs": [],
					"name": "totalSupply",
					"outputs": [
						{
							"name": "",
							"type": "uint256"
						}
					],
					"payable": false,
					"stateMutability": "view",
					"type": "function"
				},
				{
					"constant": false,
					"inputs": [
						{
							"name": "_from",
							"type": "address"
						},
						{
							"name": "_to",
							"type": "address"
						},
						{
							"name": "_tokenId",
							"type": "uint256"
						}
					],
					"name": "transferFrom",
					"outputs": [],
					"payable": false,
					"stateMutability": "nonpayable",
					"type": "function"
				},
				{
					"constant": true,
					"inputs": [
						{
							"name": "_tokenId",
							"type": "uint256"
						}
					],
					"name": "seeAnimalStar",
					"outputs": [
						{
							"name": "star",
							"type": "uint8"
						}
					],
					"payable": false,
					"stateMutability": "view",
					"type": "function"
				},
				{
					"constant": true,
					"inputs": [
						{
							"name": "_tokenId",
							"type": "uint256"
						}
					],
					"name": "ownerOf",
					"outputs": [
						{
							"name": "_owner",
							"type": "address"
						}
					],
					"payable": false,
					"stateMutability": "view",
					"type": "function"
				},
				{
					"constant": true,
					"inputs": [
						{
							"name": "_owner",
							"type": "address"
						}
					],
					"name": "balanceOf",
					"outputs": [
						{
							"name": "_balance",
							"type": "uint256"
						}
					],
					"payable": false,
					"stateMutability": "view",
					"type": "function"
				},
				{
					"constant": true,
					"inputs": [],
					"name": "owner",
					"outputs": [
						{
							"name": "",
							"type": "address"
						}
					],
					"payable": false,
					"stateMutability": "view",
					"type": "function"
				},
				{
					"constant": true,
					"inputs": [],
					"name": "symbol",
					"outputs": [
						{
							"name": "",
							"type": "string"
						}
					],
					"payable": false,
					"stateMutability": "view",
					"type": "function"
				},
				{
					"constant": true,
					"inputs": [
						{
							"name": "",
							"type": "uint256"
						}
					],
					"name": "animals",
					"outputs": [
						{
							"name": "dna",
							"type": "bytes32"
						},
						{
							"name": "star",
							"type": "uint8"
						},
						{
							"name": "roletype",
							"type": "uint16"
						}
					],
					"payable": false,
					"stateMutability": "view",
					"type": "function"
				},
				{
					"constant": true,
					"inputs": [
						{
							"name": "_owner",
							"type": "address"
						}
					],
					"name": "getAnimalByOwner",
					"outputs": [
						{
							"name": "",
							"type": "uint256[]"
						}
					],
					"payable": false,
					"stateMutability": "view",
					"type": "function"
				},
				{
					"constant": false,
					"inputs": [
						{
							"name": "_to",
							"type": "address"
						},
						{
							"name": "_tokenId",
							"type": "uint256"
						}
					],
					"name": "transfer",
					"outputs": [],
					"payable": false,
					"stateMutability": "nonpayable",
					"type": "function"
				},
				{
					"constant": true,
					"inputs": [],
					"name": "symbol_",
					"outputs": [
						{
							"name": "",
							"type": "string"
						}
					],
					"payable": false,
					"stateMutability": "view",
					"type": "function"
				},
				{
					"constant": false,
					"inputs": [
						{
							"name": "_tokenId",
							"type": "uint256"
						}
					],
					"name": "takeOwnership",
					"outputs": [],
					"payable": false,
					"stateMutability": "nonpayable",
					"type": "function"
				},
				{
					"constant": true,
					"inputs": [
						{
							"name": "",
							"type": "uint256"
						}
					],
					"name": "animalToOwner",
					"outputs": [
						{
							"name": "",
							"type": "address"
						}
					],
					"payable": false,
					"stateMutability": "view",
					"type": "function"
				},
				{
					"constant": true,
					"inputs": [],
					"name": "name_",
					"outputs": [
						{
							"name": "",
							"type": "string"
						}
					],
					"payable": false,
					"stateMutability": "view",
					"type": "function"
				},
				{
					"constant": true,
					"inputs": [
						{
							"name": "_tokenId",
							"type": "uint256[]"
						},
						{
							"name": "owner",
							"type": "address"
						}
					],
					"name": "checkAllOwner",
					"outputs": [
						{
							"name": "",
							"type": "bool"
						}
					],
					"payable": false,
					"stateMutability": "view",
					"type": "function"
				},
				{
					"constant": false,
					"inputs": [],
					"name": "createAnimal",
					"outputs": [],
					"payable": false,
					"stateMutability": "nonpayable",
					"type": "function"
				},
				{
					"constant": false,
					"inputs": [
						{
							"name": "newOwner",
							"type": "address"
						}
					],
					"name": "transferOwnership",
					"outputs": [],
					"payable": false,
					"stateMutability": "nonpayable",
					"type": "function"
				},
				{
					"constant": true,
					"inputs": [
						{
							"name": "_tokenId",
							"type": "uint256"
						}
					],
					"name": "seeAnimalRole",
					"outputs": [
						{
							"name": "roletype",
							"type": "uint16"
						}
					],
					"payable": false,
					"stateMutability": "view",
					"type": "function"
				},
				{
					"anonymous": false,
					"inputs": [
						{
							"indexed": true,
							"name": "_from",
							"type": "address"
						},
						{
							"indexed": true,
							"name": "_to",
							"type": "address"
						},
						{
							"indexed": true,
							"name": "_tokenId",
							"type": "uint256"
						}
					],
					"name": "Transfer",
					"type": "event"
				},
				{
					"anonymous": false,
					"inputs": [
						{
							"indexed": true,
							"name": "_from",
							"type": "address"
						},
						{
							"indexed": true,
							"name": "_to",
							"type": "address"
						},
						{
							"indexed": true,
							"name": "_tokenId",
							"type": "uint256"
						}
					],
					"name": "Approval",
					"type": "event"
				},
				{
					"anonymous": false,
					"inputs": [
						{
							"indexed": false,
							"name": "_to",
							"type": "address"
						},
						{
							"indexed": false,
							"name": "_from",
							"type": "address"
						},
						{
							"indexed": false,
							"name": "_tokenId",
							"type": "uint256"
						}
					],
					"name": "Take",
					"type": "event"
				},
				{
					"anonymous": false,
					"inputs": [
						{
							"indexed": false,
							"name": "_tokenId",
							"type": "uint256"
						},
						{
							"indexed": false,
							"name": "dna",
							"type": "bytes32"
						},
						{
							"indexed": false,
							"name": "star",
							"type": "uint8"
						},
						{
							"indexed": false,
							"name": "roletype",
							"type": "uint16"
						}
					],
					"name": "Create",
					"type": "event"
				},
				{
					"anonymous": false,
					"inputs": [
						{
							"indexed": true,
							"name": "previousOwner",
							"type": "address"
						},
						{
							"indexed": true,
							"name": "newOwner",
							"type": "address"
						}
					],
					"name": "OwnershipTransferred",
					"type": "event"
				}
			],
			"devdoc": {
				"methods": {
					"transferOwnership(address)": {
						"details": "Allows the current owner to transfer control of the contract to a newOwner.",
						"params": {
							"newOwner": "The address to transfer ownership to."
						}
					}
				}
			},
			"evm": {
				"assembly": "    /* \"38.sol\":3340:7499  contract animalMain is  ERC721,Ownable {... */\n  mstore(0x40, 0x80)\n    /* \"38.sol\":3416:3448  string public name_ = \"anitoken\" */\n  0x40\n  dup1\n  mload\n  swap1\n  dup2\n  add\n  0x40\n  mstore\n  dup1\n  0x8\n  dup2\n  mstore\n  0x20\n  add\n  0x616e69746f6b656e000000000000000000000000000000000000000000000000\n  dup2\n  mstore\n  pop\n  0x1\n  swap1\n  dup1\n  mload\n  swap1\n  0x20\n  add\n  swap1\n  tag_1\n  swap3\n  swap2\n  swap1\n  jump\t// in(tag_2)\ntag_1:\n  pop\n    /* \"38.sol\":3640:3669  string public symbol_ = \"ANI\" */\n  0x40\n  dup1\n  mload\n  swap1\n  dup2\n  add\n  0x40\n  mstore\n  dup1\n  0x3\n  dup2\n  mstore\n  0x20\n  add\n  0x414e490000000000000000000000000000000000000000000000000000000000\n  dup2\n  mstore\n  pop\n  0x3\n  swap1\n  dup1\n  mload\n  swap1\n  0x20\n  add\n  swap1\n  tag_3\n  swap3\n  swap2\n  swap1\n  jump\t// in(tag_2)\ntag_3:\n  pop\n    /* \"38.sol\":2839:2849  msg.sender */\n  caller\n    /* \"38.sol\":2831:2836  owner */\n  0x0\n  dup1\n    /* \"38.sol\":2831:2849  owner = msg.sender */\n  0x100\n  exp\n  dup2\n  sload\n  dup2\n  0xffffffffffffffffffffffffffffffffffffffff\n  mul\n  not\n  and\n  swap1\n  dup4\n  0xffffffffffffffffffffffffffffffffffffffff\n  and\n  mul\n  or\n  swap1\n  sstore\n  pop\n    /* \"38.sol\":3340:7499  contract animalMain is  ERC721,Ownable {... */\n  jump(tag_6)\ntag_2:\n  dup3\n  dup1\n  sload\n  0x1\n  dup2\n  0x1\n  and\n  iszero\n  0x100\n  mul\n  sub\n  and\n  0x2\n  swap1\n  div\n  swap1\n  0x0\n  mstore\n  keccak256(0x0, 0x20)\n  swap1\n  0x1f\n  add\n  0x20\n  swap1\n  div\n  dup2\n  add\n  swap3\n  dup3\n  0x1f\n  lt\n  tag_8\n  jumpi\n  dup1\n  mload\n  not(0xff)\n  and\n  dup4\n  dup1\n  add\n  or\n  dup6\n  sstore\n  jump(tag_7)\ntag_8:\n  dup3\n  dup1\n  add\n  0x1\n  add\n  dup6\n  sstore\n  dup3\n  iszero\n  tag_7\n  jumpi\n  swap2\n  dup3\n  add\ntag_9:\n  dup3\n  dup2\n  gt\n  iszero\n  tag_10\n  jumpi\n  dup3\n  mload\n  dup3\n  sstore\n  swap2\n  0x20\n  add\n  swap2\n  swap1\n  0x1\n  add\n  swap1\n  jump(tag_9)\ntag_10:\ntag_7:\n  pop\n  swap1\n  pop\n  tag_11\n  swap2\n  swap1\n  jump\t// in(tag_12)\ntag_11:\n  pop\n  swap1\n  jump\t// out\ntag_12:\n  tag_13\n  swap2\n  swap1\ntag_14:\n  dup1\n  dup3\n  gt\n  iszero\n  tag_15\n  jumpi\n  0x0\n  dup2\n  0x0\n  swap1\n  sstore\n  pop\n  0x1\n  add\n  jump(tag_14)\ntag_15:\n  pop\n  swap1\n  jump\ntag_13:\n  swap1\n  jump\t// out\ntag_6:\n  dataSize(sub_0)\n  dup1\n  dataOffset(sub_0)\n  0x0\n  codecopy\n  0x0\n  return\nstop\n\nsub_0: assembly {\n        /* \"38.sol\":3340:7499  contract animalMain is  ERC721,Ownable {... */\n      mstore(0x40, 0x80)\n      jumpi(tag_1, lt(calldatasize, 0x4))\n      calldataload(0x0)\n      0x100000000000000000000000000000000000000000000000000000000\n      swap1\n      div\n      0xffffffff\n      and\n      dup1\n      0x6fdde03\n      eq\n      tag_2\n      jumpi\n      dup1\n      0x95ea7b3\n      eq\n      tag_3\n      jumpi\n      dup1\n      0xc379520\n      eq\n      tag_4\n      jumpi\n      dup1\n      0x18160ddd\n      eq\n      tag_5\n      jumpi\n      dup1\n      0x23b872dd\n      eq\n      tag_6\n      jumpi\n      dup1\n      0x36363d14\n      eq\n      tag_7\n      jumpi\n      dup1\n      0x6352211e\n      eq\n      tag_8\n      jumpi\n      dup1\n      0x70a08231\n      eq\n      tag_9\n      jumpi\n      dup1\n      0x8da5cb5b\n      eq\n      tag_10\n      jumpi\n      dup1\n      0x95d89b41\n      eq\n      tag_11\n      jumpi\n      dup1\n      0x998dd3ca\n      eq\n      tag_12\n      jumpi\n      dup1\n      0x9af636e5\n      eq\n      tag_13\n      jumpi\n      dup1\n      0xa9059cbb\n      eq\n      tag_14\n      jumpi\n      dup1\n      0xaf17dea6\n      eq\n      tag_15\n      jumpi\n      dup1\n      0xb2e6ceeb\n      eq\n      tag_16\n      jumpi\n      dup1\n      0xd81c513a\n      eq\n      tag_17\n      jumpi\n      dup1\n      0xe2b9e186\n      eq\n      tag_18\n      jumpi\n      dup1\n      0xea7cabdd\n      eq\n      tag_19\n      jumpi\n      dup1\n      0xecaf39b0\n      eq\n      tag_20\n      jumpi\n      dup1\n      0xf2fde38b\n      eq\n      tag_21\n      jumpi\n      dup1\n      0xf34674d6\n      eq\n      tag_22\n      jumpi\n    tag_1:\n      0x0\n      dup1\n      revert\n        /* \"38.sol\":4343:4417  function name() external view returns (string) {... */\n    tag_2:\n      callvalue\n        /* \"--CODEGEN--\":8:17   */\n      dup1\n        /* \"--CODEGEN--\":5:7   */\n      iszero\n      tag_23\n      jumpi\n        /* \"--CODEGEN--\":30:31   */\n      0x0\n        /* \"--CODEGEN--\":27:28   */\n      dup1\n        /* \"--CODEGEN--\":20:32   */\n      revert\n        /* \"--CODEGEN--\":5:7   */\n    tag_23:\n        /* \"38.sol\":4343:4417  function name() external view returns (string) {... */\n      pop\n      tag_24\n      jump(tag_25)\n    tag_24:\n      mload(0x40)\n      dup1\n      dup1\n      0x20\n      add\n      dup3\n      dup2\n      sub\n      dup3\n      mstore\n      dup4\n      dup2\n      dup2\n      mload\n      dup2\n      mstore\n      0x20\n      add\n      swap2\n      pop\n      dup1\n      mload\n      swap1\n      0x20\n      add\n      swap1\n      dup1\n      dup4\n      dup4\n        /* \"--CODEGEN--\":23:24   */\n      0x0\n        /* \"--CODEGEN--\":8:108   */\n    tag_26:\n        /* \"--CODEGEN--\":33:36   */\n      dup4\n        /* \"--CODEGEN--\":30:31   */\n      dup2\n        /* \"--CODEGEN--\":27:37   */\n      lt\n        /* \"--CODEGEN--\":8:108   */\n      iszero\n      tag_27\n      jumpi\n        /* \"--CODEGEN--\":99:100   */\n      dup1\n        /* \"--CODEGEN--\":94:97   */\n      dup3\n        /* \"--CODEGEN--\":90:101   */\n      add\n        /* \"--CODEGEN--\":84:102   */\n      mload\n        /* \"--CODEGEN--\":80:81   */\n      dup2\n        /* \"--CODEGEN--\":75:78   */\n      dup5\n        /* \"--CODEGEN--\":71:82   */\n      add\n        /* \"--CODEGEN--\":64:103   */\n      mstore\n        /* \"--CODEGEN--\":52:54   */\n      0x20\n        /* \"--CODEGEN--\":49:50   */\n      dup2\n        /* \"--CODEGEN--\":45:55   */\n      add\n        /* \"--CODEGEN--\":40:55   */\n      swap1\n      pop\n        /* \"--CODEGEN--\":8:108   */\n      jump(tag_26)\n    tag_27:\n        /* \"--CODEGEN--\":12:26   */\n      pop\n        /* \"38.sol\":4343:4417  function name() external view returns (string) {... */\n      pop\n      pop\n      pop\n      swap1\n      pop\n      swap1\n      dup2\n      add\n      swap1\n      0x1f\n      and\n      dup1\n      iszero\n      tag_29\n      jumpi\n      dup1\n      dup3\n      sub\n      dup1\n      mload\n      0x1\n      dup4\n      0x20\n      sub\n      0x100\n      exp\n      sub\n      not\n      and\n      dup2\n      mstore\n      0x20\n      add\n      swap2\n      pop\n    tag_29:\n      pop\n      swap3\n      pop\n      pop\n      pop\n      mload(0x40)\n      dup1\n      swap2\n      sub\n      swap1\n      return\n        /* \"38.sol\":6290:6495  function approve(address _to, uint256 _tokenId) public {... */\n    tag_3:\n      callvalue\n        /* \"--CODEGEN--\":8:17   */\n      dup1\n        /* \"--CODEGEN--\":5:7   */\n      iszero\n      tag_30\n      jumpi\n        /* \"--CODEGEN--\":30:31   */\n      0x0\n        /* \"--CODEGEN--\":27:28   */\n      dup1\n        /* \"--CODEGEN--\":20:32   */\n      revert\n        /* \"--CODEGEN--\":5:7   */\n    tag_30:\n        /* \"38.sol\":6290:6495  function approve(address _to, uint256 _tokenId) public {... */\n      pop\n      tag_31\n      0x4\n      dup1\n      calldatasize\n      sub\n      dup2\n      add\n      swap1\n      dup1\n      dup1\n      calldataload\n      0xffffffffffffffffffffffffffffffffffffffff\n      and\n      swap1\n      0x20\n      add\n      swap1\n      swap3\n      swap2\n      swap1\n      dup1\n      calldataload\n      swap1\n      0x20\n      add\n      swap1\n      swap3\n      swap2\n      swap1\n      pop\n      pop\n      pop\n      jump(tag_32)\n    tag_31:\n      stop\n        /* \"38.sol\":5230:5343  function seeAnimalDna(uint256 _tokenId) public view returns (bytes32 dna) {... */\n    tag_4:\n      callvalue\n        /* \"--CODEGEN--\":8:17   */\n      dup1\n        /* \"--CODEGEN--\":5:7   */\n      iszero\n      tag_33\n      jumpi\n        /* \"--CODEGEN--\":30:31   */\n      0x0\n        /* \"--CODEGEN--\":27:28   */\n      dup1\n        /* \"--CODEGEN--\":20:32   */\n      revert\n        /* \"--CODEGEN--\":5:7   */\n    tag_33:\n        /* \"38.sol\":5230:5343  function seeAnimalDna(uint256 _tokenId) public view returns (bytes32 dna) {... */\n      pop\n      tag_34\n      0x4\n      dup1\n      calldatasize\n      sub\n      dup2\n      add\n      swap1\n      dup1\n      dup1\n      calldataload\n      swap1\n      0x20\n      add\n      swap1\n      swap3\n      swap2\n      swap1\n      pop\n      pop\n      pop\n      jump(tag_35)\n    tag_34:\n      mload(0x40)\n      dup1\n      dup3\n      not(0x0)\n      and\n      not(0x0)\n      and\n      dup2\n      mstore\n      0x20\n      add\n      swap2\n      pop\n      pop\n      mload(0x40)\n      dup1\n      swap2\n      sub\n      swap1\n      return\n        /* \"38.sol\":4503:4588  function totalSupply() public view returns (uint256) {... */\n    tag_5:\n      callvalue\n        /* \"--CODEGEN--\":8:17   */\n      dup1\n        /* \"--CODEGEN--\":5:7   */\n      iszero\n      tag_36\n      jumpi\n        /* \"--CODEGEN--\":30:31   */\n      0x0\n        /* \"--CODEGEN--\":27:28   */\n      dup1\n        /* \"--CODEGEN--\":20:32   */\n      revert\n        /* \"--CODEGEN--\":5:7   */\n    tag_36:\n        /* \"38.sol\":4503:4588  function totalSupply() public view returns (uint256) {... */\n      pop\n      tag_37\n      jump(tag_38)\n    tag_37:\n      mload(0x40)\n      dup1\n      dup3\n      dup2\n      mstore\n      0x20\n      add\n      swap2\n      pop\n      pop\n      mload(0x40)\n      dup1\n      swap2\n      sub\n      swap1\n      return\n        /* \"38.sol\":6499:6693  function transferFrom(address _from, address _to, uint256 _tokenId) external {... */\n    tag_6:\n      callvalue\n        /* \"--CODEGEN--\":8:17   */\n      dup1\n        /* \"--CODEGEN--\":5:7   */\n      iszero\n      tag_39\n      jumpi\n        /* \"--CODEGEN--\":30:31   */\n      0x0\n        /* \"--CODEGEN--\":27:28   */\n      dup1\n        /* \"--CODEGEN--\":20:32   */\n      revert\n        /* \"--CODEGEN--\":5:7   */\n    tag_39:\n        /* \"38.sol\":6499:6693  function transferFrom(address _from, address _to, uint256 _tokenId) external {... */\n      pop\n      tag_40\n      0x4\n      dup1\n      calldatasize\n      sub\n      dup2\n      add\n      swap1\n      dup1\n      dup1\n      calldataload\n      0xffffffffffffffffffffffffffffffffffffffff\n      and\n      swap1\n      0x20\n      add\n      swap1\n      swap3\n      swap2\n      swap1\n      dup1\n      calldataload\n      0xffffffffffffffffffffffffffffffffffffffff\n      and\n      swap1\n      0x20\n      add\n      swap1\n      swap3\n      swap2\n      swap1\n      dup1\n      calldataload\n      swap1\n      0x20\n      add\n      swap1\n      swap3\n      swap2\n      swap1\n      pop\n      pop\n      pop\n      jump(tag_41)\n    tag_40:\n      stop\n        /* \"38.sol\":5347:5461  function seeAnimalStar(uint256 _tokenId) public view returns (uint8 star) {... */\n    tag_7:\n      callvalue\n        /* \"--CODEGEN--\":8:17   */\n      dup1\n        /* \"--CODEGEN--\":5:7   */\n      iszero\n      tag_42\n      jumpi\n        /* \"--CODEGEN--\":30:31   */\n      0x0\n        /* \"--CODEGEN--\":27:28   */\n      dup1\n        /* \"--CODEGEN--\":20:32   */\n      revert\n        /* \"--CODEGEN--\":5:7   */\n    tag_42:\n        /* \"38.sol\":5347:5461  function seeAnimalStar(uint256 _tokenId) public view returns (uint8 star) {... */\n      pop\n      tag_43\n      0x4\n      dup1\n      calldatasize\n      sub\n      dup2\n      add\n      swap1\n      dup1\n      dup1\n      calldataload\n      swap1\n      0x20\n      add\n      swap1\n      swap3\n      swap2\n      swap1\n      pop\n      pop\n      pop\n      jump(tag_44)\n    tag_43:\n      mload(0x40)\n      dup1\n      dup3\n      0xff\n      and\n      0xff\n      and\n      dup2\n      mstore\n      0x20\n      add\n      swap2\n      pop\n      pop\n      mload(0x40)\n      dup1\n      swap2\n      sub\n      swap1\n      return\n        /* \"38.sol\":4753:4910  function ownerOf(uint256 _tokenId) public view returns (address _owner) {... */\n    tag_8:\n      callvalue\n        /* \"--CODEGEN--\":8:17   */\n      dup1\n        /* \"--CODEGEN--\":5:7   */\n      iszero\n      tag_45\n      jumpi\n        /* \"--CODEGEN--\":30:31   */\n      0x0\n        /* \"--CODEGEN--\":27:28   */\n      dup1\n        /* \"--CODEGEN--\":20:32   */\n      revert\n        /* \"--CODEGEN--\":5:7   */\n    tag_45:\n        /* \"38.sol\":4753:4910  function ownerOf(uint256 _tokenId) public view returns (address _owner) {... */\n      pop\n      tag_46\n      0x4\n      dup1\n      calldatasize\n      sub\n      dup2\n      add\n      swap1\n      dup1\n      dup1\n      calldataload\n      swap1\n      0x20\n      add\n      swap1\n      swap3\n      swap2\n      swap1\n      pop\n      pop\n      pop\n      jump(tag_47)\n    tag_46:\n      mload(0x40)\n      dup1\n      dup3\n      0xffffffffffffffffffffffffffffffffffffffff\n      and\n      0xffffffffffffffffffffffffffffffffffffffff\n      and\n      dup2\n      mstore\n      0x20\n      add\n      swap2\n      pop\n      pop\n      mload(0x40)\n      dup1\n      swap2\n      sub\n      swap1\n      return\n        /* \"38.sol\":4592:4749  function balanceOf(address _owner) public view returns (uint256 _balance) {... */\n    tag_9:\n      callvalue\n        /* \"--CODEGEN--\":8:17   */\n      dup1\n        /* \"--CODEGEN--\":5:7   */\n      iszero\n      tag_48\n      jumpi\n        /* \"--CODEGEN--\":30:31   */\n      0x0\n        /* \"--CODEGEN--\":27:28   */\n      dup1\n        /* \"--CODEGEN--\":20:32   */\n      revert\n        /* \"--CODEGEN--\":5:7   */\n    tag_48:\n        /* \"38.sol\":4592:4749  function balanceOf(address _owner) public view returns (uint256 _balance) {... */\n      pop\n      tag_49\n      0x4\n      dup1\n      calldatasize\n      sub\n      dup2\n      add\n      swap1\n      dup1\n      dup1\n      calldataload\n      0xffffffffffffffffffffffffffffffffffffffff\n      and\n      swap1\n      0x20\n      add\n      swap1\n      swap3\n      swap2\n      swap1\n      pop\n      pop\n      pop\n      jump(tag_50)\n    tag_49:\n      mload(0x40)\n      dup1\n      dup3\n      dup2\n      mstore\n      0x20\n      add\n      swap2\n      pop\n      pop\n      mload(0x40)\n      dup1\n      swap2\n      sub\n      swap1\n      return\n        /* \"38.sol\":2570:2590  address public owner */\n    tag_10:\n      callvalue\n        /* \"--CODEGEN--\":8:17   */\n      dup1\n        /* \"--CODEGEN--\":5:7   */\n      iszero\n      tag_51\n      jumpi\n        /* \"--CODEGEN--\":30:31   */\n      0x0\n        /* \"--CODEGEN--\":27:28   */\n      dup1\n        /* \"--CODEGEN--\":20:32   */\n      revert\n        /* \"--CODEGEN--\":5:7   */\n    tag_51:\n        /* \"38.sol\":2570:2590  address public owner */\n      pop\n      tag_52\n      jump(tag_53)\n    tag_52:\n      mload(0x40)\n      dup1\n      dup3\n      0xffffffffffffffffffffffffffffffffffffffff\n      and\n      0xffffffffffffffffffffffffffffffffffffffff\n      and\n      dup2\n      mstore\n      0x20\n      add\n      swap2\n      pop\n      pop\n      mload(0x40)\n      dup1\n      swap2\n      sub\n      swap1\n      return\n        /* \"38.sol\":4421:4499  function symbol() external view returns (string) {... */\n    tag_11:\n      callvalue\n        /* \"--CODEGEN--\":8:17   */\n      dup1\n        /* \"--CODEGEN--\":5:7   */\n      iszero\n      tag_54\n      jumpi\n        /* \"--CODEGEN--\":30:31   */\n      0x0\n        /* \"--CODEGEN--\":27:28   */\n      dup1\n        /* \"--CODEGEN--\":20:32   */\n      revert\n        /* \"--CODEGEN--\":5:7   */\n    tag_54:\n        /* \"38.sol\":4421:4499  function symbol() external view returns (string) {... */\n      pop\n      tag_55\n      jump(tag_56)\n    tag_55:\n      mload(0x40)\n      dup1\n      dup1\n      0x20\n      add\n      dup3\n      dup2\n      sub\n      dup3\n      mstore\n      dup4\n      dup2\n      dup2\n      mload\n      dup2\n      mstore\n      0x20\n      add\n      swap2\n      pop\n      dup1\n      mload\n      swap1\n      0x20\n      add\n      swap1\n      dup1\n      dup4\n      dup4\n        /* \"--CODEGEN--\":23:24   */\n      0x0\n        /* \"--CODEGEN--\":8:108   */\n    tag_57:\n        /* \"--CODEGEN--\":33:36   */\n      dup4\n        /* \"--CODEGEN--\":30:31   */\n      dup2\n        /* \"--CODEGEN--\":27:37   */\n      lt\n        /* \"--CODEGEN--\":8:108   */\n      iszero\n      tag_58\n      jumpi\n        /* \"--CODEGEN--\":99:100   */\n      dup1\n        /* \"--CODEGEN--\":94:97   */\n      dup3\n        /* \"--CODEGEN--\":90:101   */\n      add\n        /* \"--CODEGEN--\":84:102   */\n      mload\n        /* \"--CODEGEN--\":80:81   */\n      dup2\n        /* \"--CODEGEN--\":75:78   */\n      dup5\n        /* \"--CODEGEN--\":71:82   */\n      add\n        /* \"--CODEGEN--\":64:103   */\n      mstore\n        /* \"--CODEGEN--\":52:54   */\n      0x20\n        /* \"--CODEGEN--\":49:50   */\n      dup2\n        /* \"--CODEGEN--\":45:55   */\n      add\n        /* \"--CODEGEN--\":40:55   */\n      swap1\n      pop\n        /* \"--CODEGEN--\":8:108   */\n      jump(tag_57)\n    tag_58:\n        /* \"--CODEGEN--\":12:26   */\n      pop\n        /* \"38.sol\":4421:4499  function symbol() external view returns (string) {... */\n      pop\n      pop\n      pop\n      swap1\n      pop\n      swap1\n      dup2\n      add\n      swap1\n      0x1f\n      and\n      dup1\n      iszero\n      tag_60\n      jumpi\n      dup1\n      dup3\n      sub\n      dup1\n      mload\n      0x1\n      dup4\n      0x20\n      sub\n      0x100\n      exp\n      sub\n      not\n      and\n      dup2\n      mstore\n      0x20\n      add\n      swap2\n      pop\n    tag_60:\n      pop\n      swap3\n      pop\n      pop\n      pop\n      mload(0x40)\n      dup1\n      swap2\n      sub\n      swap1\n      return\n        /* \"38.sol\":3613:3636  animal[] public animals */\n    tag_12:\n      callvalue\n        /* \"--CODEGEN--\":8:17   */\n      dup1\n        /* \"--CODEGEN--\":5:7   */\n      iszero\n      tag_61\n      jumpi\n        /* \"--CODEGEN--\":30:31   */\n      0x0\n        /* \"--CODEGEN--\":27:28   */\n      dup1\n        /* \"--CODEGEN--\":20:32   */\n      revert\n        /* \"--CODEGEN--\":5:7   */\n    tag_61:\n        /* \"38.sol\":3613:3636  animal[] public animals */\n      pop\n      tag_62\n      0x4\n      dup1\n      calldatasize\n      sub\n      dup2\n      add\n      swap1\n      dup1\n      dup1\n      calldataload\n      swap1\n      0x20\n      add\n      swap1\n      swap3\n      swap2\n      swap1\n      pop\n      pop\n      pop\n      jump(tag_63)\n    tag_62:\n      mload(0x40)\n      dup1\n      dup5\n      not(0x0)\n      and\n      not(0x0)\n      and\n      dup2\n      mstore\n      0x20\n      add\n      dup4\n      0xff\n      and\n      0xff\n      and\n      dup2\n      mstore\n      0x20\n      add\n      dup3\n      0xffff\n      and\n      0xffff\n      and\n      dup2\n      mstore\n      0x20\n      add\n      swap4\n      pop\n      pop\n      pop\n      pop\n      mload(0x40)\n      dup1\n      swap2\n      sub\n      swap1\n      return\n        /* \"38.sol\":5594:5973  function getAnimalByOwner(address _owner) external view returns(uint[]) { //此方法回傳所有帳戶內的\"動物ID\"... */\n    tag_13:\n      callvalue\n        /* \"--CODEGEN--\":8:17   */\n      dup1\n        /* \"--CODEGEN--\":5:7   */\n      iszero\n      tag_64\n      jumpi\n        /* \"--CODEGEN--\":30:31   */\n      0x0\n        /* \"--CODEGEN--\":27:28   */\n      dup1\n        /* \"--CODEGEN--\":20:32   */\n      revert\n        /* \"--CODEGEN--\":5:7   */\n    tag_64:\n        /* \"38.sol\":5594:5973  function getAnimalByOwner(address _owner) external view returns(uint[]) { //此方法回傳所有帳戶內的\"動物ID\"... */\n      pop\n      tag_65\n      0x4\n      dup1\n      calldatasize\n      sub\n      dup2\n      add\n      swap1\n      dup1\n      dup1\n      calldataload\n      0xffffffffffffffffffffffffffffffffffffffff\n      and\n      swap1\n      0x20\n      add\n      swap1\n      swap3\n      swap2\n      swap1\n      pop\n      pop\n      pop\n      jump(tag_66)\n    tag_65:\n      mload(0x40)\n      dup1\n      dup1\n      0x20\n      add\n      dup3\n      dup2\n      sub\n      dup3\n      mstore\n      dup4\n      dup2\n      dup2\n      mload\n      dup2\n      mstore\n      0x20\n      add\n      swap2\n      pop\n      dup1\n      mload\n      swap1\n      0x20\n      add\n      swap1\n      0x20\n      mul\n      dup1\n      dup4\n      dup4\n        /* \"--CODEGEN--\":23:24   */\n      0x0\n        /* \"--CODEGEN--\":8:108   */\n    tag_67:\n        /* \"--CODEGEN--\":33:36   */\n      dup4\n        /* \"--CODEGEN--\":30:31   */\n      dup2\n        /* \"--CODEGEN--\":27:37   */\n      lt\n        /* \"--CODEGEN--\":8:108   */\n      iszero\n      tag_68\n      jumpi\n        /* \"--CODEGEN--\":99:100   */\n      dup1\n        /* \"--CODEGEN--\":94:97   */\n      dup3\n        /* \"--CODEGEN--\":90:101   */\n      add\n        /* \"--CODEGEN--\":84:102   */\n      mload\n        /* \"--CODEGEN--\":80:81   */\n      dup2\n        /* \"--CODEGEN--\":75:78   */\n      dup5\n        /* \"--CODEGEN--\":71:82   */\n      add\n        /* \"--CODEGEN--\":64:103   */\n      mstore\n        /* \"--CODEGEN--\":52:54   */\n      0x20\n        /* \"--CODEGEN--\":49:50   */\n      dup2\n        /* \"--CODEGEN--\":45:55   */\n      add\n        /* \"--CODEGEN--\":40:55   */\n      swap1\n      pop\n        /* \"--CODEGEN--\":8:108   */\n      jump(tag_67)\n    tag_68:\n        /* \"--CODEGEN--\":12:26   */\n      pop\n        /* \"38.sol\":5594:5973  function getAnimalByOwner(address _owner) external view returns(uint[]) { //此方法回傳所有帳戶內的\"動物ID\"... */\n      pop\n      pop\n      pop\n      swap1\n      pop\n      add\n      swap3\n      pop\n      pop\n      pop\n      mload(0x40)\n      dup1\n      swap2\n      sub\n      swap1\n      return\n        /* \"38.sol\":5977:6286  function transfer(address _to, uint256 _tokenId) public {... */\n    tag_14:\n      callvalue\n        /* \"--CODEGEN--\":8:17   */\n      dup1\n        /* \"--CODEGEN--\":5:7   */\n      iszero\n      tag_70\n      jumpi\n        /* \"--CODEGEN--\":30:31   */\n      0x0\n        /* \"--CODEGEN--\":27:28   */\n      dup1\n        /* \"--CODEGEN--\":20:32   */\n      revert\n        /* \"--CODEGEN--\":5:7   */\n    tag_70:\n        /* \"38.sol\":5977:6286  function transfer(address _to, uint256 _tokenId) public {... */\n      pop\n      tag_71\n      0x4\n      dup1\n      calldatasize\n      sub\n      dup2\n      add\n      swap1\n      dup1\n      dup1\n      calldataload\n      0xffffffffffffffffffffffffffffffffffffffff\n      and\n      swap1\n      0x20\n      add\n      swap1\n      swap3\n      swap2\n      swap1\n      dup1\n      calldataload\n      swap1\n      0x20\n      add\n      swap1\n      swap3\n      swap2\n      swap1\n      pop\n      pop\n      pop\n      jump(tag_72)\n    tag_71:\n      stop\n        /* \"38.sol\":3640:3669  string public symbol_ = \"ANI\" */\n    tag_15:\n      callvalue\n        /* \"--CODEGEN--\":8:17   */\n      dup1\n        /* \"--CODEGEN--\":5:7   */\n      iszero\n      tag_73\n      jumpi\n        /* \"--CODEGEN--\":30:31   */\n      0x0\n        /* \"--CODEGEN--\":27:28   */\n      dup1\n        /* \"--CODEGEN--\":20:32   */\n      revert\n        /* \"--CODEGEN--\":5:7   */\n    tag_73:\n        /* \"38.sol\":3640:3669  string public symbol_ = \"ANI\" */\n      pop\n      tag_74\n      jump(tag_75)\n    tag_74:\n      mload(0x40)\n      dup1\n      dup1\n      0x20\n      add\n      dup3\n      dup2\n      sub\n      dup3\n      mstore\n      dup4\n      dup2\n      dup2\n      mload\n      dup2\n      mstore\n      0x20\n      add\n      swap2\n      pop\n      dup1\n      mload\n      swap1\n      0x20\n      add\n      swap1\n      dup1\n      dup4\n      dup4\n        /* \"--CODEGEN--\":23:24   */\n      0x0\n        /* \"--CODEGEN--\":8:108   */\n    tag_76:\n        /* \"--CODEGEN--\":33:36   */\n      dup4\n        /* \"--CODEGEN--\":30:31   */\n      dup2\n        /* \"--CODEGEN--\":27:37   */\n      lt\n        /* \"--CODEGEN--\":8:108   */\n      iszero\n      tag_77\n      jumpi\n        /* \"--CODEGEN--\":99:100   */\n      dup1\n        /* \"--CODEGEN--\":94:97   */\n      dup3\n        /* \"--CODEGEN--\":90:101   */\n      add\n        /* \"--CODEGEN--\":84:102   */\n      mload\n        /* \"--CODEGEN--\":80:81   */\n      dup2\n        /* \"--CODEGEN--\":75:78   */\n      dup5\n        /* \"--CODEGEN--\":71:82   */\n      add\n        /* \"--CODEGEN--\":64:103   */\n      mstore\n        /* \"--CODEGEN--\":52:54   */\n      0x20\n        /* \"--CODEGEN--\":49:50   */\n      dup2\n        /* \"--CODEGEN--\":45:55   */\n      add\n        /* \"--CODEGEN--\":40:55   */\n      swap1\n      pop\n        /* \"--CODEGEN--\":8:108   */\n      jump(tag_76)\n    tag_77:\n        /* \"--CODEGEN--\":12:26   */\n      pop\n        /* \"38.sol\":3640:3669  string public symbol_ = \"ANI\" */\n      pop\n      pop\n      pop\n      swap1\n      pop\n      swap1\n      dup2\n      add\n      swap1\n      0x1f\n      and\n      dup1\n      iszero\n      tag_79\n      jumpi\n      dup1\n      dup3\n      sub\n      dup1\n      mload\n      0x1\n      dup4\n      0x20\n      sub\n      0x100\n      exp\n      sub\n      not\n      and\n      dup2\n      mstore\n      0x20\n      add\n      swap2\n      pop\n    tag_79:\n      pop\n      swap3\n      pop\n      pop\n      pop\n      mload(0x40)\n      dup1\n      swap2\n      sub\n      swap1\n      return\n        /* \"38.sol\":6697:7072  function takeOwnership(uint256 _tokenId) public {... */\n    tag_16:\n      callvalue\n        /* \"--CODEGEN--\":8:17   */\n      dup1\n        /* \"--CODEGEN--\":5:7   */\n      iszero\n      tag_80\n      jumpi\n        /* \"--CODEGEN--\":30:31   */\n      0x0\n        /* \"--CODEGEN--\":27:28   */\n      dup1\n        /* \"--CODEGEN--\":20:32   */\n      revert\n        /* \"--CODEGEN--\":5:7   */\n    tag_80:\n        /* \"38.sol\":6697:7072  function takeOwnership(uint256 _tokenId) public {... */\n      pop\n      tag_81\n      0x4\n      dup1\n      calldatasize\n      sub\n      dup2\n      add\n      swap1\n      dup1\n      dup1\n      calldataload\n      swap1\n      0x20\n      add\n      swap1\n      swap3\n      swap2\n      swap1\n      pop\n      pop\n      pop\n      jump(tag_82)\n    tag_81:\n      stop\n        /* \"38.sol\":3723:3769  mapping (uint => address) public animalToOwner */\n    tag_17:\n      callvalue\n        /* \"--CODEGEN--\":8:17   */\n      dup1\n        /* \"--CODEGEN--\":5:7   */\n      iszero\n      tag_83\n      jumpi\n        /* \"--CODEGEN--\":30:31   */\n      0x0\n        /* \"--CODEGEN--\":27:28   */\n      dup1\n        /* \"--CODEGEN--\":20:32   */\n      revert\n        /* \"--CODEGEN--\":5:7   */\n    tag_83:\n        /* \"38.sol\":3723:3769  mapping (uint => address) public animalToOwner */\n      pop\n      tag_84\n      0x4\n      dup1\n      calldatasize\n      sub\n      dup2\n      add\n      swap1\n      dup1\n      dup1\n      calldataload\n      swap1\n      0x20\n      add\n      swap1\n      swap3\n      swap2\n      swap1\n      pop\n      pop\n      pop\n      jump(tag_85)\n    tag_84:\n      mload(0x40)\n      dup1\n      dup3\n      0xffffffffffffffffffffffffffffffffffffffff\n      and\n      0xffffffffffffffffffffffffffffffffffffffff\n      and\n      dup2\n      mstore\n      0x20\n      add\n      swap2\n      pop\n      pop\n      mload(0x40)\n      dup1\n      swap2\n      sub\n      swap1\n      return\n        /* \"38.sol\":3416:3448  string public name_ = \"anitoken\" */\n    tag_18:\n      callvalue\n        /* \"--CODEGEN--\":8:17   */\n      dup1\n        /* \"--CODEGEN--\":5:7   */\n      iszero\n      tag_86\n      jumpi\n        /* \"--CODEGEN--\":30:31   */\n      0x0\n        /* \"--CODEGEN--\":27:28   */\n      dup1\n        /* \"--CODEGEN--\":20:32   */\n      revert\n        /* \"--CODEGEN--\":5:7   */\n    tag_86:\n        /* \"38.sol\":3416:3448  string public name_ = \"anitoken\" */\n      pop\n      tag_87\n      jump(tag_88)\n    tag_87:\n      mload(0x40)\n      dup1\n      dup1\n      0x20\n      add\n      dup3\n      dup2\n      sub\n      dup3\n      mstore\n      dup4\n      dup2\n      dup2\n      mload\n      dup2\n      mstore\n      0x20\n      add\n      swap2\n      pop\n      dup1\n      mload\n      swap1\n      0x20\n      add\n      swap1\n      dup1\n      dup4\n      dup4\n        /* \"--CODEGEN--\":23:24   */\n      0x0\n        /* \"--CODEGEN--\":8:108   */\n    tag_89:\n        /* \"--CODEGEN--\":33:36   */\n      dup4\n        /* \"--CODEGEN--\":30:31   */\n      dup2\n        /* \"--CODEGEN--\":27:37   */\n      lt\n        /* \"--CODEGEN--\":8:108   */\n      iszero\n      tag_90\n      jumpi\n        /* \"--CODEGEN--\":99:100   */\n      dup1\n        /* \"--CODEGEN--\":94:97   */\n      dup3\n        /* \"--CODEGEN--\":90:101   */\n      add\n        /* \"--CODEGEN--\":84:102   */\n      mload\n        /* \"--CODEGEN--\":80:81   */\n      dup2\n        /* \"--CODEGEN--\":75:78   */\n      dup5\n        /* \"--CODEGEN--\":71:82   */\n      add\n        /* \"--CODEGEN--\":64:103   */\n      mstore\n        /* \"--CODEGEN--\":52:54   */\n      0x20\n        /* \"--CODEGEN--\":49:50   */\n      dup2\n        /* \"--CODEGEN--\":45:55   */\n      add\n        /* \"--CODEGEN--\":40:55   */\n      swap1\n      pop\n        /* \"--CODEGEN--\":8:108   */\n      jump(tag_89)\n    tag_90:\n        /* \"--CODEGEN--\":12:26   */\n      pop\n        /* \"38.sol\":3416:3448  string public name_ = \"anitoken\" */\n      pop\n      pop\n      pop\n      swap1\n      pop\n      swap1\n      dup2\n      add\n      swap1\n      0x1f\n      and\n      dup1\n      iszero\n      tag_92\n      jumpi\n      dup1\n      dup3\n      sub\n      dup1\n      mload\n      0x1\n      dup4\n      0x20\n      sub\n      0x100\n      exp\n      sub\n      not\n      and\n      dup2\n      mstore\n      0x20\n      add\n      swap2\n      pop\n    tag_92:\n      pop\n      swap3\n      pop\n      pop\n      pop\n      mload(0x40)\n      dup1\n      swap2\n      sub\n      swap1\n      return\n        /* \"38.sol\":4914:5226  function checkAllOwner(uint256[] _tokenId, address owner) public view returns (bool) {... */\n    tag_19:\n      callvalue\n        /* \"--CODEGEN--\":8:17   */\n      dup1\n        /* \"--CODEGEN--\":5:7   */\n      iszero\n      tag_93\n      jumpi\n        /* \"--CODEGEN--\":30:31   */\n      0x0\n        /* \"--CODEGEN--\":27:28   */\n      dup1\n        /* \"--CODEGEN--\":20:32   */\n      revert\n        /* \"--CODEGEN--\":5:7   */\n    tag_93:\n        /* \"38.sol\":4914:5226  function checkAllOwner(uint256[] _tokenId, address owner) public view returns (bool) {... */\n      pop\n      tag_94\n      0x4\n      dup1\n      calldatasize\n      sub\n      dup2\n      add\n      swap1\n      dup1\n      dup1\n      calldataload\n      swap1\n      0x20\n      add\n      swap1\n      dup3\n      add\n      dup1\n      calldataload\n      swap1\n      0x20\n      add\n      swap1\n      dup1\n      dup1\n      0x20\n      mul\n      0x20\n      add\n      mload(0x40)\n      swap1\n      dup2\n      add\n      0x40\n      mstore\n      dup1\n      swap4\n      swap3\n      swap2\n      swap1\n      dup2\n      dup2\n      mstore\n      0x20\n      add\n      dup4\n      dup4\n      0x20\n      mul\n      dup1\n      dup3\n      dup5\n      calldatacopy\n      dup3\n      add\n      swap2\n      pop\n      pop\n      pop\n      pop\n      pop\n      pop\n      swap2\n      swap3\n      swap2\n      swap3\n      swap1\n      dup1\n      calldataload\n      0xffffffffffffffffffffffffffffffffffffffff\n      and\n      swap1\n      0x20\n      add\n      swap1\n      swap3\n      swap2\n      swap1\n      pop\n      pop\n      pop\n      jump(tag_95)\n    tag_94:\n      mload(0x40)\n      dup1\n      dup3\n      iszero\n      iszero\n      iszero\n      iszero\n      dup2\n      mstore\n      0x20\n      add\n      swap2\n      pop\n      pop\n      mload(0x40)\n      dup1\n      swap2\n      sub\n      swap1\n      return\n        /* \"38.sol\":7078:7494  function createAnimal() public {... */\n    tag_20:\n      callvalue\n        /* \"--CODEGEN--\":8:17   */\n      dup1\n        /* \"--CODEGEN--\":5:7   */\n      iszero\n      tag_96\n      jumpi\n        /* \"--CODEGEN--\":30:31   */\n      0x0\n        /* \"--CODEGEN--\":27:28   */\n      dup1\n        /* \"--CODEGEN--\":20:32   */\n      revert\n        /* \"--CODEGEN--\":5:7   */\n    tag_96:\n        /* \"38.sol\":7078:7494  function createAnimal() public {... */\n      pop\n      tag_97\n      jump(tag_98)\n    tag_97:\n      stop\n        /* \"38.sol\":3164:3333  function transferOwnership(address newOwner) public onlyOwner {... */\n    tag_21:\n      callvalue\n        /* \"--CODEGEN--\":8:17   */\n      dup1\n        /* \"--CODEGEN--\":5:7   */\n      iszero\n      tag_99\n      jumpi\n        /* \"--CODEGEN--\":30:31   */\n      0x0\n        /* \"--CODEGEN--\":27:28   */\n      dup1\n        /* \"--CODEGEN--\":20:32   */\n      revert\n        /* \"--CODEGEN--\":5:7   */\n    tag_99:\n        /* \"38.sol\":3164:3333  function transferOwnership(address newOwner) public onlyOwner {... */\n      pop\n      tag_100\n      0x4\n      dup1\n      calldatasize\n      sub\n      dup2\n      add\n      swap1\n      dup1\n      dup1\n      calldataload\n      0xffffffffffffffffffffffffffffffffffffffff\n      and\n      swap1\n      0x20\n      add\n      swap1\n      swap3\n      swap2\n      swap1\n      pop\n      pop\n      pop\n      jump(tag_101)\n    tag_100:\n      stop\n        /* \"38.sol\":5467:5590  function seeAnimalRole(uint256 _tokenId) public view returns (uint16 roletype) {... */\n    tag_22:\n      callvalue\n        /* \"--CODEGEN--\":8:17   */\n      dup1\n        /* \"--CODEGEN--\":5:7   */\n      iszero\n      tag_102\n      jumpi\n        /* \"--CODEGEN--\":30:31   */\n      0x0\n        /* \"--CODEGEN--\":27:28   */\n      dup1\n        /* \"--CODEGEN--\":20:32   */\n      revert\n        /* \"--CODEGEN--\":5:7   */\n    tag_102:\n        /* \"38.sol\":5467:5590  function seeAnimalRole(uint256 _tokenId) public view returns (uint16 roletype) {... */\n      pop\n      tag_103\n      0x4\n      dup1\n      calldatasize\n      sub\n      dup2\n      add\n      swap1\n      dup1\n      dup1\n      calldataload\n      swap1\n      0x20\n      add\n      swap1\n      swap3\n      swap2\n      swap1\n      pop\n      pop\n      pop\n      jump(tag_104)\n    tag_103:\n      mload(0x40)\n      dup1\n      dup3\n      0xffff\n      and\n      0xffff\n      and\n      dup2\n      mstore\n      0x20\n      add\n      swap2\n      pop\n      pop\n      mload(0x40)\n      dup1\n      swap2\n      sub\n      swap1\n      return\n        /* \"38.sol\":4343:4417  function name() external view returns (string) {... */\n    tag_25:\n        /* \"38.sol\":4382:4388  string */\n      0x60\n        /* \"38.sol\":4407:4412  name_ */\n      0x1\n        /* \"38.sol\":4400:4412  return name_ */\n      dup1\n      sload\n      0x1\n      dup2\n      0x1\n      and\n      iszero\n      0x100\n      mul\n      sub\n      and\n      0x2\n      swap1\n      div\n      dup1\n      0x1f\n      add\n      0x20\n      dup1\n      swap2\n      div\n      mul\n      0x20\n      add\n      mload(0x40)\n      swap1\n      dup2\n      add\n      0x40\n      mstore\n      dup1\n      swap3\n      swap2\n      swap1\n      dup2\n      dup2\n      mstore\n      0x20\n      add\n      dup3\n      dup1\n      sload\n      0x1\n      dup2\n      0x1\n      and\n      iszero\n      0x100\n      mul\n      sub\n      and\n      0x2\n      swap1\n      div\n      dup1\n      iszero\n      tag_106\n      jumpi\n      dup1\n      0x1f\n      lt\n      tag_107\n      jumpi\n      0x100\n      dup1\n      dup4\n      sload\n      div\n      mul\n      dup4\n      mstore\n      swap2\n      0x20\n      add\n      swap2\n      jump(tag_106)\n    tag_107:\n      dup3\n      add\n      swap2\n      swap1\n      0x0\n      mstore\n      keccak256(0x0, 0x20)\n      swap1\n    tag_108:\n      dup2\n      sload\n      dup2\n      mstore\n      swap1\n      0x1\n      add\n      swap1\n      0x20\n      add\n      dup1\n      dup4\n      gt\n      tag_108\n      jumpi\n      dup3\n      swap1\n      sub\n      0x1f\n      and\n      dup3\n      add\n      swap2\n    tag_106:\n      pop\n      pop\n      pop\n      pop\n      pop\n      swap1\n      pop\n        /* \"38.sol\":4343:4417  function name() external view returns (string) {... */\n      swap1\n      jump\t// out\n        /* \"38.sol\":6290:6495  function approve(address _to, uint256 _tokenId) public {... */\n    tag_32:\n        /* \"38.sol\":6386:6396  msg.sender */\n      caller\n        /* \"38.sol\":6359:6396  animalToOwner[_tokenId] == msg.sender */\n      0xffffffffffffffffffffffffffffffffffffffff\n      and\n        /* \"38.sol\":6359:6372  animalToOwner */\n      0x4\n        /* \"38.sol\":6359:6382  animalToOwner[_tokenId] */\n      0x0\n        /* \"38.sol\":6373:6381  _tokenId */\n      dup4\n        /* \"38.sol\":6359:6382  animalToOwner[_tokenId] */\n      dup2\n      mstore\n      0x20\n      add\n      swap1\n      dup2\n      mstore\n      0x20\n      add\n      0x0\n      keccak256\n      0x0\n      swap1\n      sload\n      swap1\n      0x100\n      exp\n      swap1\n      div\n      0xffffffffffffffffffffffffffffffffffffffff\n      and\n        /* \"38.sol\":6359:6396  animalToOwner[_tokenId] == msg.sender */\n      0xffffffffffffffffffffffffffffffffffffffff\n      and\n      eq\n        /* \"38.sol\":6351:6397  require(animalToOwner[_tokenId] == msg.sender) */\n      iszero\n      iszero\n      tag_110\n      jumpi\n      0x0\n      dup1\n      revert\n    tag_110:\n        /* \"38.sol\":6436:6439  _to */\n      dup2\n        /* \"38.sol\":6408:6423  animalApprovals */\n      0x6\n        /* \"38.sol\":6408:6433  animalApprovals[_tokenId] */\n      0x0\n        /* \"38.sol\":6424:6432  _tokenId */\n      dup4\n        /* \"38.sol\":6408:6433  animalApprovals[_tokenId] */\n      dup2\n      mstore\n      0x20\n      add\n      swap1\n      dup2\n      mstore\n      0x20\n      add\n      0x0\n      keccak256\n      0x0\n        /* \"38.sol\":6408:6439  animalApprovals[_tokenId] = _to */\n      0x100\n      exp\n      dup2\n      sload\n      dup2\n      0xffffffffffffffffffffffffffffffffffffffff\n      mul\n      not\n      and\n      swap1\n      dup4\n      0xffffffffffffffffffffffffffffffffffffffff\n      and\n      mul\n      or\n      swap1\n      sstore\n      pop\n        /* \"38.sol\":6481:6489  _tokenId */\n      dup1\n        /* \"38.sol\":6476:6479  _to */\n      dup3\n        /* \"38.sol\":6455:6490  Approval(msg.sender, _to, _tokenId) */\n      0xffffffffffffffffffffffffffffffffffffffff\n      and\n        /* \"38.sol\":6464:6474  msg.sender */\n      caller\n        /* \"38.sol\":6455:6490  Approval(msg.sender, _to, _tokenId) */\n      0xffffffffffffffffffffffffffffffffffffffff\n      and\n      0x8c5be1e5ebec7d5bd14f71427d1e84f3dd0314c0f7b2291e5b200ac8c7c3b925\n      mload(0x40)\n      mload(0x40)\n      dup1\n      swap2\n      sub\n      swap1\n      log4\n        /* \"38.sol\":6290:6495  function approve(address _to, uint256 _tokenId) public {... */\n      pop\n      pop\n      jump\t// out\n        /* \"38.sol\":5230:5343  function seeAnimalDna(uint256 _tokenId) public view returns (bytes32 dna) {... */\n    tag_35:\n        /* \"38.sol\":5291:5302  bytes32 dna */\n      0x0\n        /* \"38.sol\":5317:5324  animals */\n      0x2\n        /* \"38.sol\":5325:5333  _tokenId */\n      dup3\n        /* \"38.sol\":5317:5334  animals[_tokenId] */\n      dup2\n      sload\n      dup2\n      lt\n      iszero\n      iszero\n      tag_112\n      jumpi\n      invalid\n    tag_112:\n      swap1\n      0x0\n      mstore\n      keccak256(0x0, 0x20)\n      swap1\n      0x2\n      mul\n      add\n        /* \"38.sol\":5317:5338  animals[_tokenId].dna */\n      0x0\n      add\n      sload\n        /* \"38.sol\":5310:5338  return animals[_tokenId].dna */\n      swap1\n      pop\n        /* \"38.sol\":5230:5343  function seeAnimalDna(uint256 _tokenId) public view returns (bytes32 dna) {... */\n      swap2\n      swap1\n      pop\n      jump\t// out\n        /* \"38.sol\":4503:4588  function totalSupply() public view returns (uint256) {... */\n    tag_38:\n        /* \"38.sol\":4547:4554  uint256 */\n      0x0\n        /* \"38.sol\":4569:4576  animals */\n      0x2\n        /* \"38.sol\":4569:4583  animals.length */\n      dup1\n      sload\n      swap1\n      pop\n        /* \"38.sol\":4562:4583  return animals.length */\n      swap1\n      pop\n        /* \"38.sol\":4503:4588  function totalSupply() public view returns (uint256) {... */\n      swap1\n      jump\t// out\n        /* \"38.sol\":6499:6693  function transferFrom(address _from, address _to, uint256 _tokenId) external {... */\n    tag_41:\n        /* \"38.sol\":6679:6687  _tokenId */\n      dup1\n        /* \"38.sol\":6674:6677  _to */\n      dup3\n        /* \"38.sol\":6658:6688  Transfer(_from, _to, _tokenId) */\n      0xffffffffffffffffffffffffffffffffffffffff\n      and\n        /* \"38.sol\":6667:6672  _from */\n      dup5\n        /* \"38.sol\":6658:6688  Transfer(_from, _to, _tokenId) */\n      0xffffffffffffffffffffffffffffffffffffffff\n      and\n      0xddf252ad1be2c89b69c2b068fc378daa952ba7f163c4a11628f55a4df523b3ef\n      mload(0x40)\n      mload(0x40)\n      dup1\n      swap2\n      sub\n      swap1\n      log4\n        /* \"38.sol\":6499:6693  function transferFrom(address _from, address _to, uint256 _tokenId) external {... */\n      pop\n      pop\n      pop\n      jump\t// out\n        /* \"38.sol\":5347:5461  function seeAnimalStar(uint256 _tokenId) public view returns (uint8 star) {... */\n    tag_44:\n        /* \"38.sol\":5409:5419  uint8 star */\n      0x0\n        /* \"38.sol\":5434:5441  animals */\n      0x2\n        /* \"38.sol\":5442:5450  _tokenId */\n      dup3\n        /* \"38.sol\":5434:5451  animals[_tokenId] */\n      dup2\n      sload\n      dup2\n      lt\n      iszero\n      iszero\n      tag_117\n      jumpi\n      invalid\n    tag_117:\n      swap1\n      0x0\n      mstore\n      keccak256(0x0, 0x20)\n      swap1\n      0x2\n      mul\n      add\n        /* \"38.sol\":5434:5456  animals[_tokenId].star */\n      0x1\n      add\n      0x0\n      swap1\n      sload\n      swap1\n      0x100\n      exp\n      swap1\n      div\n      0xff\n      and\n        /* \"38.sol\":5427:5456  return animals[_tokenId].star */\n      swap1\n      pop\n        /* \"38.sol\":5347:5461  function seeAnimalStar(uint256 _tokenId) public view returns (uint8 star) {... */\n      swap2\n      swap1\n      pop\n      jump\t// out\n        /* \"38.sol\":4753:4910  function ownerOf(uint256 _tokenId) public view returns (address _owner) {... */\n    tag_47:\n        /* \"38.sol\":4809:4823  address _owner */\n      0x0\n        /* \"38.sol\":4838:4851  animalToOwner */\n      0x4\n        /* \"38.sol\":4838:4861  animalToOwner[_tokenId] */\n      0x0\n        /* \"38.sol\":4852:4860  _tokenId */\n      dup4\n        /* \"38.sol\":4838:4861  animalToOwner[_tokenId] */\n      dup2\n      mstore\n      0x20\n      add\n      swap1\n      dup2\n      mstore\n      0x20\n      add\n      0x0\n      keccak256\n      0x0\n      swap1\n      sload\n      swap1\n      0x100\n      exp\n      swap1\n      div\n      0xffffffffffffffffffffffffffffffffffffffff\n      and\n        /* \"38.sol\":4831:4861  return animalToOwner[_tokenId] */\n      swap1\n      pop\n        /* \"38.sol\":4753:4910  function ownerOf(uint256 _tokenId) public view returns (address _owner) {... */\n      swap2\n      swap1\n      pop\n      jump\t// out\n        /* \"38.sol\":4592:4749  function balanceOf(address _owner) public view returns (uint256 _balance) {... */\n    tag_50:\n        /* \"38.sol\":4648:4664  uint256 _balance */\n      0x0\n        /* \"38.sol\":4679:4695  ownerAnimalCount */\n      0x5\n        /* \"38.sol\":4679:4703  ownerAnimalCount[_owner] */\n      0x0\n        /* \"38.sol\":4696:4702  _owner */\n      dup4\n        /* \"38.sol\":4679:4703  ownerAnimalCount[_owner] */\n      0xffffffffffffffffffffffffffffffffffffffff\n      and\n      0xffffffffffffffffffffffffffffffffffffffff\n      and\n      dup2\n      mstore\n      0x20\n      add\n      swap1\n      dup2\n      mstore\n      0x20\n      add\n      0x0\n      keccak256\n      sload\n        /* \"38.sol\":4672:4703  return ownerAnimalCount[_owner] */\n      swap1\n      pop\n        /* \"38.sol\":4592:4749  function balanceOf(address _owner) public view returns (uint256 _balance) {... */\n      swap2\n      swap1\n      pop\n      jump\t// out\n        /* \"38.sol\":2570:2590  address public owner */\n    tag_53:\n      0x0\n      dup1\n      swap1\n      sload\n      swap1\n      0x100\n      exp\n      swap1\n      div\n      0xffffffffffffffffffffffffffffffffffffffff\n      and\n      dup2\n      jump\t// out\n        /* \"38.sol\":4421:4499  function symbol() external view returns (string) {... */\n    tag_56:\n        /* \"38.sol\":4462:4468  string */\n      0x60\n        /* \"38.sol\":4487:4494  symbol_ */\n      0x3\n        /* \"38.sol\":4480:4494  return symbol_ */\n      dup1\n      sload\n      0x1\n      dup2\n      0x1\n      and\n      iszero\n      0x100\n      mul\n      sub\n      and\n      0x2\n      swap1\n      div\n      dup1\n      0x1f\n      add\n      0x20\n      dup1\n      swap2\n      div\n      mul\n      0x20\n      add\n      mload(0x40)\n      swap1\n      dup2\n      add\n      0x40\n      mstore\n      dup1\n      swap3\n      swap2\n      swap1\n      dup2\n      dup2\n      mstore\n      0x20\n      add\n      dup3\n      dup1\n      sload\n      0x1\n      dup2\n      0x1\n      and\n      iszero\n      0x100\n      mul\n      sub\n      and\n      0x2\n      swap1\n      div\n      dup1\n      iszero\n      tag_122\n      jumpi\n      dup1\n      0x1f\n      lt\n      tag_123\n      jumpi\n      0x100\n      dup1\n      dup4\n      sload\n      div\n      mul\n      dup4\n      mstore\n      swap2\n      0x20\n      add\n      swap2\n      jump(tag_122)\n    tag_123:\n      dup3\n      add\n      swap2\n      swap1\n      0x0\n      mstore\n      keccak256(0x0, 0x20)\n      swap1\n    tag_124:\n      dup2\n      sload\n      dup2\n      mstore\n      swap1\n      0x1\n      add\n      swap1\n      0x20\n      add\n      dup1\n      dup4\n      gt\n      tag_124\n      jumpi\n      dup3\n      swap1\n      sub\n      0x1f\n      and\n      dup3\n      add\n      swap2\n    tag_122:\n      pop\n      pop\n      pop\n      pop\n      pop\n      swap1\n      pop\n        /* \"38.sol\":4421:4499  function symbol() external view returns (string) {... */\n      swap1\n      jump\t// out\n        /* \"38.sol\":3613:3636  animal[] public animals */\n    tag_63:\n      0x2\n      dup2\n      dup2\n      sload\n      dup2\n      lt\n      iszero\n      iszero\n      tag_125\n      jumpi\n      invalid\n    tag_125:\n      swap1\n      0x0\n      mstore\n      keccak256(0x0, 0x20)\n      swap1\n      0x2\n      mul\n      add\n      0x0\n      swap2\n      pop\n      swap1\n      pop\n      dup1\n      0x0\n      add\n      sload\n      swap1\n      dup1\n      0x1\n      add\n      0x0\n      swap1\n      sload\n      swap1\n      0x100\n      exp\n      swap1\n      div\n      0xff\n      and\n      swap1\n      dup1\n      0x1\n      add\n      0x1\n      swap1\n      sload\n      swap1\n      0x100\n      exp\n      swap1\n      div\n      0xffff\n      and\n      swap1\n      pop\n      dup4\n      jump\t// out\n        /* \"38.sol\":5594:5973  function getAnimalByOwner(address _owner) external view returns(uint[]) { //此方法回傳所有帳戶內的\"動物ID\"... */\n    tag_66:\n        /* \"38.sol\":5658:5664  uint[] */\n      0x60\n        /* \"38.sol\":5718:5738  uint[] memory result */\n      dup1\n        /* \"38.sol\":5783:5795  uint counter */\n      0x0\n        /* \"38.sol\":5810:5816  uint i */\n      dup1\n        /* \"38.sol\":5752:5768  ownerAnimalCount */\n      0x5\n        /* \"38.sol\":5752:5776  ownerAnimalCount[_owner] */\n      0x0\n        /* \"38.sol\":5769:5775  _owner */\n      dup7\n        /* \"38.sol\":5752:5776  ownerAnimalCount[_owner] */\n      0xffffffffffffffffffffffffffffffffffffffff\n      and\n      0xffffffffffffffffffffffffffffffffffffffff\n      and\n      dup2\n      mstore\n      0x20\n      add\n      swap1\n      dup2\n      mstore\n      0x20\n      add\n      0x0\n      keccak256\n      sload\n        /* \"38.sol\":5741:5777  new uint[](ownerAnimalCount[_owner]) */\n      mload(0x40)\n      swap1\n      dup1\n      dup3\n      mstore\n      dup1\n      0x20\n      mul\n      0x20\n      add\n      dup3\n      add\n      0x40\n      mstore\n      dup1\n      iszero\n      tag_128\n      jumpi\n      dup2\n      0x20\n      add\n        /* \"--CODEGEN--\":29:31   */\n      0x20\n        /* \"--CODEGEN--\":21:27   */\n      dup3\n        /* \"--CODEGEN--\":17:32   */\n      mul\n        /* \"--CODEGEN--\":117:121   */\n      dup1\n        /* \"--CODEGEN--\":105:115   */\n      codesize\n        /* \"--CODEGEN--\":97:103   */\n      dup4\n        /* \"--CODEGEN--\":88:122   */\n      codecopy\n        /* \"--CODEGEN--\":148:152   */\n      dup1\n        /* \"--CODEGEN--\":140:146   */\n      dup3\n        /* \"--CODEGEN--\":136:153   */\n      add\n        /* \"--CODEGEN--\":126:153   */\n      swap2\n      pop\n        /* \"--CODEGEN--\":0:157   */\n      pop\n        /* \"38.sol\":5741:5777  new uint[](ownerAnimalCount[_owner]) */\n      swap1\n      pop\n    tag_128:\n      pop\n        /* \"38.sol\":5718:5777  uint[] memory result = new uint[](ownerAnimalCount[_owner]) */\n      swap3\n      pop\n        /* \"38.sol\":5798:5799  0 */\n      0x0\n        /* \"38.sol\":5783:5799  uint counter = 0 */\n      swap2\n      pop\n        /* \"38.sol\":5819:5820  0 */\n      0x0\n        /* \"38.sol\":5810:5820  uint i = 0 */\n      swap1\n      pop\n        /* \"38.sol\":5805:5950  for (uint i = 0; i < animals.length; i++) {... */\n    tag_129:\n        /* \"38.sol\":5826:5833  animals */\n      0x2\n        /* \"38.sol\":5826:5840  animals.length */\n      dup1\n      sload\n      swap1\n      pop\n        /* \"38.sol\":5822:5823  i */\n      dup2\n        /* \"38.sol\":5822:5840  i < animals.length */\n      lt\n        /* \"38.sol\":5805:5950  for (uint i = 0; i < animals.length; i++) {... */\n      iszero\n      tag_130\n      jumpi\n        /* \"38.sol\":5879:5885  _owner */\n      dup5\n        /* \"38.sol\":5859:5885  animalToOwner[i] == _owner */\n      0xffffffffffffffffffffffffffffffffffffffff\n      and\n        /* \"38.sol\":5859:5872  animalToOwner */\n      0x4\n        /* \"38.sol\":5859:5875  animalToOwner[i] */\n      0x0\n        /* \"38.sol\":5873:5874  i */\n      dup4\n        /* \"38.sol\":5859:5875  animalToOwner[i] */\n      dup2\n      mstore\n      0x20\n      add\n      swap1\n      dup2\n      mstore\n      0x20\n      add\n      0x0\n      keccak256\n      0x0\n      swap1\n      sload\n      swap1\n      0x100\n      exp\n      swap1\n      div\n      0xffffffffffffffffffffffffffffffffffffffff\n      and\n        /* \"38.sol\":5859:5885  animalToOwner[i] == _owner */\n      0xffffffffffffffffffffffffffffffffffffffff\n      and\n      eq\n        /* \"38.sol\":5855:5944  if (animalToOwner[i] == _owner) {... */\n      iszero\n      tag_132\n      jumpi\n        /* \"38.sol\":5915:5916  i */\n      dup1\n        /* \"38.sol\":5897:5903  result */\n      dup4\n        /* \"38.sol\":5904:5911  counter */\n      dup4\n        /* \"38.sol\":5897:5912  result[counter] */\n      dup2\n      mload\n      dup2\n      lt\n      iszero\n      iszero\n      tag_133\n      jumpi\n      invalid\n    tag_133:\n      swap1\n      0x20\n      add\n      swap1\n      0x20\n      mul\n      add\n        /* \"38.sol\":5897:5916  result[counter] = i */\n      dup2\n      dup2\n      mstore\n      pop\n      pop\n        /* \"38.sol\":5926:5935  counter++ */\n      dup2\n      dup1\n      0x1\n      add\n      swap3\n      pop\n      pop\n        /* \"38.sol\":5855:5944  if (animalToOwner[i] == _owner) {... */\n    tag_132:\n        /* \"38.sol\":5842:5845  i++ */\n      dup1\n      dup1\n      0x1\n      add\n      swap2\n      pop\n      pop\n        /* \"38.sol\":5805:5950  for (uint i = 0; i < animals.length; i++) {... */\n      jump(tag_129)\n    tag_130:\n        /* \"38.sol\":5962:5968  result */\n      dup3\n        /* \"38.sol\":5955:5968  return result */\n      swap4\n      pop\n        /* \"38.sol\":5594:5973  function getAnimalByOwner(address _owner) external view returns(uint[]) { //此方法回傳所有帳戶內的\"動物ID\"... */\n      pop\n      pop\n      pop\n      swap2\n      swap1\n      pop\n      jump\t// out\n        /* \"38.sol\":5977:6286  function transfer(address _to, uint256 _tokenId) public {... */\n    tag_72:\n        /* \"38.sol\":6272:6280  _tokenId */\n      dup1\n        /* \"38.sol\":6267:6270  _to */\n      dup3\n        /* \"38.sol\":6246:6281  Transfer(msg.sender, _to, _tokenId) */\n      0xffffffffffffffffffffffffffffffffffffffff\n      and\n        /* \"38.sol\":6255:6265  msg.sender */\n      caller\n        /* \"38.sol\":6246:6281  Transfer(msg.sender, _to, _tokenId) */\n      0xffffffffffffffffffffffffffffffffffffffff\n      and\n      0xddf252ad1be2c89b69c2b068fc378daa952ba7f163c4a11628f55a4df523b3ef\n      mload(0x40)\n      mload(0x40)\n      dup1\n      swap2\n      sub\n      swap1\n      log4\n        /* \"38.sol\":5977:6286  function transfer(address _to, uint256 _tokenId) public {... */\n      pop\n      pop\n      jump\t// out\n        /* \"38.sol\":3640:3669  string public symbol_ = \"ANI\" */\n    tag_75:\n      0x3\n      dup1\n      sload\n      0x1\n      dup2\n      0x1\n      and\n      iszero\n      0x100\n      mul\n      sub\n      and\n      0x2\n      swap1\n      div\n      dup1\n      0x1f\n      add\n      0x20\n      dup1\n      swap2\n      div\n      mul\n      0x20\n      add\n      mload(0x40)\n      swap1\n      dup2\n      add\n      0x40\n      mstore\n      dup1\n      swap3\n      swap2\n      swap1\n      dup2\n      dup2\n      mstore\n      0x20\n      add\n      dup3\n      dup1\n      sload\n      0x1\n      dup2\n      0x1\n      and\n      iszero\n      0x100\n      mul\n      sub\n      and\n      0x2\n      swap1\n      div\n      dup1\n      iszero\n      tag_135\n      jumpi\n      dup1\n      0x1f\n      lt\n      tag_136\n      jumpi\n      0x100\n      dup1\n      dup4\n      sload\n      div\n      mul\n      dup4\n      mstore\n      swap2\n      0x20\n      add\n      swap2\n      jump(tag_135)\n    tag_136:\n      dup3\n      add\n      swap2\n      swap1\n      0x0\n      mstore\n      keccak256(0x0, 0x20)\n      swap1\n    tag_137:\n      dup2\n      sload\n      dup2\n      mstore\n      swap1\n      0x1\n      add\n      swap1\n      0x20\n      add\n      dup1\n      dup4\n      gt\n      tag_137\n      jumpi\n      dup3\n      swap1\n      sub\n      0x1f\n      and\n      dup3\n      add\n      swap2\n    tag_135:\n      pop\n      pop\n      pop\n      pop\n      pop\n      dup2\n      jump\t// out\n        /* \"38.sol\":6697:7072  function takeOwnership(uint256 _tokenId) public {... */\n    tag_82:\n        /* \"38.sol\":6808:6821  address owner */\n      0x0\n        /* \"38.sol\":6786:6796  msg.sender */\n      caller\n        /* \"38.sol\":6759:6796  animalToOwner[_tokenId] == msg.sender */\n      0xffffffffffffffffffffffffffffffffffffffff\n      and\n        /* \"38.sol\":6759:6772  animalToOwner */\n      0x4\n        /* \"38.sol\":6759:6782  animalToOwner[_tokenId] */\n      0x0\n        /* \"38.sol\":6773:6781  _tokenId */\n      dup5\n        /* \"38.sol\":6759:6782  animalToOwner[_tokenId] */\n      dup2\n      mstore\n      0x20\n      add\n      swap1\n      dup2\n      mstore\n      0x20\n      add\n      0x0\n      keccak256\n      0x0\n      swap1\n      sload\n      swap1\n      0x100\n      exp\n      swap1\n      div\n      0xffffffffffffffffffffffffffffffffffffffff\n      and\n        /* \"38.sol\":6759:6796  animalToOwner[_tokenId] == msg.sender */\n      0xffffffffffffffffffffffffffffffffffffffff\n      and\n      eq\n        /* \"38.sol\":6751:6797  require(animalToOwner[_tokenId] == msg.sender) */\n      iszero\n      iszero\n      tag_139\n      jumpi\n      0x0\n      dup1\n      revert\n    tag_139:\n        /* \"38.sol\":6824:6841  ownerOf(_tokenId) */\n      tag_140\n        /* \"38.sol\":6832:6840  _tokenId */\n      dup3\n        /* \"38.sol\":6824:6831  ownerOf */\n      tag_47\n        /* \"38.sol\":6824:6841  ownerOf(_tokenId) */\n      jump\t// in\n    tag_140:\n        /* \"38.sol\":6808:6841  address owner = ownerOf(_tokenId) */\n      swap1\n      pop\n        /* \"38.sol\":6879:6914  ownerAnimalCount[msg.sender].add(1) */\n      tag_141\n        /* \"38.sol\":6912:6913  1 */\n      0x1\n        /* \"38.sol\":6879:6895  ownerAnimalCount */\n      0x5\n        /* \"38.sol\":6879:6907  ownerAnimalCount[msg.sender] */\n      0x0\n        /* \"38.sol\":6896:6906  msg.sender */\n      caller\n        /* \"38.sol\":6879:6907  ownerAnimalCount[msg.sender] */\n      0xffffffffffffffffffffffffffffffffffffffff\n      and\n      0xffffffffffffffffffffffffffffffffffffffff\n      and\n      dup2\n      mstore\n      0x20\n      add\n      swap1\n      dup2\n      mstore\n      0x20\n      add\n      0x0\n      keccak256\n      sload\n        /* \"38.sol\":6879:6911  ownerAnimalCount[msg.sender].add */\n      tag_142\n      swap1\n        /* \"38.sol\":6879:6914  ownerAnimalCount[msg.sender].add(1) */\n      swap2\n      swap1\n      0xffffffff\n      and\n      jump\t// in\n    tag_141:\n        /* \"38.sol\":6848:6864  ownerAnimalCount */\n      0x5\n        /* \"38.sol\":6848:6876  ownerAnimalCount[msg.sender] */\n      0x0\n        /* \"38.sol\":6865:6875  msg.sender */\n      caller\n        /* \"38.sol\":6848:6876  ownerAnimalCount[msg.sender] */\n      0xffffffffffffffffffffffffffffffffffffffff\n      and\n      0xffffffffffffffffffffffffffffffffffffffff\n      and\n      dup2\n      mstore\n      0x20\n      add\n      swap1\n      dup2\n      mstore\n      0x20\n      add\n      0x0\n      keccak256\n        /* \"38.sol\":6848:6914  ownerAnimalCount[msg.sender] = ownerAnimalCount[msg.sender].add(1) */\n      dup2\n      swap1\n      sstore\n      pop\n        /* \"38.sol\":6946:6976  ownerAnimalCount[owner].sub(1) */\n      tag_143\n        /* \"38.sol\":6974:6975  1 */\n      0x1\n        /* \"38.sol\":6946:6962  ownerAnimalCount */\n      0x5\n        /* \"38.sol\":6946:6969  ownerAnimalCount[owner] */\n      0x0\n        /* \"38.sol\":6963:6968  owner */\n      dup5\n        /* \"38.sol\":6946:6969  ownerAnimalCount[owner] */\n      0xffffffffffffffffffffffffffffffffffffffff\n      and\n      0xffffffffffffffffffffffffffffffffffffffff\n      and\n      dup2\n      mstore\n      0x20\n      add\n      swap1\n      dup2\n      mstore\n      0x20\n      add\n      0x0\n      keccak256\n      sload\n        /* \"38.sol\":6946:6973  ownerAnimalCount[owner].sub */\n      tag_144\n      swap1\n        /* \"38.sol\":6946:6976  ownerAnimalCount[owner].sub(1) */\n      swap2\n      swap1\n      0xffffffff\n      and\n      jump\t// in\n    tag_143:\n        /* \"38.sol\":6920:6936  ownerAnimalCount */\n      0x5\n        /* \"38.sol\":6920:6943  ownerAnimalCount[owner] */\n      0x0\n        /* \"38.sol\":6937:6942  owner */\n      dup4\n        /* \"38.sol\":6920:6943  ownerAnimalCount[owner] */\n      0xffffffffffffffffffffffffffffffffffffffff\n      and\n      0xffffffffffffffffffffffffffffffffffffffff\n      and\n      dup2\n      mstore\n      0x20\n      add\n      swap1\n      dup2\n      mstore\n      0x20\n      add\n      0x0\n      keccak256\n        /* \"38.sol\":6920:6976  ownerAnimalCount[owner] = ownerAnimalCount[owner].sub(1) */\n      dup2\n      swap1\n      sstore\n      pop\n        /* \"38.sol\":7008:7018  msg.sender */\n      caller\n        /* \"38.sol\":6982:6995  animalToOwner */\n      0x4\n        /* \"38.sol\":6982:7005  animalToOwner[_tokenId] */\n      0x0\n        /* \"38.sol\":6996:7004  _tokenId */\n      dup5\n        /* \"38.sol\":6982:7005  animalToOwner[_tokenId] */\n      dup2\n      mstore\n      0x20\n      add\n      swap1\n      dup2\n      mstore\n      0x20\n      add\n      0x0\n      keccak256\n      0x0\n        /* \"38.sol\":6982:7018  animalToOwner[_tokenId] = msg.sender */\n      0x100\n      exp\n      dup2\n      sload\n      dup2\n      0xffffffffffffffffffffffffffffffffffffffff\n      mul\n      not\n      and\n      swap1\n      dup4\n      0xffffffffffffffffffffffffffffffffffffffff\n      and\n      mul\n      or\n      swap1\n      sstore\n      pop\n        /* \"38.sol\":7034:7067  Take(msg.sender, owner, _tokenId) */\n      0x9bbd814328e65758b36306475bbc61410445dd088c88681ed74c940dc604db1a\n        /* \"38.sol\":7039:7049  msg.sender */\n      caller\n        /* \"38.sol\":7051:7056  owner */\n      dup3\n        /* \"38.sol\":7058:7066  _tokenId */\n      dup5\n        /* \"38.sol\":7034:7067  Take(msg.sender, owner, _tokenId) */\n      mload(0x40)\n      dup1\n      dup5\n      0xffffffffffffffffffffffffffffffffffffffff\n      and\n      0xffffffffffffffffffffffffffffffffffffffff\n      and\n      dup2\n      mstore\n      0x20\n      add\n      dup4\n      0xffffffffffffffffffffffffffffffffffffffff\n      and\n      0xffffffffffffffffffffffffffffffffffffffff\n      and\n      dup2\n      mstore\n      0x20\n      add\n      dup3\n      dup2\n      mstore\n      0x20\n      add\n      swap4\n      pop\n      pop\n      pop\n      pop\n      mload(0x40)\n      dup1\n      swap2\n      sub\n      swap1\n      log1\n        /* \"38.sol\":6697:7072  function takeOwnership(uint256 _tokenId) public {... */\n      pop\n      pop\n      jump\t// out\n        /* \"38.sol\":3723:3769  mapping (uint => address) public animalToOwner */\n    tag_85:\n      mstore(0x20, 0x4)\n      dup1\n      0x0\n      mstore\n      keccak256(0x0, 0x40)\n      0x0\n      swap2\n      pop\n      sload\n      swap1\n      0x100\n      exp\n      swap1\n      div\n      0xffffffffffffffffffffffffffffffffffffffff\n      and\n      dup2\n      jump\t// out\n        /* \"38.sol\":3416:3448  string public name_ = \"anitoken\" */\n    tag_88:\n      0x1\n      dup1\n      sload\n      0x1\n      dup2\n      0x1\n      and\n      iszero\n      0x100\n      mul\n      sub\n      and\n      0x2\n      swap1\n      div\n      dup1\n      0x1f\n      add\n      0x20\n      dup1\n      swap2\n      div\n      mul\n      0x20\n      add\n      mload(0x40)\n      swap1\n      dup2\n      add\n      0x40\n      mstore\n      dup1\n      swap3\n      swap2\n      swap1\n      dup2\n      dup2\n      mstore\n      0x20\n      add\n      dup3\n      dup1\n      sload\n      0x1\n      dup2\n      0x1\n      and\n      iszero\n      0x100\n      mul\n      sub\n      and\n      0x2\n      swap1\n      div\n      dup1\n      iszero\n      tag_145\n      jumpi\n      dup1\n      0x1f\n      lt\n      tag_146\n      jumpi\n      0x100\n      dup1\n      dup4\n      sload\n      div\n      mul\n      dup4\n      mstore\n      swap2\n      0x20\n      add\n      swap2\n      jump(tag_145)\n    tag_146:\n      dup3\n      add\n      swap2\n      swap1\n      0x0\n      mstore\n      keccak256(0x0, 0x20)\n      swap1\n    tag_147:\n      dup2\n      sload\n      dup2\n      mstore\n      swap1\n      0x1\n      add\n      swap1\n      0x20\n      add\n      dup1\n      dup4\n      gt\n      tag_147\n      jumpi\n      dup3\n      swap1\n      sub\n      0x1f\n      and\n      dup3\n      add\n      swap2\n    tag_145:\n      pop\n      pop\n      pop\n      pop\n      pop\n      dup2\n      jump\t// out\n        /* \"38.sol\":4914:5226  function checkAllOwner(uint256[] _tokenId, address owner) public view returns (bool) {... */\n    tag_95:\n        /* \"38.sol\":4993:4997  bool */\n      0x0\n        /* \"38.sol\":5009:5015  uint i */\n      dup1\n        /* \"38.sol\":5016:5017  0 */\n      0x0\n        /* \"38.sol\":5009:5017  uint i=0 */\n      swap1\n      pop\n        /* \"38.sol\":5005:5200  for(uint i=0;i<_tokenId.length;i++){... */\n    tag_149:\n        /* \"38.sol\":5020:5028  _tokenId */\n      dup4\n        /* \"38.sol\":5020:5035  _tokenId.length */\n      mload\n        /* \"38.sol\":5018:5019  i */\n      dup2\n        /* \"38.sol\":5018:5035  i<_tokenId.length */\n      lt\n        /* \"38.sol\":5005:5200  for(uint i=0;i<_tokenId.length;i++){... */\n      iszero\n      tag_150\n      jumpi\n        /* \"38.sol\":5062:5075  animalToOwner */\n      0x4\n        /* \"38.sol\":5062:5088  animalToOwner[_tokenId[i]] */\n      0x0\n        /* \"38.sol\":5076:5084  _tokenId */\n      dup6\n        /* \"38.sol\":5085:5086  i */\n      dup4\n        /* \"38.sol\":5076:5087  _tokenId[i] */\n      dup2\n      mload\n      dup2\n      lt\n      iszero\n      iszero\n      tag_152\n      jumpi\n      invalid\n    tag_152:\n      swap1\n      0x20\n      add\n      swap1\n      0x20\n      mul\n      add\n      mload\n        /* \"38.sol\":5062:5088  animalToOwner[_tokenId[i]] */\n      dup2\n      mstore\n      0x20\n      add\n      swap1\n      dup2\n      mstore\n      0x20\n      add\n      0x0\n      keccak256\n      0x0\n      swap1\n      sload\n      swap1\n      0x100\n      exp\n      swap1\n      div\n      0xffffffffffffffffffffffffffffffffffffffff\n      and\n        /* \"38.sol\":5053:5088  owner != animalToOwner[_tokenId[i]] */\n      0xffffffffffffffffffffffffffffffffffffffff\n      and\n        /* \"38.sol\":5053:5058  owner */\n      dup4\n        /* \"38.sol\":5053:5088  owner != animalToOwner[_tokenId[i]] */\n      0xffffffffffffffffffffffffffffffffffffffff\n      and\n      eq\n      iszero\n        /* \"38.sol\":5050:5194  if(owner != animalToOwner[_tokenId[i]]){... */\n      iszero\n      tag_153\n      jumpi\n        /* \"38.sol\":5110:5115  false */\n      0x0\n        /* \"38.sol\":5103:5115  return false */\n      swap2\n      pop\n      jump(tag_148)\n        /* \"38.sol\":5050:5194  if(owner != animalToOwner[_tokenId[i]]){... */\n    tag_153:\n        /* \"38.sol\":5036:5039  i++ */\n      dup1\n      dup1\n      0x1\n      add\n      swap2\n      pop\n      pop\n        /* \"38.sol\":5005:5200  for(uint i=0;i<_tokenId.length;i++){... */\n      jump(tag_149)\n    tag_150:\n        /* \"38.sol\":5217:5221  true */\n      0x1\n        /* \"38.sol\":5210:5221  return true */\n      swap2\n      pop\n        /* \"38.sol\":4914:5226  function checkAllOwner(uint256[] _tokenId, address owner) public view returns (bool) {... */\n    tag_148:\n      pop\n      swap3\n      swap2\n      pop\n      pop\n      jump\t// out\n        /* \"38.sol\":7078:7494  function createAnimal() public {... */\n    tag_98:\n        /* \"38.sol\":7119:7130  bytes32 dna */\n      0x0\n        /* \"38.sol\":7139:7148  uint star */\n      dup1\n        /* \"38.sol\":7157:7170  uint roletype */\n      0x0\n        /* \"38.sol\":7342:7349  uint id */\n      dup1\n        /* \"38.sol\":7410:7411  1 */\n      0x1\n        /* \"38.sol\":7352:7359  animals */\n      0x2\n        /* \"38.sol\":7365:7406  animal(dna, uint8(star), uint8(roletype)) */\n      0x60\n      mload(0x40)\n      swap1\n      dup2\n      add\n      0x40\n      mstore\n      dup1\n        /* \"38.sol\":7372:7375  dna */\n      dup8\n        /* \"38.sol\":7365:7406  animal(dna, uint8(star), uint8(roletype)) */\n      not(0x0)\n      and\n      dup2\n      mstore\n      0x20\n      add\n        /* \"38.sol\":7383:7387  star */\n      dup7\n        /* \"38.sol\":7365:7406  animal(dna, uint8(star), uint8(roletype)) */\n      0xff\n      and\n      dup2\n      mstore\n      0x20\n      add\n        /* \"38.sol\":7396:7404  roletype */\n      dup6\n        /* \"38.sol\":7365:7406  animal(dna, uint8(star), uint8(roletype)) */\n      0xff\n      and\n      0xffff\n      and\n      dup2\n      mstore\n      pop\n        /* \"38.sol\":7352:7407  animals.push(animal(dna, uint8(star), uint8(roletype))) */\n      swap1\n      dup1\n        /* \"--CODEGEN--\":39:40   */\n      0x1\n        /* \"--CODEGEN--\":33:36   */\n      dup2\n        /* \"--CODEGEN--\":27:37   */\n      sload\n        /* \"--CODEGEN--\":23:41   */\n      add\n        /* \"--CODEGEN--\":57:67   */\n      dup1\n        /* \"--CODEGEN--\":52:55   */\n      dup3\n        /* \"--CODEGEN--\":45:68   */\n      sstore\n        /* \"--CODEGEN--\":79:89   */\n      dup1\n        /* \"--CODEGEN--\":72:89   */\n      swap2\n      pop\n        /* \"--CODEGEN--\":0:93   */\n      pop\n        /* \"38.sol\":7352:7407  animals.push(animal(dna, uint8(star), uint8(roletype))) */\n      swap1\n      0x1\n      dup3\n      sub\n      swap1\n      0x0\n      mstore\n      keccak256(0x0, 0x20)\n      swap1\n      0x2\n      mul\n      add\n      0x0\n      swap1\n      swap2\n      swap3\n      swap1\n      swap2\n      swap1\n      swap2\n      pop\n      0x0\n      dup3\n      add\n      mload\n      dup2\n      0x0\n      add\n      swap1\n      not(0x0)\n      and\n      swap1\n      sstore\n      0x20\n      dup3\n      add\n      mload\n      dup2\n      0x1\n      add\n      exp(0x100, 0x0)\n      dup2\n      sload\n      dup2\n      0xff\n      mul\n      not\n      and\n      swap1\n      dup4\n      0xff\n      and\n      mul\n      or\n      swap1\n      sstore\n      pop\n      0x40\n      dup3\n      add\n      mload\n      dup2\n      0x1\n      add\n      exp(0x100, 0x1)\n      dup2\n      sload\n      dup2\n      0xffff\n      mul\n      not\n      and\n      swap1\n      dup4\n      0xffff\n      and\n      mul\n      or\n      swap1\n      sstore\n      pop\n      pop\n      pop\n        /* \"38.sol\":7352:7411  animals.push(animal(dna, uint8(star), uint8(roletype))) - 1 */\n      sub\n        /* \"38.sol\":7342:7411  uint id = animals.push(animal(dna, uint8(star), uint8(roletype))) - 1 */\n      swap1\n      pop\n        /* \"38.sol\":7439:7449  msg.sender */\n      caller\n        /* \"38.sol\":7419:7432  animalToOwner */\n      0x4\n        /* \"38.sol\":7419:7436  animalToOwner[id] */\n      0x0\n        /* \"38.sol\":7433:7435  id */\n      dup4\n        /* \"38.sol\":7419:7436  animalToOwner[id] */\n      dup2\n      mstore\n      0x20\n      add\n      swap1\n      dup2\n      mstore\n      0x20\n      add\n      0x0\n      keccak256\n      0x0\n        /* \"38.sol\":7419:7449  animalToOwner[id] = msg.sender */\n      0x100\n      exp\n      dup2\n      sload\n      dup2\n      0xffffffffffffffffffffffffffffffffffffffff\n      mul\n      not\n      and\n      swap1\n      dup4\n      0xffffffffffffffffffffffffffffffffffffffff\n      and\n      mul\n      or\n      swap1\n      sstore\n      pop\n        /* \"38.sol\":7457:7473  ownerAnimalCount */\n      0x5\n        /* \"38.sol\":7457:7485  ownerAnimalCount[msg.sender] */\n      0x0\n        /* \"38.sol\":7474:7484  msg.sender */\n      caller\n        /* \"38.sol\":7457:7485  ownerAnimalCount[msg.sender] */\n      0xffffffffffffffffffffffffffffffffffffffff\n      and\n      0xffffffffffffffffffffffffffffffffffffffff\n      and\n      dup2\n      mstore\n      0x20\n      add\n      swap1\n      dup2\n      mstore\n      0x20\n      add\n      0x0\n      keccak256\n      0x0\n        /* \"38.sol\":7457:7487  ownerAnimalCount[msg.sender]++ */\n      dup2\n      sload\n      dup1\n      swap3\n      swap2\n      swap1\n      0x1\n      add\n      swap2\n      swap1\n      pop\n      sstore\n      pop\n        /* \"38.sol\":7078:7494  function createAnimal() public {... */\n      pop\n      pop\n      pop\n      pop\n      jump\t// out\n        /* \"38.sol\":3164:3333  function transferOwnership(address newOwner) public onlyOwner {... */\n    tag_101:\n        /* \"38.sol\":2984:2989  owner */\n      0x0\n      dup1\n      swap1\n      sload\n      swap1\n      0x100\n      exp\n      swap1\n      div\n      0xffffffffffffffffffffffffffffffffffffffff\n      and\n        /* \"38.sol\":2970:2989  msg.sender == owner */\n      0xffffffffffffffffffffffffffffffffffffffff\n      and\n        /* \"38.sol\":2970:2980  msg.sender */\n      caller\n        /* \"38.sol\":2970:2989  msg.sender == owner */\n      0xffffffffffffffffffffffffffffffffffffffff\n      and\n      eq\n        /* \"38.sol\":2962:2990  require(msg.sender == owner) */\n      iszero\n      iszero\n      tag_157\n      jumpi\n      0x0\n      dup1\n      revert\n    tag_157:\n        /* \"38.sol\":3260:3261  0 */\n      0x0\n        /* \"38.sol\":3240:3262  newOwner != address(0) */\n      0xffffffffffffffffffffffffffffffffffffffff\n      and\n        /* \"38.sol\":3240:3248  newOwner */\n      dup2\n        /* \"38.sol\":3240:3262  newOwner != address(0) */\n      0xffffffffffffffffffffffffffffffffffffffff\n      and\n      eq\n      iszero\n        /* \"38.sol\":3232:3263  require(newOwner != address(0)) */\n      iszero\n      iszero\n      tag_159\n      jumpi\n      0x0\n      dup1\n      revert\n    tag_159:\n        /* \"38.sol\":3297:3305  newOwner */\n      dup1\n        /* \"38.sol\":3269:3306  OwnershipTransferred(owner, newOwner) */\n      0xffffffffffffffffffffffffffffffffffffffff\n      and\n        /* \"38.sol\":3290:3295  owner */\n      0x0\n      dup1\n      swap1\n      sload\n      swap1\n      0x100\n      exp\n      swap1\n      div\n      0xffffffffffffffffffffffffffffffffffffffff\n      and\n        /* \"38.sol\":3269:3306  OwnershipTransferred(owner, newOwner) */\n      0xffffffffffffffffffffffffffffffffffffffff\n      and\n      0x8be0079c531659141344cd1fd0a4f28419497f9722a3daafe3b4186f6b6457e0\n      mload(0x40)\n      mload(0x40)\n      dup1\n      swap2\n      sub\n      swap1\n      log3\n        /* \"38.sol\":3320:3328  newOwner */\n      dup1\n        /* \"38.sol\":3312:3317  owner */\n      0x0\n      dup1\n        /* \"38.sol\":3312:3328  owner = newOwner */\n      0x100\n      exp\n      dup2\n      sload\n      dup2\n      0xffffffffffffffffffffffffffffffffffffffff\n      mul\n      not\n      and\n      swap1\n      dup4\n      0xffffffffffffffffffffffffffffffffffffffff\n      and\n      mul\n      or\n      swap1\n      sstore\n      pop\n        /* \"38.sol\":3164:3333  function transferOwnership(address newOwner) public onlyOwner {... */\n      pop\n      jump\t// out\n        /* \"38.sol\":5467:5590  function seeAnimalRole(uint256 _tokenId) public view returns (uint16 roletype) {... */\n    tag_104:\n        /* \"38.sol\":5529:5544  uint16 roletype */\n      0x0\n        /* \"38.sol\":5559:5566  animals */\n      0x2\n        /* \"38.sol\":5567:5575  _tokenId */\n      dup3\n        /* \"38.sol\":5559:5576  animals[_tokenId] */\n      dup2\n      sload\n      dup2\n      lt\n      iszero\n      iszero\n      tag_161\n      jumpi\n      invalid\n    tag_161:\n      swap1\n      0x0\n      mstore\n      keccak256(0x0, 0x20)\n      swap1\n      0x2\n      mul\n      add\n        /* \"38.sol\":5559:5585  animals[_tokenId].roletype */\n      0x1\n      add\n      0x1\n      swap1\n      sload\n      swap1\n      0x100\n      exp\n      swap1\n      div\n      0xffff\n      and\n        /* \"38.sol\":5552:5585  return animals[_tokenId].roletype */\n      swap1\n      pop\n        /* \"38.sol\":5467:5590  function seeAnimalRole(uint256 _tokenId) public view returns (uint16 roletype) {... */\n      swap2\n      swap1\n      pop\n      jump\t// out\n        /* \"38.sol\":2226:2355  function add(uint256 a, uint256 b) internal pure returns (uint256) {... */\n    tag_142:\n        /* \"38.sol\":2284:2291  uint256 */\n      0x0\n        /* \"38.sol\":2299:2308  uint256 c */\n      dup1\n        /* \"38.sol\":2315:2316  b */\n      dup3\n        /* \"38.sol\":2311:2312  a */\n      dup5\n        /* \"38.sol\":2311:2316  a + b */\n      add\n        /* \"38.sol\":2299:2316  uint256 c = a + b */\n      swap1\n      pop\n        /* \"38.sol\":2334:2335  a */\n      dup4\n        /* \"38.sol\":2329:2330  c */\n      dup2\n        /* \"38.sol\":2329:2335  c >= a */\n      lt\n      iszero\n        /* \"38.sol\":2322:2336  assert(c >= a) */\n      iszero\n      iszero\n      tag_164\n      jumpi\n      invalid\n    tag_164:\n        /* \"38.sol\":2349:2350  c */\n      dup1\n        /* \"38.sol\":2342:2350  return c */\n      swap2\n      pop\n        /* \"38.sol\":2226:2355  function add(uint256 a, uint256 b) internal pure returns (uint256) {... */\n      pop\n      swap3\n      swap2\n      pop\n      pop\n      jump\t// out\n        /* \"38.sol\":2054:2164  function sub(uint256 a, uint256 b) internal pure returns (uint256) {... */\n    tag_144:\n        /* \"38.sol\":2112:2119  uint256 */\n      0x0\n        /* \"38.sol\":2139:2140  a */\n      dup3\n        /* \"38.sol\":2134:2135  b */\n      dup3\n        /* \"38.sol\":2134:2140  b <= a */\n      gt\n      iszero\n        /* \"38.sol\":2127:2141  assert(b <= a) */\n      iszero\n      iszero\n      tag_166\n      jumpi\n      invalid\n    tag_166:\n        /* \"38.sol\":2158:2159  b */\n      dup2\n        /* \"38.sol\":2154:2155  a */\n      dup4\n        /* \"38.sol\":2154:2159  a - b */\n      sub\n        /* \"38.sol\":2147:2159  return a - b */\n      swap1\n      pop\n        /* \"38.sol\":2054:2164  function sub(uint256 a, uint256 b) internal pure returns (uint256) {... */\n      swap3\n      swap2\n      pop\n      pop\n      jump\t// out\n\n    auxdata: 0xa165627a7a723058208d67420be6183146547e1346d2d312ce1d096dff1fa6062705995e18624f99f40029\n}\n",
				"bytecode": {
					"linkReferences": {},
					"object": "60806040526040805190810160405280600881526020017f616e69746f6b656e0000000000000000000000000000000000000000000000008152506001908051906020019062000051929190620000e6565b506040805190810160405280600381526020017f414e490000000000000000000000000000000000000000000000000000000000815250600390805190602001906200009f929190620000e6565b50336000806101000a81548173ffffffffffffffffffffffffffffffffffffffff021916908373ffffffffffffffffffffffffffffffffffffffff16021790555062000195565b828054600181600116156101000203166002900490600052602060002090601f016020900481019282601f106200012957805160ff19168380011785556200015a565b828001600101855582156200015a579182015b82811115620001595782518255916020019190600101906200013c565b5b5090506200016991906200016d565b5090565b6200019291905b808211156200018e57600081600090555060010162000174565b5090565b90565b6116e280620001a56000396000f30060806040526004361061011d576000357c0100000000000000000000000000000000000000000000000000000000900463ffffffff16806306fdde0314610122578063095ea7b3146101b25780630c379520146101ff57806318160ddd1461024857806323b872dd1461027357806336363d14146102e05780636352211e1461032757806370a08231146103945780638da5cb5b146103eb57806395d89b4114610442578063998dd3ca146104d25780639af636e514610537578063a9059cbb146105cf578063af17dea61461061c578063b2e6ceeb146106ac578063d81c513a146106d9578063e2b9e18614610746578063ea7cabdd146107d6578063ecaf39b014610874578063f2fde38b1461088b578063f34674d6146108ce575b600080fd5b34801561012e57600080fd5b50610137610917565b6040518080602001828103825283818151815260200191508051906020019080838360005b8381101561017757808201518184015260208101905061015c565b50505050905090810190601f1680156101a45780820380516001836020036101000a031916815260200191505b509250505060405180910390f35b3480156101be57600080fd5b506101fd600480360381019080803573ffffffffffffffffffffffffffffffffffffffff169060200190929190803590602001909291905050506109b9565b005b34801561020b57600080fd5b5061022a60048036038101908080359060200190929190505050610ad7565b60405180826000191660001916815260200191505060405180910390f35b34801561025457600080fd5b5061025d610b01565b6040518082815260200191505060405180910390f35b34801561027f57600080fd5b506102de600480360381019080803573ffffffffffffffffffffffffffffffffffffffff169060200190929190803573ffffffffffffffffffffffffffffffffffffffff16906020019092919080359060200190929190505050610b0e565b005b3480156102ec57600080fd5b5061030b60048036038101908080359060200190929190505050610b6e565b604051808260ff1660ff16815260200191505060405180910390f35b34801561033357600080fd5b5061035260048036038101908080359060200190929190505050610ba5565b604051808273ffffffffffffffffffffffffffffffffffffffff1673ffffffffffffffffffffffffffffffffffffffff16815260200191505060405180910390f35b3480156103a057600080fd5b506103d5600480360381019080803573ffffffffffffffffffffffffffffffffffffffff169060200190929190505050610be2565b6040518082815260200191505060405180910390f35b3480156103f757600080fd5b50610400610c2b565b604051808273ffffffffffffffffffffffffffffffffffffffff1673ffffffffffffffffffffffffffffffffffffffff16815260200191505060405180910390f35b34801561044e57600080fd5b50610457610c50565b6040518080602001828103825283818151815260200191508051906020019080838360005b8381101561049757808201518184015260208101905061047c565b50505050905090810190601f1680156104c45780820380516001836020036101000a031916815260200191505b509250505060405180910390f35b3480156104de57600080fd5b506104fd60048036038101908080359060200190929190505050610cf2565b6040518084600019166000191681526020018360ff1660ff1681526020018261ffff1661ffff168152602001935050505060405180910390f35b34801561054357600080fd5b50610578600480360381019080803573ffffffffffffffffffffffffffffffffffffffff169060200190929190505050610d46565b6040518080602001828103825283818151815260200191508051906020019060200280838360005b838110156105bb5780820151818401526020810190506105a0565b505050509050019250505060405180910390f35b3480156105db57600080fd5b5061061a600480360381019080803573ffffffffffffffffffffffffffffffffffffffff16906020019092919080359060200190929190505050610e78565b005b34801561062857600080fd5b50610631610ed7565b6040518080602001828103825283818151815260200191508051906020019080838360005b83811015610671578082015181840152602081019050610656565b50505050905090810190601f16801561069e5780820380516001836020036101000a031916815260200191505b509250505060405180910390f35b3480156106b857600080fd5b506106d760048036038101908080359060200190929190505050610f75565b005b3480156106e557600080fd5b5061070460048036038101908080359060200190929190505050611210565b604051808273ffffffffffffffffffffffffffffffffffffffff1673ffffffffffffffffffffffffffffffffffffffff16815260200191505060405180910390f35b34801561075257600080fd5b5061075b611243565b6040518080602001828103825283818151815260200191508051906020019080838360005b8381101561079b578082015181840152602081019050610780565b50505050905090810190601f1680156107c85780820380516001836020036101000a031916815260200191505b509250505060405180910390f35b3480156107e257600080fd5b5061085a60048036038101908080359060200190820180359060200190808060200260200160405190810160405280939291908181526020018383602002808284378201915050505050509192919290803573ffffffffffffffffffffffffffffffffffffffff1690602001909291905050506112e1565b604051808215151515815260200191505060405180910390f35b34801561088057600080fd5b50610889611393565b005b34801561089757600080fd5b506108cc600480360381019080803573ffffffffffffffffffffffffffffffffffffffff1690602001909291905050506114f2565b005b3480156108da57600080fd5b506108f960048036038101908080359060200190929190505050611647565b604051808261ffff1661ffff16815260200191505060405180910390f35b606060018054600181600116156101000203166002900480601f0160208091040260200160405190810160405280929190818152602001828054600181600116156101000203166002900480156109af5780601f10610984576101008083540402835291602001916109af565b820191906000526020600020905b81548152906001019060200180831161099257829003601f168201915b5050505050905090565b3373ffffffffffffffffffffffffffffffffffffffff166004600083815260200190815260200160002060009054906101000a900473ffffffffffffffffffffffffffffffffffffffff1673ffffffffffffffffffffffffffffffffffffffff16141515610a2657600080fd5b816006600083815260200190815260200160002060006101000a81548173ffffffffffffffffffffffffffffffffffffffff021916908373ffffffffffffffffffffffffffffffffffffffff160217905550808273ffffffffffffffffffffffffffffffffffffffff163373ffffffffffffffffffffffffffffffffffffffff167f8c5be1e5ebec7d5bd14f71427d1e84f3dd0314c0f7b2291e5b200ac8c7c3b92560405160405180910390a45050565b6000600282815481101515610ae857fe5b9060005260206000209060020201600001549050919050565b6000600280549050905090565b808273ffffffffffffffffffffffffffffffffffffffff168473ffffffffffffffffffffffffffffffffffffffff167fddf252ad1be2c89b69c2b068fc378daa952ba7f163c4a11628f55a4df523b3ef60405160405180910390a4505050565b6000600282815481101515610b7f57fe5b906000526020600020906002020160010160009054906101000a900460ff169050919050565b60006004600083815260200190815260200160002060009054906101000a900473ffffffffffffffffffffffffffffffffffffffff169050919050565b6000600560008373ffffffffffffffffffffffffffffffffffffffff1673ffffffffffffffffffffffffffffffffffffffff168152602001908152602001600020549050919050565b6000809054906101000a900473ffffffffffffffffffffffffffffffffffffffff1681565b606060038054600181600116156101000203166002900480601f016020809104026020016040519081016040528092919081815260200182805460018160011615610100020316600290048015610ce85780601f10610cbd57610100808354040283529160200191610ce8565b820191906000526020600020905b815481529060010190602001808311610ccb57829003601f168201915b5050505050905090565b600281815481101515610d0157fe5b90600052602060002090600202016000915090508060000154908060010160009054906101000a900460ff16908060010160019054906101000a900461ffff16905083565b606080600080600560008673ffffffffffffffffffffffffffffffffffffffff1673ffffffffffffffffffffffffffffffffffffffff16815260200190815260200160002054604051908082528060200260200182016040528015610dba5781602001602082028038833980820191505090505b50925060009150600090505b600280549050811015610e6d578473ffffffffffffffffffffffffffffffffffffffff166004600083815260200190815260200160002060009054906101000a900473ffffffffffffffffffffffffffffffffffffffff1673ffffffffffffffffffffffffffffffffffffffff161415610e6057808383815181101515610e4957fe5b906020019060200201818152505081806001019250505b8080600101915050610dc6565b829350505050919050565b808273ffffffffffffffffffffffffffffffffffffffff163373ffffffffffffffffffffffffffffffffffffffff167fddf252ad1be2c89b69c2b068fc378daa952ba7f163c4a11628f55a4df523b3ef60405160405180910390a45050565b60038054600181600116156101000203166002900480601f016020809104026020016040519081016040528092919081815260200182805460018160011615610100020316600290048015610f6d5780601f10610f4257610100808354040283529160200191610f6d565b820191906000526020600020905b815481529060010190602001808311610f5057829003601f168201915b505050505081565b60003373ffffffffffffffffffffffffffffffffffffffff166004600084815260200190815260200160002060009054906101000a900473ffffffffffffffffffffffffffffffffffffffff1673ffffffffffffffffffffffffffffffffffffffff16141515610fe457600080fd5b610fed82610ba5565b90506110426001600560003373ffffffffffffffffffffffffffffffffffffffff1673ffffffffffffffffffffffffffffffffffffffff1681526020019081526020016000205461167f90919063ffffffff16565b600560003373ffffffffffffffffffffffffffffffffffffffff1673ffffffffffffffffffffffffffffffffffffffff168152602001908152602001600020819055506110d86001600560008473ffffffffffffffffffffffffffffffffffffffff1673ffffffffffffffffffffffffffffffffffffffff1681526020019081526020016000205461169d90919063ffffffff16565b600560008373ffffffffffffffffffffffffffffffffffffffff1673ffffffffffffffffffffffffffffffffffffffff16815260200190815260200160002081905550336004600084815260200190815260200160002060006101000a81548173ffffffffffffffffffffffffffffffffffffffff021916908373ffffffffffffffffffffffffffffffffffffffff1602179055507f9bbd814328e65758b36306475bbc61410445dd088c88681ed74c940dc604db1a338284604051808473ffffffffffffffffffffffffffffffffffffffff1673ffffffffffffffffffffffffffffffffffffffff1681526020018373ffffffffffffffffffffffffffffffffffffffff1673ffffffffffffffffffffffffffffffffffffffff168152602001828152602001935050505060405180910390a15050565b60046020528060005260406000206000915054906101000a900473ffffffffffffffffffffffffffffffffffffffff1681565b60018054600181600116156101000203166002900480601f0160208091040260200160405190810160405280929190818152602001828054600181600116156101000203166002900480156112d95780601f106112ae576101008083540402835291602001916112d9565b820191906000526020600020905b8154815290600101906020018083116112bc57829003601f168201915b505050505081565b600080600090505b83518110156113875760046000858381518110151561130457fe5b90602001906020020151815260200190815260200160002060009054906101000a900473ffffffffffffffffffffffffffffffffffffffff1673ffffffffffffffffffffffffffffffffffffffff168373ffffffffffffffffffffffffffffffffffffffff1614151561137a576000915061138c565b80806001019150506112e9565b600191505b5092915050565b60008060008060016002606060405190810160405280876000191681526020018660ff1681526020018560ff1661ffff16815250908060018154018082558091505090600182039060005260206000209060020201600090919290919091506000820151816000019060001916905560208201518160010160006101000a81548160ff021916908360ff16021790555060408201518160010160016101000a81548161ffff021916908361ffff1602179055505050039050336004600083815260200190815260200160002060006101000a81548173ffffffffffffffffffffffffffffffffffffffff021916908373ffffffffffffffffffffffffffffffffffffffff160217905550600560003373ffffffffffffffffffffffffffffffffffffffff1673ffffffffffffffffffffffffffffffffffffffff1681526020019081526020016000206000815480929190600101919050555050505050565b6000809054906101000a900473ffffffffffffffffffffffffffffffffffffffff1673ffffffffffffffffffffffffffffffffffffffff163373ffffffffffffffffffffffffffffffffffffffff1614151561154d57600080fd5b600073ffffffffffffffffffffffffffffffffffffffff168173ffffffffffffffffffffffffffffffffffffffff161415151561158957600080fd5b8073ffffffffffffffffffffffffffffffffffffffff166000809054906101000a900473ffffffffffffffffffffffffffffffffffffffff1673ffffffffffffffffffffffffffffffffffffffff167f8be0079c531659141344cd1fd0a4f28419497f9722a3daafe3b4186f6b6457e060405160405180910390a3806000806101000a81548173ffffffffffffffffffffffffffffffffffffffff021916908373ffffffffffffffffffffffffffffffffffffffff16021790555050565b600060028281548110151561165857fe5b906000526020600020906002020160010160019054906101000a900461ffff169050919050565b600080828401905083811015151561169357fe5b8091505092915050565b60008282111515156116ab57fe5b8183039050929150505600a165627a7a723058208d67420be6183146547e1346d2d312ce1d096dff1fa6062705995e18624f99f40029",
					"opcodes": "PUSH1 0x80 PUSH1 0x40 MSTORE PUSH1 0x40 DUP1 MLOAD SWAP1 DUP2 ADD PUSH1 0x40 MSTORE DUP1 PUSH1 0x8 DUP2 MSTORE PUSH1 0x20 ADD PUSH32 0x616E69746F6B656E000000000000000000000000000000000000000000000000 DUP2 MSTORE POP PUSH1 0x1 SWAP1 DUP1 MLOAD SWAP1 PUSH1 0x20 ADD SWAP1 PUSH3 0x51 SWAP3 SWAP2 SWAP1 PUSH3 0xE6 JUMP JUMPDEST POP PUSH1 0x40 DUP1 MLOAD SWAP1 DUP2 ADD PUSH1 0x40 MSTORE DUP1 PUSH1 0x3 DUP2 MSTORE PUSH1 0x20 ADD PUSH32 0x414E490000000000000000000000000000000000000000000000000000000000 DUP2 MSTORE POP PUSH1 0x3 SWAP1 DUP1 MLOAD SWAP1 PUSH1 0x20 ADD SWAP1 PUSH3 0x9F SWAP3 SWAP2 SWAP1 PUSH3 0xE6 JUMP JUMPDEST POP CALLER PUSH1 0x0 DUP1 PUSH2 0x100 EXP DUP2 SLOAD DUP2 PUSH20 0xFFFFFFFFFFFFFFFFFFFFFFFFFFFFFFFFFFFFFFFF MUL NOT AND SWAP1 DUP4 PUSH20 0xFFFFFFFFFFFFFFFFFFFFFFFFFFFFFFFFFFFFFFFF AND MUL OR SWAP1 SSTORE POP PUSH3 0x195 JUMP JUMPDEST DUP3 DUP1 SLOAD PUSH1 0x1 DUP2 PUSH1 0x1 AND ISZERO PUSH2 0x100 MUL SUB AND PUSH1 0x2 SWAP1 DIV SWAP1 PUSH1 0x0 MSTORE PUSH1 0x20 PUSH1 0x0 KECCAK256 SWAP1 PUSH1 0x1F ADD PUSH1 0x20 SWAP1 DIV DUP2 ADD SWAP3 DUP3 PUSH1 0x1F LT PUSH3 0x129 JUMPI DUP1 MLOAD PUSH1 0xFF NOT AND DUP4 DUP1 ADD OR DUP6 SSTORE PUSH3 0x15A JUMP JUMPDEST DUP3 DUP1 ADD PUSH1 0x1 ADD DUP6 SSTORE DUP3 ISZERO PUSH3 0x15A JUMPI SWAP2 DUP3 ADD JUMPDEST DUP3 DUP2 GT ISZERO PUSH3 0x159 JUMPI DUP3 MLOAD DUP3 SSTORE SWAP2 PUSH1 0x20 ADD SWAP2 SWAP1 PUSH1 0x1 ADD SWAP1 PUSH3 0x13C JUMP JUMPDEST JUMPDEST POP SWAP1 POP PUSH3 0x169 SWAP2 SWAP1 PUSH3 0x16D JUMP JUMPDEST POP SWAP1 JUMP JUMPDEST PUSH3 0x192 SWAP2 SWAP1 JUMPDEST DUP1 DUP3 GT ISZERO PUSH3 0x18E JUMPI PUSH1 0x0 DUP2 PUSH1 0x0 SWAP1 SSTORE POP PUSH1 0x1 ADD PUSH3 0x174 JUMP JUMPDEST POP SWAP1 JUMP JUMPDEST SWAP1 JUMP JUMPDEST PUSH2 0x16E2 DUP1 PUSH3 0x1A5 PUSH1 0x0 CODECOPY PUSH1 0x0 RETURN STOP PUSH1 0x80 PUSH1 0x40 MSTORE PUSH1 0x4 CALLDATASIZE LT PUSH2 0x11D JUMPI PUSH1 0x0 CALLDATALOAD PUSH29 0x100000000000000000000000000000000000000000000000000000000 SWAP1 DIV PUSH4 0xFFFFFFFF AND DUP1 PUSH4 0x6FDDE03 EQ PUSH2 0x122 JUMPI DUP1 PUSH4 0x95EA7B3 EQ PUSH2 0x1B2 JUMPI DUP1 PUSH4 0xC379520 EQ PUSH2 0x1FF JUMPI DUP1 PUSH4 0x18160DDD EQ PUSH2 0x248 JUMPI DUP1 PUSH4 0x23B872DD EQ PUSH2 0x273 JUMPI DUP1 PUSH4 0x36363D14 EQ PUSH2 0x2E0 JUMPI DUP1 PUSH4 0x6352211E EQ PUSH2 0x327 JUMPI DUP1 PUSH4 0x70A08231 EQ PUSH2 0x394 JUMPI DUP1 PUSH4 0x8DA5CB5B EQ PUSH2 0x3EB JUMPI DUP1 PUSH4 0x95D89B41 EQ PUSH2 0x442 JUMPI DUP1 PUSH4 0x998DD3CA EQ PUSH2 0x4D2 JUMPI DUP1 PUSH4 0x9AF636E5 EQ PUSH2 0x537 JUMPI DUP1 PUSH4 0xA9059CBB EQ PUSH2 0x5CF JUMPI DUP1 PUSH4 0xAF17DEA6 EQ PUSH2 0x61C JUMPI DUP1 PUSH4 0xB2E6CEEB EQ PUSH2 0x6AC JUMPI DUP1 PUSH4 0xD81C513A EQ PUSH2 0x6D9 JUMPI DUP1 PUSH4 0xE2B9E186 EQ PUSH2 0x746 JUMPI DUP1 PUSH4 0xEA7CABDD EQ PUSH2 0x7D6 JUMPI DUP1 PUSH4 0xECAF39B0 EQ PUSH2 0x874 JUMPI DUP1 PUSH4 0xF2FDE38B EQ PUSH2 0x88B JUMPI DUP1 PUSH4 0xF34674D6 EQ PUSH2 0x8CE JUMPI JUMPDEST PUSH1 0x0 DUP1 REVERT JUMPDEST CALLVALUE DUP1 ISZERO PUSH2 0x12E JUMPI PUSH1 0x0 DUP1 REVERT JUMPDEST POP PUSH2 0x137 PUSH2 0x917 JUMP JUMPDEST PUSH1 0x40 MLOAD DUP1 DUP1 PUSH1 0x20 ADD DUP3 DUP2 SUB DUP3 MSTORE DUP4 DUP2 DUP2 MLOAD DUP2 MSTORE PUSH1 0x20 ADD SWAP2 POP DUP1 MLOAD SWAP1 PUSH1 0x20 ADD SWAP1 DUP1 DUP4 DUP4 PUSH1 0x0 JUMPDEST DUP4 DUP2 LT ISZERO PUSH2 0x177 JUMPI DUP1 DUP3 ADD MLOAD DUP2 DUP5 ADD MSTORE PUSH1 0x20 DUP2 ADD SWAP1 POP PUSH2 0x15C JUMP JUMPDEST POP POP POP POP SWAP1 POP SWAP1 DUP2 ADD SWAP1 PUSH1 0x1F AND DUP1 ISZERO PUSH2 0x1A4 JUMPI DUP1 DUP3 SUB DUP1 MLOAD PUSH1 0x1 DUP4 PUSH1 0x20 SUB PUSH2 0x100 EXP SUB NOT AND DUP2 MSTORE PUSH1 0x20 ADD SWAP2 POP JUMPDEST POP SWAP3 POP POP POP PUSH1 0x40 MLOAD DUP1 SWAP2 SUB SWAP1 RETURN JUMPDEST CALLVALUE DUP1 ISZERO PUSH2 0x1BE JUMPI PUSH1 0x0 DUP1 REVERT JUMPDEST POP PUSH2 0x1FD PUSH1 0x4 DUP1 CALLDATASIZE SUB DUP2 ADD SWAP1 DUP1 DUP1 CALLDATALOAD PUSH20 0xFFFFFFFFFFFFFFFFFFFFFFFFFFFFFFFFFFFFFFFF AND SWAP1 PUSH1 0x20 ADD SWAP1 SWAP3 SWAP2 SWAP1 DUP1 CALLDATALOAD SWAP1 PUSH1 0x20 ADD SWAP1 SWAP3 SWAP2 SWAP1 POP POP POP PUSH2 0x9B9 JUMP JUMPDEST STOP JUMPDEST CALLVALUE DUP1 ISZERO PUSH2 0x20B JUMPI PUSH1 0x0 DUP1 REVERT JUMPDEST POP PUSH2 0x22A PUSH1 0x4 DUP1 CALLDATASIZE SUB DUP2 ADD SWAP1 DUP1 DUP1 CALLDATALOAD SWAP1 PUSH1 0x20 ADD SWAP1 SWAP3 SWAP2 SWAP1 POP POP POP PUSH2 0xAD7 JUMP JUMPDEST PUSH1 0x40 MLOAD DUP1 DUP3 PUSH1 0x0 NOT AND PUSH1 0x0 NOT AND DUP2 MSTORE PUSH1 0x20 ADD SWAP2 POP POP PUSH1 0x40 MLOAD DUP1 SWAP2 SUB SWAP1 RETURN JUMPDEST CALLVALUE DUP1 ISZERO PUSH2 0x254 JUMPI PUSH1 0x0 DUP1 REVERT JUMPDEST POP PUSH2 0x25D PUSH2 0xB01 JUMP JUMPDEST PUSH1 0x40 MLOAD DUP1 DUP3 DUP2 MSTORE PUSH1 0x20 ADD SWAP2 POP POP PUSH1 0x40 MLOAD DUP1 SWAP2 SUB SWAP1 RETURN JUMPDEST CALLVALUE DUP1 ISZERO PUSH2 0x27F JUMPI PUSH1 0x0 DUP1 REVERT JUMPDEST POP PUSH2 0x2DE PUSH1 0x4 DUP1 CALLDATASIZE SUB DUP2 ADD SWAP1 DUP1 DUP1 CALLDATALOAD PUSH20 0xFFFFFFFFFFFFFFFFFFFFFFFFFFFFFFFFFFFFFFFF AND SWAP1 PUSH1 0x20 ADD SWAP1 SWAP3 SWAP2 SWAP1 DUP1 CALLDATALOAD PUSH20 0xFFFFFFFFFFFFFFFFFFFFFFFFFFFFFFFFFFFFFFFF AND SWAP1 PUSH1 0x20 ADD SWAP1 SWAP3 SWAP2 SWAP1 DUP1 CALLDATALOAD SWAP1 PUSH1 0x20 ADD SWAP1 SWAP3 SWAP2 SWAP1 POP POP POP PUSH2 0xB0E JUMP JUMPDEST STOP JUMPDEST CALLVALUE DUP1 ISZERO PUSH2 0x2EC JUMPI PUSH1 0x0 DUP1 REVERT JUMPDEST POP PUSH2 0x30B PUSH1 0x4 DUP1 CALLDATASIZE SUB DUP2 ADD SWAP1 DUP1 DUP1 CALLDATALOAD SWAP1 PUSH1 0x20 ADD SWAP1 SWAP3 SWAP2 SWAP1 POP POP POP PUSH2 0xB6E JUMP JUMPDEST PUSH1 0x40 MLOAD DUP1 DUP3 PUSH1 0xFF AND PUSH1 0xFF AND DUP2 MSTORE PUSH1 0x20 ADD SWAP2 POP POP PUSH1 0x40 MLOAD DUP1 SWAP2 SUB SWAP1 RETURN JUMPDEST CALLVALUE DUP1 ISZERO PUSH2 0x333 JUMPI PUSH1 0x0 DUP1 REVERT JUMPDEST POP PUSH2 0x352 PUSH1 0x4 DUP1 CALLDATASIZE SUB DUP2 ADD SWAP1 DUP1 DUP1 CALLDATALOAD SWAP1 PUSH1 0x20 ADD SWAP1 SWAP3 SWAP2 SWAP1 POP POP POP PUSH2 0xBA5 JUMP JUMPDEST PUSH1 0x40 MLOAD DUP1 DUP3 PUSH20 0xFFFFFFFFFFFFFFFFFFFFFFFFFFFFFFFFFFFFFFFF AND PUSH20 0xFFFFFFFFFFFFFFFFFFFFFFFFFFFFFFFFFFFFFFFF AND DUP2 MSTORE PUSH1 0x20 ADD SWAP2 POP POP PUSH1 0x40 MLOAD DUP1 SWAP2 SUB SWAP1 RETURN JUMPDEST CALLVALUE DUP1 ISZERO PUSH2 0x3A0 JUMPI PUSH1 0x0 DUP1 REVERT JUMPDEST POP PUSH2 0x3D5 PUSH1 0x4 DUP1 CALLDATASIZE SUB DUP2 ADD SWAP1 DUP1 DUP1 CALLDATALOAD PUSH20 0xFFFFFFFFFFFFFFFFFFFFFFFFFFFFFFFFFFFFFFFF AND SWAP1 PUSH1 0x20 ADD SWAP1 SWAP3 SWAP2 SWAP1 POP POP POP PUSH2 0xBE2 JUMP JUMPDEST PUSH1 0x40 MLOAD DUP1 DUP3 DUP2 MSTORE PUSH1 0x20 ADD SWAP2 POP POP PUSH1 0x40 MLOAD DUP1 SWAP2 SUB SWAP1 RETURN JUMPDEST CALLVALUE DUP1 ISZERO PUSH2 0x3F7 JUMPI PUSH1 0x0 DUP1 REVERT JUMPDEST POP PUSH2 0x400 PUSH2 0xC2B JUMP JUMPDEST PUSH1 0x40 MLOAD DUP1 DUP3 PUSH20 0xFFFFFFFFFFFFFFFFFFFFFFFFFFFFFFFFFFFFFFFF AND PUSH20 0xFFFFFFFFFFFFFFFFFFFFFFFFFFFFFFFFFFFFFFFF AND DUP2 MSTORE PUSH1 0x20 ADD SWAP2 POP POP PUSH1 0x40 MLOAD DUP1 SWAP2 SUB SWAP1 RETURN JUMPDEST CALLVALUE DUP1 ISZERO PUSH2 0x44E JUMPI PUSH1 0x0 DUP1 REVERT JUMPDEST POP PUSH2 0x457 PUSH2 0xC50 JUMP JUMPDEST PUSH1 0x40 MLOAD DUP1 DUP1 PUSH1 0x20 ADD DUP3 DUP2 SUB DUP3 MSTORE DUP4 DUP2 DUP2 MLOAD DUP2 MSTORE PUSH1 0x20 ADD SWAP2 POP DUP1 MLOAD SWAP1 PUSH1 0x20 ADD SWAP1 DUP1 DUP4 DUP4 PUSH1 0x0 JUMPDEST DUP4 DUP2 LT ISZERO PUSH2 0x497 JUMPI DUP1 DUP3 ADD MLOAD DUP2 DUP5 ADD MSTORE PUSH1 0x20 DUP2 ADD SWAP1 POP PUSH2 0x47C JUMP JUMPDEST POP POP POP POP SWAP1 POP SWAP1 DUP2 ADD SWAP1 PUSH1 0x1F AND DUP1 ISZERO PUSH2 0x4C4 JUMPI DUP1 DUP3 SUB DUP1 MLOAD PUSH1 0x1 DUP4 PUSH1 0x20 SUB PUSH2 0x100 EXP SUB NOT AND DUP2 MSTORE PUSH1 0x20 ADD SWAP2 POP JUMPDEST POP SWAP3 POP POP POP PUSH1 0x40 MLOAD DUP1 SWAP2 SUB SWAP1 RETURN JUMPDEST CALLVALUE DUP1 ISZERO PUSH2 0x4DE JUMPI PUSH1 0x0 DUP1 REVERT JUMPDEST POP PUSH2 0x4FD PUSH1 0x4 DUP1 CALLDATASIZE SUB DUP2 ADD SWAP1 DUP1 DUP1 CALLDATALOAD SWAP1 PUSH1 0x20 ADD SWAP1 SWAP3 SWAP2 SWAP1 POP POP POP PUSH2 0xCF2 JUMP JUMPDEST PUSH1 0x40 MLOAD DUP1 DUP5 PUSH1 0x0 NOT AND PUSH1 0x0 NOT AND DUP2 MSTORE PUSH1 0x20 ADD DUP4 PUSH1 0xFF AND PUSH1 0xFF AND DUP2 MSTORE PUSH1 0x20 ADD DUP3 PUSH2 0xFFFF AND PUSH2 0xFFFF AND DUP2 MSTORE PUSH1 0x20 ADD SWAP4 POP POP POP POP PUSH1 0x40 MLOAD DUP1 SWAP2 SUB SWAP1 RETURN JUMPDEST CALLVALUE DUP1 ISZERO PUSH2 0x543 JUMPI PUSH1 0x0 DUP1 REVERT JUMPDEST POP PUSH2 0x578 PUSH1 0x4 DUP1 CALLDATASIZE SUB DUP2 ADD SWAP1 DUP1 DUP1 CALLDATALOAD PUSH20 0xFFFFFFFFFFFFFFFFFFFFFFFFFFFFFFFFFFFFFFFF AND SWAP1 PUSH1 0x20 ADD SWAP1 SWAP3 SWAP2 SWAP1 POP POP POP PUSH2 0xD46 JUMP JUMPDEST PUSH1 0x40 MLOAD DUP1 DUP1 PUSH1 0x20 ADD DUP3 DUP2 SUB DUP3 MSTORE DUP4 DUP2 DUP2 MLOAD DUP2 MSTORE PUSH1 0x20 ADD SWAP2 POP DUP1 MLOAD SWAP1 PUSH1 0x20 ADD SWAP1 PUSH1 0x20 MUL DUP1 DUP4 DUP4 PUSH1 0x0 JUMPDEST DUP4 DUP2 LT ISZERO PUSH2 0x5BB JUMPI DUP1 DUP3 ADD MLOAD DUP2 DUP5 ADD MSTORE PUSH1 0x20 DUP2 ADD SWAP1 POP PUSH2 0x5A0 JUMP JUMPDEST POP POP POP POP SWAP1 POP ADD SWAP3 POP POP POP PUSH1 0x40 MLOAD DUP1 SWAP2 SUB SWAP1 RETURN JUMPDEST CALLVALUE DUP1 ISZERO PUSH2 0x5DB JUMPI PUSH1 0x0 DUP1 REVERT JUMPDEST POP PUSH2 0x61A PUSH1 0x4 DUP1 CALLDATASIZE SUB DUP2 ADD SWAP1 DUP1 DUP1 CALLDATALOAD PUSH20 0xFFFFFFFFFFFFFFFFFFFFFFFFFFFFFFFFFFFFFFFF AND SWAP1 PUSH1 0x20 ADD SWAP1 SWAP3 SWAP2 SWAP1 DUP1 CALLDATALOAD SWAP1 PUSH1 0x20 ADD SWAP1 SWAP3 SWAP2 SWAP1 POP POP POP PUSH2 0xE78 JUMP JUMPDEST STOP JUMPDEST CALLVALUE DUP1 ISZERO PUSH2 0x628 JUMPI PUSH1 0x0 DUP1 REVERT JUMPDEST POP PUSH2 0x631 PUSH2 0xED7 JUMP JUMPDEST PUSH1 0x40 MLOAD DUP1 DUP1 PUSH1 0x20 ADD DUP3 DUP2 SUB DUP3 MSTORE DUP4 DUP2 DUP2 MLOAD DUP2 MSTORE PUSH1 0x20 ADD SWAP2 POP DUP1 MLOAD SWAP1 PUSH1 0x20 ADD SWAP1 DUP1 DUP4 DUP4 PUSH1 0x0 JUMPDEST DUP4 DUP2 LT ISZERO PUSH2 0x671 JUMPI DUP1 DUP3 ADD MLOAD DUP2 DUP5 ADD MSTORE PUSH1 0x20 DUP2 ADD SWAP1 POP PUSH2 0x656 JUMP JUMPDEST POP POP POP POP SWAP1 POP SWAP1 DUP2 ADD SWAP1 PUSH1 0x1F AND DUP1 ISZERO PUSH2 0x69E JUMPI DUP1 DUP3 SUB DUP1 MLOAD PUSH1 0x1 DUP4 PUSH1 0x20 SUB PUSH2 0x100 EXP SUB NOT AND DUP2 MSTORE PUSH1 0x20 ADD SWAP2 POP JUMPDEST POP SWAP3 POP POP POP PUSH1 0x40 MLOAD DUP1 SWAP2 SUB SWAP1 RETURN JUMPDEST CALLVALUE DUP1 ISZERO PUSH2 0x6B8 JUMPI PUSH1 0x0 DUP1 REVERT JUMPDEST POP PUSH2 0x6D7 PUSH1 0x4 DUP1 CALLDATASIZE SUB DUP2 ADD SWAP1 DUP1 DUP1 CALLDATALOAD SWAP1 PUSH1 0x20 ADD SWAP1 SWAP3 SWAP2 SWAP1 POP POP POP PUSH2 0xF75 JUMP JUMPDEST STOP JUMPDEST CALLVALUE DUP1 ISZERO PUSH2 0x6E5 JUMPI PUSH1 0x0 DUP1 REVERT JUMPDEST POP PUSH2 0x704 PUSH1 0x4 DUP1 CALLDATASIZE SUB DUP2 ADD SWAP1 DUP1 DUP1 CALLDATALOAD SWAP1 PUSH1 0x20 ADD SWAP1 SWAP3 SWAP2 SWAP1 POP POP POP PUSH2 0x1210 JUMP JUMPDEST PUSH1 0x40 MLOAD DUP1 DUP3 PUSH20 0xFFFFFFFFFFFFFFFFFFFFFFFFFFFFFFFFFFFFFFFF AND PUSH20 0xFFFFFFFFFFFFFFFFFFFFFFFFFFFFFFFFFFFFFFFF AND DUP2 MSTORE PUSH1 0x20 ADD SWAP2 POP POP PUSH1 0x40 MLOAD DUP1 SWAP2 SUB SWAP1 RETURN JUMPDEST CALLVALUE DUP1 ISZERO PUSH2 0x752 JUMPI PUSH1 0x0 DUP1 REVERT JUMPDEST POP PUSH2 0x75B PUSH2 0x1243 JUMP JUMPDEST PUSH1 0x40 MLOAD DUP1 DUP1 PUSH1 0x20 ADD DUP3 DUP2 SUB DUP3 MSTORE DUP4 DUP2 DUP2 MLOAD DUP2 MSTORE PUSH1 0x20 ADD SWAP2 POP DUP1 MLOAD SWAP1 PUSH1 0x20 ADD SWAP1 DUP1 DUP4 DUP4 PUSH1 0x0 JUMPDEST DUP4 DUP2 LT ISZERO PUSH2 0x79B JUMPI DUP1 DUP3 ADD MLOAD DUP2 DUP5 ADD MSTORE PUSH1 0x20 DUP2 ADD SWAP1 POP PUSH2 0x780 JUMP JUMPDEST POP POP POP POP SWAP1 POP SWAP1 DUP2 ADD SWAP1 PUSH1 0x1F AND DUP1 ISZERO PUSH2 0x7C8 JUMPI DUP1 DUP3 SUB DUP1 MLOAD PUSH1 0x1 DUP4 PUSH1 0x20 SUB PUSH2 0x100 EXP SUB NOT AND DUP2 MSTORE PUSH1 0x20 ADD SWAP2 POP JUMPDEST POP SWAP3 POP POP POP PUSH1 0x40 MLOAD DUP1 SWAP2 SUB SWAP1 RETURN JUMPDEST CALLVALUE DUP1 ISZERO PUSH2 0x7E2 JUMPI PUSH1 0x0 DUP1 REVERT JUMPDEST POP PUSH2 0x85A PUSH1 0x4 DUP1 CALLDATASIZE SUB DUP2 ADD SWAP1 DUP1 DUP1 CALLDATALOAD SWAP1 PUSH1 0x20 ADD SWAP1 DUP3 ADD DUP1 CALLDATALOAD SWAP1 PUSH1 0x20 ADD SWAP1 DUP1 DUP1 PUSH1 0x20 MUL PUSH1 0x20 ADD PUSH1 0x40 MLOAD SWAP1 DUP2 ADD PUSH1 0x40 MSTORE DUP1 SWAP4 SWAP3 SWAP2 SWAP1 DUP2 DUP2 MSTORE PUSH1 0x20 ADD DUP4 DUP4 PUSH1 0x20 MUL DUP1 DUP3 DUP5 CALLDATACOPY DUP3 ADD SWAP2 POP POP POP POP POP POP SWAP2 SWAP3 SWAP2 SWAP3 SWAP1 DUP1 CALLDATALOAD PUSH20 0xFFFFFFFFFFFFFFFFFFFFFFFFFFFFFFFFFFFFFFFF AND SWAP1 PUSH1 0x20 ADD SWAP1 SWAP3 SWAP2 SWAP1 POP POP POP PUSH2 0x12E1 JUMP JUMPDEST PUSH1 0x40 MLOAD DUP1 DUP3 ISZERO ISZERO ISZERO ISZERO DUP2 MSTORE PUSH1 0x20 ADD SWAP2 POP POP PUSH1 0x40 MLOAD DUP1 SWAP2 SUB SWAP1 RETURN JUMPDEST CALLVALUE DUP1 ISZERO PUSH2 0x880 JUMPI PUSH1 0x0 DUP1 REVERT JUMPDEST POP PUSH2 0x889 PUSH2 0x1393 JUMP JUMPDEST STOP JUMPDEST CALLVALUE DUP1 ISZERO PUSH2 0x897 JUMPI PUSH1 0x0 DUP1 REVERT JUMPDEST POP PUSH2 0x8CC PUSH1 0x4 DUP1 CALLDATASIZE SUB DUP2 ADD SWAP1 DUP1 DUP1 CALLDATALOAD PUSH20 0xFFFFFFFFFFFFFFFFFFFFFFFFFFFFFFFFFFFFFFFF AND SWAP1 PUSH1 0x20 ADD SWAP1 SWAP3 SWAP2 SWAP1 POP POP POP PUSH2 0x14F2 JUMP JUMPDEST STOP JUMPDEST CALLVALUE DUP1 ISZERO PUSH2 0x8DA JUMPI PUSH1 0x0 DUP1 REVERT JUMPDEST POP PUSH2 0x8F9 PUSH1 0x4 DUP1 CALLDATASIZE SUB DUP2 ADD SWAP1 DUP1 DUP1 CALLDATALOAD SWAP1 PUSH1 0x20 ADD SWAP1 SWAP3 SWAP2 SWAP1 POP POP POP PUSH2 0x1647 JUMP JUMPDEST PUSH1 0x40 MLOAD DUP1 DUP3 PUSH2 0xFFFF AND PUSH2 0xFFFF AND DUP2 MSTORE PUSH1 0x20 ADD SWAP2 POP POP PUSH1 0x40 MLOAD DUP1 SWAP2 SUB SWAP1 RETURN JUMPDEST PUSH1 0x60 PUSH1 0x1 DUP1 SLOAD PUSH1 0x1 DUP2 PUSH1 0x1 AND ISZERO PUSH2 0x100 MUL SUB AND PUSH1 0x2 SWAP1 DIV DUP1 PUSH1 0x1F ADD PUSH1 0x20 DUP1 SWAP2 DIV MUL PUSH1 0x20 ADD PUSH1 0x40 MLOAD SWAP1 DUP2 ADD PUSH1 0x40 MSTORE DUP1 SWAP3 SWAP2 SWAP1 DUP2 DUP2 MSTORE PUSH1 0x20 ADD DUP3 DUP1 SLOAD PUSH1 0x1 DUP2 PUSH1 0x1 AND ISZERO PUSH2 0x100 MUL SUB AND PUSH1 0x2 SWAP1 DIV DUP1 ISZERO PUSH2 0x9AF JUMPI DUP1 PUSH1 0x1F LT PUSH2 0x984 JUMPI PUSH2 0x100 DUP1 DUP4 SLOAD DIV MUL DUP4 MSTORE SWAP2 PUSH1 0x20 ADD SWAP2 PUSH2 0x9AF JUMP JUMPDEST DUP3 ADD SWAP2 SWAP1 PUSH1 0x0 MSTORE PUSH1 0x20 PUSH1 0x0 KECCAK256 SWAP1 JUMPDEST DUP2 SLOAD DUP2 MSTORE SWAP1 PUSH1 0x1 ADD SWAP1 PUSH1 0x20 ADD DUP1 DUP4 GT PUSH2 0x992 JUMPI DUP3 SWAP1 SUB PUSH1 0x1F AND DUP3 ADD SWAP2 JUMPDEST POP POP POP POP POP SWAP1 POP SWAP1 JUMP JUMPDEST CALLER PUSH20 0xFFFFFFFFFFFFFFFFFFFFFFFFFFFFFFFFFFFFFFFF AND PUSH1 0x4 PUSH1 0x0 DUP4 DUP2 MSTORE PUSH1 0x20 ADD SWAP1 DUP2 MSTORE PUSH1 0x20 ADD PUSH1 0x0 KECCAK256 PUSH1 0x0 SWAP1 SLOAD SWAP1 PUSH2 0x100 EXP SWAP1 DIV PUSH20 0xFFFFFFFFFFFFFFFFFFFFFFFFFFFFFFFFFFFFFFFF AND PUSH20 0xFFFFFFFFFFFFFFFFFFFFFFFFFFFFFFFFFFFFFFFF AND EQ ISZERO ISZERO PUSH2 0xA26 JUMPI PUSH1 0x0 DUP1 REVERT JUMPDEST DUP2 PUSH1 0x6 PUSH1 0x0 DUP4 DUP2 MSTORE PUSH1 0x20 ADD SWAP1 DUP2 MSTORE PUSH1 0x20 ADD PUSH1 0x0 KECCAK256 PUSH1 0x0 PUSH2 0x100 EXP DUP2 SLOAD DUP2 PUSH20 0xFFFFFFFFFFFFFFFFFFFFFFFFFFFFFFFFFFFFFFFF MUL NOT AND SWAP1 DUP4 PUSH20 0xFFFFFFFFFFFFFFFFFFFFFFFFFFFFFFFFFFFFFFFF AND MUL OR SWAP1 SSTORE POP DUP1 DUP3 PUSH20 0xFFFFFFFFFFFFFFFFFFFFFFFFFFFFFFFFFFFFFFFF AND CALLER PUSH20 0xFFFFFFFFFFFFFFFFFFFFFFFFFFFFFFFFFFFFFFFF AND PUSH32 0x8C5BE1E5EBEC7D5BD14F71427D1E84F3DD0314C0F7B2291E5B200AC8C7C3B925 PUSH1 0x40 MLOAD PUSH1 0x40 MLOAD DUP1 SWAP2 SUB SWAP1 LOG4 POP POP JUMP JUMPDEST PUSH1 0x0 PUSH1 0x2 DUP3 DUP2 SLOAD DUP2 LT ISZERO ISZERO PUSH2 0xAE8 JUMPI INVALID JUMPDEST SWAP1 PUSH1 0x0 MSTORE PUSH1 0x20 PUSH1 0x0 KECCAK256 SWAP1 PUSH1 0x2 MUL ADD PUSH1 0x0 ADD SLOAD SWAP1 POP SWAP2 SWAP1 POP JUMP JUMPDEST PUSH1 0x0 PUSH1 0x2 DUP1 SLOAD SWAP1 POP SWAP1 POP SWAP1 JUMP JUMPDEST DUP1 DUP3 PUSH20 0xFFFFFFFFFFFFFFFFFFFFFFFFFFFFFFFFFFFFFFFF AND DUP5 PUSH20 0xFFFFFFFFFFFFFFFFFFFFFFFFFFFFFFFFFFFFFFFF AND PUSH32 0xDDF252AD1BE2C89B69C2B068FC378DAA952BA7F163C4A11628F55A4DF523B3EF PUSH1 0x40 MLOAD PUSH1 0x40 MLOAD DUP1 SWAP2 SUB SWAP1 LOG4 POP POP POP JUMP JUMPDEST PUSH1 0x0 PUSH1 0x2 DUP3 DUP2 SLOAD DUP2 LT ISZERO ISZERO PUSH2 0xB7F JUMPI INVALID JUMPDEST SWAP1 PUSH1 0x0 MSTORE PUSH1 0x20 PUSH1 0x0 KECCAK256 SWAP1 PUSH1 0x2 MUL ADD PUSH1 0x1 ADD PUSH1 0x0 SWAP1 SLOAD SWAP1 PUSH2 0x100 EXP SWAP1 DIV PUSH1 0xFF AND SWAP1 POP SWAP2 SWAP1 POP JUMP JUMPDEST PUSH1 0x0 PUSH1 0x4 PUSH1 0x0 DUP4 DUP2 MSTORE PUSH1 0x20 ADD SWAP1 DUP2 MSTORE PUSH1 0x20 ADD PUSH1 0x0 KECCAK256 PUSH1 0x0 SWAP1 SLOAD SWAP1 PUSH2 0x100 EXP SWAP1 DIV PUSH20 0xFFFFFFFFFFFFFFFFFFFFFFFFFFFFFFFFFFFFFFFF AND SWAP1 POP SWAP2 SWAP1 POP JUMP JUMPDEST PUSH1 0x0 PUSH1 0x5 PUSH1 0x0 DUP4 PUSH20 0xFFFFFFFFFFFFFFFFFFFFFFFFFFFFFFFFFFFFFFFF AND PUSH20 0xFFFFFFFFFFFFFFFFFFFFFFFFFFFFFFFFFFFFFFFF AND DUP2 MSTORE PUSH1 0x20 ADD SWAP1 DUP2 MSTORE PUSH1 0x20 ADD PUSH1 0x0 KECCAK256 SLOAD SWAP1 POP SWAP2 SWAP1 POP JUMP JUMPDEST PUSH1 0x0 DUP1 SWAP1 SLOAD SWAP1 PUSH2 0x100 EXP SWAP1 DIV PUSH20 0xFFFFFFFFFFFFFFFFFFFFFFFFFFFFFFFFFFFFFFFF AND DUP2 JUMP JUMPDEST PUSH1 0x60 PUSH1 0x3 DUP1 SLOAD PUSH1 0x1 DUP2 PUSH1 0x1 AND ISZERO PUSH2 0x100 MUL SUB AND PUSH1 0x2 SWAP1 DIV DUP1 PUSH1 0x1F ADD PUSH1 0x20 DUP1 SWAP2 DIV MUL PUSH1 0x20 ADD PUSH1 0x40 MLOAD SWAP1 DUP2 ADD PUSH1 0x40 MSTORE DUP1 SWAP3 SWAP2 SWAP1 DUP2 DUP2 MSTORE PUSH1 0x20 ADD DUP3 DUP1 SLOAD PUSH1 0x1 DUP2 PUSH1 0x1 AND ISZERO PUSH2 0x100 MUL SUB AND PUSH1 0x2 SWAP1 DIV DUP1 ISZERO PUSH2 0xCE8 JUMPI DUP1 PUSH1 0x1F LT PUSH2 0xCBD JUMPI PUSH2 0x100 DUP1 DUP4 SLOAD DIV MUL DUP4 MSTORE SWAP2 PUSH1 0x20 ADD SWAP2 PUSH2 0xCE8 JUMP JUMPDEST DUP3 ADD SWAP2 SWAP1 PUSH1 0x0 MSTORE PUSH1 0x20 PUSH1 0x0 KECCAK256 SWAP1 JUMPDEST DUP2 SLOAD DUP2 MSTORE SWAP1 PUSH1 0x1 ADD SWAP1 PUSH1 0x20 ADD DUP1 DUP4 GT PUSH2 0xCCB JUMPI DUP3 SWAP1 SUB PUSH1 0x1F AND DUP3 ADD SWAP2 JUMPDEST POP POP POP POP POP SWAP1 POP SWAP1 JUMP JUMPDEST PUSH1 0x2 DUP2 DUP2 SLOAD DUP2 LT ISZERO ISZERO PUSH2 0xD01 JUMPI INVALID JUMPDEST SWAP1 PUSH1 0x0 MSTORE PUSH1 0x20 PUSH1 0x0 KECCAK256 SWAP1 PUSH1 0x2 MUL ADD PUSH1 0x0 SWAP2 POP SWAP1 POP DUP1 PUSH1 0x0 ADD SLOAD SWAP1 DUP1 PUSH1 0x1 ADD PUSH1 0x0 SWAP1 SLOAD SWAP1 PUSH2 0x100 EXP SWAP1 DIV PUSH1 0xFF AND SWAP1 DUP1 PUSH1 0x1 ADD PUSH1 0x1 SWAP1 SLOAD SWAP1 PUSH2 0x100 EXP SWAP1 DIV PUSH2 0xFFFF AND SWAP1 POP DUP4 JUMP JUMPDEST PUSH1 0x60 DUP1 PUSH1 0x0 DUP1 PUSH1 0x5 PUSH1 0x0 DUP7 PUSH20 0xFFFFFFFFFFFFFFFFFFFFFFFFFFFFFFFFFFFFFFFF AND PUSH20 0xFFFFFFFFFFFFFFFFFFFFFFFFFFFFFFFFFFFFFFFF AND DUP2 MSTORE PUSH1 0x20 ADD SWAP1 DUP2 MSTORE PUSH1 0x20 ADD PUSH1 0x0 KECCAK256 SLOAD PUSH1 0x40 MLOAD SWAP1 DUP1 DUP3 MSTORE DUP1 PUSH1 0x20 MUL PUSH1 0x20 ADD DUP3 ADD PUSH1 0x40 MSTORE DUP1 ISZERO PUSH2 0xDBA JUMPI DUP2 PUSH1 0x20 ADD PUSH1 0x20 DUP3 MUL DUP1 CODESIZE DUP4 CODECOPY DUP1 DUP3 ADD SWAP2 POP POP SWAP1 POP JUMPDEST POP SWAP3 POP PUSH1 0x0 SWAP2 POP PUSH1 0x0 SWAP1 POP JUMPDEST PUSH1 0x2 DUP1 SLOAD SWAP1 POP DUP2 LT ISZERO PUSH2 0xE6D JUMPI DUP5 PUSH20 0xFFFFFFFFFFFFFFFFFFFFFFFFFFFFFFFFFFFFFFFF AND PUSH1 0x4 PUSH1 0x0 DUP4 DUP2 MSTORE PUSH1 0x20 ADD SWAP1 DUP2 MSTORE PUSH1 0x20 ADD PUSH1 0x0 KECCAK256 PUSH1 0x0 SWAP1 SLOAD SWAP1 PUSH2 0x100 EXP SWAP1 DIV PUSH20 0xFFFFFFFFFFFFFFFFFFFFFFFFFFFFFFFFFFFFFFFF AND PUSH20 0xFFFFFFFFFFFFFFFFFFFFFFFFFFFFFFFFFFFFFFFF AND EQ ISZERO PUSH2 0xE60 JUMPI DUP1 DUP4 DUP4 DUP2 MLOAD DUP2 LT ISZERO ISZERO PUSH2 0xE49 JUMPI INVALID JUMPDEST SWAP1 PUSH1 0x20 ADD SWAP1 PUSH1 0x20 MUL ADD DUP2 DUP2 MSTORE POP POP DUP2 DUP1 PUSH1 0x1 ADD SWAP3 POP POP JUMPDEST DUP1 DUP1 PUSH1 0x1 ADD SWAP2 POP POP PUSH2 0xDC6 JUMP JUMPDEST DUP3 SWAP4 POP POP POP POP SWAP2 SWAP1 POP JUMP JUMPDEST DUP1 DUP3 PUSH20 0xFFFFFFFFFFFFFFFFFFFFFFFFFFFFFFFFFFFFFFFF AND CALLER PUSH20 0xFFFFFFFFFFFFFFFFFFFFFFFFFFFFFFFFFFFFFFFF AND PUSH32 0xDDF252AD1BE2C89B69C2B068FC378DAA952BA7F163C4A11628F55A4DF523B3EF PUSH1 0x40 MLOAD PUSH1 0x40 MLOAD DUP1 SWAP2 SUB SWAP1 LOG4 POP POP JUMP JUMPDEST PUSH1 0x3 DUP1 SLOAD PUSH1 0x1 DUP2 PUSH1 0x1 AND ISZERO PUSH2 0x100 MUL SUB AND PUSH1 0x2 SWAP1 DIV DUP1 PUSH1 0x1F ADD PUSH1 0x20 DUP1 SWAP2 DIV MUL PUSH1 0x20 ADD PUSH1 0x40 MLOAD SWAP1 DUP2 ADD PUSH1 0x40 MSTORE DUP1 SWAP3 SWAP2 SWAP1 DUP2 DUP2 MSTORE PUSH1 0x20 ADD DUP3 DUP1 SLOAD PUSH1 0x1 DUP2 PUSH1 0x1 AND ISZERO PUSH2 0x100 MUL SUB AND PUSH1 0x2 SWAP1 DIV DUP1 ISZERO PUSH2 0xF6D JUMPI DUP1 PUSH1 0x1F LT PUSH2 0xF42 JUMPI PUSH2 0x100 DUP1 DUP4 SLOAD DIV MUL DUP4 MSTORE SWAP2 PUSH1 0x20 ADD SWAP2 PUSH2 0xF6D JUMP JUMPDEST DUP3 ADD SWAP2 SWAP1 PUSH1 0x0 MSTORE PUSH1 0x20 PUSH1 0x0 KECCAK256 SWAP1 JUMPDEST DUP2 SLOAD DUP2 MSTORE SWAP1 PUSH1 0x1 ADD SWAP1 PUSH1 0x20 ADD DUP1 DUP4 GT PUSH2 0xF50 JUMPI DUP3 SWAP1 SUB PUSH1 0x1F AND DUP3 ADD SWAP2 JUMPDEST POP POP POP POP POP DUP2 JUMP JUMPDEST PUSH1 0x0 CALLER PUSH20 0xFFFFFFFFFFFFFFFFFFFFFFFFFFFFFFFFFFFFFFFF AND PUSH1 0x4 PUSH1 0x0 DUP5 DUP2 MSTORE PUSH1 0x20 ADD SWAP1 DUP2 MSTORE PUSH1 0x20 ADD PUSH1 0x0 KECCAK256 PUSH1 0x0 SWAP1 SLOAD SWAP1 PUSH2 0x100 EXP SWAP1 DIV PUSH20 0xFFFFFFFFFFFFFFFFFFFFFFFFFFFFFFFFFFFFFFFF AND PUSH20 0xFFFFFFFFFFFFFFFFFFFFFFFFFFFFFFFFFFFFFFFF AND EQ ISZERO ISZERO PUSH2 0xFE4 JUMPI PUSH1 0x0 DUP1 REVERT JUMPDEST PUSH2 0xFED DUP3 PUSH2 0xBA5 JUMP JUMPDEST SWAP1 POP PUSH2 0x1042 PUSH1 0x1 PUSH1 0x5 PUSH1 0x0 CALLER PUSH20 0xFFFFFFFFFFFFFFFFFFFFFFFFFFFFFFFFFFFFFFFF AND PUSH20 0xFFFFFFFFFFFFFFFFFFFFFFFFFFFFFFFFFFFFFFFF AND DUP2 MSTORE PUSH1 0x20 ADD SWAP1 DUP2 MSTORE PUSH1 0x20 ADD PUSH1 0x0 KECCAK256 SLOAD PUSH2 0x167F SWAP1 SWAP2 SWAP1 PUSH4 0xFFFFFFFF AND JUMP JUMPDEST PUSH1 0x5 PUSH1 0x0 CALLER PUSH20 0xFFFFFFFFFFFFFFFFFFFFFFFFFFFFFFFFFFFFFFFF AND PUSH20 0xFFFFFFFFFFFFFFFFFFFFFFFFFFFFFFFFFFFFFFFF AND DUP2 MSTORE PUSH1 0x20 ADD SWAP1 DUP2 MSTORE PUSH1 0x20 ADD PUSH1 0x0 KECCAK256 DUP2 SWAP1 SSTORE POP PUSH2 0x10D8 PUSH1 0x1 PUSH1 0x5 PUSH1 0x0 DUP5 PUSH20 0xFFFFFFFFFFFFFFFFFFFFFFFFFFFFFFFFFFFFFFFF AND PUSH20 0xFFFFFFFFFFFFFFFFFFFFFFFFFFFFFFFFFFFFFFFF AND DUP2 MSTORE PUSH1 0x20 ADD SWAP1 DUP2 MSTORE PUSH1 0x20 ADD PUSH1 0x0 KECCAK256 SLOAD PUSH2 0x169D SWAP1 SWAP2 SWAP1 PUSH4 0xFFFFFFFF AND JUMP JUMPDEST PUSH1 0x5 PUSH1 0x0 DUP4 PUSH20 0xFFFFFFFFFFFFFFFFFFFFFFFFFFFFFFFFFFFFFFFF AND PUSH20 0xFFFFFFFFFFFFFFFFFFFFFFFFFFFFFFFFFFFFFFFF AND DUP2 MSTORE PUSH1 0x20 ADD SWAP1 DUP2 MSTORE PUSH1 0x20 ADD PUSH1 0x0 KECCAK256 DUP2 SWAP1 SSTORE POP CALLER PUSH1 0x4 PUSH1 0x0 DUP5 DUP2 MSTORE PUSH1 0x20 ADD SWAP1 DUP2 MSTORE PUSH1 0x20 ADD PUSH1 0x0 KECCAK256 PUSH1 0x0 PUSH2 0x100 EXP DUP2 SLOAD DUP2 PUSH20 0xFFFFFFFFFFFFFFFFFFFFFFFFFFFFFFFFFFFFFFFF MUL NOT AND SWAP1 DUP4 PUSH20 0xFFFFFFFFFFFFFFFFFFFFFFFFFFFFFFFFFFFFFFFF AND MUL OR SWAP1 SSTORE POP PUSH32 0x9BBD814328E65758B36306475BBC61410445DD088C88681ED74C940DC604DB1A CALLER DUP3 DUP5 PUSH1 0x40 MLOAD DUP1 DUP5 PUSH20 0xFFFFFFFFFFFFFFFFFFFFFFFFFFFFFFFFFFFFFFFF AND PUSH20 0xFFFFFFFFFFFFFFFFFFFFFFFFFFFFFFFFFFFFFFFF AND DUP2 MSTORE PUSH1 0x20 ADD DUP4 PUSH20 0xFFFFFFFFFFFFFFFFFFFFFFFFFFFFFFFFFFFFFFFF AND PUSH20 0xFFFFFFFFFFFFFFFFFFFFFFFFFFFFFFFFFFFFFFFF AND DUP2 MSTORE PUSH1 0x20 ADD DUP3 DUP2 MSTORE PUSH1 0x20 ADD SWAP4 POP POP POP POP PUSH1 0x40 MLOAD DUP1 SWAP2 SUB SWAP1 LOG1 POP POP JUMP JUMPDEST PUSH1 0x4 PUSH1 0x20 MSTORE DUP1 PUSH1 0x0 MSTORE PUSH1 0x40 PUSH1 0x0 KECCAK256 PUSH1 0x0 SWAP2 POP SLOAD SWAP1 PUSH2 0x100 EXP SWAP1 DIV PUSH20 0xFFFFFFFFFFFFFFFFFFFFFFFFFFFFFFFFFFFFFFFF AND DUP2 JUMP JUMPDEST PUSH1 0x1 DUP1 SLOAD PUSH1 0x1 DUP2 PUSH1 0x1 AND ISZERO PUSH2 0x100 MUL SUB AND PUSH1 0x2 SWAP1 DIV DUP1 PUSH1 0x1F ADD PUSH1 0x20 DUP1 SWAP2 DIV MUL PUSH1 0x20 ADD PUSH1 0x40 MLOAD SWAP1 DUP2 ADD PUSH1 0x40 MSTORE DUP1 SWAP3 SWAP2 SWAP1 DUP2 DUP2 MSTORE PUSH1 0x20 ADD DUP3 DUP1 SLOAD PUSH1 0x1 DUP2 PUSH1 0x1 AND ISZERO PUSH2 0x100 MUL SUB AND PUSH1 0x2 SWAP1 DIV DUP1 ISZERO PUSH2 0x12D9 JUMPI DUP1 PUSH1 0x1F LT PUSH2 0x12AE JUMPI PUSH2 0x100 DUP1 DUP4 SLOAD DIV MUL DUP4 MSTORE SWAP2 PUSH1 0x20 ADD SWAP2 PUSH2 0x12D9 JUMP JUMPDEST DUP3 ADD SWAP2 SWAP1 PUSH1 0x0 MSTORE PUSH1 0x20 PUSH1 0x0 KECCAK256 SWAP1 JUMPDEST DUP2 SLOAD DUP2 MSTORE SWAP1 PUSH1 0x1 ADD SWAP1 PUSH1 0x20 ADD DUP1 DUP4 GT PUSH2 0x12BC JUMPI DUP3 SWAP1 SUB PUSH1 0x1F AND DUP3 ADD SWAP2 JUMPDEST POP POP POP POP POP DUP2 JUMP JUMPDEST PUSH1 0x0 DUP1 PUSH1 0x0 SWAP1 POP JUMPDEST DUP4 MLOAD DUP2 LT ISZERO PUSH2 0x1387 JUMPI PUSH1 0x4 PUSH1 0x0 DUP6 DUP4 DUP2 MLOAD DUP2 LT ISZERO ISZERO PUSH2 0x1304 JUMPI INVALID JUMPDEST SWAP1 PUSH1 0x20 ADD SWAP1 PUSH1 0x20 MUL ADD MLOAD DUP2 MSTORE PUSH1 0x20 ADD SWAP1 DUP2 MSTORE PUSH1 0x20 ADD PUSH1 0x0 KECCAK256 PUSH1 0x0 SWAP1 SLOAD SWAP1 PUSH2 0x100 EXP SWAP1 DIV PUSH20 0xFFFFFFFFFFFFFFFFFFFFFFFFFFFFFFFFFFFFFFFF AND PUSH20 0xFFFFFFFFFFFFFFFFFFFFFFFFFFFFFFFFFFFFFFFF AND DUP4 PUSH20 0xFFFFFFFFFFFFFFFFFFFFFFFFFFFFFFFFFFFFFFFF AND EQ ISZERO ISZERO PUSH2 0x137A JUMPI PUSH1 0x0 SWAP2 POP PUSH2 0x138C JUMP JUMPDEST DUP1 DUP1 PUSH1 0x1 ADD SWAP2 POP POP PUSH2 0x12E9 JUMP JUMPDEST PUSH1 0x1 SWAP2 POP JUMPDEST POP SWAP3 SWAP2 POP POP JUMP JUMPDEST PUSH1 0x0 DUP1 PUSH1 0x0 DUP1 PUSH1 0x1 PUSH1 0x2 PUSH1 0x60 PUSH1 0x40 MLOAD SWAP1 DUP2 ADD PUSH1 0x40 MSTORE DUP1 DUP8 PUSH1 0x0 NOT AND DUP2 MSTORE PUSH1 0x20 ADD DUP7 PUSH1 0xFF AND DUP2 MSTORE PUSH1 0x20 ADD DUP6 PUSH1 0xFF AND PUSH2 0xFFFF AND DUP2 MSTORE POP SWAP1 DUP1 PUSH1 0x1 DUP2 SLOAD ADD DUP1 DUP3 SSTORE DUP1 SWAP2 POP POP SWAP1 PUSH1 0x1 DUP3 SUB SWAP1 PUSH1 0x0 MSTORE PUSH1 0x20 PUSH1 0x0 KECCAK256 SWAP1 PUSH1 0x2 MUL ADD PUSH1 0x0 SWAP1 SWAP2 SWAP3 SWAP1 SWAP2 SWAP1 SWAP2 POP PUSH1 0x0 DUP3 ADD MLOAD DUP2 PUSH1 0x0 ADD SWAP1 PUSH1 0x0 NOT AND SWAP1 SSTORE PUSH1 0x20 DUP3 ADD MLOAD DUP2 PUSH1 0x1 ADD PUSH1 0x0 PUSH2 0x100 EXP DUP2 SLOAD DUP2 PUSH1 0xFF MUL NOT AND SWAP1 DUP4 PUSH1 0xFF AND MUL OR SWAP1 SSTORE POP PUSH1 0x40 DUP3 ADD MLOAD DUP2 PUSH1 0x1 ADD PUSH1 0x1 PUSH2 0x100 EXP DUP2 SLOAD DUP2 PUSH2 0xFFFF MUL NOT AND SWAP1 DUP4 PUSH2 0xFFFF AND MUL OR SWAP1 SSTORE POP POP POP SUB SWAP1 POP CALLER PUSH1 0x4 PUSH1 0x0 DUP4 DUP2 MSTORE PUSH1 0x20 ADD SWAP1 DUP2 MSTORE PUSH1 0x20 ADD PUSH1 0x0 KECCAK256 PUSH1 0x0 PUSH2 0x100 EXP DUP2 SLOAD DUP2 PUSH20 0xFFFFFFFFFFFFFFFFFFFFFFFFFFFFFFFFFFFFFFFF MUL NOT AND SWAP1 DUP4 PUSH20 0xFFFFFFFFFFFFFFFFFFFFFFFFFFFFFFFFFFFFFFFF AND MUL OR SWAP1 SSTORE POP PUSH1 0x5 PUSH1 0x0 CALLER PUSH20 0xFFFFFFFFFFFFFFFFFFFFFFFFFFFFFFFFFFFFFFFF AND PUSH20 0xFFFFFFFFFFFFFFFFFFFFFFFFFFFFFFFFFFFFFFFF AND DUP2 MSTORE PUSH1 0x20 ADD SWAP1 DUP2 MSTORE PUSH1 0x20 ADD PUSH1 0x0 KECCAK256 PUSH1 0x0 DUP2 SLOAD DUP1 SWAP3 SWAP2 SWAP1 PUSH1 0x1 ADD SWAP2 SWAP1 POP SSTORE POP POP POP POP POP JUMP JUMPDEST PUSH1 0x0 DUP1 SWAP1 SLOAD SWAP1 PUSH2 0x100 EXP SWAP1 DIV PUSH20 0xFFFFFFFFFFFFFFFFFFFFFFFFFFFFFFFFFFFFFFFF AND PUSH20 0xFFFFFFFFFFFFFFFFFFFFFFFFFFFFFFFFFFFFFFFF AND CALLER PUSH20 0xFFFFFFFFFFFFFFFFFFFFFFFFFFFFFFFFFFFFFFFF AND EQ ISZERO ISZERO PUSH2 0x154D JUMPI PUSH1 0x0 DUP1 REVERT JUMPDEST PUSH1 0x0 PUSH20 0xFFFFFFFFFFFFFFFFFFFFFFFFFFFFFFFFFFFFFFFF AND DUP2 PUSH20 0xFFFFFFFFFFFFFFFFFFFFFFFFFFFFFFFFFFFFFFFF AND EQ ISZERO ISZERO ISZERO PUSH2 0x1589 JUMPI PUSH1 0x0 DUP1 REVERT JUMPDEST DUP1 PUSH20 0xFFFFFFFFFFFFFFFFFFFFFFFFFFFFFFFFFFFFFFFF AND PUSH1 0x0 DUP1 SWAP1 SLOAD SWAP1 PUSH2 0x100 EXP SWAP1 DIV PUSH20 0xFFFFFFFFFFFFFFFFFFFFFFFFFFFFFFFFFFFFFFFF AND PUSH20 0xFFFFFFFFFFFFFFFFFFFFFFFFFFFFFFFFFFFFFFFF AND PUSH32 0x8BE0079C531659141344CD1FD0A4F28419497F9722A3DAAFE3B4186F6B6457E0 PUSH1 0x40 MLOAD PUSH1 0x40 MLOAD DUP1 SWAP2 SUB SWAP1 LOG3 DUP1 PUSH1 0x0 DUP1 PUSH2 0x100 EXP DUP2 SLOAD DUP2 PUSH20 0xFFFFFFFFFFFFFFFFFFFFFFFFFFFFFFFFFFFFFFFF MUL NOT AND SWAP1 DUP4 PUSH20 0xFFFFFFFFFFFFFFFFFFFFFFFFFFFFFFFFFFFFFFFF AND MUL OR SWAP1 SSTORE POP POP JUMP JUMPDEST PUSH1 0x0 PUSH1 0x2 DUP3 DUP2 SLOAD DUP2 LT ISZERO ISZERO PUSH2 0x1658 JUMPI INVALID JUMPDEST SWAP1 PUSH1 0x0 MSTORE PUSH1 0x20 PUSH1 0x0 KECCAK256 SWAP1 PUSH1 0x2 MUL ADD PUSH1 0x1 ADD PUSH1 0x1 SWAP1 SLOAD SWAP1 PUSH2 0x100 EXP SWAP1 DIV PUSH2 0xFFFF AND SWAP1 POP SWAP2 SWAP1 POP JUMP JUMPDEST PUSH1 0x0 DUP1 DUP3 DUP5 ADD SWAP1 POP DUP4 DUP2 LT ISZERO ISZERO ISZERO PUSH2 0x1693 JUMPI INVALID JUMPDEST DUP1 SWAP2 POP POP SWAP3 SWAP2 POP POP JUMP JUMPDEST PUSH1 0x0 DUP3 DUP3 GT ISZERO ISZERO ISZERO PUSH2 0x16AB JUMPI INVALID JUMPDEST DUP2 DUP4 SUB SWAP1 POP SWAP3 SWAP2 POP POP JUMP STOP LOG1 PUSH6 0x627A7A723058 KECCAK256 DUP14 PUSH8 0x420BE6183146547E SGT 0x46 0xd2 0xd3 SLT 0xce SAR MULMOD PUSH14 0xFF1FA6062705995E18624F99F400 0x29 "
				},
				"gasEstimates": {
					"creation": {
						"codeDepositCost": "1171600",
						"executionCost": "infinite",
						"totalCost": "infinite"
					},
					"external": {
						"animalToOwner(uint256)": "893",
						"animals(uint256)": "1622",
						"approve(address,uint256)": "22869",
						"balanceOf(address)": "713",
						"checkAllOwner(uint256[],address)": "infinite",
						"createAnimal()": "107328",
						"getAnimalByOwner(address)": "infinite",
						"name()": "infinite",
						"name_()": "infinite",
						"owner()": "618",
						"ownerOf(uint256)": "721",
						"seeAnimalDna(uint256)": "828",
						"seeAnimalRole(uint256)": "1304",
						"seeAnimalStar(uint256)": "924",
						"symbol()": "infinite",
						"symbol_()": "infinite",
						"takeOwnership(uint256)": "infinite",
						"totalSupply()": "476",
						"transfer(address,uint256)": "2412",
						"transferFrom(address,address,uint256)": "2272",
						"transferOwnership(address)": "22983"
					}
				},
				"methodIdentifiers": {
					"animalToOwner(uint256)": "d81c513a",
					"animals(uint256)": "998dd3ca",
					"approve(address,uint256)": "095ea7b3",
					"balanceOf(address)": "70a08231",
					"checkAllOwner(uint256[],address)": "ea7cabdd",
					"createAnimal()": "ecaf39b0",
					"getAnimalByOwner(address)": "9af636e5",
					"name()": "06fdde03",
					"name_()": "e2b9e186",
					"owner()": "8da5cb5b",
					"ownerOf(uint256)": "6352211e",
					"seeAnimalDna(uint256)": "0c379520",
					"seeAnimalRole(uint256)": "f34674d6",
					"seeAnimalStar(uint256)": "36363d14",
					"symbol()": "95d89b41",
					"symbol_()": "af17dea6",
					"takeOwnership(uint256)": "b2e6ceeb",
					"totalSupply()": "18160ddd",
					"transfer(address,uint256)": "a9059cbb",
					"transferFrom(address,address,uint256)": "23b872dd",
					"transferOwnership(address)": "f2fde38b"
				}
			},
			"userdoc": {
				"methods": {}
			}
		}
	}
}